:020000040000FA
:04000000D9EF10F034
:020004000000FA
:08000800828AA394A494100065
:080018005B6ED8385C6EE9CF85
:100020005EF0EACF5DF00001F2B0A6EC05F0F2B4AC
:1000300029EC00F09EB0DEEF0CF09EBABAEC06F0B0
:100040005EC0E9FF5DC0EAFF5C38D86E5B3A5B38A2
:100050001000F294D59ED60ED66ED58EE2CF5FF00C
:10006000E1CF60F0A551000FD8A43EEF00F0A651FB
:10007000000FD8A43EEF00F053EF00F05A2E85EFAA
:1000800005F0040E5A6EA607D8B049EF00F0D890DC
:10009000A507A551000FD8A485EF05F0A651000FC4
:1000A000D8A485EF05F044C3E8FF000FD8A47DEF86
:1000B00002F045C3E8FF000FD8A47DEF02F046C36D
:1000C000E8FF000FD8A47DEF02F0D9EC13F003EEA7
:1000D00023F013EE24F096EC05F004BE8AEF00F056
:1000E000E7AC79EF00F0E738030B655DD8A48AEF41
:1000F00000F067B18AEF00F0ADA183EF00F08090CF
:10010000EF9085EF00F08080EF8001C325F300C3FE
:1001100024F3678113EE26F096EC05F004BEABEFF6
:1001200000F0E7AC9AEF00F0E738030B655DD8A468
:10013000ABEF00F067B3ABEF00F0ADA3A4EF00F0BE
:100140008092EF92A6EF00F08082EF8203C327F344
:1001500002C326F3678313EE28F096EC05F004BE85
:10016000CCEF00F0E7ACBBEF00F0E738030B655DC8
:10017000D8A4CCEF00F067B5CCEF00F0ADA5C5EF8B
:1001800000F08094EF94C7EF00F08084EF8405C303
:1001900029F304C328F3678513EE2AF096EC05F0E3
:1001A00004BEEDEF00F0E7ACDCEF00F0E738030B46
:1001B000655DD8A4EDEF00F067B7EDEF00F0ADA7F7
:1001C000E6EF00F08096EF96E8EF00F08086EF868D
:1001D00007C32BF306C32AF3678713EE2CF096ECC4
:1001E00005F004BE0EEF01F0E7ACFDEF00F0E738DC
:1001F000030B655DD8A40EEF01F067B90EEF01F0B7
:10020000ADA907EF01F0809AEF9809EF01F0808A1D
:10021000EF8809C32DF308C32CF3678913EE2EF082
:1002200096EC05F004BE2FEF01F0E7AC1EEF01F0F5
:10023000E738030B655DD8A42FEF01F067BB2FEF04
:1002400001F0ADAB28EF01F08490EF9A2AEF01F0B6
:100250008480EF8A0BC32FF30AC32EF3678B13EE50
:1002600030F096EC05F004BE50EF01F0E7AC3FEF44
:1002700001F0E738030B655DD8A450EF01F067BDCE
:1002800050EF01F0ADAD49EF01F08492EF9C4BEFE0
:1002900001F08482EF8C0DC331F30CC330F3678D12
:1002A00013EE32F096EC05F004BE71EF01F0E7AC0E
:1002B00060EF01F0E738030B655DD8A471EF01F042
:1002C00067BF71EF01F0ADAF6AEF01F08494EF9E6C
:1002D0006CEF01F08484EF8E0FC333F30EC332F35F
:1002E000678F03EE22F013EE34F096EC05F004BEB7
:1002F00094EF01F0E7AC83EF01F0E738030B655DA5
:10030000D8A494EF01F066B194EF01F0ACA18DEFA9
:1003100001F08390EF908FEF01F08380EF8011C3A5
:1003200035F310C334F3668113EE36F096EC05F026
:1003300004BEB5EF01F0E7ACA4EF01F0E738030B22
:10034000655DD8A4B5EF01F066B3B5EF01F0ACA3DD
:10035000AEEF01F08392EF92B0EF01F08382EF8273
:1003600013C337F312C336F3668313EE38F096ECFB
:1003700005F004BED6EF01F0E7ACC5EF01F0E738B9
:10038000030B655DD8A4D6EF01F066B5D6EF01F09A
:10039000ACA5CFEF01F08394EF94D1EF01F083840B
:1003A000EF8415C339F314C338F3668513EE3AF0BE
:1003B00096EC05F004BEF7EF01F0E7ACE6EF01F0D4
:1003C000E738030B655DD8A4F7EF01F066B7F7EFE8
:1003D00001F0ACA7F0EF01F08396EF96F2EF01F099
:1003E0008386EF8617C33BF316C33AF3668713EE93
:1003F0003CF096EC05F004BE18EF02F0E7AC07EF16
:1004000002F0E738030B655DD8A418EF02F066B977
:1004100018EF02F0ACA911EF02F08398EF9813EFF8
:1004200002F08388EF8819C33DF318C33CF3668953
:1004300013EE3EF096EC05F004BE39EF02F0E7ACA7
:1004400028EF02F0E738030B655DD8A439EF02F01E
:1004500066BB39EF02F0ACAB32EF02F0839AEF9A51
:1004600034EF02F0838AEF8A1BC33FF31AC33EF3D3
:10047000668B13EE40F096EC05F004BE5AEF02F0E6
:10048000E7AC49EF02F0E738030B655DD8A45AEFFB
:1004900002F066BD5AEF02F0ACAD53EF02F0839C60
:1004A000EF9C55EF02F0838CEF8C1DC341F31CC30E
:1004B00040F3668D13EE42F096EC05F004BE7BEF40
:1004C00002F0E7AC6AEF02F0E738030B655DD8A4F1
:1004D0007BEF02F066BF7BEF02F0ACAF74EF02F08F
:1004E000839EEF9E76EF02F0838EEF8E1FC343F361
:1004F0001EC342F3668FD8EF02F044C3A9F045C390
:10050000AAF046C3ABF0D890AB07D8B08FEF02F09B
:10051000D890AA07D8B08FEF02F0D890A907A9C049
:1005200044F3AAC045F3ABC046F344C3E8FF000F51
:10053000D8A4A9EF02F045C3E8FF000FD8A4A9EFA3
:1005400002F046C3E8FF000FD8A4A9EF02F065EF60
:1005500000F04CC3A9F04DC3AAF0D890AA07D8B0B8
:10056000B4EF02F0D890A907A9C04CF3AAC04DF38C
:100570004DC3E8FF000FD8A4D8EF02F04CC3E8FF4A
:10058000000FD8A4D8EF02F04AC34CF34BC34DF38D
:1005900065C0E8FF010FE8CF65F065C0E8FF04081B
:1005A000D8A467EF00F0000EE8CF65F067EF00F029
:1005B0005A2E85EF05F0040E5A6E03EE23F013EE6B
:1005C00024F096EC05F004BEF0EF02F067A109EF0D
:1005D00003F08EEC05F096EC05F004AE09EF03F0A5
:1005E000ADA1F7EF02F08080EF80F9EF02F080908C
:1005F000EF90679100C324F301C325F3E7BE09EF31
:1006000003F024C3E8FFF00BE8CF24F3000EE8CF9B
:1006100025F313EE26F096EC05F004BE1AEF03F076
:1006200067A333EF03F08EEC05F096EC05F004AE13
:1006300033EF03F0ADA321EF03F08082EF8223EFCD
:1006400003F08092EF92679302C326F303C327F36C
:10065000E7BE33EF03F026C3E8FFF00BE8CF26F345
:10066000000EE8CF27F313EE28F096EC05F004BE59
:1006700044EF03F067A55DEF03F08EEC05F096EC18
:1006800005F004AE5DEF03F0ADA54BEF03F0808401
:10069000EF844DEF03F08094EF94679504C328F343
:1006A00005C329F3E7BE5DEF03F028C3E8FFF00BB5
:1006B000E8CF28F3000EE8CF29F313EE2AF096ECEA
:1006C00005F004BE6EEF03F067A787EF03F08EEC32
:1006D00005F096EC05F004AE87EF03F0ADA775EFDB
:1006E00003F08086EF8677EF03F08096EF966797AA
:1006F00006C32AF307C32BF3E7BE87EF03F02AC331
:10070000E8FFF00BE8CF2AF3000EE8CF2BF313EE4F
:100710002CF096EC05F004BE98EF03F067A9B1EF5A
:1007200003F08EEC05F096EC05F004AEB1EF03F0AB
:10073000ADA99FEF03F0808AEF88A1EF03F0809AC4
:10074000EF98679908C32CF309C32DF3E7BEB1EF07
:1007500003F02CC3E8FFF00BE8CF2CF3000EE8CF3A
:100760002DF313EE2EF096EC05F004BEC2EF03F06D
:1007700067ABDBEF03F08EEC05F096EC05F004AE12
:10078000DBEF03F0ADABC9EF03F08480EF8ACBEF72
:1007900003F08490EF9A679B0AC32EF30BC32FF3E9
:1007A000E7BEDBEF03F02EC3E8FFF00BE8CF2EF33C
:1007B000000EE8CF2FF313EE30F096EC05F004BEF8
:1007C000ECEF03F067AD05EF04F08EEC05F096EC6E
:1007D00005F004AE05EF04F0ADADF3EF03F0848255
:1007E000EF8CF5EF03F08492EF9C679D0CC330F320
:1007F0000DC331F3E7BE05EF04F030C3E8FFF00BA3
:10080000E8CF30F3000EE8CF31F313EE32F096EC80
:1008100005F004BE16EF04F067AF2FEF04F08EEC86
:1008200005F096EC05F004AE2FEF04F0ADAF1DEF30
:1008300004F08484EF8E1FEF04F08494EF9E679F92
:100840000EC332F30FC333F3E7BE2FEF04F032C30E
:10085000E8FFF00BE8CF32F3000EE8CF33F313EEEE
:1008600034F003EE22F096EC05F004BE42EF04F003
:1008700066A15BEF04F08EEC05F096EC05F004AE9B
:100880005BEF04F0ACA149EF04F08380EF804BEF05
:1008900004F08390EF90669110C334F311C335F3E5
:1008A000E7BE5BEF04F034C3E8FFF00BE8CF34F3AE
:1008B000000EE8CF35F313EE36F096EC05F004BEEB
:1008C0006CEF04F066A385EF04F08EEC05F096EC77
:1008D00005F004AE85EF04F0ACA373EF04F083825F
:1008E000EF8275EF04F08392EF92669312C336F3B2
:1008F00013C337F3E7BE85EF04F036C3E8FFF00B10
:10090000E8CF36F3000EE8CF37F313EE38F096EC6D
:1009100005F004BE96EF04F066A5AFEF04F08EEC90
:1009200005F096EC05F004AEAFEF04F0ACA59DEF3A
:1009300004F08384EF849FEF04F08394EF94669532
:1009400014C338F315C339F3E7BEAFEF04F038C36F
:10095000E8FFF00BE8CF38F3000EE8CF39F313EEE1
:100960003AF096EC05F004BEC0EF04F066A7D9EFAC
:1009700004F08EEC05F096EC05F004AED9EF04F02F
:10098000ACA7C7EF04F08386EF86C9EF04F0839627
:10099000EF96669716C33AF317C33BF3E7BED9EF5A
:1009A00004F03AC3E8FFF00BE8CF3AF3000EE8CFCB
:1009B0003BF313EE3CF096EC05F004BEEAEF04F0D6
:1009C00066A903EF05F08EEC05F096EC05F004AE99
:1009D00003EF05F0ACA9F1EF04F08388EF88F3EFA3
:1009E00004F08398EF98669918C33CF319C33DF35C
:1009F000E7BE03EF05F03CC3E8FFF00BE8CF3CF3A4
:100A0000000EE8CF3DF313EE3EF096EC05F004BE89
:100A100014EF05F066AB2DEF05F08EEC05F096ECCB
:100A200005F004AE2DEF05F0ACAB1BEF05F0838AAB
:100A3000EF8A1DEF05F0839AEF9A669B1AC33EF387
:100A40001BC33FF3E7BE2DEF05F03EC3E8FFF00BFD
:100A5000E8CF3EF3000EE8CF3FF313EE40F096EC04
:100A600005F004BE3EEF05F066AD57EF05F08EECE5
:100A700005F096EC05F004AE57EF05F0ACAD45EF90
:100A800005F0838CEF8C47EF05F0839CEF9C669D0F
:100A90001CC340F31DC341F3E7BE57EF05F040C34D
:100AA000E8FFF00BE8CF40F3000EE8CF41F313EE80
:100AB00042F096EC05F004BE68EF05F066AF81EFFA
:100AC00005F08EEC05F096EC05F004AE81EF05F034
:100AD000ACAF6FEF05F0838EEF8E71EF05F0839E64
:100AE000EF9E669F1EC342F31FC343F3E7BE81EF31
:100AF00005F042C3E8FFF00BE8CF42F3000EE8CF69
:100B000043F3D890A82BD8B0A72B5FC0E2FF60C0FA
:100B1000E1FF64C0E9FF63C0EAFF1200E650D8902D
:100B2000E506D8B01200E506E6501200049EE65035
:100B30000F0B000FD8A4A4EF05F0E650000FD8A4C7
:100B4000A3EF05F0048EE550E550120081503A6E97
:100B50000218366E36B0C1EF05F036B2D0EF05F0B0
:100B600036B4DFEF05F036B6EEEF05F036B8FDEF40
:100B700005F036BA0FEF06F036BC21EF06F033EF82
:100B800006F03AA0C7EF05F0028043EF06F00290AE
:100B900037A0CDEF05F043EF06F0378043EF06F0C6
:100BA0003AA2D6EF05F0028243EF06F0029237A296
:100BB000DCEF05F043EF06F0378243EF06F03AA48E
:100BC000E5EF05F0028443EF06F0029437A4EBEF63
:100BD00005F043EF06F0378443EF06F03AA6F4EF52
:100BE00005F0028643EF06F0029637A6FAEF05F00D
:100BF00043EF06F0378643EF06F0E1BB7CEF06F0EB
:100C00003AA806EF06F0028843EF06F0029837A8EC
:100C10000CEF06F043EF06F0378843EF06F0E1BB38
:100C20006BEF06F03AAA18EF06F0028A43EF06F0DF
:100C3000029A37AA1EEF06F043EF06F0378A43EF19
:100C400006F0E1BD5AEF06F03AAC2AEF06F0028C4E
:100C500043EF06F0029C37AC30EF06F043EF06F0AE
:100C6000378C43EF06F0E1BD49EF06F03AAE3CEFBA
:100C700006F0028E43EF06F0029E37AE42EF06F01A
:100C800043EF06F0378E3A500218D8A41200F290C3
:100C900012000F019D9A00013ABEAEEF06F0029ECF
:100CA00003B843EF06F08DEC06F099EC06F03B2A12
:100CB00043EF06F00F019D9A00013ABCB1EF06F038
:100CC000029C03B843EF06F08DEC06F09CEC06F0B6
:100CD0003B2A43EF06F00F019D9A00013ABAB4EFA8
:100CE00006F0029A03BC43EF06F093EC06F099EC91
:100CF00006F03C2A43EF06F00F019D9A00013AB836
:100D0000B7EF06F0029803BC43EF06F093EC06F051
:100D10009CEC06F03C2A43EF06F0030E386E038A83
:100D200000EEC9F01200030E396E038E00EED1F012
:100D30001200D8809DEF06F0D890EF36E906EF3626
:100D4000E906EF36E906EF36E906EF36E906EF3653
:100D5000E906EF36E906EF36E9061200028E43EFA8
:100D600006F0028C43EF06F0028A43EF06F0028899
:100D700043EF06F004009E9A0F01AB500001060BF2
:100D8000D8A457EF07F04CEC07F015506208D8A034
:100D900051EF07F016800F01AE500001146E04EE03
:100DA000C9F01550D890E926D8B0EA2A1450EF6E51
:100DB000152A15500108D8B4F5EF06F015500208B1
:100DC000D8A4F5EF06F014504508D8A4ECEF06F0CF
:100DD0000C0E126EBEEF0CF014501008D8A4F5EFF4
:100DE00006F0070E126EBEEF0CF01550125CD8A480
:100DF000BEEF0CF0CAC4E8FF1008D8A40AEF07F051
:100E000016B20AEF07F0CFC4E8FF020F12261682CF
:100E1000BEEF0CF0FF0E1B6E1C6E12061204156E58
:100E200004EEC9F0829AA494A384EF50A4EC12F0CB
:100E3000E92A152E15EF07F01C50EF5CD8A42DEF12
:100E400007F0E92A1B50EF5CD8A42DEF07F00486C9
:100E500016900F019D9A0001120000000000000092
:100E60000000A7EF0CF000000000000000000000F0
:100E7000000000000000E3C0E8FFCFEC12F000002B
:100E8000000000000000EF50CFEC12F00000000066
:100E900000000000A9EF0CF00000000000000000BE
:100EA00012000000000000000000A7EF0CF000009E
:100EB0000000000000008398A7EF0CF00000000085
:100EC00000000000120004EEC9F0E3C0E8FFEF5C90
:100ED000D8B472EF07F0079AEF50000FD8A433EFA1
:100EE00007F0078A8BEC07F0E92AEF500308D8B423
:100EF0009FEF07F0EF500608D8B40DEF08F0EF5061
:100F00004508D8B4E7EF08F0EF501008D8B46FEFF9
:100F100008F085EF0CF016881E0E006EE8C0E8FFA2
:100F20000B6EE9C0E8FF0C6E82860394ECC0E8FF0C
:100F30000F6EEDC0E8FF106E8298039612000798BE
:100F400079EC09F0D8A0A8EF07F0169C88EF0CF018
:100F5000D3EC0AF0D8B088EF0CF007BAABEF0CF086
:100F6000168C16AEBBEF07F0CEC4E8FF0108D8A47C
:100F7000BBEF07F0169C16ACC3EF07F0FF0E1F5235
:100F8000316A326A169C169A04BACFEF07F000EE67
:100F9000ACF0CCC408F00834E926D8B0EA2ACDC4B5
:100FA000E8FF116ECEC408F00834126E50EC09F060
:100FB0001250E66EA4EC12F0152A04A2E4EF07F03A
:100FC000A40EE926D8B0EA2AEE50E66EA4EC12F0A0
:100FD000152A122EE4EF07F004A00BEF08F003A887
:100FE000FDEF07F03B6A0398C06BC26BC36BC46B29
:100FF000C56BC66BC76BC86BC96B03AC0BEF08F056
:101000003C6A039CC16BCA6BCB6BCC6BCD6BCE6B5C
:10101000CF6BD06BD16B32EF09F0078879EC09F018
:10102000D8B088EF0CF0D3EC0AF0D8B088EF0CF011
:1010300016B688EF0CF004BA2DEF08F000EEACF015
:10104000CCC408F00834E926D8B0EA2A04A22DEF6F
:1010500008F0A50EE926D8B0EA2ACDC4E8FFEE6E66
:1010600004BCE66ECEC4E8FFEF6E04BCE66E16AEBE
:1010700048EF08F0ACC0E8FF836EADC035F00F0B51
:10108000806E35B8808AD89035323538070B846E3B
:10109000169E07A650EF08F0D9EC13F02EEC14F0D2
:1010A00007BAABEF0CF050EC09F02AC5E8FFE66E8A
:1010B000A4EC12F0152A2BC5E8FFE66EA4EC12F0A2
:1010C000152ACDC4E8FFE66EA4EC12F0152ACEC4B2
:1010D000E8FFE66EA4EC12F0152A32EF09F0CCC45A
:1010E000E8FF6308D8B088EF0CF0CCC4E8FF7308C1
:1010F000D8A088EF0CF0CCC408F0640E085CE8CFF0
:1011000008F003EE00F013EE24F0D8900834E9263E
:10111000D8B0EA2AD8900834E126D8B0E22AEACF3B
:1011200019F0E9CF1AF0CDC4E8FF000FD8A488EF7A
:101130000CF0CEC4E8FFD8901A26D8B0192A030EB6
:101140001964A5EF08F088EF0CF01962AEEF08F013
:10115000200E1A64AEEF08F088EF0CF0CD51116E3E
:10116000CEC412F012361150000F0008D8A4BFEF01
:1011700008F01250000F0008D8B488EF0CF024EEED
:10118000D0F0DFCFE6FFDECFEEFF122EC1EF08F08A
:1011900007BAABEF0CF050EC09F0CBC4E8FFE66EF9
:1011A000A4EC12F0152ACCC4E8FFE66EA4EC12F011
:1011B000152ACDC4E8FFE66EA4EC12F0152ACEC4C1
:1011C000E8FFE66EA4EC12F0152A32EF09F0169E45
:1011D0000788E92AD7C0E8FFEF5CD8A4ABEF0CF092
:1011E000E92AD9C0E8FFEF5CD8A4ABEF0CF0168A6F
:1011F000E92AE92AE92AEE50E8CFDFF0000EE8CF2D
:10120000DEF0EE50E8CFE1F0000EE8CFE0F0E3C012
:1012100008F0EE50000EE8CFE2F0EF50E8CFE5F036
:10122000000EE8CFE4F007BAABEF0CF050EC09F099
:1012300008C0E3F0D7C0E8FFE66EA4EC12F0152A70
:10124000D9C0E8FFE66EA4EC12F0152AD7C0E8FF7B
:10125000E66EA4EC12F0152AD9C0E8FFE66EA4EC05
:1012600012F0152A1C50E66E152A1B50E66E152A40
:1012700061EC09F014EEC9F0828AE650CFEC12F06E
:10128000152E3DEF09F0829A16AAABEF0CF0F29EF4
:10129000F29C3FEC14F0F28EF28C169AABEF0CF04D
:1012A00014EEC9F0FF0E1B6E1C6E156AE3C0E8FF5A
:1012B000E66EA4EC12F0152AE650A4EC12F0152A02
:1012C0001200920EB26EF80EB36EA192A092310E81
:1012D000B16EA1A269EF09F0000EB16EA192A092C9
:1012E000120019501B5CD8A478EF09F01A501C5C4E
:1012F0001200CBC419F0CCC41AF0000E1B6E120EF3
:101300001C6E71EC09F0D8A08CEF09F0000E196E7C
:10131000140E1A6EB2EF0AF0CBC419F0CCC41AF056
:10132000000E1B6E730E1C6E71EC09F0D8A0A8EFB6
:1013300009F0000E1B6E630E1C6E71EC09F0D8B044
:10134000D1EF0AF0000E196E750E1A6EB2EF0AF0A8
:10135000CBC419F0CCC41AF0000E1B6E970E1C6E95
:1013600071EC09F0D8A0C4EF09F0000E1B6E940ECA
:101370001C6E71EC09F0D8B0D1EF0AF0000E196EB6
:10138000990E1A6EB2EF0AF0CBC419F0CCC41AF061
:10139000010E1B6E030E1C6E71EC09F0D8A0E0EF7D
:1013A00009F0000E1B6EFF0E1C6E71EC09F0D8B038
:1013B000D1EF0AF0010E196E050E1A6EB2EF0AF0A7
:1013C000CBC419F0CCC41AF0010E1B6E170E1C6EA4
:1013D00071EC09F0D8A0FCEF09F0010E1B6E0D0EA8
:1013E0001C6E71EC09F0D8B0D1EF0AF0010E196E45
:1013F000190E1A6EB2EF0AF0CBC419F0CCC41AF071
:10140000010E1B6E9F0E1C6E71EC09F0D8A018EF38
:101410000AF0010E1B6E8F0E1C6E71EC09F0D8B035
:10142000D1EF0AF0010E196EA10E1A6EB2EF0AF09A
:10143000CBC419F0CCC41AF0010E1B6EF30E1C6E57
:1014400071EC09F0D8A034EF0AF0010E1B6EF10E1A
:101450001C6E71EC09F0D8B0D1EF0AF0010E196ED4
:10146000F50E1A6EB2EF0AF0CBC419F0CCC41AF024
:10147000020E1B6E600E1C6E71EC09F0D8A050EFCE
:101480000AF0020E1B6E570E1C6E71EC09F0D8B0FC
:10149000D1EF0AF0020E196E620E1A6EB2EF0AF068
:1014A000CBC419F0CCC41AF0020E1B6EAD0E1C6E2C
:1014B00071EC09F0D8A06CEF0AF0020E1B6E890ED9
:1014C0001C6E71EC09F0D8B0D1EF0AF0020E196E63
:1014D000AF0E1A6EB2EF0AF0CBC419F0CCC41AF0FA
:1014E000020E1B6EDF0E1C6E71EC09F0D8A088EFA7
:1014F0000AF0020E1B6EBB0E1C6E71EC09F0D8B028
:10150000D1EF0AF0020E196EE10E1A6EB2EF0AF078
:10151000CBC419F0CCC41AF0030E1B6E110E1C6E56
:1015200071EC09F0D8A0A4EF0AF0020E1B6EED0ECC
:101530001C6E71EC09F0D8B0D1EF0AF0030E196EF1
:10154000130E1A6EB2EF0AF0CBC4E8FF0308D8A45A
:10155000D1EF0AF0CCC4E8FFE708D8A4D1EF0AF035
:10156000CFEF0AF0CAC4E8FF0608D8B4CFEF0AF0FC
:10157000CAC4E8FF4508D8B4CFEF0AF0CCC41CF0C9
:10158000CBC41BF0CEC4E8FF1C26D8B01B2ACDC4A8
:10159000E8FF1B2671EC09F0D8B0D1EF0AF0D89023
:1015A0001200D8801200169C169E04900492049A91
:1015B000049C07961696CCC4E8FFE8CF2BF5CBC465
:1015C000E8FFE8CF2AF5000FD8A4F0EF0AF0CCC46A
:1015D000E8FF000FD8A4F0EF0AF0168E80EF0CF0B1
:1015E000CCC4E8FFFF08D8B42BEF0BF0CBC4E8FF66
:1015F000000FD8A42BEF0BF0CCC4E8FF2308D8B021
:10160000A9EF0BF0CCC4E8FF9508D8B43AEF0CF082
:10161000CCC4E8FF9608D8B427EF0CF0CCC4E8FFA0
:101620009708D8B431EF0CF0D8A082EF0CF0CCC4FE
:10163000E8FF6308D8B082EF0CF0CCC4E8FF730871
:10164000D8A082EF0CF00DEF0CF01686000EE8CF5C
:10165000CBF480EF0CF0CBC4E8FF0208D8B4BCEFA9
:101660000BF0CBC4E8FF0308D8B4BCEF0BF0CBC43D
:10167000E8FF0108D8A44DEF0BF0CCC408F0F20E3F
:10168000085CD8A04DEF0BF05D0EE8CFCCF4000E57
:10169000E8CFCBF4048225EF0BF0CBC408F0010EA9
:1016A000085CD8A05BEF0BF00482CCC4E8FF8F0885
:1016B000D8A0B1EF0BF00492CCC4E8FF0008D8A486
:1016C00067EF0BF0130EE8CFCCF425EF0BF0CCC492
:1016D000E8FF0108D8A472EF0BF0140EE8CFCCF4A9
:1016E00025EF0BF0CCC4E8FF0208D8A47DEF0BF087
:1016F000150EE8CFCCF425EF0BF0CCC4E8FF0308BF
:10170000D8A488EF0BF0160EE8CFCCF425EF0BF041
:10171000CCC4E8FF0D08D8B082EF0CF0CCC4E8FFD1
:101720001708D8A082EF0CF0168ACCC4E8FF110885
:10173000D8A49EEF0BF00380000E0C6ECCC4E8FF23
:10174000090FE8CFCCF4000EE8CFCBF4169680EF6B
:101750000CF0168CCCC4E8FF0A08D8B4048025EF3E
:101760000BF0CCC408F0700E085CE8CFCCF4000E8F
:10177000E8CFCBF4A6EF0BF0CBC4E8FF0308D8A466
:10178000DDEF0BF0CCC4E8FFE708D8A4DDEF0BF0E9
:10179000CAC4E8FF0608D8A482EF0CF0CDC4E8FF65
:1017A000DE08D8A482EF0CF0CEC4E8FFAD08D8A4C0
:1017B00082EF0CF0F29EF29CFF00CBC4E8FF03081E
:1017C000D8B443EF0CF0CBC4E8FF0208D8A4EFEF85
:1017D0000BF0CCC4E8FFBB08D8A043EF0CF0CCC49E
:1017E000E8FF8908D8A001EF0CF0CCC408F0280E5F
:1017F000085CE8CFCCF4000EE8CFCBF4048225EFF0
:101800000BF0CCC408F0510E085CE8CFCCF4000E0D
:10181000E8CFCBF4048225EF0BF0CCC408F0640EC3
:10182000085CE8CFCCF4CCC408F003EE00F013EE73
:1018300024F0D8900834E926D8B0EA2AD8900834A1
:10184000E126D8B0E22A048A048C80EF0CF0740EF2
:10185000E8CFCCF4048A03EE20F0168A078680EFE6
:101860000CF0750EE8CFCCF4048A03EE22F0168655
:1018700080EF0CF0048A078600EEA7F007B800EEB0
:10188000A5F080EF0CF0CBC4E8FF0308D8B463EFF9
:101890000CF0CCC4E8FFED08D8A063EF0CF004EE28
:1018A00000F0000EE8CFCBF4CCC408F0BC0E085C0E
:1018B000E8CFCCF4D890086E0836E926D8B0EA2AEA
:1018C000048A25EF0BF004EE48F0020EF36ECCC450
:1018D00008F0EE0E085E08C0CCF4CBC408F0CBC410
:1018E000E8FFD8A0F33C085E08C0CBF4CCC408F0F5
:1018F000D8900834E926D8B0EA2A048A25EF0BF0FC
:10190000D8901200D880169C1200010E89EF0CF0BE
:10191000020EE8CFCBF414EEC9F0FF0E1B6E1C6E66
:10192000156AE351E66EA4EC12F0152ACAC4E8FF6A
:10193000800FE8CFCAF4E650CAC4E8FFA4EC12F066
:10194000152AE650A4EC12F0152A32EF09F0ABEF9D
:101950000CF08BEC07F0156A16941690060E176EB5
:101960000F01AB98AB880F01AE500001080E126E4C
:1019700016920496829AA494A3841200060E176EFF
:101980001200D890EF50010FEF6ED8A0DDEF0CF0F1
:10199000E906D890EF50010FEF6ED8A0DDEF0CF004
:1019A000E906D890EF50010FEF6ED8A0DDEF0CF0F4
:1019B000E906D890EF50010FEF6E12009E907F0E57
:1019C000CE6EF20ECF6E040003AAF7EF0CF0382EA5
:1019D000F7EF0CF0030E386E0388039A3BC0C0F09B
:1019E0003B6A03BEF7EF0CF00F019D8A000103AEC6
:1019F0000AEF0DF0392E0AEF0DF0030E396E038C4D
:101A0000039E3CC0C1F03C6A03BA0AEF0DF00F011F
:101A10009D8A0001012E26EF0DF0640E016EF4EC9C
:101A200016F002EE0DF0C1EC0CF016A824EF0DF04C
:101A3000002E24EF0DF02AEC13F0A9EC0CF0169810
:101A40009E9A0F019D8A000188EC16F016A032EFD5
:101A50000DF017061750000FD8A432EF0DF05EEC12
:101A600007F09E9A37A03FEF0DF03D2E3FEF0DF0AF
:101A7000020E3D6E379001EE93F0C1EC0CF037A2F0
:101A80004CEF0DF03E2E4CEF0DF0020E3E6E3792F5
:101A900001EE97F0C1EC0CF037A459EF0DF03F2E9A
:101AA00059EF0DF0020E3F6E379401EE9BF0C1EC42
:101AB0000CF037A666EF0DF0402E66EF0DF0020E2B
:101AC000406E379601EE9FF0C1EC0CF037A873EF33
:101AD0000DF0412E73EF0DF0020E416E379801EEBE
:101AE000A3F0C1EC0CF037AA80EF0DF0422E80EF8E
:101AF0000DF0020E426E379A01EEA7F0C1EC0CF029
:101B000037AC8DEF0DF0432E8DEF0DF0020E436ECE
:101B1000379C01EEABF0C1EC0CF037AE9AEF0DF054
:101B2000442E9AEF0DF0020E446E379E01EEAFF098
:101B3000C1EC0CF0E1A9A0EF0DF031B0CAEF0DF04F
:101B400081B0B2EF0DF0E1A7ACEF0DF01DA0C4EF36
:101B50000DF0212ECAEF0DF01F803180AE811D9057
:101B6000CAEF0DF01FA0CAEF0DF0E1A7BFEF0DF017
:101B70001DA0C7EF0DF0212ECAEF0DF01F90318090
:101B8000AE911D90CAEF0DF01FB0CAEF0DF0010E1F
:101B9000216E1D80E1A9D0EF0DF031B2FAEF0DF00A
:101BA00081B2E2EF0DF0E1A7DCEF0DF01DA2F4EF42
:101BB0000DF0222EFAEF0DF01F823182AE831D92BE
:101BC000FAEF0DF01FA2FAEF0DF0E1A7EFEF0DF025
:101BD0001DA2F7EF0DF0222EFAEF0DF01F923182C9
:101BE000AE931D92FAEF0DF01FB2FAEF0DF0010E59
:101BF000226E1D82E1A900EF0EF031B42AEF0EF043
:101C000081B412EF0EF0E1A70CEF0EF01DA424EF4B
:101C10000EF0232E2AEF0EF01F843184AE851D9422
:101C20002AEF0EF01FA42AEF0EF0E1A71FEF0EF02F
:101C30001DA427EF0EF0232E2AEF0EF01F943184FF
:101C4000AE951D942AEF0EF01FB42AEF0EF0010E90
:101C5000236E1D84E1A930EF0EF031B65AEF0EF07D
:101C600081B642EF0EF0E1A73CEF0EF01DA654EF57
:101C70000EF0242E5AEF0EF01F863186AE871D9689
:101C80005AEF0EF01FA65AEF0EF0E1A74FEF0EF03D
:101C90001DA657EF0EF0242E5AEF0EF01F96318638
:101CA000AE971D965AEF0EF01FB65AEF0EF0010ECA
:101CB000246E1D86E1A960EF0EF031B88AEF0EF0B8
:101CC00081B872EF0EF0E1A76CEF0EF01DA884EF63
:101CD0000EF0252E8AEF0EF01F883188AE891D98F0
:101CE0008AEF0EF01FA88AEF0EF0E1A77FEF0EF04B
:101CF0001DA887EF0EF0252E8AEF0EF01F98318871
:101D0000AE991D988AEF0EF01FB88AEF0EF0010E03
:101D1000256E1D88E1A990EF0EF031BABAEF0EF0F2
:101D200081BAA2EF0EF0E1A79CEF0EF01DAAB4EF6E
:101D30000EF0262EBAEF0EF01F8A318AAE8B1D9A56
:101D4000BAEF0EF01FAABAEF0EF0E1A7AFEF0EF058
:101D50001DAAB7EF0EF0262EBAEF0EF01F9A318AA9
:101D6000AE9B1D9ABAEF0EF01FBABAEF0EF0010E3D
:101D7000266E1D8AE1A9C0EF0EF031BCEAEF0EF02D
:101D800081BCD2EF0EF0E1A7CCEF0EF01DACE4EF7A
:101D90000EF0272EEAEF0EF01F8C318CAE8D1D9CBD
:101DA000EAEF0EF01FACEAEF0EF0E1A7DFEF0EF066
:101DB0001DACE7EF0EF0272EEAEF0EF01F9C318CE2
:101DC000AE9D1D9CEAEF0EF01FBCEAEF0EF0010E77
:101DD000276E1D8CE1A9F0EF0EF031BE1AEF0FF067
:101DE00081BE02EF0FF0E1A7FCEF0EF01DAE14EF85
:101DF0000FF0282E1AEF0FF01F8E318EAE8F1D9E22
:101E00001AEF0FF01FAE1AEF0FF0E1A70FEF0FF070
:101E10001DAE17EF0FF0282E1AEF0FF01F9E318E18
:101E2000AE9F1D9E1AEF0FF01FBE1AEF0FF0010EAE
:101E3000286E1D8E80500F0B346E80BA348884B0AB
:101E4000348A84B2348C84B4348EDC51341AE5B1D3
:101E500053EF0FF0DDA153EF0FF0E1A933EF0FF0D7
:101E600032B05DEF0FF034B045EF0FF0E1A73FEF78
:101E70000FF01EA057EF0FF0292E5DEF0FF020801E
:101E80003280AF811E905DEF0FF020A05DEF0FF06C
:101E9000E1A752EF0FF01EA05AEF0FF0292E5DEFD1
:101EA0000FF020903280AF911E905DEF0FF020B0C8
:101EB0005DEF0FF0010E296E1E80E5B389EF0FF084
:101EC000DDA389EF0FF0E1A969EF0FF032B293EFD4
:101ED0000FF034B27BEF0FF0E1A775EF0FF01EA209
:101EE0008DEF0FF02A2E93EF0FF020823282AF8316
:101EF0001E9293EF0FF020A293EF0FF0E1A788EF6F
:101F00000FF01EA290EF0FF02A2E93EF0FF0209209
:101F10003282AF931E9293EF0FF020B293EF0FF047
:101F2000010E2A6E1E82E5B5BFEF0FF0DDA5BFEFF3
:101F30000FF0E1A99FEF0FF032B4C9EF0FF034B406
:101F4000B1EF0FF0E1A7ABEF0FF01EA4C3EF0FF05E
:101F50002B2EC9EF0FF020843284AF851E94C9EF79
:101F60000FF020A4C9EF0FF0E1A7BEEF0FF01EA401
:101F7000C6EF0FF02B2EC9EF0FF020943284AF95EF
:101F80001E94C9EF0FF020B4C9EF0FF0010E2B6EB5
:101F90001E84E5B7F5EF0FF0DDA7F5EF0FF0E1A92F
:101FA000D5EF0FF032B6FFEF0FF034B6E7EF0FF0DA
:101FB000E1A7E1EF0FF01EA6F9EF0FF02C2EFFEFD7
:101FC0000FF020863286AF871E96FFEF0FF020A617
:101FD000FFEF0FF0E1A7F4EF0FF01EA6FCEF0FF0FC
:101FE0002C2EFFEF0FF020963286AF971E96FFEF54
:101FF0000FF020B6FFEF0FF0010E2C6E1E86E5B934
:102000002BEF10F0DDA92BEF10F0E1A90BEF10F092
:1020100032B835EF10F034B81DEF10F0E1A717EF2C
:1020200010F01EA82FEF10F02D2E35EF10F02088A5
:102030003288AF891E9835EF10F020A835EF10F0E8
:10204000E1A72AEF10F01EA832EF10F02D2E35EF89
:1020500010F020983288AF991E9835EF10F020B814
:1020600035EF10F0010E2D6E1E88E5BB61EF10F00C
:10207000DDAB61EF10F0E1A941EF10F032BA6BEF88
:1020800010F034BA53EF10F0E1A74DEF10F01EAA94
:1020900065EF10F02E2E6BEF10F0208A328AAF8B96
:1020A0001E9A6BEF10F020AA6BEF10F0E1A760EF23
:1020B00010F01EAA68EF10F02E2E6BEF10F0209A91
:1020C000328AAF9B1E9A6BEF10F020BA6BEF10F0C4
:1020D000010E2E6E1E8AE5BD97EF10F0DDAD97EF75
:1020E00010F0E1A977EF10F032BCA1EF10F034BC92
:1020F00089EF10F0E1A783EF10F01EAC9BEF10F01A
:102100002F2EA1EF10F0208C328CAF8D1E9CA1EFF2
:1021100010F020ACA1EF10F0E1A796EF10F01EAC8C
:102120009EEF10F02F2EA1EF10F0209C328CAF9D6F
:102130001E9CA1EF10F020BCA1EF10F0010E2F6E3D
:102140001E8CE5BFCDEF10F0DDAFCDEF10F0E1A9B3
:10215000ADEF10F032BED7EF10F034BEBFEF10F08D
:10216000E1A7B9EF10F01EAED1EF10F0302ED7EF8F
:1021700010F0208E328EAF8F1E9ED7EF10F020AE63
:10218000D7EF10F0E1A7CCEF10F01EAED4EF10F0B7
:10219000302ED7EF10F0209E328EAF9F1E9ED7EFCD
:1021A00010F020BED7EF10F0010E306E1E8E1DEF26
:1021B00000F01DEC19F008EC19F00F01210E9D6ED6
:1021C00000018150280EF26E100E9E6E0F01FF0E60
:1021D0005A6F00010400040E0F01506F0F01A38419
:1021E0000001040EA56E9F6AA26AB86A786AF16A55
:1021F000F18ED08EF294F28CF28E9D9C9E9804A665
:1022000013EF11F004A40AEF11F005EC17F0049499
:10221000010E596E63EC07F0ABEC0CF004969E9A3D
:102220000F019D8A00010F019D8A000100EEB0F0B0
:10223000066AE5B11FEF11F0DDA126EF11F0000EE7
:10224000E8CFB0F0E8CFB1F02CEF11F004000F01AF
:10225000010EC26ECDEC11F0062A00EEB2F0E5B32D
:1022600035EF11F0DDA33CEF11F0000EE8CFB2F036
:10227000E8CFB3F042EF11F004000F01050EC26E7B
:10228000CDEC11F0062A00EEB4F0E5B54BEF11F0FD
:10229000DDA552EF11F0000EE8CFB4F0E8CFB5F0B5
:1022A00058EF11F004000F01090EC26ECDEC11F0D1
:1022B000062A00EEB6F0E5B761EF11F0DDA768EF92
:1022C00011F0000EE8CFB6F0E8CFB7F06EEF11F0E6
:1022D00004000F010D0EC26ECDEC11F0062A00EEC7
:1022E000B8F0E5B977EF11F0DDA97EEF11F0000E3F
:1022F000E8CFB8F0E8CFB9F084EF11F004000F0197
:10230000110EC26ECDEC11F0062A00EEBAF0E5BB5C
:102310008DEF11F0DDAB94EF11F0000EE8CFBAF0C5
:10232000E8CFBBF09AEF11F004000F01150EC26E5A
:10233000CDEC11F0062A00EEBCF0E5BDA3EF11F0E4
:10234000DDADAAEF11F0000EE8CFBCF0E8CFBDF094
:10235000B0EF11F004000F01190EC26ECDEC11F0B8
:10236000062A00EEBEF0E5BFB9EF11F0DDAFC0EF19
:1023700011F0000EE8CFBEF0E8CFBFF0C6EF11F0CD
:1023800004000F011D0EC26ECDEC11F0FDEF10F038
:10239000070EE126D8B0E22A1200000114EE91F0F7
:1023A0000650070DF350D890E126D8B0E22AE75046
:1023B000000FD8B419EF12F0FF0E056E052EDEEFF8
:1023C00011F00F01C282C2B2E3EF11F00F010F0E44
:1023D000C464EFEF11F00001E650E6501200E6068B
:1023E0000F01C3500001E626D8B0E72A0F01C45000
:1023F0000001E62668EC12F007A209EF12F0E550A2
:10240000E5500F01C4500001E66E0F01C3500001FA
:10241000E66E5CEC12F007A018EF12F0E550E55004
:102420000F01C4500001E66E0F01C3500001E66EBB
:102430001200E650E1CFD9FFE2CFDAFF87EC12F0CD
:10244000D9CFE1FFDACFE2FF4EC0E6FF4DC0E6FF95
:10245000D9CFE1FFDACFE2FF91EC12F0D9CFE1FF63
:10246000DACFE2FF4DC0E6FF4EC0E6FF030E4A6E34
:10247000D9CFE1FFDACFE2FFD890E632E6324A2E3A
:1024800038EF12F0D9CFE1FFDACFE2FFE6CFEEFF6F
:10249000E6CFEEFFD9CFE1FFDACFE2FFE5500A0E3B
:1024A000E66EE66AE66A100EE66E000EE66E000E56
:1024B000E66E000EE66E120000000F01C45000012F
:1024C000E65C4A6E0F01C3500001E65C72EF12F049
:1024D00000000F01C4500001E65C4A6E0F01C350BA
:1024E0000001E65CD8A04A064A10D8B483EF12F087
:1024F0004ABE7FEF12F007820790079412000792FE
:102500000780079412000792079007841200E6CF15
:102510004EF0E6CF4DF0E6CF4FF0E6CF50F09BEF18
:1025200012F0E6CF4EF0E6CF4DF0E650E650E6CFA3
:102530004FF0E6CF50F050C0E8FF4E5E4FC0E8FFCE
:10254000D8A04F3C4D5E1200186E1A6E080E196E20
:102550001A501A321A5002E3B4EF12F01CA0B6EF70
:1025600012F0D880B6EF12F01CB0D89002E2C7EF9C
:1025700012F01BBCBFEF12F01B8CC0EF12F01B9CC3
:102580001CB2C6EF12F01C82C7EF12F01C921B3275
:102590001C321A50192EA9EF12F018501200146EA6
:1025A000116EE1BFE6EF12F0080E126E136AD890BA
:1025B0001132D8B0132A122ED8EF12F0D89013B0DF
:1025C000D8800F01AC90D8B0AC8000019EA8E6EF97
:1025D00012F014500F01AD6E0F01ACA2EDEF12F02E
:1025E000000114501200E1C0E8FF070BE8CFE0F053
:1025F000470E0F01AF6E0001E0C0E8FF0108D8B43C
:1026000038EF13F0230E0F01AF6E0001E0C0E8FFBA
:102610000208D8B438EF13F0110E0F01AF6E0001AD
:10262000E0C0E8FF0308D8B438EF13F00B0E0F0139
:10263000AF6E0001E0C0E8FF0408D8B438EF13F033
:10264000050E0F01AF6E0001E0C0E8FF0508D8B429
:1026500038EF13F0230E0F01AF6E0001E1C0E8FF69
:10266000780BE8CFE0F00A0E070BE025E8CFE1F0A9
:10267000000EE8CFE0F0670EE1BF260E0F01AC6E52
:102680000001D00EE1BF900E0F01AB6E00011200F1
:10269000000E0F01746E756AEEEC14F0E8CFE3F0F3
:1026A000000EE8CFE2F0EEEC14F0E8CFD7F0000E29
:1026B000E8CFD6F0EEEC14F0E8CFD9F0000EE8CF7A
:1026C000D8F0EEEC14F0E8CFDFF0E8CFADF0EEECB0
:1026D00014F0E8CFDEF0E8CFACF0836EEEEC14F04F
:1026E000E8CFE1F0E06BEEEC14F0E8CFE5F0EEECD3
:1026F00014F0E8CFDDF0000EE8CFDCF0EEEC14F0E3
:10270000E8CFD3F0000EE8CFD2F0EEEC14F0E8CF33
:10271000D4F0EEEC14F0E8CFD5F0EEEC14F0E8CF06
:10272000E6F0096EEEEC14F0E8CFE7F00A6EEEEC9E
:1027300014F0E8CFE8F00B6EEEEC14F0E8CFE9F01F
:102740000C6EEEEC14F0E8CFEAF00D6EEEEC14F047
:10275000E8CFEBF00E6EEEEC14F0E8CFECF00F6E7D
:10276000EEEC14F0E8CFEDF0106EEEEC14F0E8CFE4
:10277000DCF0EEEC14F0300BE8CFDBF00F01C16EB3
:102780000001000EE8CFDAF0EEEC14F0E8CF20F311
:10279000EEEC14F0E8CF21F3EEEC14F0E8CF22F3E6
:1027A000EEEC14F0E8CF23F3D9EC13F0ADEF14F016
:1027B000120020C3AAF021C3ABF0A96BD890AB37AD
:1027C000AA37A937AB37AA37A937A951000FD8A420
:1027D000F7EF13F0AA51000FD8A4F7EF13F0AB51A5
:1027E000000FD8A4F7EF13F0D58E11EF14F0D58EAB
:1027F000A9C047F3AAC048F3ABC049F3A9C044F34A
:10280000AAC045F3ABC046F320C34AF321C34BF340
:102810004AC34CF34BC34DF3000EE8CF65F0040EF2
:102820005A6EA76BA86B120003EE00F013EE24F0B3
:10283000100EE8CF5AF0EFBE24EF14F0EE50E65041
:10284000EE50E65028EF14F0EECFE6FFEECFE6FFB5
:102850005A2E1BEF14F0040E5A6E1200000EE8CF31
:1028600044F3E8CF45F3E8CF46F3000ED66E03EE0F
:1028700023F0000EEF6EED50000EEF6E1200000E12
:102880000F01746E756AE3C0E8FFDEEC14F0742A81
:10289000742ADFC0E8FFDEEC14F0DEC0E8FFDEECF7
:1028A00014F0F3EC12F0E1C0E8FFDEEC14F0E5C048
:1028B000E8FFDEEC14F0DDC0E8FFDEEC14F00B0EF8
:1028C0000F01746E756AE6C0E8FF096EDEEC14F065
:1028D000E7C0E8FF0A6EDEEC14F0E8C0E8FF0B6E1C
:1028E000DEEC14F0E9C0E8FF106EDEEC14F00F0E21
:1028F000746E756AEAC0E8FF0D6EDEEC14F0EBC092
:10290000E8FF0E6EDEEC14F0ECC0E8FF0F6EDEECBC
:1029100014F0EDC0E8FF106EDEEC14F0DCC0E8FF50
:10292000DEEC14F0DBC0E8FF300BDEEC14F0DBC0B3
:10293000E8FF300B0F01C16E000120C3E8FFDEECA1
:1029400014F021C3E8FFDEEC14F022C3E8FFDEEC54
:1029500014F023C3E8FFDEEC14F0E5515D17E51D2C
:10296000336E338E338C338AE5B9339A33883350E0
:102970000F01926E0001E539336E331C336E333034
:10298000070B0F01966E0001DD1D356EE51D351438
:102990000F015D6F5C6B0001DD510001AF1700019D
:1029A000ADC0E8FFDD15356E0F0B806E35B8808A3F
:1029B000D89035323538070B846E1200736E7F9EC7
:1029C0007F84550E7E6EAA0E7E6E7F827FB2E6EF0A
:1029D00014F07F94742A73CFE8FF12007F9E7F80EB
:1029E00073CFE8FF742A1200516A526A536A546A1C
:1029F000556A566A576A586A4E6A4F6A4C6A496AFB
:102A00001200506A4FA008EF15F04F6A70EF15F0F2
:102A100071EC15F004004A6A4A2A4D6AF00E456EC0
:102A20007DEC15F0ADEC15F04B6ED8904B36ADEC5F
:102A300015F04B124B50000FD8B42BEF15F04B5044
:102A40000108D8B455EF15F04B500208D8B457EF31
:102A500015F06DEF15F04A504E18D8A436EF15F06A
:102A6000020E4B6EC6EC15F05AEF15F04E504A5C54
:102A7000D8A043EF15F0010E4B6EC6EC15F04A508E
:102A80004D6E5AEF15F037EC16F0466E4650000FBB
:102A9000D8B44FEF15F0020E4B6E5AEF15F0010E41
:102AA0004B6E4A504D6E5AEF15F057EF15F0C6ECCD
:102AB00015F004000400D8904B308CEC15F04A2A35
:102AC0004A504108D8A412EF15F04D504E6ED8B4BC
:102AD0004F2A010E506E70EF15F04E6A70EF15F030
:102AE00012008292FBEC18F0FBEC18F08282FBECF7
:102AF00018F0FBEC18F01200456E080E466E476A9F
:102B00004790D8904532D8B0478047508CEC15F0AC
:102B1000462E7FEF15F0120007BC91EF15F0F29EE4
:102B2000F29C476E829247B082823A0EFCEC18F01B
:102B30008282000007BC1200F28CF28E1200080E96
:102B4000466EADEC15F0476ED89047B0D880453250
:102B5000462EA1EF15F04550120007BCB2EF15F05C
:102B6000F29EF29C8292000082829482476A0C0E4E
:102B7000FCEC18F082B247802F0EFCEC18F04750A6
:102B8000949207BC1200F28CF28E120076EC16F0D2
:102B90004B30010BD8B402EF16F048500008D8B4FF
:102BA000F2EF15F048500108D8B4F4EF15F0485092
:102BB0000208D8B4F6EF15F048500308D8B4F8EF7F
:102BC00015F048500408D8B4FAEF15F0485005083D
:102BD000D8B4FCEF15F048500608D8B4FEEF15F055
:102BE00000EF16F0EF8E1200EF8C1200EF8A120049
:102BF000EF881200EF861200EF841200EF821200BD
:102C0000EF80120048500008D8B427EF16F0485063
:102C10000108D8B429EF16F048500208D8B42BEFB9
:102C200016F048500308D8B42DEF16F048500408A9
:102C3000D8B42FEF16F048500508D8B431EF16F08D
:102C400048500608D8B433EF16F035EF16F0EF9E73
:102C50001200EF9C1200EF9A1200EF981200EF960C
:102C60001200EF941200EF921200EF90120076EC37
:102C700016F048500008D8B45EEF16F0485001082E
:102C8000D8B462EF16F048500208D8B464EF16F0DA
:102C900048500308D8B467EF16F048500408D8B479
:102CA0006AEF16F048500508D8B46DEF16F048509A
:102CB0000608D8B470EF16F073EF16F0EFAE000C04
:102CC000010CEFAC000C010CEFAA000C010CEFA8FA
:102CD000000C010CEFA6000C010CEFA4000C010C81
:102CE000EFA2000C010CEFA0000C010C4A043F08FD
:102CF000476E070B486ED8904732D8904732D8902D
:102D0000473200EE51F04750E926D8B0EA2A1200C7
:102D100003B0A2EF16F00950000FD8A495EF16F0FB
:102D20000A50000FD8B4A1EF16F00A2EC0EF16F02B
:102D30000950000FD8B4A1EF16F009060A06C0EF3B
:102D400016F0038003B4B9EF16F00C50000FD8B49E
:102D5000ADEF16F00C2EC0EF16F0E8510B6E000F21
:102D6000D8B4B5EF16F003848296E9510C6EC0EF2B
:102D700016F00B2EC0EF16F082860394E8510B6E0E
:102D800003B2D8EF16F00D50000FD8A4CDEF16F017
:102D90000E50000FD8B4D7EF16F00E2E12000D50C3
:102DA000000FD8B4D7EF16F00D060E0612000382FE
:102DB00003B6EDEF16F01050000FD8B4E2EF16F0A6
:102DC000102E1200EC510F6E000FD8B4EAEF16F07F
:102DD00003868288ED51106E12000F2E1200829829
:102DE0000396EC510F6E1200592E68EF17F0010E8A
:102DF000596E4C50000FD8A402EF17F04950D8B4C8
:102E000068EF17F0048468EF17F08280100E4B60B3
:102E10008FEF17F071EC15F0CAEC18F0BE0E7CECD9
:102E200015F04B04516E01EEB0F0D8905134D890AB
:102E3000E926D8B0EA2A10EEEEF05150E126D8B0DB
:102E4000E22A9FEC15F0586E9FEC15F0516E69EC7C
:102E500017F0D8A03FEF17F0E7B036EF17F0030EEA
:102E6000E76EF2EC18F0829068EF17F0E7B244EFEB
:102E700017F0E76A100EEE6EEE6A53EF17F0D8A463
:102E800049EF17F02CEF17F0D8A449EF17F039EFFE
:102E900017F0E76A51500708D8A053EF17F05150C8
:102EA000EE6E58C0EEFFF2EC18F082904B064B50DD
:102EB000000FD8A468EF17F04950D8B465EF17F0A9
:102EC0004938040F4B6E68EF17F04C500F0B4B6EE8
:102ED000120051500508D8A479EF17F05850500847
:102EE000D8A476EF17F0D894D8801200D890D89450
:102EF00012005150FF08D8A476EF17F0D88474EF71
:102F000017F05150FF08D8A48DEF17F05850FF0864
:102F1000D8A48DEF17F0D8841200D89412004B502B
:102F20000F0BD8B4A9EF18F00108D8B46EEF18F061
:102F30004B500F0B0208D8B41DEF18F04B500F0B7D
:102F40000308D8B4B2EF17F071EC15F0CAEC18F022
:102F5000440E7CEC15F082904B067F0ECE6EF20E86
:102F6000CF6E120071EC15F0CAEC18F0B80E7CECC4
:102F700015F0000E7CEC15F071EC15F0CAEC18F0B1
:102F8000BE0E7CEC15F0000E7CEC15F04B380F0BF0
:102F9000516E510604EE00F0D8905136513651343E
:102FA000D890E926D8B0EA2A4B500F0B516ED89032
:102FB0005134D890E926D8B0EA2A10EEF7F04B3811
:102FC0000F0B516E5104E126D8B0E22A9FEC15F0A8
:102FD0009FEC15F0586E9FEC15F0516E81EC17F0D8
:102FE000D8A401EF18F0E7B0FAEF17F0010EE76E82
:102FF00006EF18F0E76A100EEE6E000EEE6E06EFAA
:1030000018F0E76A51C0EEFF58C0EEFF71EC15F002
:10301000CAEC18F04E0E7CEC15F0000E7CEC15F0AE
:10302000090E7CEC15F071EC15F0CAEC18F0B40E3A
:103030007CEC15F082904B06120071EC15F0CAEC96
:1030400018F0B80E7CEC15F0000E7CEC15F071EC6D
:1030500015F0CAEC18F0BE0E7CEC15F0000E7CECFE
:1030600015F04B380F0B516E510604EE00F0D8905E
:10307000513651365134D890E926D8B0EA2A4B045B
:103080000F0B010F516ED8905134D890E926D8B06B
:10309000EA2A9FEC15F09FEC15F09FEC15F09FECE1
:1030A00015F0586E9FEC15F0EE6E58C0EEFF71EC07
:1030B00015F0CAEC18F04E0E7CEC15F0000E7CEC0E
:1030C00015F0010E7CEC15F071EC15F0CAEC18F05F
:1030D000B40E7CEC15F082904B06120071EC15F0EA
:1030E000CAEC18F0B80E7CEC15F0000E7CEC15F074
:1030F00071EC15F0CAEC18F0BE0E7CEC15F0000E69
:103100007CEC15F04B380F0B516E510604EE00F0BD
:10311000D890513651365134D890E926D8B0EA2AA1
:103120009FEC15F09FEC15F09FEC15F09FEC15F05F
:10313000586E9FEC15F0EE6E58C0EEFF9FEC15F048
:10314000586E9FEC15F0EE6E58C0EEFF82904B0665
:1031500012004B380F0B516E5104000FD8B4B9EF69
:1031600018F0100E4B5E4B50F00B040F4B6E82901C
:1031700012004C500F0B000FD8A4C5EF18F04938BF
:10318000F00B040F4B6E829012004B6EF2EC18F0B5
:1031900082901200550E7CEC15F0100E4B64D9EFA6
:1031A00018F004EE48F04B380F0B516E5106DDEF6E
:1031B00018F04B04516E01EEC2F05150080DF3505F
:1031C000D890E926D8B0EA2A070ED890E926D8B0D8
:1031D000EA2A080E546EED507CEC15F0542EEBEFFD
:1031E00018F0120071EC15F0CC0E7CEC15F0440ECA
:1031F0007CEC15F01200FF0ECB6E010ECA6ECC6A8D
:103200009E92CA849EA202EF19F0CA949E92120066
:1032100004EE91F0080E066E0A0EEE6EEE6AEE6A8D
:10322000100EEE6E000EEE6E000EEE6E000EEE6EE6
:10323000062E0CEF19F0066A1200D16A0400F18E16
:10324000430ED56ED60ED66EF2940F01000E5F6F50
:103250005E6FB56A0F01300EC16E0F01BA0EC06EFF
:103260000F01010EC26E0F01000E5B6F0F01000E09
:10327000806E0F01FF0E936E0F01FF0E816E0F0126
:10328000C40E946E0F01CF0E826E0F01000E956E6C
:103290000F01000E836E080E846E040022EC1AF0FB
:1032A00048EC13F0F3EC12F0A9EC0CF07F0ECE6EAC
:1032B000F20ECF6E310ECD6E010ECA6EFF0ECB6ECA
:1032C0009D92CC6A9E920A0E596EFF0E016EFBEC27
:1032D00018F0012E67EF19F0592E65EF19F00F0164
:1032E000210E9D6E00018150480EF26E100E9E6EF2
:1032F0000F01FF0E5A6F0001F29AF29C99828150E1
:103300001F6E811CAE6F000E316E030E386E396E6B
:103310003B6A3C6A640E016EFF0E026E010E596E2E
:10332000040E5A6E11EEB0F0090E4C6E100EE66EE1
:10333000000EE66E4C2E96EF19F014EE00F0240EFF
:103340004C6E100EE66E000EE66E4C2EA1EF19F0DC
:103350000400F4EC14F0049E04944C6A496A4B6A2D
:103360000400078C01EC15F0040050A00EEF1AF0D9
:10337000049210EE58F0E7502808D8A4048204B252
:10338000C7EF19F004B4FEEF19F0CAEF19F004BE4C
:10339000FEEF19F001EEC2F004B204EE48F010EEB8
:1033A00051F0D89004A2D8EF19F04934D9EF19F0B0
:1033B0004C341C6E1C361C34D890E926D8B0EA2A4E
:1033C00010EE51F0080E126EE6CFEEFF122EE4EF73
:1033D00019F004A2F5EF19F0492A090E495CD8A4A6
:1033E000B2EF19F0048EB2EF19F04C2A090E4C5CC2
:1033F000D8A4B2EF19F00484B2EF19F004A4B2EF2C
:1034000019F004AEB2EF19F0F2EC18F082904C50C3
:103410000F0B4B6E640E016E1FEF1AF04C50000F35
:10342000D8A404EF1AF04950000FD8B41FEF1AF0D7
:1034300082904938F00B040F4B6E640E016E04004D
:10344000076A120000EE00F0EE6AEA500F08D8A4F6
:0A34500024EF1AF0666B676B1200A0
:020000040030CA
:0100000014EB
:0100010003FB
:0100020006F7
:0100030023D9
:0100050009F1
:010006009069
:0100080000F7
:0200000400F00A
:1000000001820100001A0000F102110258051E02CF
:09001000580564FF3000000000F7
:00000001FF
