:020000040000FA
:0400000057EF13F0B3
:020004000000FA
:08000800828AA394A494100065
:080018005E6ED8385F6EE9CF7F
:1000200061F0EACF60F00001F2B0A6EC05F0F2B4A6
:1000300029EC00F09EB0C6EF0EF09EBAB9EC06F0C7
:1000400061C0E9FF60C0EAFF5F38D86E5E3A5E3893
:100050001000F294D59ED60ED66ED58EE2CF62F009
:10006000E1CF63F0A551000FD8A43EEF00F0A651F8
:10007000000FD8A43EEF00F053EF00F05D2E85EFA7
:1000800005F0040E5D6EA607D8B049EF00F0D890D9
:10009000A507A551000FD8A485EF05F0A651000FC4
:1000A000D8A485EF05F044C3E8FF000FD8A47DEF86
:1000B00002F045C3E8FF000FD8A47DEF02F046C36D
:1000C000E8FF000FD8A47DEF02F0B8EC16F003EEC5
:1000D00023F013EE24F096EC05F006BE8AEF00F054
:1000E000E7AC79EF00F0E738030B685DD8A48AEF3E
:1000F00000F06AB18AEF00F0ADA183EF00F08090CC
:10010000EF9085EF00F08080EF8001C325F300C3FE
:1001100024F36A8113EE26F096EC05F006BEABEFF1
:1001200000F0E7AC9AEF00F0E738030B685DD8A465
:10013000ABEF00F06AB3ABEF00F0ADA3A4EF00F0BB
:100140008092EF92A6EF00F08082EF8203C327F344
:1001500002C326F36A8313EE28F096EC05F006BE80
:10016000CCEF00F0E7ACBBEF00F0E738030B685DC5
:10017000D8A4CCEF00F06AB5CCEF00F0ADA5C5EF88
:1001800000F08094EF94C7EF00F08084EF8405C303
:1001900029F304C328F36A8513EE2AF096EC05F0E0
:1001A00006BEEDEF00F0E7ACDCEF00F0E738030B44
:1001B000685DD8A4EDEF00F06AB7EDEF00F0ADA7F1
:1001C000E6EF00F08096EF96E8EF00F08086EF868D
:1001D00007C32BF306C32AF36A8713EE2CF096ECC1
:1001E00005F006BE0EEF01F0E7ACFDEF00F0E738DA
:1001F000030B685DD8A40EEF01F06AB90EEF01F0B1
:10020000ADA907EF01F0809AEF9809EF01F0808A1D
:10021000EF8809C32DF308C32CF36A8913EE2EF07F
:1002200096EC05F006BE2FEF01F0E7AC1EEF01F0F3
:10023000E738030B685DD8A42FEF01F06ABB2FEFFE
:1002400001F0ADAB28EF01F08490EF9A2AEF01F0B6
:100250008480EF8A0BC32FF30AC32EF36A8B13EE4D
:1002600030F096EC05F006BE50EF01F0E7AC3FEF42
:1002700001F0E738030B685DD8A450EF01F06ABDC8
:1002800050EF01F0ADAD49EF01F08492EF9C4BEFE0
:1002900001F08482EF8C0DC331F30CC330F36A8D0F
:1002A00013EE32F096EC05F006BE71EF01F0E7AC0C
:1002B00060EF01F0E738030B685DD8A471EF01F03F
:1002C0006ABF71EF01F0ADAF6AEF01F08494EF9E69
:1002D0006CEF01F08484EF8E0FC333F30EC332F35F
:1002E0006A8F03EE22F013EE34F096EC05F006BEB2
:1002F00094EF01F0E7AC83EF01F0E738030B685DA2
:10030000D8A494EF01F069B194EF01F0ACA18DEFA6
:1003100001F08390EF908FEF01F08380EF8011C3A5
:1003200035F310C334F3698113EE36F096EC05F023
:1003300006BEB5EF01F0E7ACA4EF01F0E738030B20
:10034000685DD8A4B5EF01F069B3B5EF01F0ACA3D7
:10035000AEEF01F08392EF92B0EF01F08382EF8273
:1003600013C337F312C336F3698313EE38F096ECF8
:1003700005F006BED6EF01F0E7ACC5EF01F0E738B7
:10038000030B685DD8A4D6EF01F069B5D6EF01F094
:10039000ACA5CFEF01F08394EF94D1EF01F083840B
:1003A000EF8415C339F314C338F3698513EE3AF0BB
:1003B00096EC05F006BEF7EF01F0E7ACE6EF01F0D2
:1003C000E738030B685DD8A4F7EF01F069B7F7EFE2
:1003D00001F0ACA7F0EF01F08396EF96F2EF01F099
:1003E0008386EF8617C33BF316C33AF3698713EE90
:1003F0003CF096EC05F006BE18EF02F0E7AC07EF14
:1004000002F0E738030B685DD8A418EF02F069B971
:1004100018EF02F0ACA911EF02F08398EF9813EFF8
:1004200002F08388EF8819C33DF318C33CF3698950
:1004300013EE3EF096EC05F006BE39EF02F0E7ACA5
:1004400028EF02F0E738030B685DD8A439EF02F01B
:1004500069BB39EF02F0ACAB32EF02F0839AEF9A4E
:1004600034EF02F0838AEF8A1BC33FF31AC33EF3D3
:10047000698B13EE40F096EC05F006BE5AEF02F0E1
:10048000E7AC49EF02F0E738030B685DD8A45AEFF8
:1004900002F069BD5AEF02F0ACAD53EF02F0839C5D
:1004A000EF9C55EF02F0838CEF8C1DC341F31CC30E
:1004B00040F3698D13EE42F096EC05F006BE7BEF3B
:1004C00002F0E7AC6AEF02F0E738030B685DD8A4EE
:1004D0007BEF02F069BF7BEF02F0ACAF74EF02F08C
:1004E000839EEF9E76EF02F0838EEF8E1FC343F361
:1004F0001EC342F3698FD8EF02F044C3A9F045C38D
:10050000AAF046C3ABF0D890AB07D8B08FEF02F09B
:10051000D890AA07D8B08FEF02F0D890A907A9C049
:1005200044F3AAC045F3ABC046F344C3E8FF000F51
:10053000D8A4A9EF02F045C3E8FF000FD8A4A9EFA3
:1005400002F046C3E8FF000FD8A4A9EF02F065EF60
:1005500000F04CC3A9F04DC3AAF0D890AA07D8B0B8
:10056000B4EF02F0D890A907A9C04CF3AAC04DF38C
:100570004DC3E8FF000FD8A4D8EF02F04CC3E8FF4A
:10058000000FD8A4D8EF02F04AC34CF34BC34DF38D
:1005900068C0E8FF010FE8CF68F068C0E8FF040812
:1005A000D8A467EF00F0000EE8CF68F067EF00F026
:1005B0005D2E85EF05F0040E5D6E03EE23F013EE65
:1005C00024F096EC05F006BEF0EF02F06AA109EF08
:1005D00003F08EEC05F096EC05F006AE09EF03F0A3
:1005E000ADA1F7EF02F08080EF80F9EF02F080908C
:1005F000EF906A9100C324F301C325F3E7BE09EF2E
:1006000003F024C3E8FFF00BE8CF24F3000EE8CF9B
:1006100025F313EE26F096EC05F006BE1AEF03F074
:100620006AA333EF03F08EEC05F096EC05F006AE0E
:1006300033EF03F0ADA321EF03F08082EF8223EFCD
:1006400003F08092EF926A9302C326F303C327F369
:10065000E7BE33EF03F026C3E8FFF00BE8CF26F345
:10066000000EE8CF27F313EE28F096EC05F006BE57
:1006700044EF03F06AA55DEF03F08EEC05F096EC15
:1006800005F006AE5DEF03F0ADA54BEF03F08084FF
:10069000EF844DEF03F08094EF946A9504C328F340
:1006A00005C329F3E7BE5DEF03F028C3E8FFF00BB5
:1006B000E8CF28F3000EE8CF29F313EE2AF096ECEA
:1006C00005F006BE6EEF03F06AA787EF03F08EEC2D
:1006D00005F096EC05F006AE87EF03F0ADA775EFD9
:1006E00003F08086EF8677EF03F08096EF966A97A7
:1006F00006C32AF307C32BF3E7BE87EF03F02AC331
:10070000E8FFF00BE8CF2AF3000EE8CF2BF313EE4F
:100710002CF096EC05F006BE98EF03F06AA9B1EF55
:1007200003F08EEC05F096EC05F006AEB1EF03F0A9
:10073000ADA99FEF03F0808AEF88A1EF03F0809AC4
:10074000EF986A9908C32CF309C32DF3E7BEB1EF04
:1007500003F02CC3E8FFF00BE8CF2CF3000EE8CF3A
:100760002DF313EE2EF096EC05F006BEC2EF03F06B
:100770006AABDBEF03F08EEC05F096EC05F006AE0D
:10078000DBEF03F0ADABC9EF03F08480EF8ACBEF72
:1007900003F08490EF9A6A9B0AC32EF30BC32FF3E6
:1007A000E7BEDBEF03F02EC3E8FFF00BE8CF2EF33C
:1007B000000EE8CF2FF313EE30F096EC05F006BEF6
:1007C000ECEF03F06AAD05EF04F08EEC05F096EC6B
:1007D00005F006AE05EF04F0ADADF3EF03F0848253
:1007E000EF8CF5EF03F08492EF9C6A9D0CC330F31D
:1007F0000DC331F3E7BE05EF04F030C3E8FFF00BA3
:10080000E8CF30F3000EE8CF31F313EE32F096EC80
:1008100005F006BE16EF04F06AAF2FEF04F08EEC81
:1008200005F096EC05F006AE2FEF04F0ADAF1DEF2E
:1008300004F08484EF8E1FEF04F08494EF9E6A9F8F
:100840000EC332F30FC333F3E7BE2FEF04F032C30E
:10085000E8FFF00BE8CF32F3000EE8CF33F313EEEE
:1008600034F003EE22F096EC05F006BE42EF04F001
:1008700069A15BEF04F08EEC05F096EC05F006AE96
:100880005BEF04F0ACA149EF04F08380EF804BEF05
:1008900004F08390EF90699110C334F311C335F3E2
:1008A000E7BE5BEF04F034C3E8FFF00BE8CF34F3AE
:1008B000000EE8CF35F313EE36F096EC05F006BEE9
:1008C0006CEF04F069A385EF04F08EEC05F096EC74
:1008D00005F006AE85EF04F0ACA373EF04F083825D
:1008E000EF8275EF04F08392EF92699312C336F3AF
:1008F00013C337F3E7BE85EF04F036C3E8FFF00B10
:10090000E8CF36F3000EE8CF37F313EE38F096EC6D
:1009100005F006BE96EF04F069A5AFEF04F08EEC8B
:1009200005F096EC05F006AEAFEF04F0ACA59DEF38
:1009300004F08384EF849FEF04F08394EF9469952F
:1009400014C338F315C339F3E7BEAFEF04F038C36F
:10095000E8FFF00BE8CF38F3000EE8CF39F313EEE1
:100960003AF096EC05F006BEC0EF04F069A7D9EFA7
:1009700004F08EEC05F096EC05F006AED9EF04F02D
:10098000ACA7C7EF04F08386EF86C9EF04F0839627
:10099000EF96699716C33AF317C33BF3E7BED9EF57
:1009A00004F03AC3E8FFF00BE8CF3AF3000EE8CFCB
:1009B0003BF313EE3CF096EC05F006BEEAEF04F0D4
:1009C00069A903EF05F08EEC05F096EC05F006AE94
:1009D00003EF05F0ACA9F1EF04F08388EF88F3EFA3
:1009E00004F08398EF98699918C33CF319C33DF359
:1009F000E7BE03EF05F03CC3E8FFF00BE8CF3CF3A4
:100A0000000EE8CF3DF313EE3EF096EC05F006BE87
:100A100014EF05F069AB2DEF05F08EEC05F096ECC8
:100A200005F006AE2DEF05F0ACAB1BEF05F0838AA9
:100A3000EF8A1DEF05F0839AEF9A699B1AC33EF384
:100A40001BC33FF3E7BE2DEF05F03EC3E8FFF00BFD
:100A5000E8CF3EF3000EE8CF3FF313EE40F096EC04
:100A600005F006BE3EEF05F069AD57EF05F08EECE0
:100A700005F096EC05F006AE57EF05F0ACAD45EF8E
:100A800005F0838CEF8C47EF05F0839CEF9C699D0C
:100A90001CC340F31DC341F3E7BE57EF05F040C34D
:100AA000E8FFF00BE8CF40F3000EE8CF41F313EE80
:100AB00042F096EC05F006BE68EF05F069AF81EFF5
:100AC00005F08EEC05F096EC05F006AE81EF05F032
:100AD000ACAF6FEF05F0838EEF8E71EF05F0839E64
:100AE000EF9E699F1EC342F31FC343F3E7BE81EF2E
:100AF00005F042C3E8FFF00BE8CF42F3000EE8CF69
:100B000043F3D890A82BD8B0A72B62C0E2FF63C0F4
:100B1000E1FF67C0E9FF66C0EAFF1200E650D89027
:100B2000E506D8B01200E506E6501200069EE65033
:100B30000F0B000FD8A4A4EF05F0E650000FD8A4C7
:100B4000A3EF05F0068EE550E550120081503D6E92
:100B50000218386EE1BBBBEF05F0E1BDBBEF05F05D
:100B600046EF06F038B0CCEF05F038B2D8EF05F01C
:100B700038B4E4EF05F038B6F0EF05F038B8FCEF24
:100B800005F038BA0EEF06F038BC20EF06F038BE9C
:100B900032EF06F042EF06F03DA0D2EF05F0028002
:100BA00042EF06F0029042EF06F03A8042EF06F084
:100BB0003DA2DEEF05F0028242EF06F0029242EF24
:100BC00006F03A8242EF06F03DA4EAEF05F0028417
:100BD00042EF06F0029442EF06F03A8442EF06F04C
:100BE0003DA6F6EF05F0028642EF06F0029642EFD0
:100BF00006F03A8642EF06F0E1BB7BEF06F03DA837
:100C000005EF06F0028842EF06F002983AA80BEFD3
:100C100006F042EF06F03A8842EF06F0E1BB6AEFD9
:100C200006F03DAA17EF06F0028A42EF06F0029A9C
:100C30003AAA1DEF06F042EF06F03A8A42EF06F0BC
:100C4000E1BD59EF06F03DAC29EF06F0028C42EF12
:100C500006F0029C3AAC2FEF06F042EF06F03A8C19
:100C600042EF06F0E1BD48EF06F03DAE3BEF06F087
:100C7000028E42EF06F0029E3AAE41EF06F042EFDE
:100C800006F03A8E3D500218D8A41200F2901200DD
:100C90000F019D9A00013DBEADEF06F0029E05B822
:100CA00042EF06F08CEC06F098EC06F03E2A42EF9C
:100CB00006F00F019D9A00013DBCB0EF06F0029CCA
:100CC00005B842EF06F08CEC06F09BEC06F03E2AED
:100CD00042EF06F00F019D9A00013DBAB3EF06F016
:100CE000029A05BC42EF06F092EC06F098EC06F092
:100CF0003F2A42EF06F00F019D9A00013DB8B6EF82
:100D000006F0029805BC42EF06F092EC06F09BEC70
:100D100006F03F2A42EF06F0030E3B6E058A00EE16
:100D2000C9F01200030E3C6E058E00EED1F01200E9
:100D3000D8809CEF06F0D890EF36E906EF36E9064A
:100D4000EF36E906EF36E906EF36E906EF36E90653
:100D5000EF36E906EF36E9061200028E42EF06F0A2
:100D6000028C42EF06F0028A42EF06F0028842EF60
:100D700006F004009E9A0F01AB500001060BD8A4A8
:100D80008FEF0EF017506208D8A08FEF0EF018808A
:100D90000F01AE500001166E04EEC9F01750D89046
:100DA000E926D8B0EA2A1650EF6E172A1750010824
:100DB000D8B4F2EF06F017500208D8A4F2EF06F00C
:100DC00016504508D8A4E9EF06F00C0E146EA6EFF5
:100DD0000EF016501008D8A4F2EF06F0070E146EAD
:100DE000A6EF0EF01750145CD8A4A6EF0EF0CAC4FC
:100DF000E8FF1008D8A407EF07F018B207EF07F0D4
:100E0000CFC4E8FF020F14261882A6EF0EF0FF0EE3
:100E10001D6E1E6E14061404176E04EEC9F0829A3D
:100E2000A494A384EF5074EC15F0E92A172E12EF66
:100E300007F01E50EF5CD8A48FEF0EF0E92A1D508A
:100E4000EF5CD8A48FEF0EF0068618900F019D9AE4
:100E50000001120004EEC9F0E3C0E8FFEF5CD8B473
:100E600039EF07F0099AEF50000FD8A491EF0EF078
:100E7000098A52EC07F0E92AEF500308D8B472EF60
:100E800007F0EF500608D8B4E4EF07F0EF5045083C
:100E9000D8B464EF0AF0EF501008D8B495EF08F01A
:100EA0006DEF0EF018881E0E006EE6C0E8FF0D6EA6
:100EB000E7C0E8FF0E6EE8C0E8FF0B6EE9C0E8FF90
:100EC0000C6E82860594EAC0E8FF116EEBC0E8FF65
:100ED000126EECC0E8FF0F6EEDC0E8FF106E829856
:100EE000059612000998FBEC0AF0D8A07BEF07F0FA
:100EF000189C70EF0EF070EC0CF0D8B070EF0EF0A4
:100F000009BA93EF0EF0188C18AE8EEF07F0CEC42E
:100F1000E8FF0108D8A48EEF07F0189C18AC96EFF4
:100F200007F0FF0E2152336A346A189C189A06BAE9
:100F3000A6EF07F000EEACF005B201EE90F0CCC4E5
:100F40000AF0D8900A34E926D8B0EA2ACDC4E8FFDE
:100F5000136ECEC40AF00A34146ED0EC0AF01450AA
:100F6000E66E74EC15F0172A06A2BBEF07F0C40E6C
:100F7000E926D8B0EA2AEE50E66E74EC15F0172A8E
:100F8000142EBBEF07F006A0E2EF07F005A8D4EFA0
:100F900007F03E6A0598C06BC26BC36BC46BC56B30
:100FA000C66BC76BC86BC96B05ACE2EF07F03F6A55
:100FB000059CC16BCA6BCB6BCC6BCD6BCE6BCF6B17
:100FC000D06BD16BACEF0AF00988FBEC0AF0D8B01B
:100FD00070EF0EF0CBC4E8FF0108D8A41AEF08F0B8
:100FE000CCC4E8FF0208D8B4FEEF07F0CCC4E8FF99
:100FF0000308D8B40CEF08F01AEF08F0D6C0E8FFE9
:10100000000FD8A470EF0EF0D7C0E8FF000FD8A4EF
:1010100070EF0EF01AEF08F0D8C0E8FF000FD8A468
:1010200070EF0EF0D9C0E8FF000FD8A470EF0EF0FB
:101030001AEF08F070EC0CF0D8B070EF0EF018B6A4
:1010400070EF0EF009B076EF08F009BE76EF08F009
:1010500006BA3DEF08F000EEACF005B201EE90F0FC
:10106000CCC40AF00A34E926D8B0EA2A06A23DEF39
:1010700008F0C40EE926D8B0EA2ACDC4E8FFEE6E27
:1010800006BCE66ECEC4E8FFEF6E06BCE66E18AE98
:1010900058EF08F0ACC0E8FF836EADC037F00F0B1F
:1010A000806E37B8808AD89037323738070B846E15
:1010B000189E09A676EF08F0B8EC16F00DEC17F0C4
:1010C00020C3E8FF0F0BD8A476EF08F021C3E8FF98
:1010D000026476EF08F013EE00F0100E5D6EE69EEF
:1010E000E6505D2E6FEF08F0040E5D6E09BA93EFC7
:1010F0000EF0D0EC0AF02AC5E8FFE66E74EC15F0AD
:10110000172A2BC5E8FFE66E74EC15F0172ACDC43C
:10111000E8FFE66E74EC15F0172ACEC4E8FFE66E21
:1011200074EC15F0172AACEF0AF00590CCC4E8FF78
:101130006308D8B070EF0EF0CCC4E8FF7308D8A0F5
:10114000A4EF08F0F8EF09F0CBC4E8FF0308D8B427
:1011500050EF09F0CBC41BF0CCC41CF0020E1D6E86
:10116000AD0E1E6EF3EC0AF0D8A02AEF0BF0020EC3
:101170001D6E890E1E6EF3EC0AF0D8B0FDEF08F07C
:10118000CCC40AF08A0E0A5E01EEE2F0D8900A346E
:10119000E926D8B0EA2AEACF1BF0E9CF1CF0CDC48B
:1011A000E8FF000FD8A470EF0EF0CEC4E8FFD8908F
:1011B0001C26D8B01B2A020E1B64E1EF08F070EF6A
:1011C0000EF01B62EAEF08F02A0E1C64EAEF08F04A
:1011D00070EF0EF0CD51136ECEC414F014361350D0
:1011E000000F0008D8A4EEEF09F01450000F00081B
:1011F000D8B470EF0EF0EEEF09F0CBC41BF0CCC406
:101200001CF0030E1D6E110E1E6EF3EC0AF0D8A03A
:101210002AEF0BF0020E1D6EED0E1E6EF3EC0AF0BF
:10122000D8B09DEF09F0CCC40AF08A0E0A5E04EE35
:1012300048F0D8900A34E926D8B0EA2AEACF1BF061
:10124000E9CF1CF0CDC4E8FF000FD8A470EF0EF07A
:10125000CEC4E8FFD8901C26D8B01B2A040E1B640D
:1012600034EF09F070EF0EF01B623DEF09F0900EC5
:101270001C643DEF09F070EF0EF0CD51136ECEC43B
:1012800014F014361350000F0008D8A4EEEF09F044
:101290001450000F0008D8B470EF0EF0EEEF09F014
:1012A000CCC4E8FFE608D8A49DEF09F0CDC4E8FF60
:1012B000000FD8A470EF0EF0CEC4E8FF0208D8A447
:1012C00070EF0EF024EECFF0D7C0E8FFDE5CD8A4BC
:1012D00070EF0EF0D9C0E8FFDE5CD8A470EF0EF01E
:1012E000DECF1FF0D0EC0AF0CBC4E8FFE66E74EC62
:1012F00015F0172ACCC4E8FFE66E74EC15F0172A37
:10130000000EE66E74EC15F0172A1FC0E8FFE66EBB
:1013100074EC15F0172A1E50E66E172A1D50E66E63
:10132000172A14EEC9F0828AE6509FEC15F0172EAA
:1013300094EF09F0829A93EF0EF0CBC4E8FF010816
:10134000D8A470EF0EF0CCC4E8FF7F08D8B070EFDF
:101350000EF0CCC4E8FF9F08D8A070EF0EF0CCC40C
:101360000AF0800E0A5CE8CFCCF4E8CF0AF001EE78
:1013700090F0D8900A34E926D8B0EA2AEACF1BF0D8
:10138000E9CF1CF0CDC4E8FF000FD8A470EF0EF039
:10139000CEC4E8FFD8901C26D8B01B2A010E1B64CF
:1013A000D4EF09F070EF0EF01B62DDEF09F0D00E04
:1013B0001C64DDEF09F070EF0EF0CD51136ECEC45A
:1013C00014F014361350000F0008D8A4EFEF09F002
:1013D0001450000F0008D8B470EF0EF0058024EE12
:1013E000D0F0DECFEEFF142EF1EF09F045EF0AF05A
:1013F000CCC40AF0640E0A5CE8CF0AF003EE00F0F9
:1014000013EE24F0D8900A34E926D8B0EA2AD8900E
:101410000A34E126D8B0E22AEACF1BF0E9CF1CF06B
:10142000CDC4E8FF000FD8A470EF0EF0CEC4E8FFE3
:10143000D8901C26D8B01B2A030E1B6422EF0AF09A
:1014400070EF0EF01B622BEF0AF0200E1C642BEFE6
:101450000AF070EF0EF0CD51136ECEC414F01436B6
:101460001350000F0008D8A43CEF0AF01450000FEE
:101470000008D8B470EF0EF024EECFF0DFCFE6FF17
:10148000DECFEEFF142E3EEF0AF009BA93EF0EF016
:10149000D0EC0AF0CBC4E8FFE66E74EC15F0172A26
:1014A000CCC4E8FFE66E74EC15F0172ACDC4E8FF53
:1014B000E66E74EC15F0172ACEC4E8FFE66E74EC05
:1014C00015F0172AACEF0AF0189E0988E92AD7C050
:1014D000E8FFEF5CD8A493EF0EF0E92AD9C0E8FF4B
:1014E000EF5CD8A493EF0EF0188AE92AE92AE92ADA
:1014F000EE50E8CFDFF0000EE8CFDEF0EE50E8CFA0
:10150000E1F0000EE8CFE0F0E3C00AF0EE50000E8C
:10151000E8CFE2F0EF50E8CFE5F009BA93EF0EF034
:10152000D0EC0AF00AC0E3F0D7C0E8FFE66E74EC36
:1015300015F0172AD9C0E8FFE66E74EC15F0172AEB
:10154000D7C0E8FFE66E74EC15F0172AD9C0E8FFA3
:10155000E66E74EC15F0172A1E50E66E172A1D5021
:10156000E66E172A14EEC9F0828AE6509FEC15F059
:10157000172EB5EF0AF0829A05A0C4EF0AF0F29E8A
:10158000BCEC1DF00590F28E18AA93EF0EF0F29EBF
:10159000F29C1EEC17F0F28EF28C189A93EF0EF07C
:1015A00014EEC9F0FF0E1D6E1E6E176AE75009BAE1
:1015B000E3C0E8FFE66E74EC15F0172AE65074EC11
:1015C00015F0172A12004C0EB26EE20EB36EA19205
:1015D000A092310EB16EA1A2EBEF0AF0000EB16E37
:1015E000A192A09212001B501D5CD8A4FAEF0AF041
:1015F0001C501E5C1200CBC41BF0CCC41CF0000EAF
:101600001D6E120E1E6EF3EC0AF0D8A00EEF0BF05A
:10161000000E1B6E140E1C6E4FEF0CF0CBC41BF0B3
:10162000CCC41CF0000E1D6E730E1E6EF3EC0AF09F
:10163000D8A02AEF0BF0000E1D6E630E1E6EF3ECA9
:101640000AF0D8B06EEF0CF0000E1B6E750E1C6E1B
:101650004FEF0CF0CBC41BF0CCC41CF0000E1D6E81
:10166000970E1E6EF3EC0AF0D8A046EF0BF0000EBA
:101670001D6E940E1E6EF3EC0AF0D8B06EEF0CF0F7
:10168000000E1B6E990E1C6E4FEF0CF0CBC41BF0BE
:10169000CCC41CF0010E1D6E030E1E6EF3EC0AF09E
:1016A000D8A062EF0BF0000E1D6EFF0E1E6EF3EC65
:1016B0000AF0D8B06EEF0CF0010E1B6E050E1C6E1A
:1016C0004FEF0CF0CBC41BF0CCC41CF0010E1D6E10
:1016D000170E1E6EF3EC0AF0D8A07EEF0BF0010E91
:1016E0001D6E0D0E1E6EF3EC0AF0D8B06EEF0CF00E
:1016F000010E1B6E190E1C6E4FEF0CF0CBC41BF0CD
:10170000CCC41CF0010E1D6E9F0E1E6EF3EC0AF091
:10171000D8A09AEF0BF0010E1D6E7F0E1E6EF3EC3B
:101720000AF0D8B06EEF0CF0010E1B6EA10E1C6E0D
:101730004FEF0CF0CBC41BF0CCC41CF0010E1D6E9F
:10174000F30E1E6EF3EC0AF0D8A0B6EF0BF0010E0C
:101750001D6EF10E1E6EF3EC0AF0D8B06EEF0CF0B9
:10176000010E1B6EF50E1C6E4FEF0CF0CBC41BF080
:10177000CCC41CF0020E1D6E600E1E6EF3EC0AF05F
:10178000D8A0D2EF0BF0020E1D6E570E1E6EF3ECBA
:101790000AF0D8B06EEF0CF0020E1B6E620E1C6EDB
:1017A0004FEF0CF0CBC41BF0CCC41CF0020E1D6E2E
:1017B000AD0E1E6EF3EC0AF0D8A0EEEF0BF0020EA9
:1017C0001D6E890E1E6EF3EC0AF0D8B06EEF0CF0B1
:1017D000020E1B6EAF0E1C6E4FEF0CF0CBC41BF055
:1017E000CCC41CF0020E1D6EBB0E1E6EF3EC0AF094
:1017F000D8A009EF0CF0CBC4E8FF0208D8A46EEF24
:101800000CF0CCC4E8FFBB08D8A46EEF0CF06CEF72
:101810000CF0CBC41BF0CCC41CF0020E1D6EDF0E0E
:101820001E6EF3EC0AF0D8A025EF0CF0020E1D6E30
:10183000BB0E1E6EF3EC0AF0D8B06EEF0CF0020E89
:101840001B6EE10E1C6E4FEF0CF0CBC41BF0CCC432
:101850001CF0030E1D6E110E1E6EF3EC0AF0D8A0E4
:1018600041EF0CF0020E1D6EED0E1E6EF3EC0AF051
:10187000D8B06EEF0CF0030E1B6E130E1C6E4FEF04
:101880000CF0CBC4E8FF0308D8A46EEF0CF0CCC476
:10189000E8FFE708D8A46EEF0CF06CEF0CF0CAC4B8
:1018A000E8FF0608D8B46CEF0CF0CAC4E8FF45089E
:1018B000D8B46CEF0CF0CCC41EF0CBC41DF0CEC479
:1018C000E8FF1E26D8B01D2ACDC4E8FF1D26F3EC84
:1018D0000AF0D8B06EEF0CF0D8901200D880120049
:1018E000189C189E06900692069A069C09961896D1
:1018F00005920990099ECCC4E8FFE8CF2BF5CBC434
:10190000E8FFE8CF2AF5000FD8A490EF0CF0CCC484
:10191000E8FF000FD8A490EF0CF0188E68EF0EF0DF
:10192000CCC4E8FFFF08D8B4CBEF0CF0CBC4E8FF81
:10193000000FD8A4CBEF0CF0CCC4E8FF2308D8B03C
:101940004BEF0DF0CCC4E8FF9508D8B424EF0EF0AF
:10195000CCC4E8FF9608D8B411EF0EF0CCC4E8FF71
:101960009708D8B41BEF0EF0D8A06AEF0EF0CCC4E5
:10197000E8FF6308D8B06AEF0EF0CCC4E8FF730844
:10198000D8A06AEF0EF0F7EF0DF01886000EE8CF42
:10199000CBF468EF0EF0CBC4E8FF0208D8B45FEFD9
:1019A0000DF0CBC4E8FF0308D8B45FEF0DF0CBC453
:1019B000E8FF0108D8A4EDEF0CF0CCC40AF0F20E59
:1019C0000A5CD8A0EDEF0CF05D0EE8CFCCF4000E71
:1019D000E8CFCBF40682C5EF0CF0CBC40AF0010EC1
:1019E0000A5CD8A0FAEF0CF0CCC4E8FF7F08D8A0BE
:1019F00053EF0DF00692CCC4E8FF0008D8A406EF20
:101A00000DF0130EE8CFCCF4C5EF0CF0CCC4E8FF1A
:101A10000108D8A411EF0DF0140EE8CFCCF4C5EFF7
:101A20000CF0CCC4E8FF0208D8A41CEF0DF0150E92
:101A3000E8CFCCF4C6EF0CF0CCC4E8FF0308D8A480
:101A400027EF0DF0160EE8CFCCF4C6EF0CF0CCC4A7
:101A5000E8FF0D08D8B06AEF0EF0CCC4E8FF170815
:101A6000D8A06AEF0EF0CAC4E8FF0308D8B440EF6C
:101A70000DF0188ACCC4E8FF1108D8A440EF0DF08F
:101A8000CCC4E8FF090FE8CFCCF4000EE8CFCBF4CC
:101A9000189668EF0EF0188CCCC4E8FF0A08D8B48A
:101AA0000680C5EF0CF0CCC40AF0800E0A5CE8CFCB
:101AB000CCF4000EE8CFCBF4058248EF0DF0CBC498
:101AC000E8FF0308D8A4B2EF0DF0CCC4E8FFE708A4
:101AD000D8A4B2EF0DF0CAC4E8FF0608D8A480EF7E
:101AE0000DF0CDC4E8FFDE08D8A480EF0DF0CEC421
:101AF000E8FFAD08D8A480EF0DF0F29EF29CFF0045
:101B0000CAC4E8FF0608D8A49BEF0DF0CDC4E8FFD7
:101B1000DC08D8A49BEF0DF0CEC4E8FF1A08D8A4C7
:101B20009BEF0DF0A4C000F0000FD8A46AEF0EF0F8
:101B3000098068EF0EF0CAC4E8FF0608D8A4B0EF29
:101B40000DF0CDC4E8FFFE08D8A4B0EF0DF0CEC470
:101B5000E8FFED08D8A4B0EF0DF0098E68EF0EF0A5
:101B60006AEF0EF0CBC4E8FF0208D8A4C7EF0DF06F
:101B7000CCC4E8FFBB08D8A4C7EF0DF000EEA3F07B
:101B8000068A069806921896188A68EF0EF0CBC45B
:101B9000E8FF0308D8B42DEF0EF0CBC4E8FF02082D
:101BA000D8A4D9EF0DF0CCC4E8FFBB08D8A02DEF26
:101BB0000EF0CCC4E8FF8908D8A0EBEF0DF0CCC440
:101BC0000AF0280E0A5CE8CFCCF4000EE8CFCBF484
:101BD0000682C5EF0CF0CCC40AF0510E0A5CE8CFC7
:101BE000CCF4000EE8CFCBF4068268EF0EF0CCC444
:101BF0000AF0640E0A5CE8CFCCF4CCC40AF003EE21
:101C000000F013EE24F0D8900A34E926D8B0EA2A7E
:101C1000D8900A34E126D8B0E22A068A068C68EF0A
:101C20000EF0740EE8CFCCF4068A03EE20F0188A8A
:101C3000098668EF0EF0750EE8CFCCF4068A03EE45
:101C400022F0188668EF0EF0068A098600EEA7F0EB
:101C500009B800EEA5F068EF0EF0CBC4E8FF03086A
:101C6000D8B44DEF0EF0CCC4E8FFED08D8A04DEF8E
:101C70000EF004EE00F0000EE8CFCBF4CCC40AF076
:101C8000BC0E0A5CE8CFCCF4D8900A6E0A36E9267E
:101C9000D8B0EA2A068AC5EF0CF004EE48F0020E2E
:101CA000F36ECCC40AF0EE0E0A5E0AC0CCF4CBC4CC
:101CB0000AF0CBC4E8FFD8A0F33C0A5E0AC0CBF41C
:101CC000CCC40AF0D8900A34E926D8B0EA2A068AA9
:101CD000D8901200D880189C1200010E71EF0EF0FF
:101CE000020EE8CFCBF414EEC9F0FF0E1D6E1E6E8F
:101CF000176AE351E66E74EC15F0172ACAC4E8FFC0
:101D0000800FE8CFCAF4E650CAC4E8FF74EC15F0BF
:101D1000172AE65074EC15F0172AACEF0AF093EF8F
:101D20000EF052EC07F0176A18941890060E196E10
:101D30000F01AB98AB880F01AE500001080E146E76
:101D400018920696829AA494A3841200060E196E25
:101D50001200D890EF50010FEF6ED8A0C5EF0EF033
:101D6000E906D890EF50010FEF6ED8A0C5EF0EF046
:101D7000E906D890EF50010FEF6ED8A0C5EF0EF036
:101D8000E906D890EF50010FEF6E12009E90FF0E03
:101D9000CE6EC90ECF6E040005AADFEF0EF03B2E0B
:101DA000DFEF0EF0030E3B6E0588059A3EC0C0F0D3
:101DB0003E6A05BEDFEF0EF00F019D8A000105AE01
:101DC000F2EF0EF03C2EF2EF0EF0030E3C6E058C9F
:101DD000059E3FC0C1F03F6A05BAF2EF0EF00F0159
:101DE0009D8A0001012E0EEF0FF0640E016E22ECB1
:101DF0001AF002EE2DF0A9EC0EF018A80CEF0FF07F
:101E0000002E0CEF0FF0FAEC15F091EC0EF0189894
:101E10009E9A0F019D8A000198EC19F018A01CEF02
:101E20000FF019061950000FD8A47EEF0FF093ECB5
:101E30000EF09E9A7EEF0FF03AA027EF0FF0402EA3
:101E400027EF0FF0020E406E3A9001EEB3F03AA287
:101E500032EF0FF0412E32EF0FF0020E416E3A9248
:101E600001EEB7F03AA43DEF0FF0422E3DEF0FF038
:101E7000020E426E3A9401EEBBF03AA64AEF0FF022
:101E8000432E4AEF0FF0020E436E3A9601EEBFF07A
:101E9000A9EC0EF03AA857EF0FF0442E57EF0FF0D1
:101EA000020E446E3A9801EEC3F0A9EC0EF03AAA85
:101EB00064EF0FF0452E64EF0FF0020E456E3A9A74
:101EC00001EEC7F0A9EC0EF03AAC71EF0FF0462E20
:101ED00071EF0FF0020E466E3A9C01EECBF0A9ECCA
:101EE0000EF03AAE7EEF0FF0472E7EEF0FF0020EAF
:101EF000476E3A9E01EECFF0A9EC0EF08150366E9F
:101F0000DC1D361A36500418396EE1A98BEF0FF03C
:101F100033B0BEEF0FF036B0A5EF0FF0E1B797EF9B
:101F20000FF01FA0B8EF0FF0232EBEEF0FF02180AF
:101F30003380049039A0A1EF0FF001EEB3F0A9ECCB
:101F40000EF0AE811F90BEEF0FF0048021A0BEEF17
:101F50000FF0E1B7B3EF0FF01FA0BBEF0FF0232E90
:101F6000BEEF0FF021903380AE911F90BEEF0FF0C7
:101F700021B0BEEF0FF0010E236E1F80E1A9C4EF68
:101F80000FF033B2F7EF0FF036B2DEEF0FF0E1B73C
:101F9000D0EF0FF01FA2F1EF0FF0242EF7EF0FF0AC
:101FA00021823382049239A2DAEF0FF001EEB7F00A
:101FB000A9EC0EF0AE831F92F7EF0FF0048221A27E
:101FC000F7EF0FF0E1B7ECEF0FF01FA2F4EF0FF017
:101FD000242EF7EF0FF021923382AE931F92F7EF8A
:101FE0000FF021B2F7EF0FF0010E246E1F82E1A96E
:101FF000FDEF0FF033B430EF10F036B417EF10F000
:10200000E1B709EF10F01FA42AEF10F0252E30EFF2
:1020100010F021843384049439A413EF10F001EEFE
:10202000BBF0A9EC0EF0AE851F9430EF10F00484E5
:1020300021A430EF10F0E1B725EF10F01FA42DEF31
:1020400010F0252E30EF10F021943384AE951F94BC
:1020500030EF10F021B430EF10F0010E256E1F8428
:10206000E1A936EF10F033B669EF10F036B650EF55
:1020700010F0E1B742EF10F01FA663EF10F0262E2C
:1020800069EF10F021863386049639A64CEF10F0E4
:1020900001EEBFF0A9EC0EF0AE871F9669EF10F0CD
:1020A000048621A669EF10F0E1B75EEF10F01FA6DD
:1020B00066EF10F0262E69EF10F021963386AE976A
:1020C0001F9669EF10F021B669EF10F0010E266E31
:1020D0001F86E1A96FEF10F033B8A2EF10F036B809
:1020E00089EF10F0E1B77BEF10F01FA89CEF10F024
:1020F000272EA2EF10F021883388049839A885EFA5
:1021000010F001EEC3F0A9EC0EF0AE891F98A2EF1B
:1021100010F0048821A8A2EF10F0E1B797EF10F0BB
:102120001FA89FEF10F0272EA2EF10F02198338800
:10213000AE991F98A2EF10F021B8A2EF10F0010E97
:10214000276E1F88E1A9A8EF10F033BADBEF10F07B
:1021500036BAC2EF10F0E1B7B4EF10F01FAAD5EF16
:1021600010F0282EDBEF10F0218A338A049A39AA66
:10217000BEEF10F001EEC7F0A9EC0EF0AE8B1F9A87
:10218000DBEF10F0048A21AADBEF10F0E1B7D0EF0B
:1021900010F01FAAD8EF10F0282EDBEF10F0219AD4
:1021A000338AAE9B1F9ADBEF10F021BADBEF10F001
:1021B000010E286E1F8AE1A9E1EF10F033BC14EF85
:1021C00011F036BCFBEF10F0E1B7EDEF10F01FACF3
:1021D0000EEF11F0292E14EF11F0218C338C049C9A
:1021E00039ACF7EF10F001EECBF0A9EC0EF0AE8DAC
:1021F0001F9C14EF11F0048C21AC14EF11F0E1B727
:1022000009EF11F01FAC11EF11F0292E14EF11F0AE
:10221000219C338CAE9D1F9C14EF11F021BC14EF58
:1022200011F0010E296E1F8CE1A91AEF11F033BED7
:102230004DEF11F036BE34EF11F0E1B726EF11F09B
:102240001FAE47EF11F02A2E4DEF11F0218E338E85
:10225000049E39AE30EF11F001EECFF0A9EC0EF094
:10226000AE8F1F9E4DEF11F0048E21AE4DEF11F099
:10227000E1B742EF11F01FAE4AEF11F02A2E4DEFF9
:1022800011F0219E338EAE9F1F9E4DEF11F021BEA7
:102290004DEF11F0010E2A6E1F8E80500F0B366E1F
:1022A00080BA368884B0368A84B2368C84B4368E4E
:1022B000DD1D361A36500318396EE5B192EF11F074
:1022C000E4A192EF11F0E1A969EF11F034B09CEFB5
:1022D00011F036B083EF11F0E1B775EF11F020A0E7
:1022E00096EF11F02B2E9CEF11F02280348003909A
:1022F00039A07FEF11F001EE93F0A9EC0EF0AF8161
:1023000020909CEF11F0038022A09CEF11F0E1B728
:1023100091EF11F020A099EF11F02B2E9CEF11F00E
:1023200022903480AF9120909CEF11F022B09CEF6E
:1023300011F0010E2B6E2080E5B3D1EF11F0E4A374
:10234000D1EF11F0E1A9A8EF11F034B2DBEF11F0F9
:1023500036B2C2EF11F0E1B7B4EF11F020A2D5EF21
:1023600011F02C2EDBEF11F022823482039239A27D
:10237000BEEF11F001EE97F0A9EC0EF0AF832092C2
:10238000DBEF11F0038222A2DBEF11F0E1B7D0EF17
:1023900011F020A2D8EF11F02C2EDBEF11F02292D9
:1023A0003482AF932092DBEF11F022B2DBEF11F019
:1023B000010E2C6E2082E5B510EF12F0E4A510EFAF
:1023C00012F0E1A9E7EF11F034B41AEF12F036B4CD
:1023D00001EF12F0E1B7F3EF11F020A414EF12F0C7
:1023E0002D2E1AEF12F022843484039439A4FDEFC9
:1023F00011F001EE9BF0A9EC0EF0AF8520941AEFDE
:1024000012F0038422A41AEF12F0E1B70FEF12F0DA
:1024100020A417EF12F02D2E1AEF12F0229434841C
:10242000AF9520941AEF12F022B41AEF12F0010EB9
:102430002D6E2084E5B74FEF12F0E4A74FEF12F0B6
:10244000E1A926EF12F034B659EF12F036B640EF9C
:1024500012F0E1B732EF12F020A653EF12F02E2E59
:1024600059EF12F022863486039639A63CEF12F01B
:1024700001EE9FF0A9EC0EF0AF87209659EF12F015
:10248000038622A659EF12F0E1B74EEF12F020A614
:1024900056EF12F02E2E59EF12F022963486AF9797
:1024A000209659EF12F022B659EF12F0010E2E6E5F
:1024B0002086E5B98EEF12F0E4A98EEF12F0E1A9C3
:1024C00065EF12F034B898EF12F036B87FEF12F0E3
:1024D000E1B771EF12F020A892EF12F02F2E98EFD3
:1024E00012F022883488039839A87BEF12F001EEAD
:1024F000A3F0A9EC0EF0AF89209898EF12F00388B2
:1025000022A898EF12F0E1B78DEF12F020A895EF16
:1025100012F02F2E98EF12F022983488AF9920985D
:1025200098EF12F022B898EF12F0010E2F6E20886B
:10253000E5BBCDEF12F0E4ABCDEF12F0E1A9A4EFD3
:1025400012F034BAD7EF12F036BABEEF12F0E1B79C
:10255000B0EF12F020AAD1EF12F0302ED7EF12F028
:10256000228A348A039A39AABAEF12F001EEA7F050
:10257000A9EC0EF0AF8B209AD7EF12F0038A22AAB3
:10258000D7EF12F0E1B7CCEF12F020AAD4EF12F09F
:10259000302ED7EF12F0229A348AAF9B209AD7EFD1
:1025A00012F022BAD7EF12F0010E306E208AE5BD8C
:1025B0000CEF13F0E4AD0CEF13F0E1A9E3EF12F030
:1025C00034BC16EF13F036BCFDEF12F0E1B7EFEFBD
:1025D00012F020AC10EF13F0312E16EF13F0228C16
:1025E000348C039C39ACF9EF12F001EEABF0A9EC9E
:1025F0000EF0AF8D209C16EF13F0038C22AC16EF7B
:1026000013F0E1B70BEF13F020AC13EF13F0312E02
:1026100016EF13F0229C348CAF9D209C16EF13F024
:1026200022BC16EF13F0010E316E208CE5BF4BEF8C
:1026300013F0E4AF4BEF13F0E1A922EF13F034BE37
:1026400055EF13F036BE3CEF13F0E1B72EEF13F069
:1026500020AE4FEF13F0322E55EF13F0228E348E52
:10266000039E39AE38EF13F001EEAFF0A9EC0EF097
:10267000AF8F209E55EF13F0038E22AE55EF13F06F
:10268000E1B74AEF13F020AE52EF13F0322E55EFC0
:1026900013F0229E348EAF9F209E55EF13F022BE82
:1026A00055EF13F0010E326E208E1DEF00F04BEC53
:1026B0001CF036EC1CF00F01210E9D6E00018150C4
:1026C000F286100E9E6E0F01FF0E5A6F000104007D
:1026D000040E0F01506F0F01A3840001040EA56EBC
:1026E0009F6AA26AB86A786AF16AF18ED08EF29413
:1026F000F28CF28E9D9C9E9806A6D4EF13F006A451
:1027000087EF13F033EC1AF00694010E5C6E2AEC9E
:1027100007F093EC0EF0069609B094EF13F009BEA3
:10272000C8EF13F0D0EF13F0F29EF29CD09E099008
:1027300011EED0F0090E4F6E100EE66E000EE66E32
:102740004F2E9CEF13F011EEE2F0480E4F6E000E8C
:10275000E66E4F2EA7EF13F014EE00F0240E4F6E2E
:10276000100EE66E000EE66E4F2EB0EF13F014EE74
:1027700048F0480E4F6E000EE66E4F2EBBEF13F082
:10278000E1EC1CF00400D08EF28CF28ED0EF13F04E
:1027900005848296E6C0E8FF0D6EE7C0E8FF0E6E86
:1027A0009E9A0F019D8A00010F019D8A000100EE93
:1027B000B0F0086AE5B1E0EF13F0E4A1E7EF13F041
:1027C000000EE8CFB0F0E8CFB1F0EDEF13F0040069
:1027D0000F01010EC26E8EEC14F0082A00EEB2F06A
:1027E000E5B3F6EF13F0E4A3FDEF13F0000EE8CF2E
:1027F000B2F0E8CFB3F003EF14F004000F01050EC0
:10280000C26E8EEC14F0082A00EEB4F0E5B50CEFC1
:1028100014F0E4A513EF14F0000EE8CFB4F0E8CF05
:10282000B5F019EF14F004000F01090EC26E8EEC22
:1028300014F0082A00EEB6F0E5B722EF14F0E4A792
:1028400029EF14F0000EE8CFB6F0E8CFB7F02FEF85
:1028500014F004000F010D0EC26E8EEC14F0082A65
:1028600000EEB8F0E5B938EF14F0E4A93FEF14F04A
:10287000000EE8CFB8F0E8CFB9F045EF14F004004F
:102880000F01110EC26E8EEC14F0082A00EEBAF0A1
:10289000E5BB4EEF14F0E4AB55EF14F0000EE8CFBB
:1028A000BAF0E8CFBBF05BEF14F004000F01150E97
:1028B000C26E8EEC14F0082A00EEBCF0E5BD64EFA9
:1028C00014F0E4AD6BEF14F0000EE8CFBCF0E8CFED
:1028D000BDF071EF14F004000F01190EC26E8EEC02
:1028E00014F0082A00EEBEF0E5BF7AEF14F0E4AF72
:1028F00081EF14F0000EE8CFBEF0E8CFBFF087EF15
:1029000014F004000F011D0EC26E8EEC14F07AEF6D
:1029100013F0070EE126D8B0E22A1200000114EEEF
:1029200091F00850070DF350D890E126D8B0E22A74
:10293000E750000FD8B4E9EF14F0FF0E076E072E32
:102940009FEF14F0FF0E076E072E9FEF14F0FF0E9F
:10295000076E072EA9EF14F0FF0E076E072EAEEFDD
:1029600014F00F01C282C2B2B3EF14F00F010F0EC8
:10297000C464BFEF14F00001E650E6501200E60612
:102980000F01C3500001E626D8B0E72A0F01C4505A
:102990000001E62638EC15F009A2D9EF14F0E55055
:1029A000E5500F01C4500001E66E0F01C350000155
:1029B000E66E2CEC15F009A0E8EF14F0E550E550B8
:1029C0000F01C4500001E66E0F01C3500001E66E16
:1029D0001200E650E1CFD9FFE2CFDAFF57EC15F055
:1029E000D9CFE1FFDACFE2FF51C0E6FF50C0E6FFEA
:1029F000D9CFE1FFDACFE2FF61EC15F0D9CFE1FFEB
:102A0000DACFE2FF50C0E6FF51C0E6FF030E4D6E85
:102A1000D9CFE1FFDACFE2FFD890E632E6324D2E91
:102A200008EF15F0D9CFE1FFDACFE2FFE6CFEEFFF6
:102A3000E6CFEEFFD9CFE1FFDACFE2FFE5500A0E95
:102A4000E66EE66AE66A100EE66E000EE66E000EB0
:102A5000E66E000EE66E120000000F01C450000189
:102A6000E65C4D6E0F01C3500001E65C42EF15F0CD
:102A700000000F01C4500001E65C4D6E0F01C35011
:102A80000001E65CD8A04D064D10D8B453EF15F008
:102A90004DBE4FEF15F0098209900994120009927A
:102AA0000980099412000992099009841200E6CF66
:102AB00051F0E6CF50F0E6CF52F0E6CF53F06BEF97
:102AC00015F0E6CF51F0E6CF50F0E650E650E6CFF5
:102AD00052F0E6CF53F053C0E8FF515E52C0E8FF1A
:102AE000D8A0523C505E12001A6E1C6E080E1B6E6F
:102AF0001C501C321C5002E384EF15F01EA086EF20
:102B000015F0D88086EF15F01EB0D89002E297EF4E
:102B100015F01DBC8FEF15F01D8C90EF15F01D9C6E
:102B20001EB296EF15F01E8297EF15F01E921D3221
:102B30001E321C501B2E79EF15F01A501200166E23
:102B4000136EE1BFB6EF15F0080E146E156AD8903B
:102B50001332D8B0152A142EA8EF15F0D89015B05E
:102B6000D8800F01AC90D8B0AC8000019EA8B6EF21
:102B700015F016500F01AD6E0F01ACA2BDEF15F0B0
:102B8000000116501200E1C0E8FF070BE8CFE0F0AB
:102B9000470E0F01AF6E0001E0C0E8FF0108D8B496
:102BA00008EF16F0230E0F01AF6E0001E0C0E8FF42
:102BB0000208D8B408EF16F0110E0F01AF6E000135
:102BC000E0C0E8FF0308D8B408EF16F00B0E0F01C1
:102BD000AF6E0001E0C0E8FF0408D8B408EF16F0BB
:102BE000050E0F01AF6E0001E0C0E8FF0508D8B484
:102BF00008EF16F0230E0F01AF6E0001E1C0E8FFF1
:102C0000780BE8CFE0F00A0E070BE025E8CFE1F003
:102C1000000EE8CFE0F0630EE1BF220E0F01AC6EB4
:102C20000001D00EE1BF900E0F01AB6E000112004B
:102C3000000E0F01746E756AE2EC17F0E8CFE3F056
:102C4000000EE8CFE2F0E2EC17F0E8CFD7F0000E8C
:102C5000E8CFD6F0E2EC17F0E8CFD9F0000EE8CFDD
:102C6000D8F0E2EC17F0E8CFDFF0E8CFADF0E2EC1F
:102C700017F0E8CFDEF0E8CFACF0836EE2EC17F0AF
:102C8000E8CFE1F0E06BE2EC17F0E8CFE5F0E2EC42
:102C900017F0E8CFE4F0E2EC17F0E8CFD3F0000E45
:102CA000E8CFD2F0E2EC17F0E8CFD4F0E2EC17F086
:102CB000E8CFD5F0E2EC17F0E8CFE6F00D6EE2ECED
:102CC00017F0E8CFE7F00E6EE2EC17F0E8CFE8F08F
:102CD0000B6EE2EC17F0E8CFE9F00C6EE2EC17F0C7
:102CE000E8CFEAF0116EE2EC17F0E8CFEBF0126EED
:102CF000E2EC17F0E8CFECF00F6EE2EC17F0E8CF63
:102D0000EDF0106EE2EC17F0E8CFDCF0E2EC17F03B
:102D1000E8CFDDF0E2EC17F0300BE8CFDBF00F018D
:102D2000C16E0001E2EC17F0E8CFDAF0F28AE2ECD3
:102D300017F0E8CF20F3E2EC17F0E8CF21F3E2EC54
:102D400017F0E8CF22F3E2EC17F0E8CF23F31B0EE5
:102D50000F01746E756AE2EC17F0E8CFA3F0E2ECB5
:102D600017F0E8CFA4F0B8EC16F0A1EF17F01200BE
:102D700020C3AAF021C3ABF0A96BD890AB37AA3718
:102D8000A937AB37AA37A937A951000FD8A4D6EF76
:102D900016F0AA51000FD8A4D6EF16F0AB51000FD1
:102DA000D8A4D6EF16F0D58EF0EF16F0D58EA9C0C8
:102DB00047F3AAC048F3ABC049F3A9C044F3AAC083
:102DC00045F3ABC046F320C34AF321C34BF34AC3D8
:102DD0004CF34BC34DF3000EE8CF68F0040E5D6E6C
:102DE000A76BA86B120003EE00F013EE24F0100E98
:102DF000E8CF5DF0EFBE03EF17F0EE50E650EE5077
:102E0000E65007EF17F0EECFE6FFEECFE6FF5D2EC0
:102E1000FAEF16F0040E5D6E1200000EE8CF44F3D8
:102E2000E8CF45F3E8CF46F3D60ED66E03EE23F097
:102E3000000EEF6EED50000EEF6E1200000E0F014F
:102E4000746E756AE3C0E8FFD2EC17F0742A742A36
:102E5000DFC0E8FFD2EC17F0DEC0E8FFD2EC17F0DD
:102E6000C3EC15F0E1C0E8FFD2EC17F0E5C0E8FFD5
:102E7000D2EC17F0E4C0E8FFD2EC17F00B0E0F0114
:102E8000746E756AE6C0E8FF0D6ED2EC17F0E7C00D
:102E9000E8FF0E6ED2EC17F0E8C0E8FF0B6ED2EC44
:102EA00017F0E9C0E8FF0C6ED2EC17F00F0E746E4D
:102EB000756AEAC0E8FF116ED2EC17F0EBC0E8FFCC
:102EC000126ED2EC17F0ECC0E8FF0F6ED2EC17F0E8
:102ED000EDC0E8FF106ED2EC17F0DCC0E8FFD2ECDA
:102EE00017F0DDC0E8FFD2EC17F0DBC0E8FF300BD5
:102EF000D2EC17F0DBC0E8FF300B0F01C16E000110
:102F0000DAC0E8FFD2EC17F0F28A20C3E8FFD2EC77
:102F100017F021C3E8FFD2EC17F022C3E8FFD2EC90
:102F200017F023C3E8FFD2EC17F01B0E0F01746EED
:102F3000756AA3C0E8FFD2EC17F0A4C0E8FFD2EC9A
:102F400017F0E5515D17E51D356E358E358C358AE8
:102F5000E5B9359A358835500F01926E0001E53993
:102F6000356E351C356E3530070B0F01966E00013E
:102F7000E41D376EE51D37140F015D6F5C6B0001BA
:102F8000E4510001AF170001ADC0E8FFE415376E52
:102F90000F0B806E37B8808AD89037323738070BDE
:102FA000846E1200736E7F9E7F84550E7E6EAA0E15
:102FB0007E6E7F827FB2DAEF17F07F94742A73CF30
:102FC000E8FF12007F9E7F8073CFE8FF742A120013
:102FD000546A556A566A576A586A596A5A6A5B6AE5
:102FE000516A526A4F6A4C6A1200536A52A0FCEF4F
:102FF00017F0526A64EF18F065EC18F004004D6A9F
:103000004D2A506AF00E486E71EC18F0BAEC18F0C8
:103010004E6ED8904E36BAEC18F04E124E50000F4D
:10302000D8B41FEF18F04E500108D8B449EF18F08B
:103030004E500208D8B44BEF18F061EF18F04D5025
:103040005118D8A42AEF18F0020E4E6ED6EC18F0E4
:103050004EEF18F051504D5CD8A037EF18F0010E2C
:103060004E6ED6EC18F04D50506E4EEF18F047EC07
:1030700019F0496E4950000FD8B443EF18F0020E12
:103080004E6E4EEF18F0010E4E6E4D50506E4EEFDC
:1030900018F04BEF18F0D6EC18F004000400D890AC
:1030A0004E3080EC18F04D2A4D504108D8A406EF60
:1030B00018F05050516ED8B4522A010E536E64EF7E
:1030C00018F0516A64EF18F01200829229EC1CF09B
:1030D00029EC1CF0828229EC1CF029EC1CF0120077
:1030E000486E080E496E4A6A4A90D8904832D8B065
:1030F0004A804A5080EC18F0492E73EF18F0120005
:1031000009BC85EF18F0F29EF29C4A6E8292A1EC07
:1031100018F04AB08FEF18F0829296EF18F0A1ECF9
:1031200018F0A1EC18F0A1EC18F08282280E2AEC1D
:103130001CF08282A1EC18F009BC1200F28CF28E15
:10314000120000000000000000000000000000006D
:103150000000000000001200080E496EBAEC18F0E2
:103160004A6ED8904AB0D8804832492EAEEF18F057
:103170004850120009BCBFEF18F0F29EF29C8292F8
:10318000A1EC18F0828294824A6A070E2AEC1CF0A5
:1031900082B24A801F0E2AEC1CF094924A50A1EC95
:1031A00018F009BC1200F28CF28E120086EC19F0B5
:1031B0004E30010BD8B412EF19F04B500008D8B4C0
:1031C00002EF19F04B500108D8B404EF19F04B503E
:1031D0000208D8B406EF19F04B500308D8B408EF32
:1031E00019F04B500408D8B40AEF19F04B500508F9
:1031F000D8B40CEF19F04B500608D8B40EEF19F004
:1032000010EF19F0EF8E1200EF8C1200EF8A12000F
:10321000EF881200EF861200EF841200EF82120096
:10322000EF8012004B500008D8B437EF19F04B5024
:103230000108D8B439EF19F04B500208D8B43BEF6D
:1032400019F04B500308D8B43DEF19F04B50040867
:10325000D8B43FEF19F04B500508D8B441EF19F03E
:103260004B500608D8B443EF19F045EF19F0EF9E24
:103270001200EF9C1200EF9A1200EF981200EF96E6
:103280001200EF941200EF921200EF90120086EC01
:1032900019F04B500008D8B46EEF19F04B500108EC
:1032A000D8B472EF19F04B500208D8B474EF19F08B
:1032B0004B500308D8B477EF19F04B500408D8B43A
:1032C0007AEF19F04B500508D8B47DEF19F04B5048
:1032D0000608D8B480EF19F083EF19F0EFAE000CB8
:1032E000010CEFAC000C010CEFAA000C010CEFA8D4
:1032F000000C010CEFA6000C010CEFA4000C010C5B
:10330000EFA2000C010CEFA0000C010C4D043F08D3
:103310004A6E070B4B6ED8904A32D8904A32D890FA
:103320004A3200EE54F04A50E926D8B0EA2A120098
:1033300005B4CBEF19F00D50000FD8A4A7EF19F08A
:103340000E50000FD8A4A7EF19F0C3EF19F00E2EFE
:10335000DFEF19F00D50000FD8B4B3EF19F00D06E0
:103360000E06DFEF19F0E8C0E8FF0B6E000FD8A4DF
:10337000C1EF19F0E9C0E8FF0C6E000FD8B4C3EF3D
:1033800019F005848296E6C0E8FF0D6EE7C0E8FFFD
:103390000E6EDFEF19F00C2EDFEF19F00B50000F5F
:1033A000D8B4D7EF19F00B060C06DFEF19F08286C0
:1033B0000594E8C0E8FF0B6EE9C0E8FF0C6E05B6A7
:1033C0000FEF1AF01150000FD8A4EEEF19F01250C1
:1033D000000FD8A4EEEF19F008EF1AF0122E120029
:1033E0001150000FD8B4F8EF19F0110612061200B0
:1033F000ECC0E8FF0F6E000FD8A406EF1AF0EDC086
:10340000E8FF106E000FD8B408EF1AF00586829816
:10341000EAC0E8FF116EEBC0E8FF126E1200102E3A
:1034200012000F50000FD8B419EF1AF00F06100653
:10343000120082880596ECC0E8FF0F6EEDC0E8FF31
:10344000106E12005C2E96EF1AF0010E5C6E4F505B
:10345000000FD8A430EF1AF04C50D8B496EF1AF001
:10346000068496EF1AF08280100E4E60BDEF1AF0BF
:1034700065EC18F0F8EC1BF0BE0E70EC18F04E0482
:10348000546E01EED0F0D8905434D890E926D8B0DC
:10349000EA2A10EEEEF05450E126D8B0E22AACEC65
:1034A00018F05B6EACEC18F0546E97EC1AF0D8A0E4
:1034B0006DEF1AF0E7B064EF1AF0030EE76E20EC40
:1034C0001CF0829096EF1AF0E7B272EF1AF0E76AFA
:1034D000100EEE6EEE6A81EF1AF0D8A477EF1AF0B4
:1034E0005AEF1AF0D8A477EF1AF067EF1AF0E76AEC
:1034F00054500708D8A081EF1AF05450EE6E5BC00C
:10350000EEFF20EC1CF082904E064E50000FD8A427
:1035100096EF1AF04C50D8B493EF1AF04C38040FD1
:103520004E6E96EF1AF04F500F0B4E6E1200545025
:103530000508D8A4A7EF1AF05B505008D8A4A4EF50
:103540001AF0D894D8801200D890D8941200545011
:10355000FF08D8A4A4EF1AF0D884A2EF1AF05450B0
:10356000FF08D8A4BBEF1AF05B50FF08D8A4BBEF4C
:103570001AF0D8841200D89412004E500F0BD8B411
:10358000D7EF1BF00108D8B49CEF1BF04E500F0B87
:103590000208D8B44BEF1BF04E500F0B0308D8B401
:1035A000E0EF1AF065EC18F0F8EC1BF0440E70EC4C
:1035B00018F082904E06FF0ECE6EC90ECF6E12002E
:1035C00065EC18F0F8EC1BF0B80E70EC18F0000E7B
:1035D00070EC18F065EC18F0F8EC1BF0BE0E70EC17
:1035E00018F0000E70EC18F04E380F0B546E5406A5
:1035F00004EE00F0D890543654365434D890E9266E
:10360000D8B0EA2A4E500F0B546ED8905434D8904C
:10361000E926D8B0EA2A10EEF7F04E380F0B546EB8
:103620005404E126D8B0E22AACEC18F0ACEC18F067
:103630005B6EACEC18F0546EAFEC1AF0D8A42FEF20
:103640001BF0E7B028EF1BF0010EE76E34EF1BF024
:10365000E76A100EEE6E000EEE6E34EF1BF0E76AB6
:1036600054C0EEFF5BC0EEFF65EC18F0F8EC1BF009
:103670004E0E70EC18F0000E70EC18F0090E70ECA5
:1036800018F065EC18F0F8EC1BF0B40E70EC18F0C4
:1036900082904E06120065EC18F0F8EC1BF0B80EA4
:1036A00070EC18F0000E70EC18F065EC18F0F8EC07
:1036B0001BF0BE0E70EC18F0000E70EC18F04E38D7
:1036C0000F0B546E540604EE00F0D8905436543666
:1036D0005434D890E926D8B0EA2A4E040F0B010FD3
:1036E000546ED8905434D890E926D8B0EA2AACEC7D
:1036F00018F0ACEC18F0ACEC18F0ACEC18F05B6E19
:10370000ACEC18F0EE6E5BC0EEFF65EC18F0F8EC78
:103710001BF04E0E70EC18F0000E70EC18F0010E5D
:1037200070EC18F065EC18F0F8EC1BF0B40E70ECCF
:1037300018F082904E06120065EC18F0F8EC1BF0C1
:10374000B80E70EC18F0000E70EC18F065EC18F084
:10375000F8EC1BF0BE0E70EC18F0000E70EC18F0D8
:103760004E380F0B546E540604EE00F0D8905436C9
:1037700054365434D890E926D8B0EA2AACEC18F084
:10378000ACEC18F0ACEC18F0ACEC18F05B6EACECF8
:1037900018F0EE6E5BC0EEFFACEC18F05B6EACECBC
:1037A00018F0EE6E5BC0EEFF82904E0612004E38AF
:1037B0000F0B546E5404000FD8B4E7EF1BF0100E3B
:1037C0004E5E4E50F00B040F4E6E829012004F5022
:1037D0000F0B000FD8A4F3EF1BF04C38F00B040FC5
:1037E0004E6E829012004E6E20EC1CF08290120001
:1037F000550E70EC18F0100E4E6407EF1CF004EE3E
:1038000048F04E380F0B546E54060BEF1CF04E046C
:10381000546E01EEE2F05450080DF350D890E926B2
:10382000D8B0EA2A070ED890E926D8B0EA2A080EBE
:10383000576EED5070EC18F0572E19EF1CF0120077
:1038400065EC18F0CC0E70EC18F0440E70EC18F02B
:103850001200FF0ECB6E020ECA6ECC6A9E92CA8414
:103860009EA230EF1CF0CA949E92120004EE91F0DA
:10387000080E086E0A0EEE6EEE6AEE6A100EEE6E1E
:10388000000EEE6E000EEE6E000EEE6E082E3AEF9B
:103890001CF0086A1200F26AD16A0400F18E450E2B
:1038A000D56ED60ED66E0F01000E5F6F5E6FB56AD5
:1038B0000F01300EC16E0F01BE0EC06E0F01010E62
:1038C000C26E0F01000E5B6F0F01000E806E0F01C4
:1038D000FF0E936E0F01FF0E816E0F01C40E946EEA
:1038E0000F01CF0E826E0F01000E956E0F01000EBC
:1038F000836E080E846E040066EC1DF00F017F6A73
:10390000000118EC16F0C3EC15F091EC0EF0FF0E70
:10391000CE6EC90ECF6E310ECD6E010ECA6EFF0E89
:10392000CB6E9D92CC6A9E920A0E5C6EFF0E016E6B
:1039300029EC1CF0012E98EF1CF05C2E96EF1CF089
:103940000F01210E9D6E00018150100E9E6E0F0121
:10395000FF0E5A6F0001F29C99828150216E811CEA
:103960008150AE6F000E336E030E3B6E3C6E3E6AAE
:103970003F6A640E016EFF0E026E036E046E010E4E
:103980005C6E040E5D6E11EED0F0090E4F6E100EDF
:10399000E66E000EE66E4F2EC7EF1CF014EE00F040
:1039A000240E4F6E100EE66E000EE66E4F2ED2EF16
:1039B0001CF0A4C0E8FF0108D8A4E1EF1CF071EFEF
:1039C0001DF00400E8EC17F0069E06944F6A4C6A5E
:1039D0004E6A0400098CF5EC17F0040053A04CEF7C
:1039E0001DF0069210EE5BF0E750000FD8B44CEFDC
:1039F0001DF0E7502808D8A4068206B205EF1DF096
:103A000006B43CEF1DF008EF1DF006BE3CEF1DF0C4
:103A100001EEE2F006B204EE48F010EE54F0D89059
:103A200006A216EF1DF04C3417EF1DF04F341E6E3A
:103A30001E361E34D890E926D8B0EA2A10EE54F08B
:103A4000080E146EE6CFEEFF142E22EF1DF006A234
:103A500033EF1DF04C2A090E4C5CD8A4EBEF1CF0A0
:103A6000068EEBEF1CF04F2A090E4F5CD8A4EBEF4B
:103A70001CF00684EBEF1CF006A4EBEF1CF006AE86
:103A8000EBEF1CF020EC1CF082904F500F0B4E6EB1
:103A9000640E016E5DEF1DF04F50000FD8A442EF91
:103AA0001DF04C50000FD8B45DEF1DF082904C38E3
:103AB000F00B040F4E6E640E016E0400BCEC1DF0A2
:103AC0000400096A099C91EC0EF0120000EE00F06F
:103AD000EE6AEA500F08D8A468EF1DF0696B6A6BB4
:103AE0001200098C480E146E01EEE2F01D0E0F015B
:103AF000746E756AE2EC17F0E8CFEEFF142E7AEFE1
:103B00001DF0E2EC17F0E8CF4FF0480E146E04EE13
:103B100048F0660E0F01746E756AE2EC17F0E8CF9C
:103B2000EEFF142E8DEF1DF0E2EC17F0E8CF4CF015
:103B3000A4EF1DF020EC1CF082904F500F0B4E6E46
:103B4000640E016EB7EF1DF065EC18F04F50000FDA
:103B5000D8A49AEF1DF04C50000FD8B4B7EF1DF069
:103B600082904C38F00B040F4E6E640E016E040010
:103B7000069E069461EF1DF0480E146E01EEE2F011
:103B80001D0E0F01746E756AEECFE8FFD2EC17F0D0
:103B9000142EC4EF1DF04FC0E8FFD2EC17F0480E12
:103BA000146E04EE48F0660E0F01746E756AEECF67
:103BB000E8FFD2EC17F0142ED7EF1DF04CC0E8FF51
:063BC000D2EC17F0120028
:10F000005E6ED8385F6EE9CF61F0EACF60F0000144
:10F010009EB017EC78F09EBA2CEC78F061C0E9FF56
:10F0200060C0EAFF5F38D86E5E3A5E3810009E908E
:10F03000FF0ECE6EC90ECF6E0400012E22EF78F0C7
:10F04000640E016E18A02BEF78F0192E2BEF78F0DC
:10F050009CEC78F09E9A120004009E9A0F01AB502F
:10F060000001060BD8A49AEF78F017506208D8A0D8
:10F070009AEF78F018800F01AE500001166E04EE82
:10F08000C9F01750D890E926D8B0EA2A1650EF6E8A
:10F09000172A17500108D8B4F2EF06F017500208EB
:10F0A000D8A465EF78F016504508D8A4E9EF06F02B
:10F0B0000C0E146EACEF78F016501008D8A465EF63
:10F0C00078F0070E146EACEF78F01750145CD8A4EB
:10F0D000ACEF78F0CAC4E8FF1008D8A47AEF78F053
:10F0E00018B27AEF78F0CFC4E8FF020F1426188226
:10F0F000ACEF78F0FF0E1D6E1E6E14061404176E32
:10F1000004EEC9F0EF50AFEC78F0E92A172E82EF49
:10F1100078F01E50EF5CD8A49AEF78F0E92A1D50E1
:10F12000EF5CD8A49AEF78F0068618900F019D9AAC
:10F13000000112009CEF78F0176A18941890060EE0
:10F14000196E0F01AB98AB880F01AE500001080E8D
:10F15000146E189206961200060E196E12001A6EA0
:10F160001C6E080E1B6E1C501C321C5002E3BFEFBD
:10F1700078F01EA0C1EF78F0D880C1EF78F01EB013
:10F18000D89002E2D2EF78F01DBCCAEF78F01D8C67
:10F19000CBEF78F01D9C1EB2D1EF78F01E82D2EF3B
:10F1A00078F01E921D321E321C501B2EB4EF78F0E8
:04F1B0001A501200DF
:020000040030CA
:0100000015EA
:0100010013EB
:0100020006F7
:0100030023D9
:0100050009F1
:010006009069
:0100080000F7
:0200000400F00A
:1000000001000000000200FFF102330000000000C8
:1000100000000000003000000000000000000000B0
:1000200000000000000000000000000000000000D0
:1000300000000000000000000000000000000000C0
:1000400000000000000000000000000000000000B0
:1000500000000000000000000000000000000000A0
:100060000000000000000000000000000000000090
:100070000000000000000000000000000000000080
:100080000000000000000000000000000000000070
:100090000000000000000000000000000000000060
:0F00A00000000000000000000000000000000051
:00000001FF
