:020000040000FA
:04000000A5EF10F068
:020004000000FA
:08000800828AA394A494100065
:080018005B6ED8385C6EE9CF85
:100020005EF0EACF5DF00001F2B0A6EC05F0F2B4AC
:1000300029EC00F09EB0AAEF0CF09EBABAEC06F0E4
:100040005EC0E9FF5DC0EAFF5C38D86E5B3A5B38A2
:100050001000F294D59ED60ED66ED58EE2CF5FF00C
:10006000E1CF60F0A551000FD8A43EEF00F0A651FB
:10007000000FD8A43EEF00F053EF00F05A2E85EFAA
:1000800005F0040E5A6EA607D8B049EF00F0D890DC
:10009000A507A551000FD8A485EF05F0A651000FC4
:1000A000D8A485EF05F044C3E8FF000FD8A47DEF86
:1000B00002F045C3E8FF000FD8A47DEF02F046C36D
:1000C000E8FF000FD8A47DEF02F0A5EC13F003EEDB
:1000D00023F013EE24F096EC05F004BE8AEF00F056
:1000E000E7AC79EF00F0E738030B655DD8A48AEF41
:1000F00000F067B18AEF00F0ADA183EF00F08090CF
:10010000EF9085EF00F08080EF8001C325F300C3FE
:1001100024F3678113EE26F096EC05F004BEABEFF6
:1001200000F0E7AC9AEF00F0E738030B655DD8A468
:10013000ABEF00F067B3ABEF00F0ADA3A4EF00F0BE
:100140008092EF92A6EF00F08082EF8203C327F344
:1001500002C326F3678313EE28F096EC05F004BE85
:10016000CCEF00F0E7ACBBEF00F0E738030B655DC8
:10017000D8A4CCEF00F067B5CCEF00F0ADA5C5EF8B
:1001800000F08094EF94C7EF00F08084EF8405C303
:1001900029F304C328F3678513EE2AF096EC05F0E3
:1001A00004BEEDEF00F0E7ACDCEF00F0E738030B46
:1001B000655DD8A4EDEF00F067B7EDEF00F0ADA7F7
:1001C000E6EF00F08096EF96E8EF00F08086EF868D
:1001D00007C32BF306C32AF3678713EE2CF096ECC4
:1001E00005F004BE0EEF01F0E7ACFDEF00F0E738DC
:1001F000030B655DD8A40EEF01F067B90EEF01F0B7
:10020000ADA907EF01F0809AEF9809EF01F0808A1D
:10021000EF8809C32DF308C32CF3678913EE2EF082
:1002200096EC05F004BE2FEF01F0E7AC1EEF01F0F5
:10023000E738030B655DD8A42FEF01F067BB2FEF04
:1002400001F0ADAB28EF01F08490EF9A2AEF01F0B6
:100250008480EF8A0BC32FF30AC32EF3678B13EE50
:1002600030F096EC05F004BE50EF01F0E7AC3FEF44
:1002700001F0E738030B655DD8A450EF01F067BDCE
:1002800050EF01F0ADAD49EF01F08492EF9C4BEFE0
:1002900001F08482EF8C0DC331F30CC330F3678D12
:1002A00013EE32F096EC05F004BE71EF01F0E7AC0E
:1002B00060EF01F0E738030B655DD8A471EF01F042
:1002C00067BF71EF01F0ADAF6AEF01F08494EF9E6C
:1002D0006CEF01F08484EF8E0FC333F30EC332F35F
:1002E000678F03EE22F013EE34F096EC05F004BEB7
:1002F00094EF01F0E7AC83EF01F0E738030B655DA5
:10030000D8A494EF01F066B194EF01F0ACA18DEFA9
:1003100001F08390EF908FEF01F08380EF8011C3A5
:1003200035F310C334F3668113EE36F096EC05F026
:1003300004BEB5EF01F0E7ACA4EF01F0E738030B22
:10034000655DD8A4B5EF01F066B3B5EF01F0ACA3DD
:10035000AEEF01F08392EF92B0EF01F08382EF8273
:1003600013C337F312C336F3668313EE38F096ECFB
:1003700005F004BED6EF01F0E7ACC5EF01F0E738B9
:10038000030B655DD8A4D6EF01F066B5D6EF01F09A
:10039000ACA5CFEF01F08394EF94D1EF01F083840B
:1003A000EF8415C339F314C338F3668513EE3AF0BE
:1003B00096EC05F004BEF7EF01F0E7ACE6EF01F0D4
:1003C000E738030B655DD8A4F7EF01F066B7F7EFE8
:1003D00001F0ACA7F0EF01F08396EF96F2EF01F099
:1003E0008386EF8617C33BF316C33AF3668713EE93
:1003F0003CF096EC05F004BE18EF02F0E7AC07EF16
:1004000002F0E738030B655DD8A418EF02F066B977
:1004100018EF02F0ACA911EF02F08398EF9813EFF8
:1004200002F08388EF8819C33DF318C33CF3668953
:1004300013EE3EF096EC05F004BE39EF02F0E7ACA7
:1004400028EF02F0E738030B655DD8A439EF02F01E
:1004500066BB39EF02F0ACAB32EF02F0839AEF9A51
:1004600034EF02F0838AEF8A1BC33FF31AC33EF3D3
:10047000668B13EE40F096EC05F004BE5AEF02F0E6
:10048000E7AC49EF02F0E738030B655DD8A45AEFFB
:1004900002F066BD5AEF02F0ACAD53EF02F0839C60
:1004A000EF9C55EF02F0838CEF8C1DC341F31CC30E
:1004B00040F3668D13EE42F096EC05F004BE7BEF40
:1004C00002F0E7AC6AEF02F0E738030B655DD8A4F1
:1004D0007BEF02F066BF7BEF02F0ACAF74EF02F08F
:1004E000839EEF9E76EF02F0838EEF8E1FC343F361
:1004F0001EC342F3668FD8EF02F044C3A9F045C390
:10050000AAF046C3ABF0D890AB07D8B08FEF02F09B
:10051000D890AA07D8B08FEF02F0D890A907A9C049
:1005200044F3AAC045F3ABC046F344C3E8FF000F51
:10053000D8A4A9EF02F045C3E8FF000FD8A4A9EFA3
:1005400002F046C3E8FF000FD8A4A9EF02F065EF60
:1005500000F04CC3A9F04DC3AAF0D890AA07D8B0B8
:10056000B4EF02F0D890A907A9C04CF3AAC04DF38C
:100570004DC3E8FF000FD8A4D8EF02F04CC3E8FF4A
:10058000000FD8A4D8EF02F04AC34CF34BC34DF38D
:1005900065C0E8FF010FE8CF65F065C0E8FF04081B
:1005A000D8A467EF00F0000EE8CF65F067EF00F029
:1005B0005A2E85EF05F0040E5A6E03EE23F013EE6B
:1005C00024F096EC05F004BEF0EF02F067A109EF0D
:1005D00003F08EEC05F096EC05F004AE09EF03F0A5
:1005E000ADA1F7EF02F08080EF80F9EF02F080908C
:1005F000EF90679100C324F301C325F3E7BE09EF31
:1006000003F024C3E8FFF00BE8CF24F3000EE8CF9B
:1006100025F313EE26F096EC05F004BE1AEF03F076
:1006200067A333EF03F08EEC05F096EC05F004AE13
:1006300033EF03F0ADA321EF03F08082EF8223EFCD
:1006400003F08092EF92679302C326F303C327F36C
:10065000E7BE33EF03F026C3E8FFF00BE8CF26F345
:10066000000EE8CF27F313EE28F096EC05F004BE59
:1006700044EF03F067A55DEF03F08EEC05F096EC18
:1006800005F004AE5DEF03F0ADA54BEF03F0808401
:10069000EF844DEF03F08094EF94679504C328F343
:1006A00005C329F3E7BE5DEF03F028C3E8FFF00BB5
:1006B000E8CF28F3000EE8CF29F313EE2AF096ECEA
:1006C00005F004BE6EEF03F067A787EF03F08EEC32
:1006D00005F096EC05F004AE87EF03F0ADA775EFDB
:1006E00003F08086EF8677EF03F08096EF966797AA
:1006F00006C32AF307C32BF3E7BE87EF03F02AC331
:10070000E8FFF00BE8CF2AF3000EE8CF2BF313EE4F
:100710002CF096EC05F004BE98EF03F067A9B1EF5A
:1007200003F08EEC05F096EC05F004AEB1EF03F0AB
:10073000ADA99FEF03F0808AEF88A1EF03F0809AC4
:10074000EF98679908C32CF309C32DF3E7BEB1EF07
:1007500003F02CC3E8FFF00BE8CF2CF3000EE8CF3A
:100760002DF313EE2EF096EC05F004BEC2EF03F06D
:1007700067ABDBEF03F08EEC05F096EC05F004AE12
:10078000DBEF03F0ADABC9EF03F08480EF8ACBEF72
:1007900003F08490EF9A679B0AC32EF30BC32FF3E9
:1007A000E7BEDBEF03F02EC3E8FFF00BE8CF2EF33C
:1007B000000EE8CF2FF313EE30F096EC05F004BEF8
:1007C000ECEF03F067AD05EF04F08EEC05F096EC6E
:1007D00005F004AE05EF04F0ADADF3EF03F0848255
:1007E000EF8CF5EF03F08492EF9C679D0CC330F320
:1007F0000DC331F3E7BE05EF04F030C3E8FFF00BA3
:10080000E8CF30F3000EE8CF31F313EE32F096EC80
:1008100005F004BE16EF04F067AF2FEF04F08EEC86
:1008200005F096EC05F004AE2FEF04F0ADAF1DEF30
:1008300004F08484EF8E1FEF04F08494EF9E679F92
:100840000EC332F30FC333F3E7BE2FEF04F032C30E
:10085000E8FFF00BE8CF32F3000EE8CF33F313EEEE
:1008600034F003EE22F096EC05F004BE42EF04F003
:1008700066A15BEF04F08EEC05F096EC05F004AE9B
:100880005BEF04F0ACA149EF04F08380EF804BEF05
:1008900004F08390EF90669110C334F311C335F3E5
:1008A000E7BE5BEF04F034C3E8FFF00BE8CF34F3AE
:1008B000000EE8CF35F313EE36F096EC05F004BEEB
:1008C0006CEF04F066A385EF04F08EEC05F096EC77
:1008D00005F004AE85EF04F0ACA373EF04F083825F
:1008E000EF8275EF04F08392EF92669312C336F3B2
:1008F00013C337F3E7BE85EF04F036C3E8FFF00B10
:10090000E8CF36F3000EE8CF37F313EE38F096EC6D
:1009100005F004BE96EF04F066A5AFEF04F08EEC90
:1009200005F096EC05F004AEAFEF04F0ACA59DEF3A
:1009300004F08384EF849FEF04F08394EF94669532
:1009400014C338F315C339F3E7BEAFEF04F038C36F
:10095000E8FFF00BE8CF38F3000EE8CF39F313EEE1
:100960003AF096EC05F004BEC0EF04F066A7D9EFAC
:1009700004F08EEC05F096EC05F004AED9EF04F02F
:10098000ACA7C7EF04F08386EF86C9EF04F0839627
:10099000EF96669716C33AF317C33BF3E7BED9EF5A
:1009A00004F03AC3E8FFF00BE8CF3AF3000EE8CFCB
:1009B0003BF313EE3CF096EC05F004BEEAEF04F0D6
:1009C00066A903EF05F08EEC05F096EC05F004AE99
:1009D00003EF05F0ACA9F1EF04F08388EF88F3EFA3
:1009E00004F08398EF98669918C33CF319C33DF35C
:1009F000E7BE03EF05F03CC3E8FFF00BE8CF3CF3A4
:100A0000000EE8CF3DF313EE3EF096EC05F004BE89
:100A100014EF05F066AB2DEF05F08EEC05F096ECCB
:100A200005F004AE2DEF05F0ACAB1BEF05F0838AAB
:100A3000EF8A1DEF05F0839AEF9A669B1AC33EF387
:100A40001BC33FF3E7BE2DEF05F03EC3E8FFF00BFD
:100A5000E8CF3EF3000EE8CF3FF313EE40F096EC04
:100A600005F004BE3EEF05F066AD57EF05F08EECE5
:100A700005F096EC05F004AE57EF05F0ACAD45EF90
:100A800005F0838CEF8C47EF05F0839CEF9C669D0F
:100A90001CC340F31DC341F3E7BE57EF05F040C34D
:100AA000E8FFF00BE8CF40F3000EE8CF41F313EE80
:100AB00042F096EC05F004BE68EF05F066AF81EFFA
:100AC00005F08EEC05F096EC05F004AE81EF05F034
:100AD000ACAF6FEF05F0838EEF8E71EF05F0839E64
:100AE000EF9E669F1EC342F31FC343F3E7BE81EF31
:100AF00005F042C3E8FFF00BE8CF42F3000EE8CF69
:100B000043F3D890A82BD8B0A72B5FC0E2FF60C0FA
:100B1000E1FF64C0E9FF63C0EAFF1200E650D8902D
:100B2000E506D8B01200E506E6501200049EE65035
:100B30000F0B000FD8A4A4EF05F0E650000FD8A4C7
:100B4000A3EF05F0048EE550E550120081503A6E97
:100B50000218366E36B0C1EF05F036B2D0EF05F0B0
:100B600036B4DFEF05F036B6EEEF05F036B8FDEF40
:100B700005F036BA0FEF06F036BC21EF06F033EF82
:100B800006F03AA0C7EF05F0028043EF06F00290AE
:100B900037A0CDEF05F043EF06F0378043EF06F0C6
:100BA0003AA2D6EF05F0028243EF06F0029237A296
:100BB000DCEF05F043EF06F0378243EF06F03AA48E
:100BC000E5EF05F0028443EF06F0029437A4EBEF63
:100BD00005F043EF06F0378443EF06F03AA6F4EF52
:100BE00005F0028643EF06F0029637A6FAEF05F00D
:100BF00043EF06F0378643EF06F0E1BB7CEF06F0EB
:100C00003AA806EF06F0028843EF06F0029837A8EC
:100C10000CEF06F043EF06F0378843EF06F0E1BB38
:100C20006BEF06F03AAA18EF06F0028A43EF06F0DF
:100C3000029A37AA1EEF06F043EF06F0378A43EF19
:100C400006F0E1BD5AEF06F03AAC2AEF06F0028C4E
:100C500043EF06F0029C37AC30EF06F043EF06F0AE
:100C6000378C43EF06F0E1BD49EF06F03AAE3CEFBA
:100C700006F0028E43EF06F0029E37AE42EF06F01A
:100C800043EF06F0378E3A500218D8A41200F290C3
:100C900012000F019D9A00013ABEAEEF06F0029ECF
:100CA00003B843EF06F08DEC06F099EC06F03B2A12
:100CB00043EF06F00F019D9A00013ABCB1EF06F038
:100CC000029C03B843EF06F08DEC06F09CEC06F0B6
:100CD0003B2A43EF06F00F019D9A00013ABAB4EFA8
:100CE00006F0029A03BC43EF06F093EC06F099EC91
:100CF00006F03C2A43EF06F00F019D9A00013AB836
:100D0000B7EF06F0029803BC43EF06F093EC06F051
:100D10009CEC06F03C2A43EF06F0030E386E038A83
:100D200000EEC9F01200030E396E038E00EED1F012
:100D30001200D8809DEF06F0D890EF36E906EF3626
:100D4000E906EF36E906EF36E906EF36E906EF3653
:100D5000E906EF36E906EF36E9061200028E43EFA8
:100D600006F0028C43EF06F0028A43EF06F0028899
:100D700043EF06F004009E9A0F01AB500001060BF2
:100D8000D8A473EF0CF015506208D8A073EF0CF0E4
:100D900016800F01AE500001146E04EEC9F015501C
:100DA000D890E926D8B0EA2A1450EF6E152A1550CB
:100DB0000108D8B4F3EF06F015500208D8A4F3EFF9
:100DC00006F014504508D8A4EAEF06F00C0E126E97
:100DD0008AEF0CF014501008D8A4F3EF06F0070EB9
:100DE000126E8AEF0CF01550125CD8A48AEF0CF04A
:100DF000CAC4E8FF1008D8A408EF07F016B208EF3D
:100E000007F0CFC4E8FF020F122616828AEF0CF01B
:100E1000FF0E1B6E1C6E12061204156E04EEC9F056
:100E2000829AA494A384EF5070EC12F0E92A152E54
:100E300013EF07F01C50EF5CD8A473EF0CF0E92A15
:100E40001B50EF5CD8A473EF0CF0048616900F01D2
:100E50009D9A0001120004EEC9F0E3C0E8FFEF5CC8
:100E6000D8B43EEF07F0079AEF50000FD8A475EF03
:100E70000CF0078A57EC07F075EF0CF057EC07F011
:100E8000E92AEF500308D8B46BEF07F0EF500608DB
:100E9000D8B4D9EF07F0EF504508D8B4B3EF08F055
:100EA000EF501008D8B43BEF08F051EF0CF0168863
:100EB0001E0E006EE8C0E8FF0B6EE9C0E8FF0C6E86
:100EC00082860394ECC0E8FF0F6EEDC0E8FF106E61
:100ED000829803961200079845EC09F0D8A074EFA9
:100EE00007F0169C54EF0CF09FEC0AF0D8B054EFCA
:100EF0000CF007BA77EF0CF0168C16AE87EF07F000
:100F0000CEC4E8FF0108D8A487EF07F0169C16AC02
:100F10008FEF07F0FF0E1F52316A326A169C169A45
:100F200004BA9BEF07F000EEACF0CCC408F0083434
:100F3000E926D8B0EA2ACDC4E8FF116ECEC408F085
:100F40000834126E1CEC09F01250E66E70EC12F0D0
:100F5000152A04A2B0EF07F0A40EE926D8B0EA2AB9
:100F6000EE50E66E70EC12F0152A122EB0EF07F07C
:100F700004A0D7EF07F003A8C9EF07F03B6A039876
:100F8000C06BC26BC36BC46BC56BC66BC76BC86BE6
:100F9000C96B03ACD7EF07F03C6A039CC16BCA6B0B
:100FA000CB6BCC6BCD6BCE6BCF6BD06BD16BFEEFC5
:100FB00008F0078845EC09F0D8B054EF0CF09FEC2E
:100FC0000AF0D8B054EF0CF016B654EF0CF004BA97
:100FD000F9EF07F000EEACF0CCC408F00834E926D5
:100FE000D8B0EA2A04A2F9EF07F0A50EE926D8B096
:100FF000EA2ACDC4E8FFEE6E04BCE66ECEC4E8FF7C
:10100000EF6E04BCE66E16AE14EF08F0ACC0E8FF5D
:10101000836EADC035F00F0B806E35B8808AD890E6
:1010200035323538070B846E169E07A61CEF08F084
:10103000A5EC13F0FAEC13F007BA77EF0CF01CEC08
:1010400009F02AC5E8FFE66E70EC12F0152A2BC5F0
:10105000E8FFE66E70EC12F0152ACDC4E8FFE66EEC
:1010600070EC12F0152ACEC4E8FFE66E70EC12F0B8
:10107000152AFEEF08F0CCC4E8FF6308D8B054EF9F
:101080000CF0CCC4E8FF7308D8A054EF0CF0CCC42B
:1010900008F0640E085CE8CF08F003EE00F013EEF1
:1010A00024F0D8900834E926D8B0EA2AD890083439
:1010B000E126D8B0E22AEACF19F0E9CF1AF0CDC480
:1010C000E8FF000FD8A454EF0CF0CEC4E8FFD8908E
:1010D0001A26D8B0192A030E196471EF08F054EFDC
:1010E0000CF019627AEF08F0200E1A647AEF08F01B
:1010F00054EF0CF0CD51116ECEC412F012361150D7
:10110000000F0008D8A48BEF08F01250000F000861
:10111000D8B454EF0CF024EED0F0DFCFE6FFDECFF2
:10112000EEFF122E8DEF08F007BA77EF0CF01CECF3
:1011300009F0CBC4E8FFE66E70EC12F0152ACCC4BF
:10114000E8FFE66E70EC12F0152ACDC4E8FFE66EFB
:1011500070EC12F0152ACEC4E8FFE66E70EC12F0C7
:10116000152AFEEF08F0169E0788E92AD7C0E8FF87
:10117000EF5CD8A477EF0CF0E92AD9C0E8FFEF5C68
:10118000D8A477EF0CF0168AE92AE92AE92AEE506A
:10119000E8CFDFF0000EE8CFDEF0EE50E8CFE1F070
:1011A000000EE8CFE0F0E3C008F0EE50000EE8CF0C
:1011B000E2F0EF50E8CFE5F0000EE8CFE4F007BA38
:1011C00077EF0CF01CEC09F008C0E3F0D7C0E8FFA3
:1011D000E66E70EC12F0152AD9C0E8FFE66E70ECEE
:1011E00012F0152AD7C0E8FFE66E70EC12F0152A4F
:1011F000D9C0E8FFE66E70EC12F0152A1C50E66EBE
:10120000152A1B50E66E152A2DEC09F014EEC9F0D4
:10121000828AE6509BEC12F0152E09EF09F0829AB3
:1012200016AA77EF0CF0F29EF29C0BEC14F0F28E03
:10123000F28C169A77EF0CF014EEC9F0FF0E1B6ECD
:101240001C6E156AE3C0E8FFE66E70EC12F0152A1A
:10125000E65070EC12F0152A1200920EB26EF80EE3
:10126000B36EA192A092310EB16EA1A235EF09F03A
:10127000000EB16EA192A092120019501B5CD8A46E
:1012800044EF09F01A501C5C1200CBC419F0CCC416
:101290001AF0000E1B6E120E1C6E3DEC09F0D8A069
:1012A00058EF09F0000E196E140E1A6E7EEF0AF058
:1012B000CBC419F0CCC41AF0000E1B6E730E1C6E5A
:1012C0003DEC09F0D8A074EF09F0000E1B6E630E20
:1012D0001C6E3DEC09F0D8B09DEF0AF0000E196EBF
:1012E000750E1A6E7EEF0AF0CBC419F0CCC41AF05A
:1012F000000E1B6E970E1C6E3DEC09F0D8A090EF0F
:1013000009F0000E1B6E940E1C6E3DEC09F0D8B077
:101310009DEF0AF0000E196E990E1A6E7EEF0AF01C
:10132000CBC419F0CCC41AF0010E1B6E030E1C6E58
:101330003DEC09F0D8A0ACEF09F0000E1B6EFF0EDB
:101340001C6E3DEC09F0D8B09DEF0AF0010E196E4D
:10135000050E1A6E7EEF0AF0CBC419F0CCC41AF059
:10136000010E1B6E170E1C6E3DEC09F0D8A0C8EFE5
:1013700009F0010E1B6E0D0E1C6E3DEC09F0D8B08D
:101380009DEF0AF0010E196E190E1A6E7EEF0AF02B
:10139000CBC419F0CCC41AF0010E1B6E9F0E1C6E4C
:1013A0003DEC09F0D8A0E4EF09F0010E1B6E8F0EA2
:1013B0001C6E3DEC09F0D8B09DEF0AF0010E196EDD
:1013C000A10E1A6E7EEF0AF0CBC419F0CCC41AF04D
:1013D000010E1B6EF30E1C6E3DEC09F0D8A000EF61
:1013E0000AF0010E1B6EF10E1C6E3DEC09F0D8B038
:1013F0009DEF0AF0010E196EF50E1A6E7EEF0AF0DF
:10140000CBC419F0CCC41AF0020E1B6E600E1C6E19
:101410003DEC09F0D8A01CEF0AF0020E1B6E570E2F
:101420001C6E3DEC09F0D8B09DEF0AF0020E196E6B
:10143000620E1A6E7EEF0AF0CBC419F0CCC41AF01B
:10144000020E1B6EAD0E1C6E3DEC09F0D8A038EFFD
:101450000AF0020E1B6E890E1C6E3DEC09F0D8B02E
:101460009DEF0AF0020E196EAF0E1A6E7EEF0AF0B3
:10147000CBC419F0CCC41AF0020E1B6EDF0E1C6E2A
:101480003DEC09F0D8A054EF0AF0020E1B6EBB0E23
:101490001C6E3DEC09F0D8B09DEF0AF0020E196EFB
:1014A000E10E1A6E7EEF0AF0CBC419F0CCC41AF02C
:1014B000030E1B6E110E1C6E3DEC09F0D8A070EFF0
:1014C0000AF0020E1B6EED0E1C6E3DEC09F0D8B05A
:1014D0009DEF0AF0030E196E130E1A6E7EEF0AF0DE
:1014E000CBC4E8FF0308D8A49DEF0AF0CCC4E8FF02
:1014F000E708D8A49DEF0AF09BEF0AF0CAC4E8FF02
:101500000608D8B49BEF0AF0CAC4E8FF4508D8B46F
:101510009BEF0AF0CCC41CF0CBC41BF0CEC4E8FF98
:101520001C26D8B01B2ACDC4E8FF1B263DEC09F0D1
:10153000D8B09DEF0AF0D8901200D8801200169C07
:10154000169E04900492049A049C07961696CCC4A6
:10155000E8FFE8CF2BF5CBC4E8FFE8CF2AF5000F72
:10156000D8A4BCEF0AF0CCC4E8FF000FD8A4BCEFAD
:101570000AF0168E4CEF0CF0CCC4E8FFFF08D8B48C
:10158000F7EF0AF0CBC4E8FF000FD8A4F7EF0AF09A
:10159000CCC4E8FF2308D8B075EF0BF0CCC4E8FF4B
:1015A0009508D8B406EF0CF0CCC4E8FF9608D8B480
:1015B000F3EF0BF0CCC4E8FF9708D8B4FDEF0BF0C5
:1015C000D8A04EEF0CF0CCC4E8FF6308D8B04EEFC3
:1015D0000CF0CCC4E8FF7308D8A04EEF0CF0D9EFA4
:1015E0000BF01686000EE8CFCBF44CEF0CF0CBC41A
:1015F000E8FF0208D8B488EF0BF0CBC4E8FF03087B
:10160000D8B488EF0BF0CBC4E8FF0108D8A419EFD9
:101610000BF0CCC408F0F20E085CD8A019EF0BF068
:101620005D0EE8CFCCF4000EE8CFCBF40482F1EFEE
:101630000AF0CBC408F0010E085CD8A027EF0BF02D
:101640000482CCC4E8FF8F08D8A07DEF0BF0049291
:10165000CCC4E8FF0008D8A433EF0BF0130EE8CF9A
:10166000CCF4F1EF0AF0CCC4E8FF0108D8A43EEFB7
:101670000BF0140EE8CFCCF4F1EF0AF0CCC4E8FF85
:101680000208D8A449EF0BF0150EE8CFCCF4F1EF27
:101690000AF0CCC4E8FF0308D8A454EF0BF0160EF0
:1016A000E8CFCCF4F1EF0AF0CCC4E8FF0D08D8B0D5
:1016B0004EEF0CF0CCC4E8FF1708D8A04EEF0CF0AA
:1016C000168ACCC4E8FF1108D8A46AEF0BF0038097
:1016D000000E0C6ECCC4E8FF090FE8CFCCF4000E6E
:1016E000E8CFCBF416964CEF0CF0168CCCC4E8FF88
:1016F0000A08D8B40480F1EF0AF0CCC408F0700EE8
:10170000085CE8CFCCF4000EE8CFCBF472EF0BF01E
:10171000CBC4E8FF0308D8A4A9EF0BF0CCC4E8FFC2
:10172000E708D8A4A9EF0BF0CAC4E8FF0608D8A4BC
:101730004EEF0CF0CDC4E8FFDE08D8A44EEF0CF05D
:10174000CEC4E8FFAD08D8A44EEF0CF0F29EF29C98
:10175000FF00CBC4E8FF0308D8B40FEF0CF0CBC4F4
:10176000E8FF0208D8A4BBEF0BF0CCC4E8FFBB082D
:10177000D8A00FEF0CF0CCC4E8FF8908D8A0CDEFBB
:101780000BF0CCC408F0280E085CE8CFCCF4000EB7
:10179000E8CFCBF40482F1EF0AF0CCC408F0510E8C
:1017A000085CE8CFCCF4000EE8CFCBF40482F1EF74
:1017B0000AF0CCC408F0640E085CE8CFCCF4CCC4CA
:1017C00008F003EE00F013EE24F0D8900834E92678
:1017D000D8B0EA2AD8900834E126D8B0E22A048AA0
:1017E000048C4CEF0CF0740EE8CFCCF4048A03EEBA
:1017F00020F0168A07864CEF0CF0750EE8CFCCF47B
:10180000048A03EE22F016864CEF0CF0048A078659
:1018100000EEA7F007B800EEA5F04CEF0CF0CBC43B
:10182000E8FF0308D8B42FEF0CF0CCC4E8FFED08B4
:10183000D8A02FEF0CF004EE00F0000EE8CFCBF4B0
:10184000CCC408F0BC0E085CE8CFCCF4D890086E8D
:101850000836E926D8B0EA2A048AF1EF0AF004EE45
:1018600048F0020EF36ECCC408F0EE0E085E08C01D
:10187000CCF4CBC408F0CBC4E8FFD8A0F33C085E9E
:1018800008C0CBF4CCC408F0D8900834E926D8B00E
:10189000EA2A048AF1EF0AF0D8901200D880169C48
:1018A0001200010E55EF0CF0020EE8CFCBF414EE4F
:1018B000C9F0FF0E1B6E1C6E156AE351E66E70ECEC
:1018C00012F0152ACAC4E8FF800FE8CFCAF4E65028
:1018D000CAC4E8FF70EC12F0152AE65070EC12F062
:1018E000152AFEEF08F077EF0CF057EC07F0156AB9
:1018F00016941690060E176E0F01AB98AB880F0169
:10190000AE500001080E126E16920496829AA494AC
:10191000A3841200060E176E1200D890EF50010F2C
:10192000EF6ED8A0A9EF0CF0E906D890EF50010FA8
:10193000EF6ED8A0A9EF0CF0E906D890EF50010F98
:10194000EF6ED8A0A9EF0CF0E906D890EF50010F88
:10195000EF6E12009E907F0ECE6EF20ECF6E0400E0
:1019600003AAC3EF0CF0382EC3EF0CF0030E386E51
:101970000388039A3BC0C0F03B6A03BEC3EF0CF080
:101980000F019D8A000103AED6EF0CF0392ED6EF81
:101990000CF0030E396E038C039E3CC0C1F03C6A10
:1019A00003BAD6EF0CF00F019D8A0001012EF2EF71
:1019B0000CF0640E016EC0EC16F002EE0DF08DEC32
:1019C0000CF016A8F0EF0CF0002EF0EF0CF0F6EC97
:1019D00012F075EC0CF016989E9A0F019D8A00018A
:1019E00054EC16F016A0FEEF0CF017061750000F7F
:1019F000D8A4FEEF0CF077EC0CF09E9A37A00BEF1A
:101A00000DF03D2E0BEF0DF0020E3D6E379001EE06
:101A100093F08DEC0CF037A218EF0DF03E2E18EF7E
:101A20000DF0020E3E6E379201EE97F08DEC0CF049
:101A300037A425EF0DF03F2E25EF0DF0020E3F6E7F
:101A4000379401EE9BF08DEC0CF037A632EF0DF0E1
:101A5000402E32EF0DF0020E406E379601EE9FF0F1
:101A60008DEC0CF037A83FEF0DF0412E3FEF0DF05D
:101A7000020E416E379801EEA3F08DEC0CF037AA00
:101A80004CEF0DF0422E4CEF0DF0020E426E379AE5
:101A900001EEA7F08DEC0CF037AC59EF0DF0432EB2
:101AA00059EF0DF0020E436E379C01EEABF08DEC5A
:101AB0000CF037AE66EF0DF0442E66EF0DF0020E1F
:101AC000446E379E01EEAFF08DEC0CF0E1A96CEFA7
:101AD0000DF031B096EF0DF081B07EEF0DF0E1A783
:101AE00078EF0DF01DA090EF0DF0212E96EF0DF088
:101AF0001F803180AE811D9096EF0DF01FA096EFF4
:101B00000DF0E1A78BEF0DF01DA093EF0DF0212E4E
:101B100096EF0DF01F903180AE911D9096EF0DF075
:101B20001FB096EF0DF0010E216E1D80E1A99CEF14
:101B30000DF031B2C6EF0DF081B2AEEF0DF0E1A7BE
:101B4000A8EF0DF01DA2C0EF0DF0222EC6EF0DF094
:101B50001F823182AE831D92C6EF0DF01FA2C6EF29
:101B60000DF0E1A7BBEF0DF01DA2C3EF0DF0222E8B
:101B7000C6EF0DF01F923182AE931D92C6EF0DF0AD
:101B80001FB2C6EF0DF0010E226E1D82E1A9CCEF4F
:101B90000DF031B4F6EF0DF081B4DEEF0DF0E1A7FA
:101BA000D8EF0DF01DA4F0EF0DF0232EF6EF0DF0A1
:101BB0001F843184AE851D94F6EF0DF01FA4F6EF5F
:101BC0000DF0E1A7EBEF0DF01DA4F3EF0DF0232EC8
:101BD000F6EF0DF01F943184AE951D94F6EF0DF0E5
:101BE0001FB4F6EF0DF0010E236E1D84E1A9FCEF8A
:101BF0000DF031B626EF0EF081B60EEF0EF0E1A734
:101C000008EF0EF01DA620EF0EF0242E26EF0EF0AA
:101C10001F863186AE871D9626EF0EF01FA626EF93
:101C20000EF0E1A71BEF0EF01DA623EF0EF0242E01
:101C300026EF0EF01F963186AE971D9626EF0EF01A
:101C40001FB626EF0EF0010E246E1D86E1A92CEFC3
:101C50000EF031B856EF0EF081B83EEF0EF0E1A76E
:101C600038EF0EF01DA850EF0EF0252E56EF0EF0B7
:101C70001F883188AE891D9856EF0EF01FA856EFC9
:101C80000EF0E1A74BEF0EF01DA853EF0EF0252E3E
:101C900056EF0EF01F983188AE991D9856EF0EF052
:101CA0001FB856EF0EF0010E256E1D88E1A95CEFFE
:101CB0000EF031BA86EF0EF081BA6EEF0EF0E1A7AA
:101CC00068EF0EF01DAA80EF0EF0262E86EF0EF0C4
:101CD0001F8A318AAE8B1D9A86EF0EF01FAA86EFFF
:101CE0000EF0E1A77BEF0EF01DAA83EF0EF0262E7B
:101CF00086EF0EF01F9A318AAE9B1D9A86EF0EF08A
:101D00001FBA86EF0EF0010E266E1D8AE1A98CEF38
:101D10000EF031BCB6EF0EF081BC9EEF0EF0E1A7E5
:101D200098EF0EF01DACB0EF0EF0272EB6EF0EF0D0
:101D30001F8C318CAE8D1D9CB6EF0EF01FACB6EF34
:101D40000EF0E1A7ABEF0EF01DACB3EF0EF0272EB7
:101D5000B6EF0EF01F9C318CAE9D1D9CB6EF0EF0C1
:101D60001FBCB6EF0EF0010E276E1D8CE1A9BCEF73
:101D70000EF031BEE6EF0EF081BECEEF0EF0E1A721
:101D8000C8EF0EF01DAEE0EF0EF0282EE6EF0EF0DD
:101D90001F8E318EAE8F1D9EE6EF0EF01FAEE6EF6A
:101DA0000EF0E1A7DBEF0EF01DAEE3EF0EF0282EF4
:101DB000E6EF0EF01F9E318EAE9F1D9EE6EF0EF0F9
:101DC0001FBEE6EF0EF0010E286E1D8E80500F0B29
:101DD000346E80BA348884B0348A84B2348C84B44B
:101DE000348EDC51341AE5B11FEF0FF0DDA11FEF87
:101DF0000FF0E1A9FFEF0EF032B029EF0FF034B091
:101E000011EF0FF0E1A70BEF0FF01EA023EF0FF083
:101E1000292E29EF0FF020803280AF811E9029EF0C
:101E20000FF020A029EF0FF0E1A71EEF0FF01EA08A
:101E300026EF0FF0292E29EF0FF020903280AF917E
:101E40001E9029EF0FF020B029EF0FF0010E296E40
:101E50001E80E5B355EF0FF0DDA355EF0FF0E1A9BC
:101E600035EF0FF032B25FEF0FF034B247EF0FF003
:101E7000E1A741EF0FF01EA259EF0FF02A2E5FEFFE
:101E80000FF020823282AF831E925FEF0FF020A20C
:101E90005FEF0FF0E1A754EF0FF01EA25CEF0FF021
:101EA0002A2E5FEF0FF020923282AF931E925FEFE7
:101EB0000FF020B25FEF0FF0010E2A6E1E82E5B523
:101EC0008BEF0FF0DDA58BEF0FF0E1A96BEF0FF0BB
:101ED00032B495EF0FF034B47DEF0FF0E1A777EF58
:101EE0000FF01EA48FEF0FF02B2E95EF0FF0208434
:101EF0003284AF851E9495EF0FF020A495EF0FF07C
:101F0000E1A78AEF0FF01EA492EF0FF02B2E95EFB2
:101F10000FF020943284AF951E9495EF0FF020B40B
:101F200095EF0FF0010E2B6E1E84E5B7C1EF0FF099
:101F3000DDA7C1EF0FF0E1A9A1EF0FF032B6CBEFB3
:101F40000FF034B6B3EF0FF0E1A7ADEF0FF01EA620
:101F5000C5EF0FF02C2ECBEF0FF020863286AF8727
:101F60001E96CBEF0FF020A6CBEF0FF0E1A7C0EF4E
:101F70000FF01EA6C8EF0FF02C2ECBEF0FF020961F
:101F80003286AF971E96CBEF0FF020B6CBEF0FF057
:101F9000010E2C6E1E86E5B9F7EF0FF0DDA9F7EF05
:101FA0000FF0E1A9D7EF0FF032B801EF10F034B81D
:101FB000E9EF0FF0E1A7E3EF0FF01EA8FBEF0FF042
:101FC0002D2E01EF10F020883288AF891E9801EF86
:101FD00010F020A801EF10F0E1A7F6EF0FF01EA817
:101FE000FEEF0FF02D2E01EF10F020983288AF9900
:101FF0001E9801EF10F020B801EF10F0010E2D6EC9
:102000001E88E5BB2DEF10F0DDAB2DEF10F0E1A940
:102010000DEF10F032BA37EF10F034BA1FEF10F0B6
:10202000E1A719EF10F01EAA31EF10F02E2E37EFB6
:1020300010F0208A328AAF8B1E9A37EF10F020AA58
:1020400037EF10F0E1A72CEF10F01EAA34EF10F0DC
:102050002E2E37EF10F0209A328AAF9B1E9A37EF60
:1020600010F020BA37EF10F0010E2E6E1E8AE5BD7B
:1020700063EF10F0DDAD63EF10F0E1A943EF10F076
:1020800032BC6DEF10F034BC55EF10F0E1A74FEF0C
:1020900010F01EAC67EF10F02F2E6DEF10F0208CBB
:1020A000328CAF8D1E9C6DEF10F020AC6DEF10F0F8
:1020B000E1A762EF10F01EAC6AEF10F02F2E6DEF6B
:1020C00010F0209C328CAF9D1E9C6DEF10F020BC58
:1020D0006DEF10F0010E2F6E1E8CE5BF99EF10F022
:1020E000DDAF99EF10F0E1A979EF10F032BEA3EF68
:1020F00010F034BE8BEF10F0E1A785EF10F01EAEAC
:102100009DEF10F0302EA3EF10F0208E328EAF8FA7
:102110001E9EA3EF10F020AEA3EF10F0E1A798EF02
:1021200010F01EAEA0EF10F0302EA3EF10F0209EA6
:10213000328EAF9F1E9EA3EF10F020BEA3EF10F0D3
:10214000010E306E1E8E1DEF00F0E9EC18F0D4EC9D
:1021500018F00F01210E9D6E00018150680EF26E85
:10216000100E9E6E0F01FF0E5A6F00010400040E48
:102170000F01506F0F01A3840001040EA56E9F6A2A
:10218000A26AB86A786AF16AF18ED08EF294F28C03
:10219000F28E9D9C9E9804A6DFEF10F004A4D6EF6B
:1021A00010F0D1EC16F00494010E596E2BEC07F0F0
:1021B00077EC0CF004969E9A0F019D8A00010F01A6
:1021C0009D8A000100EEB0F0066AE5B1EBEF10F079
:1021D000DDA1F2EF10F0000EE8CFB0F0E8CFB1F0E3
:1021E000F8EF10F004000F01010EC26E99EC11F02F
:1021F000062A00EEB2F0E5B301EF11F0DDA308EF1F
:1022000011F0000EE8CFB2F0E8CFB3F00EEF11F00E
:1022100004000F01050EC26E99EC11F0062A00EEC3
:10222000B4F0E5B517EF11F0DDA51EEF11F0000ECB
:10223000E8CFB4F0E8CFB5F024EF11F004000F01BF
:10224000090EC26E99EC11F0062A00EEB6F0E5B761
:102250002DEF11F0DDA734EF11F0000EE8CFB6F04E
:10226000E8CFB7F03AEF11F004000F010D0EC26E87
:1022700099EC11F0062A00EEB8F0E5B943EF11F041
:10228000DDA94AEF11F0000EE8CFB8F0E8CFB9F0C1
:1022900050EF11F004000F01110EC26E99EC11F015
:1022A000062A00EEBAF0E5BB59EF11F0DDAB60EFA6
:1022B00011F0000EE8CFBAF0E8CFBBF066EF11F0F6
:1022C00004000F01150EC26E99EC11F0062A00EE03
:1022D000BCF0E5BD6FEF11F0DDAD76EF11F0000E53
:1022E000E8CFBCF0E8CFBDF07CEF11F004000F01A7
:1022F000190EC26E99EC11F0062A00EEBEF0E5BF91
:1023000085EF11F0DDAF8CEF11F0000EE8CFBEF0DD
:10231000E8CFBFF092EF11F004000F011D0EC26E66
:1023200099EC11F0C9EF10F0070EE126D8B0E22ABF
:102330001200000114EE91F00650070DF350D890F2
:10234000E126D8B0E22AE750000FD8B4E5EF11F04B
:10235000FF0E056E052EAAEF11F00F01C282C2B268
:10236000AFEF11F00F010F0EC464BBEF11F00001CD
:10237000E650E6501200E6060F01C3500001E626C3
:10238000D8B0E72A0F01C4500001E62634EC12F061
:1023900007A2D5EF11F0E550E5500F01C450000140
:1023A000E66E0F01C3500001E66E28EC12F007A0A4
:1023B000E4EF11F0E550E5500F01C4500001E66E66
:1023C0000F01C3500001E66E1200E650E1CFD9FFC5
:1023D000E2CFDAFF53EC12F0D9CFE1FFDACFE2FF20
:1023E0004EC0E6FF4DC0E6FFD9CFE1FFDACFE2FFF6
:1023F0005DEC12F0D9CFE1FFDACFE2FF4DC0E6FF8E
:102400004EC0E6FF030E4A6ED9CFE1FFDACFE2FFFE
:10241000D890E632E6324A2E04EF12F0D9CFE1FF2F
:10242000DACFE2FFE6CFEEFFE6CFEEFFD9CFE1FF56
:10243000DACFE2FFE5500A0EE66EE66AE66A100EB3
:10244000E66E000EE66E000EE66E000EE66E120000
:1024500000000F01C4500001E65C4A6E0F01C3503A
:102460000001E65C3EEF12F000000F01C4500001D5
:10247000E65C4A6E0F01C3500001E65CD8A04A0634
:102480004A10D8B44FEF12F04ABE4BEF12F0078259
:102490000790079412000792078007941200079292
:1024A000079007841200E6CF4EF0E6CF4DF0E6CF5E
:1024B0004FF0E6CF50F067EF12F0E6CF4EF0E6CFE8
:1024C0004DF0E650E650E6CF4FF0E6CF50F050C06A
:1024D000E8FF4E5E4FC0E8FFD8A04F3C4D5E1200B3
:1024E000186E1A6E080E196E1A501A321A5002E33C
:1024F00080EF12F01CA082EF12F0D88082EF12F071
:102500001CB0D89002E293EF12F01BBC8BEF12F0DC
:102510001B8C8CEF12F01B9C1CB292EF12F01C82F1
:1025200093EF12F01C921B321C321A50192E75EFC9
:1025300012F018501200146E116EE1BFB2EF12F0DB
:10254000080E126E136AD8901132D8B0132A122EC8
:10255000A4EF12F0D89013B0D8800F01AC90D8B08F
:10256000AC8000019EA8B2EF12F014500F01AD6EC6
:102570000F01ACA2B9EF12F0000114501200E1C03B
:10258000E8FF070BE8CFE0F0470E0F01AF6E000148
:10259000E0C0E8FF0108D8B404EF13F0230E0F01E8
:1025A000AF6E0001E0C0E8FF0208D8B404EF13F0FA
:1025B000110E0F01AF6E0001E0C0E8FF0308D8B4B0
:1025C00004EF13F00B0E0F01AF6E0001E0C0E8FF47
:1025D0000408D8B404EF13F0050E0F01AF6E00012C
:1025E000E0C0E8FF0508D8B404EF13F0230E0F0194
:1025F000AF6E0001E1C0E8FF780BE8CFE0F00A0E13
:10260000070BE025E8CFE1F0000EE8CFE0F0670E21
:10261000E1BF260E0F01AC6E0001D00EE1BF900E9F
:102620000F01AB6E00011200000E0F01746E756A8F
:10263000BAEC14F0E8CFE3F0000EE8CFE2F0BAEC29
:1026400014F0E8CFD7F0000EE8CFD6F0BAEC14F0D3
:10265000E8CFD9F0000EE8CFD8F0BAEC14F0E8CF0C
:10266000DFF0E8CFADF0BAEC14F0E8CFDEF0E8CF61
:10267000ACF0836EBAEC14F0E8CFE1F0E06BBAECAA
:1026800014F0E8CFE5F0BAEC14F0E8CFDDF0000E7E
:10269000E8CFDCF0BAEC14F0E8CFD3F0000EE8CFCE
:1026A000D2F0BAEC14F0E8CFD4F0BAEC14F0E8CFE2
:1026B000D5F0BAEC14F0E8CFE6F0096EBAEC14F0FD
:1026C000E8CFE7F00A6EBAEC14F0E8CFE8F00B6E52
:1026D000BAEC14F0E8CFE9F00C6EBAEC14F0E8CFE5
:1026E000EAF00D6EBAEC14F0E8CFEBF00E6EBAEC37
:1026F00014F0E8CFECF00F6EBAEC14F0E8CFEDF088
:10270000106EBAEC14F0E8CFDCF0BAEC14F0300B39
:10271000E8CFDBF00F01C16E0001000EE8CFDAF068
:10272000BAEC14F0E8CF20F3BAEC14F0E8CF21F3C0
:10273000BAEC14F0E8CF22F3BAEC14F0E8CF23F3AC
:10274000A5EC13F079EF14F0120020C3AAF021C316
:10275000ABF0A96BD890AB37AA37A937AB37AA37FC
:10276000A937A951000FD8A4C3EF13F0AA51000F45
:10277000D8A4C3EF13F0AB51000FD8A4C3EF13F0EC
:10278000D58EDDEF13F0D58EA9C047F3AAC048F36C
:10279000ABC049F3A9C044F3AAC045F3ABC046F3AC
:1027A00020C34AF321C34BF34AC34CF34BC34DF34D
:1027B000000EE8CF65F0040E5A6EA76BA86B1200EE
:1027C00003EE00F013EE24F0100EE8CF5AF0EFBE47
:1027D000F0EF13F0EE50E650EE50E650F4EF13F049
:1027E000EECFE6FFEECFE6FF5A2EE7EF13F0040E32
:1027F0005A6E1200000EE8CF44F3E8CF45F3E8CF5D
:1028000046F3000ED66E03EE23F0000EEF6EED5091
:10281000000EEF6E1200000E0F01746E756AE3C0B9
:10282000E8FFAAEC14F0742A742ADFC0E8FFAAECCF
:1028300014F0DEC0E8FFAAEC14F0BFEC12F0E1C027
:10284000E8FFAAEC14F0E5C0E8FFAAEC14F0DDC044
:10285000E8FFAAEC14F00B0E0F01746E756AE6C067
:10286000E8FF096EAAEC14F0E7C0E8FF0A6EAAECD4
:1028700014F0E8C0E8FF0B6EAAEC14F0E9C0E8FF22
:10288000106EAAEC14F00F0E746E756AEAC0E8FFC1
:102890000D6EAAEC14F0EBC0E8FF0E6EAAEC14F07B
:1028A000ECC0E8FF0F6EAAEC14F0EDC0E8FF106E6C
:1028B000AAEC14F0DCC0E8FFAAEC14F0DBC0E8FFDF
:1028C000300BAAEC14F0DBC0E8FF300B0F01C16E37
:1028D000000120C3E8FFAAEC14F021C3E8FFAAEC32
:1028E00014F022C3E8FFAAEC14F023C3E8FFAAEC1B
:1028F00014F0E5515D17E51D336E338E338C338A4A
:10290000E5B9339A338833500F01926E0001E539EF
:10291000336E331C336E3330070B0F01966E00019C
:10292000DD1D356EE51D35140F015D6F5C6B00011B
:10293000DD510001AF170001ADC0E8FFDD15356EB8
:102940000F0B806E35B8808AD89035323538070B3A
:10295000846E1200736E7F9E7F84550E7E6EAA0E6B
:102960007E6E7F827FB2B2EF14F07F94742A73CFB1
:10297000E8FF12007F9E7F8073CFE8FF742A120069
:10298000516A526A536A546A556A566A576A586A53
:102990004E6A4F6A4C6A496A1200506A4FA0D4EFDF
:1029A00014F04F6A3CEF15F03DEC15F004004A6A54
:1029B0004A2A4D6AF00E456E49EC15F079EC15F097
:1029C0004B6ED8904B3679EC15F04B124B50000FF4
:1029D000D8B4F7EF14F04B500108D8B421EF15F03C
:1029E0004B500208D8B423EF15F039EF15F04A50D8
:1029F0004E18D8A402EF15F0020E4B6E92EC15F0B3
:102A000026EF15F04E504A5CD8A00FEF15F0010EDE
:102A10004B6E92EC15F04A504D6E26EF15F003EC1C
:102A200016F0466E4650000FD8B41BEF15F0020E9C
:102A30004B6E26EF15F0010E4B6E4A504D6E26EF91
:102A400015F023EF15F092EC15F004000400D89077
:102A50004B3058EC15F04A2A4A504108D8A4DEEF12
:102A600014F04D504E6ED8B44F2A010E506E3CEF0C
:102A700015F04E6A3CEF15F012008292C7EC18F088
:102A8000C7EC18F08282C7EC18F0C7EC18F01200FF
:102A9000456E080E466E476A4790D8904532D8B0CA
:102AA0004780475058EC15F0462E4BEF15F01200BA
:102AB00007BC5DEF15F0F29EF29C476E829247B024
:102AC00082823A0EC8EC18F08282000007BC120025
:102AD000F28CF28E1200080E466E79EC15F0476EFD
:102AE000D89047B0D8804532462E6DEF15F045504E
:102AF000120007BC7EEF15F0F29EF29C829200005D
:102B000082829482476A0C0EC8EC18F082B2478029
:102B10002F0EC8EC18F04750949207BC1200F28CAC
:102B2000F28E120042EC16F04B30010BD8B4CEEF0F
:102B300015F048500008D8B4BEEF15F04850010811
:102B4000D8B4C0EF15F048500208D8B4C2EF15F061
:102B500048500308D8B4C4EF15F048500408D8B45E
:102B6000C6EF15F048500508D8B4C8EF15F0485026
:102B70000608D8B4CAEF15F0CCEF15F0EF8E1200AE
:102B8000EF8C1200EF8A1200EF881200EF8612001D
:102B9000EF841200EF821200EF801200485000080C
:102BA000D8B4F3EF15F048500108D8B4F5EF15F09C
:102BB00048500208D8B4F7EF15F048500308D8B4CD
:102BC000F9EF15F048500408D8B4FBEF15F0485061
:102BD0000508D8B4FDEF15F048500608D8B4FFEF4B
:102BE00015F001EF16F0EF9E1200EF9C1200EF9A25
:102BF0001200EF981200EF961200EF941200EF927D
:102C00001200EF90120042EC16F048500008D8B4C1
:102C10002AEF16F048500108D8B42EEF16F04850AD
:102C20000208D8B430EF16F048500308D8B433EF98
:102C300016F048500408D8B436EF16F0485005088E
:102C4000D8B439EF16F048500608D8B43CEF16F067
:102C50003FEF16F0EFAE000C010CEFAC000C010CD6
:102C6000EFAA000C010CEFA8000C010CEFA6000C61
:102C7000010CEFA4000C010CEFA2000C010CEFA062
:102C8000000C010C4A043F08476E070B486ED890B1
:102C90004732D8904732D890473200EE51F0475033
:102CA000E926D8B0EA2A120003B06EEF16F00950F8
:102CB000000FD8A461EF16F00A50000FD8B46DEFE2
:102CC00016F00A2E8CEF16F00950000FD8B46DEFF5
:102CD00016F009060A068CEF16F0038003B485EFA0
:102CE00016F00C50000FD8B479EF16F00C2E8CEFC4
:102CF00016F0E8510B6E000FD8B481EF16F0038484
:102D00008296E9510C6E8CEF16F00B2E8CEF16F0BC
:102D100082860394E8510B6E03B2A4EF16F00D50B7
:102D2000000FD8A499EF16F00E50000FD8B4A3EFFF
:102D300016F00E2E12000D50000FD8B4A3EF16F0AF
:102D40000D060E061200038203B6B9EF16F01050FE
:102D5000000FD8B4AEEF16F0102E1200EC510F6E2B
:102D6000000FD8B4B6EF16F003868288ED51106ECE
:102D700012000F2E120082980396EC510F6E120073
:102D8000592E34EF17F0010E596E4C50000FD8A495
:102D9000CEEF16F04950D8B434EF17F0048434EF76
:102DA00017F08280100E4B605BEF17F03DEC15F0D2
:102DB00096EC18F0BE0E48EC15F04B04516E01EE87
:102DC000B0F0D8905134D890E926D8B0EA2A10EE65
:102DD000EEF05150E126D8B0E22A6BEC15F0586EB7
:102DE0006BEC15F0516E35EC17F0D8A00BEF17F027
:102DF000E7B002EF17F0030EE76EBEEC18F082901A
:102E000034EF17F0E7B210EF17F0E76A100EEE6E2E
:102E1000EE6A1FEF17F0D8A415EF17F0F8EF16F0D1
:102E2000D8A415EF17F005EF17F0E76A515007081F
:102E3000D8A01FEF17F05150EE6E58C0EEFFBEEC59
:102E400018F082904B064B50000FD8A434EF17F0C7
:102E50004950D8B431EF17F04938040F4B6E34EFB6
:102E600017F04C500F0B4B6E120051500508D8A4B0
:102E700045EF17F058505008D8A442EF17F0D894F7
:102E8000D8801200D890D89412005150FF08D8A4CE
:102E900042EF17F0D88440EF17F05150FF08D8A444
:102EA00059EF17F05850FF08D8A459EF17F0D884FD
:102EB0001200D89412004B500F0BD8B475EF18F0D5
:102EC0000108D8B43AEF18F04B500F0B0208D8B4F1
:102ED000E9EF17F04B500F0B0308D8B47EEF17F053
:102EE0003DEC15F096EC18F0440E48EC15F082908D
:102EF0004B067F0ECE6EF20ECF6E12003DEC15F03B
:102F000096EC18F0B80E48EC15F0000E48EC15F0F1
:102F10003DEC15F096EC18F0BE0E48EC15F0000EE6
:102F200048EC15F04B380F0B516E510604EE00F0D3
:102F3000D890513651365134D890E926D8B0EA2A83
:102F40004B500F0B516ED8905134D890E926D8B021
:102F5000EA2A10EEF7F04B380F0B516E5104E126C0
:102F6000D8B0E22A6BEC15F06BEC15F0586E6BECF8
:102F700015F0516E4DEC17F0D8A4CDEF17F0E7B077
:102F8000C6EF17F0010EE76ED2EF17F0E76A100EEA
:102F9000EE6E000EEE6ED2EF17F0E76A51C0EEFF54
:102FA00058C0EEFF3DEC15F096EC18F04E0E48ECD4
:102FB00015F0000E48EC15F0090E48EC15F03DEC4C
:102FC00015F096EC18F0B40E48EC15F082904B0614
:102FD00012003DEC15F096EC18F0B80E48EC15F028
:102FE000000E48EC15F03DEC15F096EC18F0BE0E16
:102FF00048EC15F0000E48EC15F04B380F0B516EF5
:10300000510604EE00F0D890513651365134D89024
:10301000E926D8B0EA2A4B040F0B010F516ED89065
:103020005134D890E926D8B0EA2A6BEC15F06BEC55
:1030300015F06BEC15F06BEC15F0586E6BEC15F0B1
:10304000EE6E58C0EEFF3DEC15F096EC18F04E0E0B
:1030500048EC15F0000E48EC15F0010E48EC15F0A8
:103060003DEC15F096EC18F0B40E48EC15F082909B
:103070004B0612003DEC15F096EC18F0B80E48EC3B
:1030800015F0000E48EC15F03DEC15F096EC18F03C
:10309000BE0E48EC15F0000E48EC15F04B380F0B47
:1030A000516E510604EE00F0D8905136513651342D
:1030B000D890E926D8B0EA2A6BEC15F06BEC15F045
:1030C0006BEC15F06BEC15F0586E6BEC15F0EE6ECA
:1030D00058C0EEFF6BEC15F0586E6BEC15F0EE6E11
:1030E00058C0EEFF82904B0612004B380F0B516E0A
:1030F0005104000FD8B485EF18F0100E4B5E4B5002
:10310000F00B040F4B6E829012004C500F0B000F0F
:10311000D8A491EF18F04938F00B040F4B6E829051
:1031200012004B6EBEEC18F082901200550E48EC67
:1031300015F0100E4B64A5EF18F004EE48F04B3874
:103140000F0B516E5106A9EF18F04B04516E01EEB2
:10315000C2F05150080DF350D890E926D8B0EA2AB1
:10316000070ED890E926D8B0EA2A080E546EED5022
:1031700048EC15F0542EB7EF18F012003DEC15F0A6
:10318000CC0E48EC15F0440E48EC15F01200FF0E82
:10319000CB6E010ECA6ECC6A9E92CA849EA2CEEFFE
:1031A00018F0CA949E92120004EE91F0080E066E7A
:1031B0000A0EEE6EEE6AEE6A100EEE6E000EEE6E07
:1031C000000EEE6E000EEE6E062ED8EF18F0066AB8
:1031D0001200D16A0400F18E430ED56ED60ED66E63
:1031E000F2940F01000E5F6F5E6FB56A0F01300E33
:1031F000C16E0F01BA0EC06E0F01010EC26E0F013B
:10320000000E5B6F0F01000E806E0F01FF0E936EBC
:103210000F01FF0E816E0F01C40E946E0F01CF0ED1
:10322000826E0F01000E956E0F01000E836E080E68
:10323000846E0400EEEC19F014EC13F0BFEC12F005
:1032400075EC0CF07F0ECE6EF20ECF6E310ECD6EA1
:10325000010ECA6EFF0ECB6E9D92CC6A9E920A0E34
:10326000596EFF0E016EC7EC18F0012E33EF19F006
:10327000592E31EF19F00F01210E9D6E0001815082
:10328000480EF26E100E9E6E0F01FF0E5A6F000177
:10329000F29AF29C998281501F6E811CAE6F000ED3
:1032A000316E030E386E396E3B6A3C6A640E016EF5
:1032B000FF0E026E010E596E040E5A6E11EEB0F042
:1032C000090E4C6E100EE66E000EE66E4C2E62EF8E
:1032D00019F014EE00F0240E4C6E100EE66E000E87
:1032E000E66E4C2E6DEF19F00400C0EC14F0049E55
:1032F00004944C6A496A4B6A0400078CCDEC14F0C4
:10330000040050A0DAEF19F0049210EE58F0E750E4
:103310002808D8A4048204B293EF19F004B4CAEFC9
:1033200019F096EF19F004BECAEF19F001EEC2F0E1
:1033300004B204EE48F010EE51F0D89004A2A4EFCD
:1033400019F04934A5EF19F04C341C6E1C361C34AE
:10335000D890E926D8B0EA2A10EE51F0080E126E85
:10336000E6CFEEFF122EB0EF19F004A2C1EF19F074
:10337000492A120E4918D8A47EEF19F0048E7EEF68
:1033800019F04C2A120E4C18D8A47EEF19F00484C0
:103390007EEF19F004A47EEF19F004AE7EEF19F071
:1033A000BEEC18F082904C500F0B4B6E640E016E09
:1033B000EBEF19F04C50000FD8A4D0EF19F04950A2
:1033C000000FD8B4EBEF19F082904938F00B040FDE
:1033D0004B6E640E016E0400076A120000EE00F0EE
:1033E000EE6AEA500F08D8A4F0EF19F0666B676B2D
:0233F0001200C9
:020000040030CA
:0100000014EB
:0100010003FB
:0100020006F7
:0100030023D9
:0100050009F1
:010006009069
:0100080000F7
:0200000400F00A
:1000000001820100001A0000F1020F0258051E02D1
:09001000580564FF3000000000F7
:00000001FF
