:020000040000FA
:04000000A7EF10F066
:020004000000FA
:08000800A4B429EC00F0100083
:080018005B6ED8385C6EE9CF85
:100020005EF0EACF5DF00001F2B0AAEC05F0F2B4A8
:100030002DEC00F09EB0ACEF0CF09EBABEEC06F0DA
:100040005EC0E9FF5DC0EAFF5C38D86E5B3A5B38A2
:100050001000828AA494A3941000F294D59ED60E28
:10006000D66ED58EE2CF5FF0E1CF60F0A551000FE4
:10007000D8A442EF00F0A651000FD8A442EF00F040
:1000800057EF00F05A2E89EF05F0040E5A6EA607BE
:10009000D8B04DEF00F0D890A507A551000FD8A417
:1000A00089EF05F0A651000FD8A489EF05F044C3ED
:1000B000E8FF000FD8A481EF02F045C3E8FF000F6E
:1000C000D8A481EF02F046C3E8FF000FD8A481EF67
:1000D00002F0A1EC13F003EE23F013EE24F09AECFF
:1000E00005F004BE8EEF00F0E7AC7DEF00F0E738DE
:1000F000030B655DD8A48EEF00F067B18EEF00F0C2
:10010000ADA187EF00F08090EF9089EF00F0808044
:10011000EF8001C325F300C324F3678113EE26F0BB
:100120009AEC05F004BEAFEF00F0E7AC9EEF00F0F4
:10013000E738030B655DD8A4AFEF00F067B3AFEF0E
:1001400000F0ADA3A8EF00F08092EF92AAEF00F0CC
:100150008082EF8203C327F302C326F3678313EE83
:1001600028F09AEC05F004BED0EF00F0E7ACBFEF4A
:1001700000F0E738030B655DD8A4D0EF00F067B559
:10018000D0EF00F0ADA5C9EF00F08094EF94CBEF75
:1001900000F08084EF8405C329F304C328F3678546
:1001A00013EE2AF09AEC05F004BEF1EF00F0E7AC94
:1001B000E0EF00F0E738030B655DD8A4F1EF00F045
:1001C00067B7F1EF00F0ADA7EAEF00F08096EF9689
:1001D000ECEF00F08086EF8607C32BF306C32AF30B
:1001E000678713EE2CF09AEC05F004BE12EF01F0D5
:1001F000E7AC01EF01F0E738030B655DD8A412EF1F
:1002000001F067B912EF01F0ADA90BEF01F0809A90
:10021000EF980DEF01F0808AEF8809C32DF308C332
:100220002CF3678913EE2EF09AEC05F004BE33EF41
:1002300001F0E7AC22EF01F0E738030B655DD8A4CD
:1002400033EF01F067BB33EF01F0ADAB2CEF01F002
:100250008490EF9A2EEF01F08480EF8A0BC32FF386
:100260000AC32EF3678B13EE30F09AEC05F004BE50
:1002700054EF01F0E7AC43EF01F0E738030B655DA5
:10028000D8A454EF01F067BD54EF01F0ADAD4DEFD0
:1002900001F08492EF9C4FEF01F08482EF8C0DC34C
:1002A00031F30CC330F3678D13EE32F09AEC05F0A6
:1002B00004BE75EF01F0E7AC64EF01F0E738030B23
:1002C000655DD8A475EF01F067BF75EF01F0ADAFC4
:1002D0006EEF01F08494EF9E70EF01F08484EF8E56
:1002E0000FC333F30EC332F3678F03EE22F013EE26
:1002F00034F09AEC05F004BE98EF01F0E7AC87EF1C
:1003000001F0E738030B655DD8A498EF01F066B102
:1003100098EF01F0ACA191EF01F08390EF9093EF93
:1003200001F08380EF8011C335F310C334F366818D
:1003300013EE36F09AEC05F004BEB9EF01F0E7AC2D
:10034000A8EF01F0E738030B655DD8A4B9EF01F021
:1003500066B3B9EF01F0ACA3B2EF01F08392EF9274
:10036000B4EF01F08382EF8213C337F312C336F385
:10037000668313EE38F09AEC05F004BEDAEF01F074
:10038000E7ACC9EF01F0E738030B655DD8A4DAEFFD
:1003900001F066B5DAEF01F0ACA5D3EF01F083947C
:1003A000EF94D5EF01F08384EF8415C339F314C3C0
:1003B00038F3668513EE3AF09AEC05F004BEFBEFD5
:1003C00001F0E7ACEAEF01F0E738030B655DD8A474
:1003D000FBEF01F066B7FBEF01F0ACA7F4EF01F023
:1003E0008396EF96F6EF01F08386EF8617C33BF313
:1003F00016C33AF3668713EE3CF09AEC05F004BEA0
:100400001CEF02F0E7AC0BEF02F0E738030B655D81
:10041000D8A41CEF02F066B91CEF02F0ACA915EFEE
:1004200002F08398EF9817EF02F08388EF8819C3E2
:100430003DF318C33CF3668913EE3EF09AEC05F0E9
:1004400004BE3DEF02F0E7AC2CEF02F0E738030BFF
:10045000655DD8A43DEF02F066BB3DEF02F0ACABAA
:1004600036EF02F0839AEF9A38EF02F0838AEF8A30
:100470001BC33FF31AC33EF3668B13EE40F09AECB6
:1004800005F004BE5EEF02F0E7AC4DEF02F0E73896
:10049000030B655DD8A45EEF02F066BD5EEF02F06F
:1004A000ACAD57EF02F0839CEF9C59EF02F0838CC8
:1004B000EF8C1DC341F31CC340F3668D13EE42F075
:1004C0009AEC05F004BE7FEF02F0E7AC6EEF02F0AD
:1004D000E738030B655DD8A47FEF02F066BF7FEFBE
:1004E00002F0ACAF78EF02F0839EEF9E7AEF02F05D
:1004F000838EEF8E1FC343F31EC342F3668FDCEF80
:1005000002F044C3A9F045C3AAF046C3ABF0D890AB
:10051000AB07D8B093EF02F0D890AA07D8B093EF0A
:1005200002F0D890A907A9C044F3AAC045F3ABC014
:1005300046F344C3E8FF000FD8A4ADEF02F045C373
:10054000E8FF000FD8A4ADEF02F046C3E8FF000FAC
:10055000D8A4ADEF02F069EF00F04CC3A9F04DC391
:10056000AAF0D890AA07D8B0B8EF02F0D890A9079F
:10057000A9C04CF3AAC04DF34DC3E8FF000FD8A4A7
:10058000DCEF02F04CC3E8FF000FD8A4DCEF02F070
:100590004AC34CF34BC34DF365C0E8FF010FE8CFEE
:1005A00065F065C0E8FF0408D8A46BEF00F0000E0A
:1005B000E8CF65F06BEF00F05A2E89EF05F0040EDE
:1005C0005A6E03EE23F013EE24F09AEC05F004BE0D
:1005D000F4EF02F067A10DEF03F092EC05F09AEC56
:1005E00005F004AE0DEF03F0ADA1FBEF02F080804B
:1005F000EF80FDEF02F08090EF90679100C324F34D
:1006000001C325F3E7BE0DEF03F024C3E8FFF00BB1
:10061000E8CF24F3000EE8CF25F313EE26F09AEC92
:1006200005F004BE1EEF03F067A337EF03F092EC72
:1006300005F09AEC05F004AE37EF03F0ADA325EF1B
:1006400003F08082EF8227EF03F08092EF926793AE
:1006500002C326F303C327F3E7BE37EF03F026C335
:10066000E8FFF00BE8CF26F3000EE8CF27F313EEF8
:1006700028F09AEC05F004BE48EF03F067A561EF9F
:1006800003F092EC05F09AEC05F004AE61EF03F094
:10069000ADA54FEF03F08084EF8451EF03F0809419
:1006A000EF94679504C328F305C329F3E7BE61EF10
:1006B00003F028C3E8FFF00BE8CF28F3000EE8CFE3
:1006C00029F313EE2AF09AEC05F004BE72EF03F062
:1006D00067A78BEF03F092EC05F09AEC05F004AEFF
:1006E0008BEF03F0ADA779EF03F08086EF867BEF09
:1006F00003F08096EF96679706C32AF307C32BF3A0
:10070000E7BE8BEF03F02AC3E8FFF00BE8CF2AF334
:10071000000EE8CF2BF313EE2CF09AEC05F004BE9C
:100720009CEF03F067A9B5EF03F092EC05F09AECAB
:1007300005F004AEB5EF03F0ADA9A3EF03F0808A96
:10074000EF88A5EF03F0809AEF98679908C32CF320
:1007500009C32DF3E7BEB5EF03F02CC3E8FFF00BA0
:10076000E8CF2CF3000EE8CF2DF313EE2EF09AEC29
:1007700005F004BEC6EF03F067ABDFEF03F092ECC9
:1007800005F09AEC05F004AEDFEF03F0ADABCDEF72
:1007900003F08480EF8ACFEF03F08490EF9A679B99
:1007A0000AC32EF30BC32FF3E7BEDFEF03F02EC314
:1007B000E8FFF00BE8CF2EF3000EE8CF2FF313EE97
:1007C00030F09AEC05F004BEF0EF03F067AD09EFEE
:1007D00004F092EC05F09AEC05F004AE09EF04F099
:1007E000ADADF7EF03F08482EF8CF9EF03F0849264
:1007F000EF9C679D0CC330F30DC331F3E7BE09EFE7
:1008000004F030C3E8FFF00BE8CF30F3000EE8CF80
:1008100031F313EE32F09AEC05F004BE1AEF04F057
:1008200067AF33EF04F092EC05F09AEC05F004AEFC
:1008300033EF04F0ADAF21EF04F08484EF8E23EFAB
:1008400004F08494EF9E679F0EC332F30FC333F31B
:10085000E7BE33EF04F032C3E8FFF00BE8CF32F32A
:10086000000EE8CF33F313EE34F003EE22F09AECEF
:1008700005F004BE46EF04F066A15FEF04F092ECD1
:1008800005F09AEC05F004AE5FEF04F0ACA14DEF7B
:1008900004F08380EF804FEF04F08390EF90669137
:1008A00010C334F311C335F3E7BE5FEF04F034C374
:1008B000E8FFF00BE8CF34F3000EE8CF35F313EE8A
:1008C00036F09AEC05F004BE70EF04F066A389EFF1
:1008D00004F092EC05F09AEC05F004AE89EF04F018
:1008E000ACA377EF04F08382EF8279EF04F0839278
:1008F000EF92669312C336F313C337F3E7BE89EF63
:1009000004F036C3E8FFF00BE8CF36F3000EE8CF73
:1009100037F313EE38F09AEC05F004BE9AEF04F0CA
:1009200066A5B3EF04F092EC05F09AEC05F004AE86
:10093000B3EF04F0ACA5A1EF04F08384EF84A3EF40
:1009400004F08394EF94669514C338F315C339F318
:10095000E7BEB3EF04F038C3E8FFF00BE8CF38F39D
:10096000000EE8CF39F313EE3AF09AEC05F004BE2E
:10097000C4EF04F066A7DDEF04F092EC05F09AEC0A
:1009800005F004AEDDEF04F0ACA7CBEF04F08386F6
:10099000EF86CDEF04F08396EF96669716C33AF391
:1009A00017C33BF3E7BEDDEF04F03AC3E8FFF00BFB
:1009B000E8CF3AF3000EE8CF3BF313EE3CF09AECAD
:1009C00005F004BEEEEF04F066A907EF05F092EC27
:1009D00005F09AEC05F004AE07EF05F0ACA9F5EFD1
:1009E00004F08388EF88F7EF04F08398EF98669916
:1009F00018C33CF319C33DF3E7BE07EF05F03CC352
:100A0000E8FFF00BE8CF3CF3000EE8CF3DF313EE28
:100A10003EF09AEC05F004BE18EF05F066AB31EF3E
:100A200005F092EC05F09AEC05F004AE31EF05F01C
:100A3000ACAB1FEF05F0838AEF8A21EF05F0839AB4
:100A4000EF9A669B1AC33EF31BC33FF3E7BE31EF39
:100A500005F03EC3E8FFF00BE8CF3EF3000EE8CF11
:100A60003FF313EE40F09AEC05F004BE42EF05F0C0
:100A700066AD5BEF05F092EC05F09AEC05F004AE84
:100A80005BEF05F0ACAD49EF05F0838CEF8C4BEFDD
:100A900005F0839CEF9C669D1CC340F31DC341F38E
:100AA000E7BE5BEF05F040C3E8FFF00BE8CF40F393
:100AB000000EE8CF41F313EE42F09AEC05F004BECD
:100AC0006CEF05F066AF85EF05F092EC05F09AEC5F
:100AD00005F004AE85EF05F0ACAF73EF05F0838E43
:100AE000EF8E75EF05F0839EEF9E669F1EC342F367
:100AF0001FC343F3E7BE85EF05F042C3E8FFF00BE9
:100B0000E8CF42F3000EE8CF43F3D890A82BD8B03B
:100B1000A72B5FC0E2FF60C0E1FF64C0E9FF63C0D4
:100B2000EAFF1200E650D890E506D8B01200E506BC
:100B3000E6501200049EE6500F0B000FD8A4A8EF59
:100B400005F0E650000FD8A4A7EF05F0048EE5509D
:100B5000E550120081503A6E0218366E36B0C5EF7D
:100B600005F036B2D4EF05F036B4E3EF05F036B653
:100B7000F2EF05F036B801EF06F036BA13EF06F0E3
:100B800036BC25EF06F037EF06F03AA0CBEF05F0C4
:100B9000028047EF06F0029037A0D1EF05F047EF53
:100BA00006F0378047EF06F03AA2DAEF05F002824E
:100BB00047EF06F0029237A2E0EF05F047EF06F0AC
:100BC000378247EF06F03AA4E9EF05F0028447EFD9
:100BD00006F0029437A4EFEF05F047EF06F03784F4
:100BE00047EF06F03AA6F8EF05F0028647EF06F069
:100BF000029637A6FEEF05F047EF06F0378647EF7F
:100C000006F0E1BB80EF06F03AA80AEF06F0028892
:100C100047EF06F0029837A810EF06F047EF06F00E
:100C2000378847EF06F0E1BB6FEF06F03AAA1CEFFA
:100C300006F0028A47EF06F0029A37AA22EF06F082
:100C400047EF06F0378A47EF06F0E1BD5EEF06F0AA
:100C50003AAC2EEF06F0028C47EF06F0029C37AC60
:100C600034EF06F047EF06F0378C47EF06F0E1BDB2
:100C70004DEF06F03AAE40EF06F0028E47EF06F079
:100C8000029E37AE46EF06F047EF06F0378E3A5039
:100C90000218D8A41200F29012000F019D9A0001D0
:100CA0003ABEB2EF06F0029E03B847EF06F091ECB1
:100CB00006F09DEC06F03B2A47EF06F00F019D9AE7
:100CC00000013ABCB5EF06F0029C03B847EF06F00E
:100CD00091EC06F0A0EC06F03B2A47EF06F00F017E
:100CE0009D9A00013ABAB8EF06F0029A03BC47EFAA
:100CF00006F097EC06F09DEC06F03C2A47EF06F074
:100D00000F019D9A00013AB8BBEF06F0029803BCB0
:100D100047EF06F097EC06F0A0EC06F03C2A47EF10
:100D200006F0030E386E038A00EEC9F01200030EBF
:100D3000396E038E00EED1F01200D880A1EF06F0DC
:100D4000D890EF36E906EF36E906EF36E906EF36DA
:100D5000E906EF36E906EF36E906EF36E906EF3643
:100D6000E9061200028E47EF06F0028C47EF06F00C
:100D7000028A47EF06F0028847EF06F004009E9AC9
:100D80000F01AB500001060BD8A475EF0CF0155005
:100D90006208D8A075EF0CF016800F01AE5000016C
:100DA000146E04EEC9F01550D890E926D8B0EA2A9E
:100DB0001450EF6E152A15500108D8B4F7EF06F05D
:100DC00015500208D8A4F7EF06F014504508D8A42F
:100DD000EEEF06F00C0E126E8CEF0CF014501008B3
:100DE000D8A4F7EF06F0070E126E8CEF0CF015503A
:100DF000125CD8A48CEF0CF0CAC4E8FF1008D8A489
:100E00000CEF07F016B20CEF07F0CFC4E8FF020FAB
:100E1000122616828CEF0CF0FF0E1B6E1C6E120653
:100E20001204156E04EEC9F0829AA494A384EF50C4
:100E30006CEC12F0E92A152E17EF07F01C50EF5C4E
:100E4000D8A475EF0CF0E92A1B50EF5CD8A475EF1D
:100E50000CF0048616900F019D9A0001120004EE1A
:100E6000C9F0E3C0E8FFEF5CD8B442EF07F0079A9F
:100E7000EF50000FD8A477EF0CF0078A5BEC07F077
:100E800077EF0CF05BEC07F0E92AEF500308D8B4D9
:100E90006FEF07F0EF500608D8B4DDEF07F0EF5022
:100EA0004508D8B4B7EF08F0EF501008D8B43FEFBA
:100EB00008F053EF0CF016881E0E006EE8C0E8FF35
:100EC0000B6EE9C0E8FF0C6E82860394ECC0E8FF6D
:100ED0000F6EEDC0E8FF106E82980396120007981F
:100EE00049EC09F0D8A078EF07F0169C56EF0CF00B
:100EF000A3EC0AF0D8B056EF0CF007BA79EF0CF07B
:100F0000168C16AE8BEF07F0CEC4E8FF0108D8A40C
:100F10008BEF07F0169C16AC93EF07F0FF0E1F52F5
:100F2000316A326A169C169A04BA9FEF07F000EEF7
:100F3000ACF0CCC408F00834E926D8B0EA2ACDC415
:100F4000E8FF116ECEC408F00834126E20EC09F0F0
:100F50001250E66E6CEC12F0152A04A2B4EF07F002
:100F6000A40EE926D8B0EA2AEE50E66E6CEC12F038
:100F7000152A122EB4EF07F004A0DBEF07F003A848
:100F8000CDEF07F03B6A0398C06BC26BC36BC46BB9
:100F9000C56BC66BC76BC86BC96B03ACDBEF07F0E7
:100FA0003C6A039CC16BCA6BCB6BCC6BCD6BCE6BBD
:100FB000CF6BD06BD16B02EF09F0078849EC09F0D9
:100FC000D8B056EF0CF0A3EC0AF0D8B056EF0CF006
:100FD00016B656EF0CF004BAFDEF07F000EEACF0D9
:100FE000CCC408F00834E926D8B0EA2A04A2FDEF00
:100FF00007F0A50EE926D8B0EA2ACDC4E8FFEE6EC8
:1010000004BCE66ECEC4E8FFEF6E04BCE66E16AE1E
:1010100018EF08F0ACC0E8FF836EADC035F00F0BE1
:10102000806E35B8808AD89035323538070B846E9B
:10103000169E07A620EF08F0A1EC13F0F6EC13F0D3
:1010400007BA79EF0CF020EC09F02AC5E8FFE66E4C
:101050006CEC12F0152A2BC5E8FFE66E6CEC12F072
:10106000152ACDC4E8FFE66E6CEC12F0152ACEC44A
:10107000E8FFE66E6CEC12F0152A02EF09F0CCC422
:10108000E8FF6308D8B056EF0CF0CCC4E8FF730853
:10109000D8A056EF0CF0CCC408F0640E085CE8CF82
:1010A00008F003EE00F013EE24F0D8900834E9269F
:1010B000D8B0EA2AD8900834E126D8B0E22AEACF9C
:1010C00019F0E9CF1AF0CDC4E8FF000FD8A456EF0D
:1010D0000CF0CEC4E8FFD8901A26D8B0192A030E17
:1010E000196475EF08F056EF0CF019627EEF08F006
:1010F000200E1A647EEF08F056EF0CF0CD51116E01
:10110000CEC412F012361150000F0008D8A48FEF91
:1011100008F01250000F0008D8B456EF0CF024EE7F
:10112000D0F0DFCFE6FFDECFEEFF122E91EF08F01A
:1011300007BA79EF0CF020EC09F0CBC4E8FFE66EBB
:101140006CEC12F0152ACCC4E8FFE66E6CEC12F0E1
:10115000152ACDC4E8FFE66E6CEC12F0152ACEC459
:10116000E8FFE66E6CEC12F0152A02EF09F0169E0D
:101170000788E92AD7C0E8FFEF5CD8A479EF0CF024
:10118000E92AD9C0E8FFEF5CD8A479EF0CF0168A01
:10119000E92AE92AE92AEE50E8CFDFF0000EE8CF8D
:1011A000DEF0EE50E8CFE1F0000EE8CFE0F0E3C073
:1011B00008F0EE50000EE8CFE2F0EF50E8CFE5F097
:1011C000000EE8CFE4F007BA79EF0CF020EC09F05C
:1011D00008C0E3F0D7C0E8FFE66E6CEC12F0152A09
:1011E000D9C0E8FFE66E6CEC12F0152AD7C0E8FF14
:1011F000E66E6CEC12F0152AD9C0E8FFE66E6CECD6
:1012000012F0152A1C50E66E152A1B50E66E152AA0
:1012100031EC09F014EEC9F0828AE65097EC12F036
:10122000152E0DEF09F0829A16AA79EF0CF0F29EB6
:10123000F29C07EC14F0F28EF28C169A79EF0CF017
:1012400014EEC9F0FF0E1B6E1C6E156AE3C0E8FFBA
:10125000E66E6CEC12F0152AE6506CEC12F0152AD2
:101260001200920EB26EF80EB36EA192A092310EE1
:10127000B16EA1A239EF09F0000EB16EA192A09259
:10128000120019501B5CD8A448EF09F01A501C5CDE
:101290001200CBC419F0CCC41AF0000E1B6E120E53
:1012A0001C6E41EC09F0D8A05CEF09F0000E196E3D
:1012B000140E1A6E82EF0AF0CBC419F0CCC41AF0E7
:1012C000000E1B6E730E1C6E41EC09F0D8A078EF77
:1012D00009F0000E1B6E630E1C6E41EC09F0D8B0D5
:1012E000A1EF0AF0000E196E750E1A6E82EF0AF069
:1012F000CBC419F0CCC41AF0000E1B6E970E1C6EF6
:1013000041EC09F0D8A094EF09F0000E1B6E940E8A
:101310001C6E41EC09F0D8B0A1EF0AF0000E196E76
:10132000990E1A6E82EF0AF0CBC419F0CCC41AF0F1
:10133000010E1B6E030E1C6E41EC09F0D8A0B0EF3D
:1013400009F0000E1B6EFF0E1C6E41EC09F0D8B0C8
:10135000A1EF0AF0010E196E050E1A6E82EF0AF067
:10136000CBC419F0CCC41AF0010E1B6E170E1C6E04
:1013700041EC09F0D8A0CCEF09F0010E1B6E0D0E68
:101380001C6E41EC09F0D8B0A1EF0AF0010E196E05
:10139000190E1A6E82EF0AF0CBC419F0CCC41AF001
:1013A000010E1B6E9F0E1C6E41EC09F0D8A0E8EFF9
:1013B00009F0010E1B6E8F0E1C6E41EC09F0D8B0C7
:1013C000A1EF0AF0010E196EA10E1A6E82EF0AF05B
:1013D000CBC419F0CCC41AF0010E1B6EF30E1C6EB8
:1013E00041EC09F0D8A004EF0AF0010E1B6EF10EDB
:1013F0001C6E41EC09F0D8B0A1EF0AF0010E196E95
:10140000F50E1A6E82EF0AF0CBC419F0CCC41AF0B4
:10141000020E1B6E600E1C6E41EC09F0D8A020EF8E
:101420000AF0020E1B6E570E1C6E41EC09F0D8B08C
:10143000A1EF0AF0020E196E620E1A6E82EF0AF028
:10144000CBC419F0CCC41AF0020E1B6EAD0E1C6E8C
:1014500041EC09F0D8A03CEF0AF0020E1B6E890E99
:101460001C6E41EC09F0D8B0A1EF0AF0020E196E23
:10147000AF0E1A6E82EF0AF0CBC419F0CCC41AF08A
:10148000020E1B6EDB0E1C6E41EC09F0D8A058EF6B
:101490000AF0020E1B6EBB0E1C6E41EC09F0D8B0B8
:1014A000A1EF0AF0020E196EDD0E1A6E82EF0AF03D
:1014B000CBC419F0CCC41AF0030E1B6E110E1C6EB7
:1014C00041EC09F0D8A074EF0AF0020E1B6EED0E8D
:1014D0001C6E41EC09F0D8B0A1EF0AF0030E196EB2
:1014E000130E1A6E82EF0AF0CBC4E8FF0308D8A4EB
:1014F000A1EF0AF0CCC4E8FFE708D8A4A1EF0AF0F6
:101500009FEF0AF0CAC4E8FF0608D8B49FEF0AF0BC
:10151000CAC4E8FF4508D8B49FEF0AF0CCC41CF059
:10152000CBC41BF0CEC4E8FF1C26D8B01B2ACDC408
:10153000E8FF1B2641EC09F0D8B0A1EF0AF0D890E3
:101540001200D8801200169C169E04900492049AF1
:10155000049C07961696CCC4E8FFE8CF2BF5CBC4C5
:10156000E8FFE8CF2AF5000FD8A4C0EF0AF0CCC4FA
:10157000E8FF000FD8A4C0EF0AF0168E4EEF0CF073
:10158000CCC4E8FFFF08D8B4FBEF0AF0CBC4E8FFF7
:10159000000FD8A4FBEF0AF0CCC4E8FF2308D8B0B2
:1015A00079EF0BF0CCC4E8FF9508D8B409EF0CF044
:1015B000CCC4E8FF9608D8B4F6EF0BF0CCC4E8FF33
:1015C0009708D8B400EF0CF0D8A050EF0CF0CCC4C2
:1015D000E8FF6308D8B050EF0CF0CCC4E8FF730804
:1015E000D8A050EF0CF0DCEF0BF01686000EE8CF21
:1015F000CBF44EEF0CF0CBC4E8FF0208D8B48CEF6C
:101600000BF0CBC4E8FF0308D8B48CEF0BF0CBC4CD
:10161000E8FF0108D8A41DEF0BF0CCC408F0F20ECF
:10162000085CD8A01DEF0BF05D0EE8CFCCF4000EE7
:10163000E8CFCBF40482F5EF0AF0CBC408F0010E3A
:10164000085CD8A02BEF0BF00482CCC4E8FF8F0815
:10165000D8A081EF0BF00492CCC4E8FF0008D8A416
:1016600037EF0BF0130EE8CFCCF4F5EF0AF0CCC453
:10167000E8FF0108D8A442EF0BF0140EE8CFCCF439
:10168000F5EF0AF0CCC4E8FF0208D8A44DEF0BF048
:10169000150EE8CFCCF4F5EF0AF0CCC4E8FF030850
:1016A000D8A458EF0BF0160EE8CFCCF4F5EF0AF003
:1016B000CCC4E8FF0D08D8B050EF0CF0CCC4E8FF64
:1016C0001708D8A050EF0CF0168ACCC4E8FF110818
:1016D000D8A46EEF0BF00380000E0C6ECCC4E8FFB4
:1016E000090FE8CFCCF4000EE8CFCBF416964EEFFE
:1016F0000CF0168CCCC4E8FF0A08D8B40480F5EFCF
:101700000AF0CCC408F0700E085CE8CFCCF4000EF0
:10171000E8CFCBF476EF0BF0CBC4E8FF0308D8A4F6
:10172000ACEF0BF0CCC4E8FFE708D8A4ACEF0BF0AB
:10173000CAC4E8FF0608D8A450EF0CF0CDC4E8FFF7
:10174000DE08D8A450EF0CF0CEC4E8FFAD08D8A452
:1017500050EF0CF0F29EFF00CBC4E8FF0308D8B4B2
:1017600012EF0CF0CBC4E8FF0208D8A4BEEF0BF0D8
:10177000CCC4E8FFBB08D8A012EF0CF0CCC4E8FF43
:101780008908D8A0D0EF0BF0CCC408F0280E085C74
:10179000E8CFCCF4000EE8CFCBF40482F5EF0AF0EA
:1017A000CCC408F0510E085CE8CFCCF4000EE8CFB2
:1017B000CBF40482F5EF0AF0CCC408F0640E085CA8
:1017C000E8CFCCF4CCC408F003EE00F013EE24F024
:1017D000D8900834E926D8B0EA2AD8900834E1260F
:1017E000D8B0E22A048A048C4EEF0CF0740EE8CFD5
:1017F000CCF4048A03EE20F0168A07864EEF0CF034
:10180000750EE8CFCCF4048A03EE22F016864EEF74
:101810000CF0048A078600EEA7F007B800EEA5F0EA
:101820004EEF0CF0CBC4E8FF0308D8B431EF0CF056
:10183000CCC4E8FFED08D8A031EF0CF004EE00F0C6
:10184000000EE8CFCBF4CCC4E8FFBC08D890E8CFBA
:10185000CCF4086E0836E926D8B0EA2A048AF5EFF7
:101860000AF004EE48F0020EF36ECCC408F0EE0E5F
:10187000085E08C0CCF4CBC408F0CBC4E8FFD8A005
:10188000F33C085E08C0CBF4CCC408F0D890083410
:10189000E926D8B0EA2A048AF5EF0AF0D8901200B7
:1018A000D880169C1200010E57EF0CF0020EE8CF04
:1018B000CBF414EEC9F0FF0E1B6E1C6E156AE351DB
:1018C000E66E6CEC12F0152ACAC4E8FF800FE8CF70
:1018D000CAF4E650CAC4E8FF6CEC12F0152AE650D0
:1018E0006CEC12F0152A02EF09F079EF0CF05BECCA
:1018F00007F0156A16941690060E176E0F01AB9836
:10190000AB880F01AE500001080E126E16920496BD
:10191000829AA494A3841200060E176E1200D89027
:10192000EF50010FEF6ED8A0ABEF0CF0E906D890A6
:10193000EF50010FEF6ED8A0ABEF0CF0E906D89096
:10194000EF50010FEF6ED8A0ABEF0CF0E906D89086
:10195000EF50010FEF6E12009E907F0ECE6EF20ED2
:10196000CF6E040003AAC5EF0CF0382EC5EF0CF0C3
:10197000030E386E0388039A3BC0C0F03B6A03BE77
:10198000C5EF0CF00F019D8A000103AED8EF0CF0FB
:10199000392ED8EF0CF0030E396E038C039E3CC039
:1019A000C1F03C6A03BAD8EF0CF00F019D8A000128
:1019B000012EF4EF0CF0640E016EABEC16F002EEAB
:1019C0000DF08FEC0CF016A8F2EF0CF0002EF2EFF9
:1019D0000CF0F2EC12F077EC0CF016989E9A0F01D6
:1019E0009D8A00013FEC16F016A000EF0DF01706DF
:1019F0001750000FD8A400EF0DF079EC0CF09E9A70
:101A000037A00DEF0DF03D2E0DEF0DF0020E3D6EE7
:101A1000379001EE93F08FEC0CF037A21AEF0DF037
:101A20003E2E1AEF0DF0020E3E6E379201EE97F049
:101A30008FEC0CF037A427EF0DF03F2E27EF0DF0C1
:101A4000020E3F6E379401EE9BF08FEC0CF037A640
:101A500034EF0DF0402E34EF0DF0020E406E37964D
:101A600001EE9FF08FEC0CF037A841EF0DF0412E06
:101A700041EF0DF0020E416E379801EEA3F08FECAE
:101A80000CF037AA4EEF0DF0422E4EEF0DF0020E85
:101A9000426E379A01EEA7F08FEC0CF037AC5BEF9B
:101AA0000DF0432E5BEF0DF0020E436E379C01EEFE
:101AB000ABF08FEC0CF037AE68EF0DF0442E68EF12
:101AC0000DF0020E446E379E01EEAFF08FEC0CF07D
:101AD000E1A96EEF0DF031B098EF0DF081B080EF1D
:101AE0000DF0E1A77AEF0DF01DA092EF0DF0212E81
:101AF00098EF0DF01F803180AE811D9098EF0DF0B2
:101B00001FA098EF0DF0E1A78DEF0DF01DA095EF50
:101B10000DF0212E98EF0DF01F903180AE911D90A9
:101B200098EF0DF01FB098EF0DF0010E216E1D80A3
:101B3000E1A99EEF0DF031B2C8EF0DF081B2B0EF28
:101B40000DF0E1A7AAEF0DF01DA2C2EF0DF0222EBD
:101B5000C8EF0DF01F823182AE831D92C8EF0DF0E9
:101B60001FA2C8EF0DF0E1A7BDEF0DF01DA2C5EF5C
:101B70000DF0222EC8EF0DF01F923182AE931D9210
:101B8000C8EF0DF01FB2C8EF0DF0010E226E1D82DE
:101B9000E1A9CEEF0DF031B4F8EF0DF081B4E0EF34
:101BA0000DF0E1A7DAEF0DF01DA4F2EF0DF0232EFA
:101BB000F8EF0DF01F843184AE851D94F8EF0DF021
:101BC0001FA4F8EF0DF0E1A7EDEF0DF01DA4F5EF68
:101BD0000DF0232EF8EF0DF01F943184AE951D9477
:101BE000F8EF0DF01FB4F8EF0DF0010E236E1D8419
:101BF000E1A9FEEF0DF031B628EF0EF081B610EF3F
:101C00000EF0E1A70AEF0EF01DA622EF0EF0242E33
:101C100028EF0EF01F863186AE871D9628EF0EF056
:101C20001FA628EF0EF0E1A71DEF0EF01DA625EF71
:101C30000EF0242E28EF0EF01F963186AE971D96DB
:101C400028EF0EF01FB628EF0EF0010E246E1D8651
:101C5000E1A92EEF0EF031B858EF0EF081B840EF49
:101C60000EF0E1A73AEF0EF01DA852EF0EF0252E70
:101C700058EF0EF01F883188AE891D9858EF0EF08E
:101C80001FA858EF0EF0E1A74DEF0EF01DA855EF7D
:101C90000EF0252E58EF0EF01F983188AE991D9842
:101CA00058EF0EF01FB858EF0EF0010E256E1D888C
:101CB000E1A95EEF0EF031BA88EF0EF081BA70EF55
:101CC0000EF0E1A76AEF0EF01DAA82EF0EF0262EAD
:101CD00088EF0EF01F8A318AAE8B1D9A88EF0EF0C6
:101CE0001FAA88EF0EF0E1A77DEF0EF01DAA85EF89
:101CF0000EF0262E88EF0EF01F9A318AAE9B1D9AA9
:101D000088EF0EF01FBA88EF0EF0010E266E1D8AC6
:101D1000E1A98EEF0EF031BCB8EF0EF081BCA0EF60
:101D20000EF0E1A79AEF0EF01DACB2EF0EF0272EE9
:101D3000B8EF0EF01F8C318CAE8D1D9CB8EF0EF0FD
:101D40001FACB8EF0EF0E1A7ADEF0EF01DACB5EF94
:101D50000EF0272EB8EF0EF01F9C318CAE9D1D9C0F
:101D6000B8EF0EF01FBCB8EF0EF0010E276E1D8C01
:101D7000E1A9BEEF0EF031BEE8EF0EF081BED0EF6C
:101D80000EF0E1A7CAEF0EF01DAEE2EF0EF0282E26
:101D9000E8EF0EF01F8E318EAE8F1D9EE8EF0EF035
:101DA0001FAEE8EF0EF0E1A7DDEF0EF01DAEE5EFA0
:101DB0000EF0282EE8EF0EF01F9E318EAE9F1D9E76
:101DC000E8EF0EF01FBEE8EF0EF0010E286E1D8E3C
:101DD00080500F0B346E80BA348884B0348A84B259
:101DE000348C84B4348EDC51341AE5B121EF0FF019
:101DF000DDA121EF0FF0E1A901EF0FF032B02BEFE1
:101E00000FF034B013EF0FF0E1A70DEF0FF01EA0AD
:101E100025EF0FF0292E2BEF0FF020803280AF81BD
:101E20001E902BEF0FF020A02BEF0FF0E1A720EF7B
:101E30000FF01EA028EF0FF0292E2BEF0FF02090AF
:101E40003280AF911E902BEF0FF020B02BEF0FF0F0
:101E5000010E296E1E80E5B357EF0FF0DDA357EF9B
:101E60000FF0E1A937EF0FF032B261EF0FF034B2AB
:101E700049EF0FF0E1A743EF0FF01EA25BEF0FF069
:101E80002A2E61EF0FF020823282AF831E9261EF23
:101E90000FF020A261EF0FF0E1A756EF0FF01EA2A6
:101EA0005EEF0FF02A2E61EF0FF020923282AF9397
:101EB0001E9261EF0FF020B261EF0FF0010E2A6E5B
:101EC0001E82E5B58DEF0FF0DDA58DEF0FF0E1A9D6
:101ED0006DEF0FF032B497EF0FF034B47FEF0FF0E7
:101EE000E1A779EF0FF01EA491EF0FF02B2E97EFE3
:101EF0000FF020843284AF851E9497EF0FF020A45A
:101F000097EF0FF0E1A78CEF0FF01EA494EF0FF006
:101F10002B2E97EF0FF020943284AF951E9497EFFD
:101F20000FF020B497EF0FF0010E2B6E1E84E5B773
:101F3000C3EF0FF0DDA7C3EF0FF0E1A9A3EF0FF0A0
:101F400032B6CDEF0FF034B6B5EF0FF0E1A7AFEF3B
:101F50000FF01EA6C7EF0FF02C2ECDEF0FF020864E
:101F60003286AF871E96CDEF0FF020A6CDEF0FF093
:101F7000E1A7C2EF0FF01EA6CAEF0FF02C2ECDEF97
:101F80000FF020963286AF971E96CDEF0FF020B659
:101F9000CDEF0FF0010E2C6E1E86E5B9F9EF0FF0B4
:101FA000DDA9F9EF0FF0E1A9D9EF0FF032B803EF97
:101FB00010F034B8EBEF0FF0E1A7E5EF0FF01EA83B
:101FC000FDEF0FF02D2E03EF10F020883288AF893F
:101FD0001E9803EF10F020A803EF10F0E1A7F8EF30
:101FE0000FF01EA800EF10F02D2E03EF10F0209838
:101FF0003288AF991E9803EF10F020B803EF10F06D
:10200000010E2D6E1E88E5BB2FEF10F0DDAB2FEF1C
:1020100010F0E1A90FEF10F032BA39EF10F034BA36
:1020200021EF10F0E1A71BEF10F01EAA33EF10F024
:102030002E2E39EF10F0208A328AAF8B1E9A39EF9C
:1020400010F020AA39EF10F0E1A72EEF10F01EAA31
:1020500036EF10F02E2E39EF10F0209A328AAF9B17
:102060001E9A39EF10F020BA39EF10F0010E2E6EE3
:102070001E8AE5BD65EF10F0DDAD65EF10F0E1A95A
:1020800045EF10F032BC6FEF10F034BC57EF10F09A
:10209000E1A751EF10F01EAC69EF10F02F2E6FEF9B
:1020A00010F0208C328CAF8D1E9C6FEF10F020ACA6
:1020B0006FEF10F0E1A764EF10F01EAC6CEF10F0C2
:1020C0002F2E6FEF10F0209C328CAF9D1E9C6FEF77
:1020D00010F020BC6FEF10F0010E2F6E1E8CE5BFCC
:1020E0009BEF10F0DDAF9BEF10F0E1A97BEF10F05C
:1020F00032BEA5EF10F034BE8DEF10F0E1A787EFF0
:1021000010F01EAE9FEF10F0302EA5EF10F0208ED5
:10211000328EAF8F1E9EA5EF10F020AEA5EF10F00F
:10212000E1A79AEF10F01EAEA2EF10F0302EA5EF4F
:1021300010F0209E328EAF9F1E9EA5EF10F020BEA5
:10214000A5EF10F0010E306E1E8E1DEF00F0D4ECE6
:1021500018F0BFEC18F00F01210E9D6E00018150A8
:10216000680EF26E100E9E6E0F01FF0E5A6F000188
:102170000400040EA56E9F6AA26AB86A786AF16AC2
:10218000F18ED08EF294F28CF28E9D9C9E9804A6D5
:10219000DBEF10F004A4D2EF10F0BCEC16F00494C6
:1021A000010E596E2FEC07F079EC0CF004969E9A14
:1021B0000F019D8A00010F019D8A000100EEB0F021
:1021C000066AE5B1E7EF10F0DDA1EEEF10F0000ECA
:1021D000E8CFB0F0E8CFB1F0F4EF10F004000F0159
:1021E000010EC26E95EC11F0062A00EEB2F0E5B3D6
:1021F000FDEF10F0DDA304EF11F0000EE8CFB2F018
:10220000E8CFB3F00AEF11F004000F01050EC26E23
:1022100095EC11F0062A00EEB4F0E5B513EF11F0DD
:10222000DDA51AEF11F0000EE8CFB4F0E8CFB5F05D
:1022300020EF11F004000F01090EC26E95EC11F0B1
:10224000062A00EEB6F0E5B729EF11F0DDA730EF72
:1022500011F0000EE8CFB6F0E8CFB7F036EF11F08E
:1022600004000F010D0EC26E95EC11F0062A00EE6F
:10227000B8F0E5B93FEF11F0DDA946EF11F0000E1F
:10228000E8CFB8F0E8CFB9F04CEF11F004000F013F
:10229000110EC26E95EC11F0062A00EEBAF0E5BB05
:1022A00055EF11F0DDAB5CEF11F0000EE8CFBAF0A6
:1022B000E8CFBBF062EF11F004000F01150EC26E03
:1022C00095EC11F0062A00EEBCF0E5BD6BEF11F0C5
:1022D000DDAD72EF11F0000EE8CFBCF0E8CFBDF03D
:1022E00078EF11F004000F01190EC26E95EC11F099
:1022F000062A00EEBEF0E5BF81EF11F0DDAF88EFFA
:1023000011F0000EE8CFBEF0E8CFBFF08EEF11F075
:1023100004000F011D0EC26E95EC11F0C5EF10F018
:10232000070EE126D8B0E22A1200000114EE91F067
:102330000650070DF350D890E126D8B0E22AE750B6
:10234000000FD8B4E1EF11F0FF0E056E052EA6EFD9
:1023500011F00F01C282C2B2ABEF11F00F010F0EEC
:10236000C464B7EF11F00001E650E6501200E60633
:102370000F01C3500001E626D8B0E72A0F01C45070
:102380000001E62630EC12F007A2D1EF11F0E55083
:10239000E5500F01C4500001E66E0F01C35000016B
:1023A000E66E24EC12F007A0E0EF11F0E550E550E6
:1023B0000F01C4500001E66E0F01C3500001E66E2C
:1023C0001200E650E1CFD9FFE2CFDAFF4FEC12F076
:1023D000D9CFE1FFDACFE2FF4EC0E6FF4DC0E6FF06
:1023E000D9CFE1FFDACFE2FF59EC12F0D9CFE1FF0C
:1023F000DACFE2FF4DC0E6FF4EC0E6FF030E4A6EA5
:10240000D9CFE1FFDACFE2FFD890E632E6324A2EAA
:1024100000EF12F0D9CFE1FFDACFE2FFE6CFEEFF17
:10242000E6CFEEFFD9CFE1FFDACFE2FFE5500A0EAB
:10243000E66EE66AE66A100EE66E000EE66E000EC6
:10244000E66E000EE66E120000000F01C45000019F
:10245000E65C4A6E0F01C3500001E65C3AEF12F0F1
:1024600000000F01C4500001E65C4A6E0F01C3502A
:102470000001E65CD8A04A064A10D8B44BEF12F02F
:102480004ABE47EF12F007820790079412000792A6
:102490000780079412000792079007841200E6CF86
:1024A0004EF0E6CF4DF0E6CF4FF0E6CF50F063EFC1
:1024B00012F0E6CF4EF0E6CF4DF0E650E650E6CF14
:1024C0004FF0E6CF50F050C0E8FF4E5E4FC0E8FF3F
:1024D000D8A04F3C4D5E1200186E1A6E080E196E91
:1024E0001A501A321A5002E37CEF12F01CA07EEF51
:1024F00012F0D8807EEF12F01CB0D89002E28FEF7D
:1025000012F01BBC87EF12F01B8C88EF12F01B9CA3
:102510001CB28EEF12F01C828FEF12F01C921B3255
:102520001C321A50192E71EF12F018501200146E4E
:10253000116EE1BFAEEF12F0080E126E136AD89062
:102540001132D8B0132A122EA0EF12F0D89013B087
:10255000D8800F01AC90D8B0AC8000019EA8AEEF3F
:1025600012F014500F01AD6E0F01ACA2B5EF12F0D6
:10257000000114501200E1C0E8FF070BE8CFE0F0C3
:10258000470E0F01AF6E0001E0C0E8FF0108D8B4AC
:1025900000EF13F0230E0F01AF6E0001E0C0E8FF63
:1025A0000208D8B400EF13F0110E0F01AF6E000156
:1025B000E0C0E8FF0308D8B400EF13F00B0E0F01E2
:1025C000AF6E0001E0C0E8FF0408D8B400EF13F0DC
:1025D000050E0F01AF6E0001E0C0E8FF0508D8B49A
:1025E00000EF13F0230E0F01AF6E0001E1C0E8FF12
:1025F000780BE8CFE0F00A0E070BE025E8CFE1F01A
:10260000000EE8CFE0F0670EE1BF260E0F01AC6EC2
:102610000001D00EE1BF900E0F01AB6E0001120061
:10262000000E0F01746E756AB6EC14F0E8CFE3F09B
:10263000000EE8CFE2F0B6EC14F0E8CFD7F0000ED1
:10264000E8CFD6F0B6EC14F0E8CFD9F0000EE8CF22
:10265000D8F0B6EC14F0E8CFDFF0E8CFADF0B6EC90
:1026600014F0E8CFDEF0E8CFACF0836EB6EC14F0F7
:10267000E8CFE1F0E06BB6EC14F0E8CFE5F0B6ECB3
:1026800014F0E8CFDDF0000EE8CFDCF0B6EC14F08B
:10269000E8CFD3F0000EE8CFD2F0B6EC14F0E8CFDC
:1026A000D4F0B6EC14F0E8CFD5F0B6EC14F0E8CFE7
:1026B000E6F0096EB6EC14F0E8CFE7F00A6EB6EC7F
:1026C00014F0E8CFE8F00B6EB6EC14F0E8CFE9F0C8
:1026D0000C6EB6EC14F0E8CFEAF00D6EB6EC14F028
:1026E000E8CFEBF00E6EB6EC14F0E8CFECF00F6E26
:1026F000B6EC14F0E8CFEDF0106EB6EC14F0E8CFC5
:10270000DCF0B6EC14F0300BE8CFDBF00F01C16E5B
:102710000001000EE8CFDAF0B6EC14F0E8CF20F3B9
:10272000B6EC14F0E8CF21F3B6EC14F0E8CF22F3C6
:10273000B6EC14F0E8CF23F3A1EC13F075EF14F02E
:10274000120020C3AAF021C3ABF0A96BD890AB371D
:10275000AA37A937AB37AA37A937A951000FD8A490
:10276000BFEF13F0AA51000FD8A4BFEF13F0AB5185
:10277000000FD8A4BFEF13F0D58ED9EF13F0D58E8C
:10278000A9C047F3AAC048F3ABC049F3A9C044F3BA
:10279000AAC045F3ABC046F320C34AF321C34BF3B1
:1027A0004AC34CF34BC34DF3000EE8CF65F0040E63
:1027B0005A6EA76BA86B120003EE00F013EE24F024
:1027C000100EE8CF5AF0EFBEECEF13F0EE50E650EB
:1027D000EE50E650F0EF13F0EECFE6FFEECFE6FF5F
:1027E0005A2EE3EF13F0040E5A6E1200000EE8CFDB
:1027F00044F3E8CF45F3E8CF46F3000ED66E03EE80
:1028000023F0000EEF6EED50000EEF6E1200000E82
:102810000F01746E756AE3C0E8FFA6EC14F0742A29
:10282000742ADFC0E8FFA6EC14F0DEC0E8FFA6ECD7
:1028300014F0BBEC12F0E1C0E8FFA6EC14F0E5C028
:10284000E8FFA6EC14F0DDC0E8FFA6EC14F00B0ED8
:102850000F01746E756AE6C0E8FF096EA6EC14F00D
:10286000E7C0E8FF0A6EA6EC14F0E8C0E8FF0B6EC4
:10287000A6EC14F0E9C0E8FF106EA6EC14F00F0E01
:10288000746E756AEAC0E8FF0D6EA6EC14F0EBC03A
:10289000E8FF0E6EA6EC14F0ECC0E8FF0F6EA6EC9D
:1028A00014F0EDC0E8FF106EA6EC14F0DCC0E8FFF9
:1028B000A6EC14F0DBC0E8FF300BA6EC14F0DBC094
:1028C000E8FF300B0F01C16E000120C3E8FFA6EC4A
:1028D00014F021C3E8FFA6EC14F022C3E8FFA6EC35
:1028E00014F023C3E8FFA6EC14F0E5515D17E51DD5
:1028F000336E338E338C338AE5B9339A3388335051
:102900000F01926E0001E539336E331C336E3330A4
:10291000070B0F01966E0001DD1D356EE51D3514A8
:102920000F015D6F5C6B0001DD510001AF1700010D
:10293000ADC0E8FFDD15356E0F0B806E35B8808AAF
:10294000D89035323538070B846E1200736E7F9E37
:102950007F84550E7E6EAA0E7E6E7F827FB2AEEFB2
:1029600014F07F94742A73CFE8FF12007F9E7F805B
:1029700073CFE8FF742A1200516A526A536A546A8C
:10298000556A566A576A586A4E6A4F6A4C6A496A6B
:102990001200506A4FA0D0EF14F04F6A35EF15F0D7
:1029A00036EC15F04A6A4A2A4D6AF00E456E42EC42
:1029B00015F06BEC15F04B6ED8904B366BEC15F0B8
:1029C0004B124B50000FD8B4F2EF14F04B500108EB
:1029D000D8B41CEF15F04B500208D8B41EEF15F018
:1029E00032EF15F04A504E18D8A4FDEF14F0020E45
:1029F0004B6E7DEC15F020EF15F04E504A5CD8A0E0
:102A00000AEF15F0010E4B6E7DEC15F04A504D6E3D
:102A100020EF15F0EEEC15F0466E4650000FD8B4DE
:102A200016EF15F0020E4B6E20EF15F0010E4B6EF7
:102A30004A504D6E20EF15F01EEF15F07DEC15F0AD
:102A4000D8904B3051EC15F04A2A4A504108D8A48E
:102A5000D9EF14F04D504E6ED8B44F2A010E506E7F
:102A600035EF15F04E6A35EF15F012008292B2EC98
:102A700018F0B2EC18F08282B2EC18F0B2EC18F058
:102A80001200456E080E466E476A4790D890453250
:102A9000D8B04780475051EC15F0462E44EF15F062
:102AA0001200F29E476E829247B082823A0EB3ECD9
:102AB00018F082820000F28E1200080E466E6BEC57
:102AC00015F0476ED89047B0D8804532462E5FEF5C
:102AD00015F045501200F29E82920000828294828C
:102AE000476A0C0EB3EC18F082B247802F0EB3EC9D
:102AF00018F047509492F28E12002DEC16F04B30E5
:102B0000010BD8B4B9EF15F048500008D8B4A9EFBC
:102B100015F048500108D8B4ABEF15F04850020842
:102B2000D8B4ADEF15F048500308D8B4AFEF15F0A6
:102B300048500408D8B4B1EF15F048500508D8B48F
:102B4000B3EF15F048500608D8B4B5EF15F0B7EF5D
:102B500015F0EF8E1200EF8C1200EF8A1200EF8852
:102B60001200EF861200EF841200EF821200EF8055
:102B7000120048500008D8B4DEEF15F048500108A4
:102B8000D8B4E0EF15F048500208D8B4E2EF15F0E1
:102B900048500308D8B4E4EF15F048500408D8B4FE
:102BA000E6EF15F048500508D8B4E8EF15F04850A6
:102BB0000608D8B4EAEF15F0ECEF15F0EF9E12001E
:102BC000EF9C1200EF9A1200EF981200EF9612009D
:102BD000EF941200EF921200EF9012002DEC16F01D
:102BE00048500008D8B415EF16F048500108D8B482
:102BF00019EF16F048500208D8B41BEF16F04850F1
:102C00000308D8B41EEF16F048500408D8B421EFDA
:102C100016F048500508D8B424EF16F048500608BE
:102C2000D8B427EF16F02AEF16F0EFAE000C010C27
:102C3000EFAC000C010CEFAA000C010CEFA8000C8B
:102C4000010CEFA6000C010CEFA4000C010CEFA28C
:102C5000000C010CEFA0000C010C4A043F08476E69
:102C6000070B486ED8904732D8904732D8904732F9
:102C700000EE51F04750E926D8B0EA2A120003B01E
:102C800059EF16F00950000FD8A44CEF16F00A5077
:102C9000000FD8B458EF16F00A2E77EF16F009504F
:102CA000000FD8B458EF16F009060A0677EF16F0B1
:102CB000038003B470EF16F00C50000FD8B464EF2B
:102CC00016F00C2E77EF16F0E8510B6E000FD8B40B
:102CD0006CEF16F003848296E9510C6E77EF16F0D4
:102CE0000B2E77EF16F082860394E8510B6E03B239
:102CF0008FEF16F00D50000FD8A484EF16F00E5091
:102D0000000FD8B48EEF16F00E2E12000D50000FEB
:102D1000D8B48EEF16F00D060E061200038203B62D
:102D2000A4EF16F01050000FD8B499EF16F0102E43
:102D30001200EC510F6E000FD8B4A1EF16F003860D
:102D40008288ED51106E12000F2E120082980396A9
:102D5000EC510F6E1200592E1FEF17F0010E596E35
:102D60004C50000FD8A4B9EF16F04950D8B41FEF5B
:102D700017F004841FEF17F08280100E4B6046EFAF
:102D800017F036EC15F081EC18F0BE0E41EC15F0A2
:102D90004B04516E01EEB0F0D8905134D890E92632
:102DA000D8B0EA2A10EEEEF05150E126D8B0E22A6F
:102DB0005DEC15F0586E5DEC15F0516E20EC17F0DF
:102DC000D8A0F6EF16F0E7B0EDEF16F0030EE76EC1
:102DD000A9EC18F082901FEF17F0E7B2FBEF16F0A6
:102DE000E76A100EEE6EEE6A0AEF17F0D8A400EF55
:102DF00017F0E3EF16F0D8A400EF17F0F0EF16F09D
:102E0000E76A51500708D8A00AEF17F05150EE6E4C
:102E100058C0EEFFA9EC18F082904B064B50000F03
:102E2000D8A41FEF17F04950D8B41CEF17F0493859
:102E3000040F4B6E1FEF17F04C500F0B4B6E120030
:102E400051500508D8A430EF17F058505008D8A4B6
:102E50002DEF17F0D894D8801200D890D894120093
:102E60005150FF08D8A42DEF17F0D8842BEF17F09E
:102E70005150FF08D8A444EF17F05850FF08D8A4C9
:102E800044EF17F0D8841200D89412004B500F0B67
:102E9000D8B460EF18F00108D8B425EF18F04B5003
:102EA0000F0B0208D8B4D4EF17F04B500F0B0308E8
:102EB000D8B469EF17F036EC15F081EC18F0440E39
:102EC00041EC15F082904B067F0ECE6EF20ECF6E67
:102ED000120036EC15F081EC18F0B80E41EC15F04C
:102EE000000E41EC15F036EC15F081EC18F0BE0E3A
:102EF00041EC15F0000E41EC15F04B380F0B516E04
:102F0000510604EE00F0D890513651365134D89025
:102F1000E926D8B0EA2A4B500F0B516ED8905134A5
:102F2000D890E926D8B0EA2A10EEF7F04B380F0B0C
:102F3000516E5104E126D8B0E22A5DEC15F05DEC4B
:102F400015F0586E5DEC15F0516E38EC17F0D8A402
:102F5000B8EF17F0E7B0B1EF17F0010EE76EBDEF75
:102F600017F0E76A100EEE6E000EEE6EBDEF17F072
:102F7000E76A51C0EEFF58C0EEFF36EC15F081EC69
:102F800018F04E0E41EC15F0000E41EC15F0090E54
:102F900041EC15F036EC15F081EC18F0B40E41EC74
:102FA00015F082904B06120036EC15F081EC18F00B
:102FB000B80E41EC15F0000E41EC15F036EC15F0B2
:102FC00081EC18F0BE0E41EC15F0000E41EC15F04E
:102FD0004B380F0B516E510604EE00F0D89051366D
:102FE00051365134D890E926D8B0EA2A4B040F0B59
:102FF000010F516ED8905134D890E926D8B0EA2A02
:103000005DEC15F05DEC15F05DEC15F05DEC15F088
:10301000586E5DEC15F0EE6E58C0EEFF36EC15F014
:1030200081EC18F04E0E41EC15F0000E41EC15F05D
:10303000010E41EC15F036EC15F081EC18F0B40EF1
:1030400041EC15F082904B06120036EC15F081EC45
:1030500018F0B80E41EC15F0000E41EC15F036EC0E
:1030600015F081EC18F0BE0E41EC15F0000E41ECAD
:1030700015F04B380F0B516E510604EE00F0D8904E
:10308000513651365134D890E926D8B0EA2A5DEC51
:1030900015F05DEC15F05DEC15F05DEC15F0586E7B
:1030A0005DEC15F0EE6E58C0EEFF5DEC15F0586E5D
:1030B0005DEC15F0EE6E58C0EEFF82904B061200EC
:1030C0004B380F0B516E5104000FD8B470EF18F04D
:1030D000100E4B5E4B50F00B040F4B6E82901200A3
:1030E0004C500F0B000FD8A47CEF18F04938F00BB0
:1030F000040F4B6E829012004B6EA9EC18F0829078
:103100001200550E41EC15F0100E4B6490EF18F0C4
:1031100004EE48F04B380F0B516E510694EF18F047
:103120004B04516E01EEC2F05150080DF350D8908F
:10313000E926D8B0EA2A070ED890E926D8B0EA2ABC
:10314000080E546EED5041EC15F0542EA2EF18F01D
:10315000120036EC15F0CC0E41EC15F0440E41ECAB
:1031600015F01200FF0ECB6E010ECA6ECC6A9E9255
:10317000CA849EA2B9EF18F0CA949E92120004EE7F
:1031800091F0080E066E0A0EEE6EEE6AEE6A100EF2
:10319000EE6E000EEE6E000EEE6E000EEE6E062E61
:1031A000C3EF18F0066A1200D16A0400F18E430ED4
:1031B000D56ED60ED66EF2940F01000E5F6F5E6F65
:1031C000B56A0F01300EC16E0F01BA0EC06E0F014D
:1031D000010EC26E0F01000E5B6F0F01000E806EBC
:1031E0000F01FF0E936E0F01FF0E816E0F01C40ED3
:1031F000946E0F01C80E826E0F01000E956E0F01C6
:10320000000E836E080E846E0400DCEC19F010ECE6
:1032100013F0BBEC12F077EC0CF07F0ECE6EF20EDA
:10322000CF6E310ECD6E010ECA6EFF0ECB6E9D922B
:10323000CC6A9E920A0E596EFF0E016EB2EC18F027
:10324000012E1EEF19F0592E1CEF19F00F01210E5F
:103250009D6E00018150480EF26E100E9E6E0F01A1
:10326000FF0E5A6F0001F29AF29C81501F6E811C72
:10327000AE6F000E316E030E386E396E3B6A3C6ADB
:10328000640E016EFF0E026E010E596E040E5A6E30
:1032900011EEB0F0090E4C6E100EE66E000EE66EEA
:1032A0004C2E4CEF19F014EE00F0240E4C6E100E64
:1032B000E66E000EE66E4C2E57EF19F0BCEC14F0E3
:1032C000049E04944C6A496A4B6A0400C9EC14F0E9
:1032D000040050A0C2EF19F0049210EE58F0E7502D
:1032E0002808D8A4048204B27BEF19F004B4B2EF2A
:1032F00019F07EEF19F004BEB2EF19F001EEC2F042
:1033000004B204EE48F010EE51F0D89004A28CEF15
:1033100019F049348DEF19F04C341C6E1C361C34F6
:10332000D890E926D8B0EA2A10EE51F0080E126EB5
:10333000E6CFEEFF122E98EF19F004A2A9EF19F0D4
:10334000492A120E4918D8A466EF19F0048E66EFC8
:1033500019F04C2A120E4C18D8A466EF19F0048408
:1033600066EF19F004A466EF19F004AE66EF19F0E9
:10337000A9EC18F082904C500F0B4B6E640E016E4E
:10338000D3EF19F04C50000FD8A4B8EF19F0495002
:10339000000FD8B4D3EF19F082904938F00B040F26
:1033A0004B6E640E016E0400076A040E0F01506F2D
:1033B0000F01A3840001120000EE00F0EE6AEA5053
:0E33C0000F08D8A4DEEF19F0666B676B1200E1
:020000040030CA
:0100000014EB
:0100010003FB
:0100020006F7
:0100030023D9
:0100050009F1
:010006009069
:0100080000F7
:010009008076
:01000A0000F5
:01000B008074
:0200000400F00A
:1000000001820100001A0000F1020D0258051E02D3
:09001000580564FF3000000000F7
:00000001FF
