:020000040000FA
:04000000D3EF10F03A
:020004000000FA
:08000800828AA394A494100065
:080018005B6ED8385C6EE9CF85
:100020005EF0EACF5DF00001F2B0A6EC05F0F2B4AC
:1000300029EC00F09EB0D8EF0CF09EBABAEC06F0B6
:100040005EC0E9FF5DC0EAFF5C38D86E5B3A5B38A2
:100050001000F294D59ED60ED66ED58EE2CF5FF00C
:10006000E1CF60F0A551000FD8A43EEF00F0A651FB
:10007000000FD8A43EEF00F053EF00F05A2E85EFAA
:1000800005F0040E5A6EA607D8B049EF00F0D890DC
:10009000A507A551000FD8A485EF05F0A651000FC4
:1000A000D8A485EF05F044C3E8FF000FD8A47DEF86
:1000B00002F045C3E8FF000FD8A47DEF02F046C36D
:1000C000E8FF000FD8A47DEF02F0D3EC13F003EEAD
:1000D00023F013EE24F096EC05F004BE8AEF00F056
:1000E000E7AC79EF00F0E738030B655DD8A48AEF41
:1000F00000F067B18AEF00F0ADA183EF00F08090CF
:10010000EF9085EF00F08080EF8001C325F300C3FE
:1001100024F3678113EE26F096EC05F004BEABEFF6
:1001200000F0E7AC9AEF00F0E738030B655DD8A468
:10013000ABEF00F067B3ABEF00F0ADA3A4EF00F0BE
:100140008092EF92A6EF00F08082EF8203C327F344
:1001500002C326F3678313EE28F096EC05F004BE85
:10016000CCEF00F0E7ACBBEF00F0E738030B655DC8
:10017000D8A4CCEF00F067B5CCEF00F0ADA5C5EF8B
:1001800000F08094EF94C7EF00F08084EF8405C303
:1001900029F304C328F3678513EE2AF096EC05F0E3
:1001A00004BEEDEF00F0E7ACDCEF00F0E738030B46
:1001B000655DD8A4EDEF00F067B7EDEF00F0ADA7F7
:1001C000E6EF00F08096EF96E8EF00F08086EF868D
:1001D00007C32BF306C32AF3678713EE2CF096ECC4
:1001E00005F004BE0EEF01F0E7ACFDEF00F0E738DC
:1001F000030B655DD8A40EEF01F067B90EEF01F0B7
:10020000ADA907EF01F0809AEF9809EF01F0808A1D
:10021000EF8809C32DF308C32CF3678913EE2EF082
:1002200096EC05F004BE2FEF01F0E7AC1EEF01F0F5
:10023000E738030B655DD8A42FEF01F067BB2FEF04
:1002400001F0ADAB28EF01F08490EF9A2AEF01F0B6
:100250008480EF8A0BC32FF30AC32EF3678B13EE50
:1002600030F096EC05F004BE50EF01F0E7AC3FEF44
:1002700001F0E738030B655DD8A450EF01F067BDCE
:1002800050EF01F0ADAD49EF01F08492EF9C4BEFE0
:1002900001F08482EF8C0DC331F30CC330F3678D12
:1002A00013EE32F096EC05F004BE71EF01F0E7AC0E
:1002B00060EF01F0E738030B655DD8A471EF01F042
:1002C00067BF71EF01F0ADAF6AEF01F08494EF9E6C
:1002D0006CEF01F08484EF8E0FC333F30EC332F35F
:1002E000678F03EE22F013EE34F096EC05F004BEB7
:1002F00094EF01F0E7AC83EF01F0E738030B655DA5
:10030000D8A494EF01F066B194EF01F0ACA18DEFA9
:1003100001F08390EF908FEF01F08380EF8011C3A5
:1003200035F310C334F3668113EE36F096EC05F026
:1003300004BEB5EF01F0E7ACA4EF01F0E738030B22
:10034000655DD8A4B5EF01F066B3B5EF01F0ACA3DD
:10035000AEEF01F08392EF92B0EF01F08382EF8273
:1003600013C337F312C336F3668313EE38F096ECFB
:1003700005F004BED6EF01F0E7ACC5EF01F0E738B9
:10038000030B655DD8A4D6EF01F066B5D6EF01F09A
:10039000ACA5CFEF01F08394EF94D1EF01F083840B
:1003A000EF8415C339F314C338F3668513EE3AF0BE
:1003B00096EC05F004BEF7EF01F0E7ACE6EF01F0D4
:1003C000E738030B655DD8A4F7EF01F066B7F7EFE8
:1003D00001F0ACA7F0EF01F08396EF96F2EF01F099
:1003E0008386EF8617C33BF316C33AF3668713EE93
:1003F0003CF096EC05F004BE18EF02F0E7AC07EF16
:1004000002F0E738030B655DD8A418EF02F066B977
:1004100018EF02F0ACA911EF02F08398EF9813EFF8
:1004200002F08388EF8819C33DF318C33CF3668953
:1004300013EE3EF096EC05F004BE39EF02F0E7ACA7
:1004400028EF02F0E738030B655DD8A439EF02F01E
:1004500066BB39EF02F0ACAB32EF02F0839AEF9A51
:1004600034EF02F0838AEF8A1BC33FF31AC33EF3D3
:10047000668B13EE40F096EC05F004BE5AEF02F0E6
:10048000E7AC49EF02F0E738030B655DD8A45AEFFB
:1004900002F066BD5AEF02F0ACAD53EF02F0839C60
:1004A000EF9C55EF02F0838CEF8C1DC341F31CC30E
:1004B00040F3668D13EE42F096EC05F004BE7BEF40
:1004C00002F0E7AC6AEF02F0E738030B655DD8A4F1
:1004D0007BEF02F066BF7BEF02F0ACAF74EF02F08F
:1004E000839EEF9E76EF02F0838EEF8E1FC343F361
:1004F0001EC342F3668FD8EF02F044C3A9F045C390
:10050000AAF046C3ABF0D890AB07D8B08FEF02F09B
:10051000D890AA07D8B08FEF02F0D890A907A9C049
:1005200044F3AAC045F3ABC046F344C3E8FF000F51
:10053000D8A4A9EF02F045C3E8FF000FD8A4A9EFA3
:1005400002F046C3E8FF000FD8A4A9EF02F065EF60
:1005500000F04CC3A9F04DC3AAF0D890AA07D8B0B8
:10056000B4EF02F0D890A907A9C04CF3AAC04DF38C
:100570004DC3E8FF000FD8A4D8EF02F04CC3E8FF4A
:10058000000FD8A4D8EF02F04AC34CF34BC34DF38D
:1005900065C0E8FF010FE8CF65F065C0E8FF04081B
:1005A000D8A467EF00F0000EE8CF65F067EF00F029
:1005B0005A2E85EF05F0040E5A6E03EE23F013EE6B
:1005C00024F096EC05F004BEF0EF02F067A109EF0D
:1005D00003F08EEC05F096EC05F004AE09EF03F0A5
:1005E000ADA1F7EF02F08080EF80F9EF02F080908C
:1005F000EF90679100C324F301C325F3E7BE09EF31
:1006000003F024C3E8FFF00BE8CF24F3000EE8CF9B
:1006100025F313EE26F096EC05F004BE1AEF03F076
:1006200067A333EF03F08EEC05F096EC05F004AE13
:1006300033EF03F0ADA321EF03F08082EF8223EFCD
:1006400003F08092EF92679302C326F303C327F36C
:10065000E7BE33EF03F026C3E8FFF00BE8CF26F345
:10066000000EE8CF27F313EE28F096EC05F004BE59
:1006700044EF03F067A55DEF03F08EEC05F096EC18
:1006800005F004AE5DEF03F0ADA54BEF03F0808401
:10069000EF844DEF03F08094EF94679504C328F343
:1006A00005C329F3E7BE5DEF03F028C3E8FFF00BB5
:1006B000E8CF28F3000EE8CF29F313EE2AF096ECEA
:1006C00005F004BE6EEF03F067A787EF03F08EEC32
:1006D00005F096EC05F004AE87EF03F0ADA775EFDB
:1006E00003F08086EF8677EF03F08096EF966797AA
:1006F00006C32AF307C32BF3E7BE87EF03F02AC331
:10070000E8FFF00BE8CF2AF3000EE8CF2BF313EE4F
:100710002CF096EC05F004BE98EF03F067A9B1EF5A
:1007200003F08EEC05F096EC05F004AEB1EF03F0AB
:10073000ADA99FEF03F0808AEF88A1EF03F0809AC4
:10074000EF98679908C32CF309C32DF3E7BEB1EF07
:1007500003F02CC3E8FFF00BE8CF2CF3000EE8CF3A
:100760002DF313EE2EF096EC05F004BEC2EF03F06D
:1007700067ABDBEF03F08EEC05F096EC05F004AE12
:10078000DBEF03F0ADABC9EF03F08480EF8ACBEF72
:1007900003F08490EF9A679B0AC32EF30BC32FF3E9
:1007A000E7BEDBEF03F02EC3E8FFF00BE8CF2EF33C
:1007B000000EE8CF2FF313EE30F096EC05F004BEF8
:1007C000ECEF03F067AD05EF04F08EEC05F096EC6E
:1007D00005F004AE05EF04F0ADADF3EF03F0848255
:1007E000EF8CF5EF03F08492EF9C679D0CC330F320
:1007F0000DC331F3E7BE05EF04F030C3E8FFF00BA3
:10080000E8CF30F3000EE8CF31F313EE32F096EC80
:1008100005F004BE16EF04F067AF2FEF04F08EEC86
:1008200005F096EC05F004AE2FEF04F0ADAF1DEF30
:1008300004F08484EF8E1FEF04F08494EF9E679F92
:100840000EC332F30FC333F3E7BE2FEF04F032C30E
:10085000E8FFF00BE8CF32F3000EE8CF33F313EEEE
:1008600034F003EE22F096EC05F004BE42EF04F003
:1008700066A15BEF04F08EEC05F096EC05F004AE9B
:100880005BEF04F0ACA149EF04F08380EF804BEF05
:1008900004F08390EF90669110C334F311C335F3E5
:1008A000E7BE5BEF04F034C3E8FFF00BE8CF34F3AE
:1008B000000EE8CF35F313EE36F096EC05F004BEEB
:1008C0006CEF04F066A385EF04F08EEC05F096EC77
:1008D00005F004AE85EF04F0ACA373EF04F083825F
:1008E000EF8275EF04F08392EF92669312C336F3B2
:1008F00013C337F3E7BE85EF04F036C3E8FFF00B10
:10090000E8CF36F3000EE8CF37F313EE38F096EC6D
:1009100005F004BE96EF04F066A5AFEF04F08EEC90
:1009200005F096EC05F004AEAFEF04F0ACA59DEF3A
:1009300004F08384EF849FEF04F08394EF94669532
:1009400014C338F315C339F3E7BEAFEF04F038C36F
:10095000E8FFF00BE8CF38F3000EE8CF39F313EEE1
:100960003AF096EC05F004BEC0EF04F066A7D9EFAC
:1009700004F08EEC05F096EC05F004AED9EF04F02F
:10098000ACA7C7EF04F08386EF86C9EF04F0839627
:10099000EF96669716C33AF317C33BF3E7BED9EF5A
:1009A00004F03AC3E8FFF00BE8CF3AF3000EE8CFCB
:1009B0003BF313EE3CF096EC05F004BEEAEF04F0D6
:1009C00066A903EF05F08EEC05F096EC05F004AE99
:1009D00003EF05F0ACA9F1EF04F08388EF88F3EFA3
:1009E00004F08398EF98669918C33CF319C33DF35C
:1009F000E7BE03EF05F03CC3E8FFF00BE8CF3CF3A4
:100A0000000EE8CF3DF313EE3EF096EC05F004BE89
:100A100014EF05F066AB2DEF05F08EEC05F096ECCB
:100A200005F004AE2DEF05F0ACAB1BEF05F0838AAB
:100A3000EF8A1DEF05F0839AEF9A669B1AC33EF387
:100A40001BC33FF3E7BE2DEF05F03EC3E8FFF00BFD
:100A5000E8CF3EF3000EE8CF3FF313EE40F096EC04
:100A600005F004BE3EEF05F066AD57EF05F08EECE5
:100A700005F096EC05F004AE57EF05F0ACAD45EF90
:100A800005F0838CEF8C47EF05F0839CEF9C669D0F
:100A90001CC340F31DC341F3E7BE57EF05F040C34D
:100AA000E8FFF00BE8CF40F3000EE8CF41F313EE80
:100AB00042F096EC05F004BE68EF05F066AF81EFFA
:100AC00005F08EEC05F096EC05F004AE81EF05F034
:100AD000ACAF6FEF05F0838EEF8E71EF05F0839E64
:100AE000EF9E669F1EC342F31FC343F3E7BE81EF31
:100AF00005F042C3E8FFF00BE8CF42F3000EE8CF69
:100B000043F3D890A82BD8B0A72B5FC0E2FF60C0FA
:100B1000E1FF64C0E9FF63C0EAFF1200E650D8902D
:100B2000E506D8B01200E506E6501200049EE65035
:100B30000F0B000FD8A4A4EF05F0E650000FD8A4C7
:100B4000A3EF05F0048EE550E550120081503A6E97
:100B50000218366E36B0C1EF05F036B2D0EF05F0B0
:100B600036B4DFEF05F036B6EEEF05F036B8FDEF40
:100B700005F036BA0FEF06F036BC21EF06F033EF82
:100B800006F03AA0C7EF05F0028043EF06F00290AE
:100B900037A0CDEF05F043EF06F0378043EF06F0C6
:100BA0003AA2D6EF05F0028243EF06F0029237A296
:100BB000DCEF05F043EF06F0378243EF06F03AA48E
:100BC000E5EF05F0028443EF06F0029437A4EBEF63
:100BD00005F043EF06F0378443EF06F03AA6F4EF52
:100BE00005F0028643EF06F0029637A6FAEF05F00D
:100BF00043EF06F0378643EF06F0E1BB7CEF06F0EB
:100C00003AA806EF06F0028843EF06F0029837A8EC
:100C10000CEF06F043EF06F0378843EF06F0E1BB38
:100C20006BEF06F03AAA18EF06F0028A43EF06F0DF
:100C3000029A37AA1EEF06F043EF06F0378A43EF19
:100C400006F0E1BD5AEF06F03AAC2AEF06F0028C4E
:100C500043EF06F0029C37AC30EF06F043EF06F0AE
:100C6000378C43EF06F0E1BD49EF06F03AAE3CEFBA
:100C700006F0028E43EF06F0029E37AE42EF06F01A
:100C800043EF06F0378E3A500218D8A41200F290C3
:100C900012000F019D9A00013ABEAEEF06F0029ECF
:100CA00003B843EF06F08DEC06F099EC06F03B2A12
:100CB00043EF06F00F019D9A00013ABCB1EF06F038
:100CC000029C03B843EF06F08DEC06F09CEC06F0B6
:100CD0003B2A43EF06F00F019D9A00013ABAB4EFA8
:100CE00006F0029A03BC43EF06F093EC06F099EC91
:100CF00006F03C2A43EF06F00F019D9A00013AB836
:100D0000B7EF06F0029803BC43EF06F093EC06F051
:100D10009CEC06F03C2A43EF06F0030E386E038A83
:100D200000EEC9F01200030E396E038E00EED1F012
:100D30001200D8809DEF06F0D890EF36E906EF3626
:100D4000E906EF36E906EF36E906EF36E906EF3653
:100D5000E906EF36E906EF36E9061200028E43EFA8
:100D600006F0028C43EF06F0028A43EF06F0028899
:100D700043EF06F004009E9A0F01AB500001060BF2
:100D8000D8A450EF07F045EC07F015506208D8A042
:100D90004AEF07F016800F01AE500001146E04EE0A
:100DA000C9F01550D890E926D8B0EA2A1450EF6E51
:100DB000152A15500108D8B4F5EF06F015500208B1
:100DC000D8A4F5EF06F014504508D8A4ECEF06F0CF
:100DD0000C0E126EB8EF0CF014501008D8A4F5EFFA
:100DE00006F0070E126EB8EF0CF01550125CD8A486
:100DF000B8EF0CF0CAC4E8FF1008D8A40AEF07F057
:100E000016B20AEF07F0CFC4E8FF020F12261682CF
:100E1000B8EF0CF0FF0E1B6E1C6E12061204156E5E
:100E200004EEC9F0829AA494A384EF509EEC12F0D1
:100E3000E92A152E15EF07F01C50EF5CD8A42DEF12
:100E400007F0E92A1B50EF5CD8A42DEF07F00486C9
:100E500016900F019D9A0001120000000000000092
:100E60000000A1EF0CF000000000000000000000F6
:100E70000000000000000000000000000000000072
:100E8000000000000000A3EF0CF0000000000000D4
:100E9000000012000000000000000000A1EF0CF0B4
:100EA00000000000000000008398A1EF0CF000009B
:100EB000000000000000120004EEC9F0E3C0E8FFEB
:100EC000EF5CD8B46BEF07F0079AEF50000FD8A48F
:100ED00033EF07F0078A84EC07F0E92AEF500308A4
:100EE000D8B498EF07F0EF500608D8B407EF08F031
:100EF000EF504508D8B4E1EF08F0EF501008D8B42F
:100F000069EF08F07FEF0CF016881E0E006EE8C047
:100F1000E8FF0B6EE9C0E8FF0C6E82860394ECC01C
:100F2000E8FF0F6EEDC0E8FF106E82980396120086
:100F3000079873EC09F0D8A0A1EF07F0169C82EF98
:100F40000CF0CDEC0AF0D8B082EF0CF007BAA5EFA8
:100F50000CF0168C16AEB4EF07F0CEC4E8FF010813
:100F6000D8A4B4EF07F0169C16ACBCEF07F0FF0E48
:100F70001F52316A326A169C169A04BAC9EF07F0FA
:100F800000EEACF0CCC408F0D8900834E926D8B014
:100F9000EA2ACDC4E8FF116ECEC408F00834126E00
:100FA0004AEC09F01250E66E9EEC12F0152A04A2EB
:100FB000DEEF07F0A40EE926D8B0EA2AEE50E66E7E
:100FC0009EEC12F0152A122EDEEF07F004A005EFBA
:100FD00008F003A8F7EF07F03B6A0398C06BC26BF9
:100FE000C36BC46BC56BC66BC76BC86BC96B03ACFB
:100FF00005EF08F03C6A039CC16BCA6BCB6BCC6BF2
:10100000CD6BCE6BCF6BD06BD16B2CEF09F007881B
:1010100073EC09F0D8B082EF0CF0CDEC0AF0D8B048
:1010200082EF0CF016B682EF0CF004BA27EF08F04E
:1010300000EEACF0CCC408F00834E926D8B0EA2AB7
:1010400004A227EF08F0A50EE926D8B0EA2ACDC4FD
:10105000E8FFEE6E04BCE66ECEC4E8FFEF6E04BCA3
:10106000E66E16AE42EF08F0ACC0E8FF836EADC08E
:1010700035F00F0B806E35B8808AD8903532353810
:10108000070B846E169E07A64AEF08F0D3EC13F008
:1010900033EC14F007BAA5EF0CF04AEC09F02AC5BE
:1010A000E8FFE66E9EEC12F0152A2BC5E8FFE66E0F
:1010B0009EEC12F0152ACDC4E8FFE66E9EEC12F00D
:1010C000152ACEC4E8FFE66E9EEC12F0152A2CEF2E
:1010D00009F0CCC4E8FF6308D8B082EF0CF0CCC4B0
:1010E000E8FF7308D8A082EF0CF0CCC408F0640EBF
:1010F000085CE8CF08F003EE00F013EE24F0D8907F
:101100000834E926D8B0EA2AD8900834E126D8B0C5
:10111000E22AEACF19F0E9CF1AF0CDC4E8FF000FB8
:10112000D8A482EF0CF0CEC4E8FFD8901A26D8B02D
:10113000192A030E19649FEF08F082EF0CF0196270
:10114000A8EF08F0200E1A64A8EF08F082EF0CF068
:10115000CD51116ECEC412F012361150000F00089E
:10116000D8A4B9EF08F01250000F0008D8B482EFED
:101170000CF024EED0F0DFCFE6FFDECFEEFF122E34
:10118000BBEF08F007BAA5EF0CF04AEC09F0CBC4AE
:10119000E8FFE66E9EEC12F0152ACCC4E8FFE66E7E
:1011A0009EEC12F0152ACDC4E8FFE66E9EEC12F01C
:1011B000152ACEC4E8FFE66E9EEC12F0152A2CEF3D
:1011C00009F0169E0788E92AD7C0E8FFEF5CD8A48B
:1011D000A5EF0CF0E92AD9C0E8FFEF5CD8A4A5EF91
:1011E0000CF0168AE92AE92AE92AEE50E8CFDFF066
:1011F000000EE8CFDEF0EE50E8CFE1F0000EE8CFD1
:10120000E0F0E3C008F0EE50000EE8CFE2F0EF505F
:10121000E8CFE5F0000EE8CFE4F007BAA5EF0CF058
:101220004AEC09F008C0E3F0D7C0E8FFE66E9EEC98
:1012300012F0152AD9C0E8FFE66E9EEC12F0152ACE
:10124000D7C0E8FFE66E9EEC12F0152AD9C0E8FF81
:10125000E66E9EEC12F0152A1C50E66E152A1B5005
:10126000E66E152A5BEC09F014EEC9F0828AE650AE
:10127000C9EC12F0152E37EF09F0829A16AAA5EFE5
:101280000CF0F29EF29C44EC14F0F28EF28C169A62
:10129000A5EF0CF014EEC9F0FF0E1B6E1C6E156A64
:1012A000E3C0E8FFE66E9EEC12F0152AE6509EECD5
:1012B00012F0152A1200920EB26EF80EB36EA192C1
:1012C000A092310EB16EA1A263EF09F0000EB16ED3
:1012D000A192A092120019501B5CD8A472EF09F0E1
:1012E0001A501C5C1200CBC419F0CCC41AF0000ECA
:1012F0001B6E120E1C6E6BEC09F0D8A086EF09F085
:10130000000E196E140E1A6EACEF0AF0CBC419F071
:10131000CCC41AF0000E1B6E730E1C6E6BEC09F041
:10132000D8A0A2EF09F0000E1B6E630E1C6E6BECD2
:1013300009F0D8B0CBEF0AF0000E196E750E1A6ED8
:10134000ACEF0AF0CBC419F0CCC41AF0000E1B6E3F
:10135000970E1C6E6BEC09F0D8A0BEEF09F0000EE2
:101360001B6E940E1C6E6BEC09F0D8B0CBEF0AF03C
:10137000000E196E990E1A6EACEF0AF0CBC419F07C
:10138000CCC41AF0010E1B6E030E1C6E6BEC09F040
:10139000D8A0DAEF09F0000E1B6EFF0E1C6E6BEC8E
:1013A00009F0D8B0CBEF0AF0010E196E050E1A6ED7
:1013B000ACEF0AF0CBC419F0CCC41AF0010E1B6ECE
:1013C000170E1C6E6BEC09F0D8A0F6EF09F0010EB9
:1013D0001B6E0D0E1C6E6BEC09F0D8B0CBEF0AF053
:1013E000010E196E190E1A6EACEF0AF0CBC419F08B
:1013F000CCC41AF0010E1B6E9F0E1C6E6BEC09F034
:10140000D8A012EF0AF0010E1B6E8F0E1C6E6BEC53
:1014100009F0D8B0CBEF0AF0010E196EA10E1A6ECA
:10142000ACEF0AF0CBC419F0CCC41AF0010E1B6E5D
:10143000F30E1C6E6BEC09F0D8A02EEF0AF0010E33
:101440001B6EF10E1C6E6BEC09F0D8B0CBEF0AF0FE
:10145000010E196EF50E1A6EACEF0AF0CBC419F03E
:10146000CCC41AF0020E1B6E600E1C6E6BEC09F001
:10147000D8A04AEF0AF0020E1B6E570E1C6E6BECE2
:1014800009F0D8B0CBEF0AF0020E196E620E1A6E98
:10149000ACEF0AF0CBC419F0CCC41AF0020E1B6EEC
:1014A000AD0E1C6E6BEC09F0D8A066EF0AF0020ED0
:1014B0001B6E890E1C6E6BEC09F0D8B0CBEF0AF0F6
:1014C000020E196EAF0E1A6EACEF0AF0CBC419F013
:1014D000CCC41AF0020E1B6EDF0E1C6E6BEC09F012
:1014E000D8A082EF0AF0020E1B6EBB0E1C6E6BECD6
:1014F00009F0D8B0CBEF0AF0020E196EE10E1A6EA9
:10150000ACEF0AF0CBC419F0CCC41AF0030E1B6E7A
:10151000110E1C6E6BEC09F0D8A09EEF0AF0020EC3
:101520001B6EED0E1C6E6BEC09F0D8B0CBEF0AF021
:10153000030E196E130E1A6EACEF0AF0CBC4E8FF5F
:101540000308D8A4CBEF0AF0CCC4E8FFE708D8A47E
:10155000CBEF0AF0C9EF0AF0CAC4E8FF0608D8B416
:10156000C9EF0AF0CAC4E8FF4508D8B4C9EF0AF0C9
:10157000CCC41CF0CBC41BF0CEC4E8FF1C26D8B0F2
:101580001B2ACDC4E8FF1B266BEC09F0D8B0CBEFCB
:101590000AF0D8901200D8801200169C169E049073
:1015A0000492049A049C07961696CCC4E8FFE8CFF0
:1015B0002BF5CBC4E8FFE8CF2AF5000FD8A4EAEF5B
:1015C0000AF0CCC4E8FF000FD8A4EAEF0AF0168EA8
:1015D0007AEF0CF0CCC4E8FFFF08D8B425EF0BF08D
:1015E000CBC4E8FF000FD8A425EF0BF0CCC4E8FF74
:1015F0002308D8B0A3EF0BF0CCC4E8FF9508D8B40B
:1016000034EF0CF0CCC4E8FF9608D8B421EF0CF00E
:10161000CCC4E8FF9708D8B42BEF0CF0D8A07CEF2F
:101620000CF0CCC4E8FF6308D8B07CEF0CF0CCC45D
:10163000E8FF7308D8A07CEF0CF007EF0CF01686DB
:10164000000EE8CFCBF47AEF0CF0CBC4E8FF020831
:10165000D8B4B6EF0BF0CBC4E8FF0308D8B4B6EFAC
:101660000BF0CBC4E8FF0108D8A447EF0BF0CCC4C3
:1016700008F0F20E085CD8A047EF0BF05D0EE8CF43
:10168000CCF4000EE8CFCBF404821FEF0BF0CBC4F8
:1016900008F0010E085CD8A055EF0BF00482CCC412
:1016A000E8FF8F08D8A0ABEF0BF00492CCC4E8FFA2
:1016B0000008D8A461EF0BF0130EE8CFCCF41FEFB5
:1016C0000BF0CCC4E8FF0108D8A46CEF0BF0140EAB
:1016D000E8CFCCF41FEF0BF0CCC4E8FF0208D8A48D
:1016E00077EF0BF0150EE8CFCCF41FEF0BF0CCC466
:1016F000E8FF0308D8A482EF0BF0160EE8CFCCF475
:101700001FEF0BF0CCC4E8FF0D08D8B07CEF0CF055
:10171000CCC4E8FF1708D8A07CEF0CF0168ACCC424
:10172000E8FF1108D8A498EF0BF00380000E0C6EB0
:10173000CCC4E8FF090FE8CFCCF4000EE8CFCBF41F
:1017400016967AEF0CF0168CCCC4E8FF0A08D8B4D1
:1017500004801FEF0BF0CCC408F0700E085CE8CFDB
:10176000CCF4000EE8CFCBF4A0EF0BF0CBC4E8FF35
:101770000308D8A4D7EF0BF0CCC4E8FFE708D8A43F
:10178000D7EF0BF0CAC4E8FF0608D8A47CEF0CF032
:10179000CDC4E8FFDE08D8A47CEF0CF0CEC4E8FF8F
:1017A000AD08D8A47CEF0CF0F29EF29CFF00CBC4F5
:1017B000E8FF0308D8B43DEF0CF0CBC4E8FF020803
:1017C000D8A4E9EF0BF0CCC4E8FFBB08D8A03DEFEC
:1017D0000CF0CCC4E8FF8908D8A0FBEF0BF0CCC418
:1017E00008F0280E085CE8CFCCF4000EE8CFCBF46C
:1017F00004821FEF0BF0CCC408F0510E085CE8CF58
:10180000CCF4000EE8CFCBF404821FEF0BF0CCC475
:1018100008F0640E085CE8CFCCF4CCC408F003EE0A
:1018200000F013EE24F0D8900834E926D8B0EA2A64
:10183000D8900834E126D8B0E22A048A048C7AEFE2
:101840000CF0740EE8CFCCF4048A03EE20F0168A74
:1018500007867AEF0CF0750EE8CFCCF4048A03EE1D
:1018600022F016867AEF0CF0048A078600EEA7F0C5
:1018700007B800EEA5F07AEF0CF0CBC4E8FF030840
:10188000D8B45DEF0CF0CCC4E8FFED08D8A05DEF54
:101890000CF004EE00F0000EE8CFCBF4CCC408F05E
:1018A000BC0E085CE8CFCCF4D890086E0836E92668
:1018B000D8B0EA2A048A1FEF0BF004EE48F0020EBB
:1018C000F36ECCC408F0EE0E085E08C0CCF4CBC4B6
:1018D00008F0CBC4E8FFD8A0F33C085E08C0CBF406
:1018E000CCC408F0D8900834E926D8B0EA2A048A93
:1018F0001FEF0BF0D8901200D880169C1200010E3A
:1019000083EF0CF0020EE8CFCBF414EEC9F0FF0E1B
:101910001B6E1C6E156AE351E66E9EEC12F0152AE2
:10192000CAC4E8FF800FE8CFCAF4E650CAC4E8FF93
:101930009EEC12F0152AE6509EEC12F0152A2CEFC0
:1019400009F0A5EF0CF084EC07F0156A16941690D8
:10195000060E176E0F01AB98AB880F01AE50000159
:10196000080E126E16920496829AA494A384120012
:10197000060E176E1200D890EF50010FEF6ED8A030
:10198000D7EF0CF0E906D890EF50010FEF6ED8A01A
:10199000D7EF0CF0E906D890EF50010FEF6ED8A00A
:1019A000D7EF0CF0E906D890EF50010FEF6E120060
:1019B0009E907F0ECE6EF20ECF6E040003AAF1EF62
:1019C0000CF0382EF1EF0CF0030E386E0388039AFA
:1019D0003BC0C0F03B6A03BEF1EF0CF00F019D8AE3
:1019E000000103AE04EF0DF0392E04EF0DF0030EED
:1019F000396E038C039E3CC0C1F03C6A03BA04EF0D
:101A00000DF00F019D8A0001012E20EF0DF0640EF4
:101A1000016EF9EC16F002EE0DF0BBEC0CF016A81E
:101A20001EEF0DF0002E1EEF0DF024EC13F0A3ECD2
:101A30000CF016989E9A0F019D8A00018DEC16F00D
:101A400016A02CEF0DF017061750000FD8A42CEF9E
:101A50000DF057EC07F09E9A37A039EF0DF03D2EB0
:101A600039EF0DF0020E3D6E379001EE93F0BBECB6
:101A70000CF037A246EF0DF03E2E46EF0DF0020EB1
:101A80003E6E379201EE97F0BBEC0CF037A453EFAB
:101A90000DF03F2E53EF0DF0020E3F6E379401EE26
:101AA0009BF0BBEC0CF037A660EF0DF0402E60EF22
:101AB0000DF0020E406E379601EE9FF0BBEC0CF07D
:101AC00037A86DEF0DF0412E6DEF0DF0020E416E57
:101AD000379801EEA3F0BBEC0CF037AA7AEF0DF0CB
:101AE000422E7AEF0DF0020E426E379A01EEA7F009
:101AF000BBEC0CF037AC87EF0DF0432E87EF0DF009
:101B0000020E436E379C01EEABF0BBEC0CF037AE2F
:101B100094EF0DF0442E94EF0DF0020E446E379EBC
:101B200001EEAFF0BBEC0CF0E1A99AEF0DF031B093
:101B3000C4EF0DF081B0ACEF0DF0E1A7A6EF0DF012
:101B40001DA0BEEF0DF0212EC4EF0DF01F803180DF
:101B5000AE811D90C4EF0DF01FA0C4EF0DF0E1A702
:101B6000B9EF0DF01DA0C1EF0DF0212EC4EF0DF067
:101B70001F903180AE911D90C4EF0DF01FB0C4EFE7
:101B80000DF0010E216E1D80E1A9CAEF0DF031B2FA
:101B9000F4EF0DF081B2DCEF0DF0E1A7D6EF0DF020
:101BA0001DA2EEEF0DF0222EF4EF0DF01F82318218
:101BB000AE831D92F4EF0DF01FA2F4EF0DF0E1A73C
:101BC000E9EF0DF01DA2F1EF0DF0222EF4EF0DF074
:101BD0001F923182AE931D92F4EF0DF01FB2F4EF1D
:101BE0000DF0010E226E1D82E1A9FAEF0DF031B465
:101BF00024EF0EF081B40CEF0EF0E1A706EF0EF02B
:101C00001DA41EEF0EF0232E24EF0EF01F8431844E
:101C1000AE851D9424EF0EF01FA424EF0EF0E1A773
:101C200019EF0EF01DA421EF0EF0232E24EF0EF07D
:101C30001F943184AE951D9424EF0EF01FB424EF51
:101C40000EF0010E236E1D84E1A92AEF0EF031B6CD
:101C500054EF0EF081B63CEF0EF0E1A736EF0EF038
:101C60001DA64EEF0EF0242E54EF0EF01F86318687
:101C7000AE871D9654EF0EF01FA654EF0EF0E1A7AD
:101C800049EF0EF01DA651EF0EF0242E54EF0EF08A
:101C90001F963186AE971D9654EF0EF01FB654EF87
:101CA0000EF0010E246E1D86E1A95AEF0EF031B838
:101CB00084EF0EF081B86CEF0EF0E1A766EF0EF046
:101CC0001DA87EEF0EF0252E84EF0EF01F883188C0
:101CD000AE891D9884EF0EF01FA884EF0EF0E1A7E7
:101CE00079EF0EF01DA881EF0EF0252E84EF0EF097
:101CF0001F983188AE991D9884EF0EF01FB884EFBD
:101D00000EF0010E256E1D88E1A98AEF0EF031BAA2
:101D1000B4EF0EF081BA9CEF0EF0E1A796EF0EF053
:101D20001DAAAEEF0EF0262EB4EF0EF01F8A318AF8
:101D3000AE8B1D9AB4EF0EF01FAAB4EF0EF0E1A720
:101D4000A9EF0EF01DAAB1EF0EF0262EB4EF0EF0A3
:101D50001F9A318AAE9B1D9AB4EF0EF01FBAB4EFF2
:101D60000EF0010E266E1D8AE1A9BAEF0EF031BC0D
:101D7000E4EF0EF081BCCCEF0EF0E1A7C6EF0EF061
:101D80001DACDEEF0EF0272EE4EF0EF01F8C318C31
:101D9000AE8D1D9CE4EF0EF01FACE4EF0EF0E1A75A
:101DA000D9EF0EF01DACE1EF0EF0272EE4EF0EF0B0
:101DB0001F9C318CAE9D1D9CE4EF0EF01FBCE4EF28
:101DC0000EF0010E276E1D8CE1A9EAEF0EF031BE78
:101DD00014EF0FF081BEFCEF0EF0E1A7F6EF0EF06E
:101DE0001DAE0EEF0FF0282E14EF0FF01F8E318E68
:101DF000AE8F1D9E14EF0FF01FAE14EF0FF0E1A792
:101E000009EF0FF01DAE11EF0FF0282E14EF0FF0B9
:101E10001F9E318EAE9F1D9E14EF0FF01FBE14EF5C
:101E20000FF0010E286E1D8E80500F0B346E80BA9D
:101E3000348884B0348A84B2348C84B4348EDC51D7
:101E4000341AE5B14DEF0FF0DDA14DEF0FF0E1A930
:101E50002DEF0FF032B057EF0FF034B03FEF0FF02F
:101E6000E1A739EF0FF01EA051EF0FF0292E57EF29
:101E70000FF020803280AF811E9057EF0FF020A02E
:101E800057EF0FF0E1A74CEF0FF01EA054EF0FF04B
:101E9000292E57EF0FF020903280AF911E9057EF10
:101EA0000FF020B057EF0FF0010E296E1E80E5B342
:101EB00083EF0FF0DDA383EF0FF0E1A963EF0FF0E5
:101EC00032B28DEF0FF034B275EF0FF0E1A76FEF84
:101ED0000FF01EA287EF0FF02A2E8DEF0FF0208259
:101EE0003282AF831E928DEF0FF020A28DEF0FF0A4
:101EF000E1A782EF0FF01EA28AEF0FF02A2E8DEFDE
:101F00000FF020923282AF931E928DEF0FF020B22D
:101F10008DEF0FF0010E2A6E1E82E5B5B9EF0FF0BE
:101F2000DDA5B9EF0FF0E1A999EF0FF032B4C3EFDF
:101F30000FF034B4ABEF0FF0E1A7A5EF0FF01EA444
:101F4000BDEF0FF02B2EC3EF0FF020843284AF854E
:101F50001E94C3EF0FF020A4C3EF0FF0E1A7B8EF7A
:101F60000FF01EA4C0EF0FF02B2EC3EF0FF0209444
:101F70003284AF951E94C3EF0FF020B4C3EF0FF07F
:101F8000010E2B6E1E84E5B7EFEF0FF0DDA7EFEF2C
:101F90000FF0E1A9CFEF0FF032B6F9EF0FF034B642
:101FA000E1EF0FF0E1A7DBEF0FF01EA6F3EF0FF06C
:101FB0002C2EF9EF0FF020863286AF871E96F9EFB0
:101FC0000FF020A6F9EF0FF0E1A7EEEF0FF01EA63D
:101FD000F6EF0FF02C2EF9EF0FF020963286AF9728
:101FE0001E96F9EF0FF020B6F9EF0FF0010E2C6EF0
:101FF0001E86E5B925EF10F0DDA925EF10F0E1A967
:1020000005EF10F032B82FEF10F034B817EF10F0E2
:10201000E1A711EF10F01EA829EF10F02D2E2FEFE1
:1020200010F020883288AF891E982FEF10F020A87A
:102030002FEF10F0E1A724EF10F01EA82CEF10F006
:102040002D2E2FEF10F020983288AF991E982FEF89
:1020500010F020B82FEF10F0010E2D6E1E88E5BB9A
:102060005BEF10F0DDAB5BEF10F0E1A93BEF10F0A0
:1020700032BA65EF10F034BA4DEF10F0E1A747EF38
:1020800010F01EAA5FEF10F02E2E65EF10F0208AE0
:10209000328AAF8B1E9A65EF10F020AA65EF10F020
:1020A000E1A75AEF10F01EAA62EF10F02E2E65EF96
:1020B00010F0209A328AAF9B1E9A65EF10F020BA7A
:1020C00065EF10F0010E2E6E1E8AE5BD91EF10F047
:1020D000DDAD91EF10F0E1A971EF10F032BC9BEF94
:1020E00010F034BC83EF10F0E1A77DEF10F01EACD0
:1020F00095EF10F02F2E9BEF10F0208C328CAF8DCF
:102100001E9C9BEF10F020AC9BEF10F0E1A790EF2E
:1021100010F01EAC98EF10F02F2E9BEF10F0209CCB
:10212000328CAF9D1E9C9BEF10F020BC9BEF10F0FB
:10213000010E2F6E1E8CE5BFC7EF10F0DDAFC7EFAD
:1021400010F0E1A9A7EF10F032BED1EF10F034BECD
:10215000B9EF10F0E1A7B3EF10F01EAECBEF10F027
:10216000302ED1EF10F0208E328EAF8F1E9ED1EF29
:1021700010F020AED1EF10F0E1A7C6EF10F01EAEC8
:10218000CEEF10F0302ED1EF10F0209E328EAF9FA8
:102190001E9ED1EF10F020BED1EF10F0010E306E78
:1021A0001E8E1DEF00F022EC19F00DEC19F00F015E
:1021B000210E9D6E00018150280EF26E100E9E6E53
:1021C0000F01FF0E5A6F00010400040E0F01506F43
:1021D0000F01A3840001040EA56E9F6AA26AB86A6B
:1021E000786AF16AF18ED08EF294F28CF28E9D9C18
:1021F0009E9804A60DEF11F004A404EF11F00AEC70
:1022000017F00494010E596E5CEC07F0A5EC0CF08D
:1022100004969E9A0F019D8A00010F019D8A00017C
:1022200000EEB0F0066AE5B119EF11F0DDA120EF84
:1022300011F0000EE8CFB0F0E8CFB1F026EF11F0CA
:1022400004000F01010EC26EC7EC11F0062A00EE69
:10225000B2F0E5B32FEF11F0DDA336EF11F0000E71
:10226000E8CFB2F0E8CFB3F03CEF11F004000F017B
:10227000050EC26EC7EC11F0062A00EEB4F0E5B50B
:1022800045EF11F0DDA54CEF11F0000EE8CFB4F0F2
:10229000E8CFB5F052EF11F004000F01090EC26E45
:1022A000C7EC11F0062A00EEB6F0E5B75BEF11F0CF
:1022B000DDA762EF11F0000EE8CFB6F0E8CFB7F07F
:1022C00068EF11F004000F010D0EC26EC7EC11F0A3
:1022D000062A00EEB8F0E5B971EF11F0DDA978EF4C
:1022E00011F0000EE8CFB8F0E8CFB9F07EEF11F0B2
:1022F00004000F01110EC26EC7EC11F0062A00EEA9
:10230000BAF0E5BB87EF11F0DDAB8EEF11F0000EF8
:10231000E8CFBAF0E8CFBBF094EF11F004000F0162
:10232000150EC26EC7EC11F0062A00EEBCF0E5BD3A
:102330009DEF11F0DDADA4EF11F0000EE8CFBCF081
:10234000E8CFBDF0AAEF11F004000F01190EC26E24
:10235000C7EC11F0062A00EEBEF0E5BFB3EF11F0B6
:10236000DDAFBAEF11F0000EE8CFBEF0E8CFBFF05E
:10237000C0EF11F004000F011D0EC26EC7EC11F08A
:10238000F7EF10F0070EE126D8B0E22A12000001A4
:1023900014EE91F00650070DF350D890E126D8B016
:1023A000E22AE750000FD8B413EF12F0FF0E056ECB
:1023B000052ED8EF11F00F01C282C2B2DDEF11F08D
:1023C0000F010F0EC464E9EF11F00001E650E65072
:1023D0001200E6060F01C3500001E626D8B0E72A36
:1023E0000F01C4500001E62662EC12F007A203EFD1
:1023F00012F0E550E5500F01C4500001E66E0F01E8
:10240000C3500001E66E56EC12F007A012EF12F076
:10241000E550E5500F01C4500001E66E0F01C350B6
:102420000001E66E1200E650E1CFD9FFE2CFDAFFFD
:1024300081EC12F0D9CFE1FFDACFE2FF4EC0E6FF28
:102440004DC0E6FFD9CFE1FFDACFE2FF8BEC12F00F
:10245000D9CFE1FFDACFE2FF4DC0E6FF4EC0E6FF85
:10246000030E4A6ED9CFE1FFDACFE2FFD890E63211
:10247000E6324A2E32EF12F0D9CFE1FFDACFE2FF97
:10248000E6CFEEFFE6CFEEFFD9CFE1FFDACFE2FFF6
:10249000E5500A0EE66EE66AE66A100EE66E000E7B
:1024A000E66E000EE66E000EE66E120000000F01F2
:1024B000C4500001E65C4A6E0F01C3500001E65CA7
:1024C0006CEF12F000000F01C4500001E65C4A6E90
:1024D0000F01C3500001E65CD8A04A064A10D8B4E8
:1024E0007DEF12F04ABE79EF12F007820790079451
:1024F0001200079207800794120007920790078442
:102500001200E6CF4EF0E6CF4DF0E6CF4FF0E6CF2B
:1025100050F095EF12F0E6CF4EF0E6CF4DF0E650DA
:10252000E650E6CF4FF0E6CF50F050C0E8FF4E5EE9
:102530004FC0E8FFD8A04F3C4D5E1200186E1A6ED7
:10254000080E196E1A501A321A5002E3AEEF12F04A
:102550001CA0B0EF12F0D880B0EF12F01CB0D890F1
:1025600002E2C1EF12F01BBCB9EF12F01B8CBAEF04
:1025700012F01B9C1CB2C0EF12F01C82C1EF12F0D3
:102580001C921B321C321A50192EA3EF12F0185055
:102590001200146E116EE1BFE0EF12F0080E126E21
:1025A000136AD8901132D8B0132A122ED2EF12F03B
:1025B000D89013B0D8800F01AC90D8B0AC80000197
:1025C0009EA8E0EF12F014500F01AD6E0F01ACA207
:1025D000E7EF12F0000114501200E1C0E8FF070B12
:1025E000E8CFE0F0470E0F01AF6E0001E0C0E8FF5A
:1025F0000108D8B432EF13F0230E0F01AF6E0001C3
:10260000E0C0E8FF0208D8B432EF13F0110E0F015A
:10261000AF6E0001E0C0E8FF0308D8B432EF13F05A
:102620000B0E0F01AF6E0001E0C0E8FF0408D8B444
:1026300032EF13F0050E0F01AF6E0001E0C0E8FFAE
:102640000508D8B432EF13F0230E0F01AF6E00016E
:10265000E1C0E8FF780BE8CFE0F00A0E070BE025B9
:10266000E8CFE1F0000EE8CFE0F0670EE1BF260E04
:102670000F01AC6E0001D00EE1BF900E0F01AB6EEA
:1026800000011200000E0F01746E756AF3EC14F075
:10269000E8CFE3F0000EE8CFE2F0F3EC14F0E8CF7F
:1026A000D7F0000EE8CFD6F0F3EC14F0E8CFD9F075
:1026B000000EE8CFD8F0F3EC14F0E8CFDFF0E8CF6D
:1026C000ADF0F3EC14F0E8CFDEF0E8CFACF0836EC1
:1026D000F3EC14F0E8CFE1F0E06BF3EC14F0E8CFAA
:1026E000E5F0F3EC14F0E8CFDDF0000EE8CFDCF01D
:1026F000F3EC14F0E8CFD3F0000EE8CFD2F0F3EC17
:1027000014F0E8CFD4F0F3EC14F0E8CFD5F0F3EC0C
:1027100014F0E8CFE6F0096EF3EC14F0E8CFE7F040
:102720000A6EF3EC14F0E8CFE8F00B6EF3EC14F063
:10273000E8CFE9F00C6EF3EC14F0E8CFEAF00D6EA0
:10274000F3EC14F0E8CFEBF00E6EF3EC14F0E8CFFE
:10275000ECF00F6EF3EC14F0E8CFEDF0106EF3EC4C
:1027600014F0E8CFDCF0F3EC14F0300BE8CFDBF042
:102770000F01C16E0001000EE8CFDAF0F3EC14F0A7
:10278000E8CF20F3F3EC14F0E8CF21F3F3EC14F0EE
:10279000E8CF22F3F3EC14F0E8CF23F3D3EC13F0FB
:1027A000B2EF14F0120020C3AAF021C3ABF0A96B62
:1027B000D890AB37AA37A937AB37AA37A937A95171
:1027C000000FD8A4FCEF13F0AA51000FD8A4FCEF1F
:1027D00013F0AB51000FD8A4FCEF13F0D58E03EE2D
:1027E00000F0100EE8CF5AF0EE6A5A2EF4EF13F014
:1027F000040E5A6E16EF14F0D58EA9C047F3AAC086
:1028000048F3ABC049F3A9C044F3AAC045F3ABC039
:1028100046F320C34AF321C34BF34AC34CF34BC3E3
:102820004DF3000EE8CF65F0040E5A6EA76BA86B4F
:10283000120003EE00F013EE24F0100EE8CF5AF071
:10284000EFBE29EF14F0EE50E650EE50E6502DEFBB
:1028500014F0EECFE6FFEECFE6FF5A2E20EF14F095
:10286000040E5A6E1200000EE8CF44F3E8CF45F391
:10287000E8CF46F3000ED66E03EE23F0000EEF6EA7
:10288000ED50000EEF6E1200000E0F01746E756AAF
:10289000E3C0E8FFE3EC14F0742A742ADFC0E8FF19
:1028A000E3EC14F0DEC0E8FFE3EC14F0EDEC12F022
:1028B000E1C0E8FFE3EC14F0E5C0E8FFE3EC14F05E
:1028C000DDC0E8FFE3EC14F00B0E0F01746E756AC7
:1028D000E6C0E8FF096EE3EC14F0E7C0E8FF0A6E1B
:1028E000E3EC14F0E8C0E8FF0B6EE3EC14F0E9C091
:1028F000E8FF106EE3EC14F00F0E746E756AEAC018
:10290000E8FF0D6EE3EC14F0EBC0E8FF0E6EE3ECB5
:1029100014F0ECC0E8FF0F6EE3EC14F0EDC0E8FF3C
:10292000106EE3EC14F0DCC0E8FFE3EC14F0DBC065
:10293000E8FF300BE3EC14F0DBC0E8FF300B0F01D5
:10294000C16E000120C3E8FFE3EC14F021C3E8FFEF
:10295000E3EC14F022C3E8FFE3EC14F023C3E8FF38
:10296000E3EC14F0E5515D17E51D336E338E338CC7
:10297000338AE5B9339A338833500F01926E0001E0
:10298000E539336E331C336E3330070B0F01966E0F
:102990000001DD1D356EE51D35140F015D6F5C6BAB
:1029A0000001DD510001AF170001ADC0E8FFDD15EA
:1029B000356E0F0B806E35B8808AD8903532353839
:1029C000070B846E1200736E7F9E7F84550E7E6EA1
:1029D000AA0E7E6E7F827FB2EBEF14F07F94742A92
:1029E00073CFE8FF12007F9E7F8073CFE8FF742AC9
:1029F0001200516A526A536A546A556A566A576A93
:102A0000586A4E6A4F6A4C6A496A1200506A4FA06F
:102A10000DEF15F04F6A75EF15F076EC15F0040028
:102A20004A6A4A2A4D6AF00E456E82EC15F0B2EC05
:102A300015F04B6ED8904B36B2EC15F04B124B5054
:102A4000000FD8B430EF15F04B500108D8B45AEF4E
:102A500015F04B500208D8B45CEF15F072EF15F08A
:102A60004A504E18D8A43BEF15F0020E4B6ECBEC3B
:102A700015F05FEF15F04E504A5CD8A048EF15F006
:102A8000010E4B6ECBEC15F04A504D6E5FEF15F01A
:102A90003CEC16F0466E4650000FD8B454EF15F0DB
:102AA000020E4B6E5FEF15F0010E4B6E4A504D6EED
:102AB0005FEF15F05CEF15F0CBEC15F004000400AF
:102AC000D8904B3091EC15F04A2A4A504108D8A4CE
:102AD00017EF15F04D504E6ED8B44F2A010E506EC0
:102AE00075EF15F04E6A75EF15F01200829200EC4A
:102AF00019F000EC19F0828200EC19F000EC19F0EA
:102B00001200456E080E466E476A4790D8904532CF
:102B1000D8B04780475091EC15F0462E84EF15F061
:102B2000120007BC96EF15F0F29EF29C476E82925F
:102B300047B082823A0E01EC19F08282000007BC95
:102B40001200F28CF28E1200080E466EB2EC15F0F6
:102B5000476ED89047B0D8804532462EA6EF15F084
:102B60004550120007BCB7EF15F0F29EF29C82921E
:102B7000000082829482476A0C0E01EC19F082B246
:102B800047802F0E01EC19F04750949207BC1200B9
:102B9000F28CF28E12007BEC16F04B30010BD8B4A5
:102BA00007EF16F048500008D8B4F7EF15F048507A
:102BB0000108D8B4F9EF15F048500208D8B4FBEF7B
:102BC00015F048500308D8B4FDEF15F0485004083C
:102BD000D8B4FFEF15F048500508D8B401EF16F04F
:102BE00048500608D8B403EF16F005EF16F0EF8E44
:102BF0001200EF8C1200EF8A1200EF881200EF86AD
:102C00001200EF841200EF821200EF801200485091
:102C10000008D8B42CEF16F048500108D8B42EEFB5
:102C200016F048500208D8B430EF16F048500308A8
:102C3000D8B432EF16F048500408D8B434EF16F088
:102C400048500508D8B436EF16F048500608D8B4F6
:102C500038EF16F03AEF16F0EF9E1200EF9C1200DC
:102C6000EF9A1200EF981200EF961200EF94120004
:102C7000EF921200EF9012007BEC16F04850000823
:102C8000D8B463EF16F048500108D8B467EF16F0D7
:102C900048500208D8B469EF16F048500308D8B479
:102CA0006CEF16F048500408D8B46FEF16F0485097
:102CB0000508D8B472EF16F048500608D8B475EF7E
:102CC00016F078EF16F0EFAE000C010CEFAC000C34
:102CD000010CEFAA000C010CEFA8000C010CEFA6F0
:102CE000000C010CEFA4000C010CEFA2000C010C75
:102CF000EFA0000C010C4A043F08476E070B486E1A
:102D0000D8904732D8904732D890473200EE51F0F1
:102D10004750E926D8B0EA2A120003B0A7EF16F010
:102D20000950000FD8A49AEF16F00A50000FD8B43B
:102D3000A6EF16F00A2EC5EF16F00950000FD8B412
:102D4000A6EF16F009060A06C5EF16F0038003B4D5
:102D5000BEEF16F00C50000FD8B4B2EF16F00C2EE8
:102D6000C5EF16F0E8510B6E000FD8B4BAEF16F0AD
:102D700003848296E9510C6EC5EF16F00B2EC5EF59
:102D800016F082860394E8510B6E03B2DDEF16F065
:102D90000D50000FD8A4D2EF16F00E50000FD8B48B
:102DA000DCEF16F00E2E12000D50000FD8B4DCEF41
:102DB00016F00D060E061200038203B6F2EF16F0AF
:102DC0001050000FD8B4E7EF16F0102E1200EC519F
:102DD0000F6E000FD8B4EFEF16F003868288ED5126
:102DE000106E12000F2E120082980396EC510F6E97
:102DF0001200592E6DEF17F0010E596E4C50000F56
:102E0000D8A407EF17F04950D8B46DEF17F0048439
:102E10006DEF17F08280100E4B6094EF17F076EC98
:102E200015F0CFEC18F0BE0E81EC15F04B04516E8E
:102E300001EEB0F0D8905134D890E926D8B0EA2A03
:102E400010EEEEF05150E126D8B0E22AA4EC15F0D5
:102E5000586EA4EC15F0516E6EEC17F0D8A044EF4C
:102E600017F0E7B03BEF17F0030EE76EF7EC18F042
:102E700082906DEF17F0E7B249EF17F0E76A100E96
:102E8000EE6EEE6A58EF17F0D8A44EEF17F031EF60
:102E900017F0D8A44EEF17F03EEF17F0E76A515045
:102EA0000708D8A058EF17F05150EE6E58C0EEFF4B
:102EB000F7EC18F082904B064B50000FD8A46DEF42
:102EC00017F04950D8B46AEF17F04938040F4B6E29
:102ED0006DEF17F04C500F0B4B6E12005150050860
:102EE000D8A47EEF17F058505008D8A47BEF17F005
:102EF000D894D8801200D890D89412005150FF086E
:102F0000D8A47BEF17F0D88479EF17F05150FF0861
:102F1000D8A492EF17F05850FF08D8A492EF17F0FA
:102F2000D8841200D89412004B500F0BD8B4AEEFD7
:102F300018F00108D8B473EF18F04B500F0B0208CB
:102F4000D8B422EF18F04B500F0B0308D8B4B7EFEA
:102F500017F076EC15F0CFEC18F0440E81EC15F07C
:102F600082904B067F0ECE6EF20ECF6E120076EC84
:102F700015F0CFEC18F0B80E81EC15F0000E81ECD6
:102F800015F076EC15F0CFEC18F0BE0E81EC15F0D4
:102F9000000E81EC15F04B380F0B516E510604EE0C
:102FA00000F0D890513651365134D890E926D8B037
:102FB000EA2A4B500F0B516ED8905134D890E92625
:102FC000D8B0EA2A10EEF7F04B380F0B516E5104CF
:102FD000E126D8B0E22AA4EC15F0A4EC15F0586E66
:102FE000A4EC15F0516E86EC17F0D8A406EF18F09B
:102FF000E7B0FFEF17F0010EE76E0BEF18F0E76A8E
:10300000100EEE6E000EEE6E0BEF18F0E76A51C078
:10301000EEFF58C0EEFF76EC15F0CFEC18F04E0E38
:1030200081EC15F0000E81EC15F0090E81EC15F025
:1030300076EC15F0CFEC18F0B40E81EC15F0829020
:103040004B06120076EC15F0CFEC18F0B80E81ECC0
:1030500015F0000E81EC15F076EC15F0CFEC18F0C1
:10306000BE0E81EC15F0000E81EC15F04B380F0B05
:10307000516E510604EE00F0D8905136513651345D
:10308000D890E926D8B0EA2A4B040F0B010F516EF5
:10309000D8905134D890E926D8B0EA2AA4EC15F09B
:1030A000A4EC15F0A4EC15F0A4EC15F0586EA4EC0B
:1030B00015F0EE6E58C0EEFF76EC15F0CFEC18F080
:1030C0004E0E81EC15F0000E81EC15F0010E81EC36
:1030D00015F076EC15F0CFEC18F0B40E81EC15F08D
:1030E00082904B06120076EC15F0CFEC18F0B80E7B
:1030F00081EC15F0000E81EC15F076EC15F0CFECBC
:1031000018F0BE0E81EC15F0000E81EC15F04B3876
:103110000F0B516E510604EE00F0D8905136513627
:103120005134D890E926D8B0EA2AA4EC15F0A4ECE2
:1031300015F0A4EC15F0A4EC15F0586EA4EC15F005
:10314000EE6E58C0EEFFA4EC15F0586EA4EC15F02E
:10315000EE6E58C0EEFF82904B0612004B380F0BFC
:10316000516E5104000FD8B4BEEF18F0100E4B5E34
:103170004B50F00B040F4B6E829012004C500F0B13
:10318000000FD8A4CAEF18F04938F00B040F4B6EAB
:10319000829012004B6EF7EC18F082901200550EE0
:1031A00081EC15F0100E4B64DEEF18F004EE48F0E1
:1031B0004B380F0B516E5106E2EF18F04B04516E75
:1031C00001EEC2F05150080DF350D890E926D8B066
:1031D000EA2A070ED890E926D8B0EA2A080E546EDB
:1031E000ED5081EC15F0542EF0EF18F0120076EC53
:1031F00015F0CC0E81EC15F0440E81EC15F01200A8
:10320000FF0ECB6E010ECA6ECC6A9E92CA849EA23D
:1032100007EF19F0CA949E92120004EE91F0080E86
:10322000066E0A0EEE6EEE6AEE6A100EEE6E000E7E
:10323000EE6E000EEE6E000EEE6E062E11EF19F021
:10324000066A1200D16A0400F18E430ED56ED60EC6
:10325000D66EF2940F01000E5F6F5E6FB56A0F01BC
:10326000300EC16E0F01BA0EC06E0F01010EC26E9C
:103270000F01000E5B6F0F01000E806E0F01FF0E3D
:10328000936E0F01FF0E816E0F01C40E946E0F013D
:10329000CF0E826E0F01000E956E0F01000E836E31
:1032A000080E846E040027EC1AF042EC13F0EDECEB
:1032B00012F0A3EC0CF07F0ECE6EF20ECF6E310E3C
:1032C000CD6E010ECA6EFF0ECB6E9D92CC6A9E92A1
:1032D0000A0E596EFF0E016E00EC19F0012E6CEF14
:1032E00019F0592E6AEF19F00F01210E9D6E0001A1
:1032F0008150480EF26E100E9E6E0F01FF0E5A6F37
:103300000001F29AF29C998281501F6E811CAE6F6F
:10331000000E316E030E386E396E3B6A3C6A640EE5
:10332000016EFF0E026E010E596E040E5A6E11EE02
:10333000B0F0090E4C6E100EE66E000EE66E4C2ECE
:103340009BEF19F014EE00F0240E4C6E100EE66E9A
:10335000000EE66E4C2EA6EF19F00400F9EC14F006
:10336000049E04944C6A496A4B6A0400078C06EC7C
:1033700015F0040050A013EF1AF0049210EE58F06C
:10338000E7502808D8A4048204B2CCEF19F004B4A2
:1033900003EF1AF0CFEF19F004BE03EF1AF001EEBD
:1033A000C2F004B204EE48F010EE51F0D89004A23E
:1033B000DDEF19F04934DEEF19F04C341C6E1C3689
:1033C0001C34D890E926D8B0EA2A10EE51F0080E45
:1033D000126EE6CFEEFF122EE9EF19F004A2FAEF1B
:1033E00019F0492A090E495CD8A4B7EF19F0048EE8
:1033F000B7EF19F04C2A090E4C5CD8A4B7EF19F0BE
:103400000484B7EF19F004A4B7EF19F004AEB7EFD6
:1034100019F0F7EC18F082904C500F0B4B6E640EC5
:10342000016E24EF1AF04C50000FD8A409EF1AF0E7
:103430004950000FD8B424EF1AF082904938F00BAD
:10344000040F4B6E640E016E0400076A120000EE5A
:1034500000F0EE6AEA500F08D8A429EF1AF0666B64
:04346000676B120084
:020000040030CA
:0100000014EB
:0100010003FB
:0100020006F7
:0100030023D9
:0100050009F1
:010006009069
:0100080000F7
:0200000400F00A
:1000000001820100001A0000F102130258051E02CD
:09001000580564FF3000000000F7
:00000001FF
