:020000040000FA
:0400000060EF13F0AA
:020004000000FA
:08000800828AA394A494100065
:080018005E6ED8385F6EE9CF7F
:1000200061F0EACF60F00001F2B0A6EC05F0F2B4A6
:1000300029EC00F09EB0CFEF0EF09EBAB9EC06F0BE
:1000400061C0E9FF60C0EAFF5F38D86E5E3A5E3893
:100050001000F294D59ED60ED66ED58EE2CF62F009
:10006000E1CF63F0A551000FD8A43EEF00F0A651F8
:10007000000FD8A43EEF00F053EF00F05D2E85EFA7
:1000800005F0040E5D6EA607D8B049EF00F0D890D9
:10009000A507A551000FD8A485EF05F0A651000FC4
:1000A000D8A485EF05F044C3E8FF000FD8A47DEF86
:1000B00002F045C3E8FF000FD8A47DEF02F046C36D
:1000C000E8FF000FD8A47DEF02F0CDEC16F003EEB0
:1000D00023F013EE24F096EC05F006BE8AEF00F054
:1000E000E7AC79EF00F0E738030B685DD8A48AEF3E
:1000F00000F06AB18AEF00F0ADA183EF00F08090CC
:10010000EF9085EF00F08080EF8001C325F300C3FE
:1001100024F36A8113EE26F096EC05F006BEABEFF1
:1001200000F0E7AC9AEF00F0E738030B685DD8A465
:10013000ABEF00F06AB3ABEF00F0ADA3A4EF00F0BB
:100140008092EF92A6EF00F08082EF8203C327F344
:1001500002C326F36A8313EE28F096EC05F006BE80
:10016000CCEF00F0E7ACBBEF00F0E738030B685DC5
:10017000D8A4CCEF00F06AB5CCEF00F0ADA5C5EF88
:1001800000F08094EF94C7EF00F08084EF8405C303
:1001900029F304C328F36A8513EE2AF096EC05F0E0
:1001A00006BEEDEF00F0E7ACDCEF00F0E738030B44
:1001B000685DD8A4EDEF00F06AB7EDEF00F0ADA7F1
:1001C000E6EF00F08096EF96E8EF00F08086EF868D
:1001D00007C32BF306C32AF36A8713EE2CF096ECC1
:1001E00005F006BE0EEF01F0E7ACFDEF00F0E738DA
:1001F000030B685DD8A40EEF01F06AB90EEF01F0B1
:10020000ADA907EF01F0809AEF9809EF01F0808A1D
:10021000EF8809C32DF308C32CF36A8913EE2EF07F
:1002200096EC05F006BE2FEF01F0E7AC1EEF01F0F3
:10023000E738030B685DD8A42FEF01F06ABB2FEFFE
:1002400001F0ADAB28EF01F08490EF9A2AEF01F0B6
:100250008480EF8A0BC32FF30AC32EF36A8B13EE4D
:1002600030F096EC05F006BE50EF01F0E7AC3FEF42
:1002700001F0E738030B685DD8A450EF01F06ABDC8
:1002800050EF01F0ADAD49EF01F08492EF9C4BEFE0
:1002900001F08482EF8C0DC331F30CC330F36A8D0F
:1002A00013EE32F096EC05F006BE71EF01F0E7AC0C
:1002B00060EF01F0E738030B685DD8A471EF01F03F
:1002C0006ABF71EF01F0ADAF6AEF01F08494EF9E69
:1002D0006CEF01F08484EF8E0FC333F30EC332F35F
:1002E0006A8F03EE22F013EE34F096EC05F006BEB2
:1002F00094EF01F0E7AC83EF01F0E738030B685DA2
:10030000D8A494EF01F069B194EF01F0ACA18DEFA6
:1003100001F08390EF908FEF01F08380EF8011C3A5
:1003200035F310C334F3698113EE36F096EC05F023
:1003300006BEB5EF01F0E7ACA4EF01F0E738030B20
:10034000685DD8A4B5EF01F069B3B5EF01F0ACA3D7
:10035000AEEF01F08392EF92B0EF01F08382EF8273
:1003600013C337F312C336F3698313EE38F096ECF8
:1003700005F006BED6EF01F0E7ACC5EF01F0E738B7
:10038000030B685DD8A4D6EF01F069B5D6EF01F094
:10039000ACA5CFEF01F08394EF94D1EF01F083840B
:1003A000EF8415C339F314C338F3698513EE3AF0BB
:1003B00096EC05F006BEF7EF01F0E7ACE6EF01F0D2
:1003C000E738030B685DD8A4F7EF01F069B7F7EFE2
:1003D00001F0ACA7F0EF01F08396EF96F2EF01F099
:1003E0008386EF8617C33BF316C33AF3698713EE90
:1003F0003CF096EC05F006BE18EF02F0E7AC07EF14
:1004000002F0E738030B685DD8A418EF02F069B971
:1004100018EF02F0ACA911EF02F08398EF9813EFF8
:1004200002F08388EF8819C33DF318C33CF3698950
:1004300013EE3EF096EC05F006BE39EF02F0E7ACA5
:1004400028EF02F0E738030B685DD8A439EF02F01B
:1004500069BB39EF02F0ACAB32EF02F0839AEF9A4E
:1004600034EF02F0838AEF8A1BC33FF31AC33EF3D3
:10047000698B13EE40F096EC05F006BE5AEF02F0E1
:10048000E7AC49EF02F0E738030B685DD8A45AEFF8
:1004900002F069BD5AEF02F0ACAD53EF02F0839C5D
:1004A000EF9C55EF02F0838CEF8C1DC341F31CC30E
:1004B00040F3698D13EE42F096EC05F006BE7BEF3B
:1004C00002F0E7AC6AEF02F0E738030B685DD8A4EE
:1004D0007BEF02F069BF7BEF02F0ACAF74EF02F08C
:1004E000839EEF9E76EF02F0838EEF8E1FC343F361
:1004F0001EC342F3698FD8EF02F044C3A9F045C38D
:10050000AAF046C3ABF0D890AB07D8B08FEF02F09B
:10051000D890AA07D8B08FEF02F0D890A907A9C049
:1005200044F3AAC045F3ABC046F344C3E8FF000F51
:10053000D8A4A9EF02F045C3E8FF000FD8A4A9EFA3
:1005400002F046C3E8FF000FD8A4A9EF02F065EF60
:1005500000F04CC3A9F04DC3AAF0D890AA07D8B0B8
:10056000B4EF02F0D890A907A9C04CF3AAC04DF38C
:100570004DC3E8FF000FD8A4D8EF02F04CC3E8FF4A
:10058000000FD8A4D8EF02F04AC34CF34BC34DF38D
:1005900068C0E8FF010FE8CF68F068C0E8FF040812
:1005A000D8A467EF00F0000EE8CF68F067EF00F026
:1005B0005D2E85EF05F0040E5D6E03EE23F013EE65
:1005C00024F096EC05F006BEF0EF02F06AA109EF08
:1005D00003F08EEC05F096EC05F006AE09EF03F0A3
:1005E000ADA1F7EF02F08080EF80F9EF02F080908C
:1005F000EF906A9100C324F301C325F3E7BE09EF2E
:1006000003F024C3E8FFF00BE8CF24F3000EE8CF9B
:1006100025F313EE26F096EC05F006BE1AEF03F074
:100620006AA333EF03F08EEC05F096EC05F006AE0E
:1006300033EF03F0ADA321EF03F08082EF8223EFCD
:1006400003F08092EF926A9302C326F303C327F369
:10065000E7BE33EF03F026C3E8FFF00BE8CF26F345
:10066000000EE8CF27F313EE28F096EC05F006BE57
:1006700044EF03F06AA55DEF03F08EEC05F096EC15
:1006800005F006AE5DEF03F0ADA54BEF03F08084FF
:10069000EF844DEF03F08094EF946A9504C328F340
:1006A00005C329F3E7BE5DEF03F028C3E8FFF00BB5
:1006B000E8CF28F3000EE8CF29F313EE2AF096ECEA
:1006C00005F006BE6EEF03F06AA787EF03F08EEC2D
:1006D00005F096EC05F006AE87EF03F0ADA775EFD9
:1006E00003F08086EF8677EF03F08096EF966A97A7
:1006F00006C32AF307C32BF3E7BE87EF03F02AC331
:10070000E8FFF00BE8CF2AF3000EE8CF2BF313EE4F
:100710002CF096EC05F006BE98EF03F06AA9B1EF55
:1007200003F08EEC05F096EC05F006AEB1EF03F0A9
:10073000ADA99FEF03F0808AEF88A1EF03F0809AC4
:10074000EF986A9908C32CF309C32DF3E7BEB1EF04
:1007500003F02CC3E8FFF00BE8CF2CF3000EE8CF3A
:100760002DF313EE2EF096EC05F006BEC2EF03F06B
:100770006AABDBEF03F08EEC05F096EC05F006AE0D
:10078000DBEF03F0ADABC9EF03F08480EF8ACBEF72
:1007900003F08490EF9A6A9B0AC32EF30BC32FF3E6
:1007A000E7BEDBEF03F02EC3E8FFF00BE8CF2EF33C
:1007B000000EE8CF2FF313EE30F096EC05F006BEF6
:1007C000ECEF03F06AAD05EF04F08EEC05F096EC6B
:1007D00005F006AE05EF04F0ADADF3EF03F0848253
:1007E000EF8CF5EF03F08492EF9C6A9D0CC330F31D
:1007F0000DC331F3E7BE05EF04F030C3E8FFF00BA3
:10080000E8CF30F3000EE8CF31F313EE32F096EC80
:1008100005F006BE16EF04F06AAF2FEF04F08EEC81
:1008200005F096EC05F006AE2FEF04F0ADAF1DEF2E
:1008300004F08484EF8E1FEF04F08494EF9E6A9F8F
:100840000EC332F30FC333F3E7BE2FEF04F032C30E
:10085000E8FFF00BE8CF32F3000EE8CF33F313EEEE
:1008600034F003EE22F096EC05F006BE42EF04F001
:1008700069A15BEF04F08EEC05F096EC05F006AE96
:100880005BEF04F0ACA149EF04F08380EF804BEF05
:1008900004F08390EF90699110C334F311C335F3E2
:1008A000E7BE5BEF04F034C3E8FFF00BE8CF34F3AE
:1008B000000EE8CF35F313EE36F096EC05F006BEE9
:1008C0006CEF04F069A385EF04F08EEC05F096EC74
:1008D00005F006AE85EF04F0ACA373EF04F083825D
:1008E000EF8275EF04F08392EF92699312C336F3AF
:1008F00013C337F3E7BE85EF04F036C3E8FFF00B10
:10090000E8CF36F3000EE8CF37F313EE38F096EC6D
:1009100005F006BE96EF04F069A5AFEF04F08EEC8B
:1009200005F096EC05F006AEAFEF04F0ACA59DEF38
:1009300004F08384EF849FEF04F08394EF9469952F
:1009400014C338F315C339F3E7BEAFEF04F038C36F
:10095000E8FFF00BE8CF38F3000EE8CF39F313EEE1
:100960003AF096EC05F006BEC0EF04F069A7D9EFA7
:1009700004F08EEC05F096EC05F006AED9EF04F02D
:10098000ACA7C7EF04F08386EF86C9EF04F0839627
:10099000EF96699716C33AF317C33BF3E7BED9EF57
:1009A00004F03AC3E8FFF00BE8CF3AF3000EE8CFCB
:1009B0003BF313EE3CF096EC05F006BEEAEF04F0D4
:1009C00069A903EF05F08EEC05F096EC05F006AE94
:1009D00003EF05F0ACA9F1EF04F08388EF88F3EFA3
:1009E00004F08398EF98699918C33CF319C33DF359
:1009F000E7BE03EF05F03CC3E8FFF00BE8CF3CF3A4
:100A0000000EE8CF3DF313EE3EF096EC05F006BE87
:100A100014EF05F069AB2DEF05F08EEC05F096ECC8
:100A200005F006AE2DEF05F0ACAB1BEF05F0838AA9
:100A3000EF8A1DEF05F0839AEF9A699B1AC33EF384
:100A40001BC33FF3E7BE2DEF05F03EC3E8FFF00BFD
:100A5000E8CF3EF3000EE8CF3FF313EE40F096EC04
:100A600005F006BE3EEF05F069AD57EF05F08EECE0
:100A700005F096EC05F006AE57EF05F0ACAD45EF8E
:100A800005F0838CEF8C47EF05F0839CEF9C699D0C
:100A90001CC340F31DC341F3E7BE57EF05F040C34D
:100AA000E8FFF00BE8CF40F3000EE8CF41F313EE80
:100AB00042F096EC05F006BE68EF05F069AF81EFF5
:100AC00005F08EEC05F096EC05F006AE81EF05F032
:100AD000ACAF6FEF05F0838EEF8E71EF05F0839E64
:100AE000EF9E699F1EC342F31FC343F3E7BE81EF2E
:100AF00005F042C3E8FFF00BE8CF42F3000EE8CF69
:100B000043F3D890A82BD8B0A72B62C0E2FF63C0F4
:100B1000E1FF67C0E9FF66C0EAFF1200E650D89027
:100B2000E506D8B01200E506E6501200069EE65033
:100B30000F0B000FD8A4A4EF05F0E650000FD8A4C7
:100B4000A3EF05F0068EE550E550120081503D6E92
:100B50000218386EE1BBBBEF05F0E1BDBBEF05F05D
:100B600046EF06F038B0CCEF05F038B2D8EF05F01C
:100B700038B4E4EF05F038B6F0EF05F038B8FCEF24
:100B800005F038BA0EEF06F038BC20EF06F038BE9C
:100B900032EF06F042EF06F03DA0D2EF05F0028002
:100BA00042EF06F0029042EF06F03A8042EF06F084
:100BB0003DA2DEEF05F0028242EF06F0029242EF24
:100BC00006F03A8242EF06F03DA4EAEF05F0028417
:100BD00042EF06F0029442EF06F03A8442EF06F04C
:100BE0003DA6F6EF05F0028642EF06F0029642EFD0
:100BF00006F03A8642EF06F0E1BB7BEF06F03DA837
:100C000005EF06F0028842EF06F002983AA80BEFD3
:100C100006F042EF06F03A8842EF06F0E1BB6AEFD9
:100C200006F03DAA17EF06F0028A42EF06F0029A9C
:100C30003AAA1DEF06F042EF06F03A8A42EF06F0BC
:100C4000E1BD59EF06F03DAC29EF06F0028C42EF12
:100C500006F0029C3AAC2FEF06F042EF06F03A8C19
:100C600042EF06F0E1BD48EF06F03DAE3BEF06F087
:100C7000028E42EF06F0029E3AAE41EF06F042EFDE
:100C800006F03A8E3D500218D8A41200F2901200DD
:100C90000F019D9A00013DBEADEF06F0029E05B822
:100CA00042EF06F08CEC06F098EC06F03E2A42EF9C
:100CB00006F00F019D9A00013DBCB0EF06F0029CCA
:100CC00005B842EF06F08CEC06F09BEC06F03E2AED
:100CD00042EF06F00F019D9A00013DBAB3EF06F016
:100CE000029A05BC42EF06F092EC06F098EC06F092
:100CF0003F2A42EF06F00F019D9A00013DB8B6EF82
:100D000006F0029805BC42EF06F092EC06F09BEC70
:100D100006F03F2A42EF06F0030E3B6E058A00EE16
:100D2000C9F01200030E3C6E058E00EED1F01200E9
:100D3000D8809CEF06F0D890EF36E906EF36E9064A
:100D4000EF36E906EF36E906EF36E906EF36E90653
:100D5000EF36E906EF36E9061200028E42EF06F0A2
:100D6000028C42EF06F0028A42EF06F0028842EF60
:100D700006F004009E9A0F01AB500001060BD8A4A8
:100D800098EF0EF017506208D8A098EF0EF0188078
:100D90000F01AE500001166E04EEC9F01750D89046
:100DA000E926D8B0EA2A1650EF6E172A1750010824
:100DB000D8B4F2EF06F017500208D8A4F2EF06F00C
:100DC00016504508D8A4E9EF06F00C0E146EAFEFEC
:100DD0000EF016501008D8A4F2EF06F0070E146EAD
:100DE000AFEF0EF01750145CD8A4AFEF0EF0CAC4EA
:100DF000E8FF1008D8A407EF07F018B207EF07F0D4
:100E0000CFC4E8FF020F14261882AFEF0EF0FF0EDA
:100E10001D6E1E6E14061404176E04EEC9F0829A3D
:100E2000A494A384EF5089EC15F0E92A172E12EF51
:100E300007F01E50EF5CD8A498EF0EF0E92A1D5081
:100E4000EF5CD8A498EF0EF0068618900F019D9ADB
:100E50000001120004EEC9F0E3C0E8FFEF5CD8B473
:100E600039EF07F0099AEF50000FD8A49AEF0EF06F
:100E7000098A52EC07F0E92AEF500308D8B472EF60
:100E800007F0EF500608D8B4E4EF07F0EF5045083C
:100E9000D8B46DEF0AF0EF501008D8B495EF08F011
:100EA00076EF0EF018881E0E006EE6C0E8FF0D6E9D
:100EB000E7C0E8FF0E6EE8C0E8FF0B6EE9C0E8FF90
:100EC0000C6E82860594EAC0E8FF116EEBC0E8FF65
:100ED000126EECC0E8FF0F6EEDC0E8FF106E829856
:100EE00005961200099804EC0BF0D8A07BEF07F0F0
:100EF000189C79EF0EF079EC0CF0D8B079EF0EF089
:100F000009BA9CEF0EF0188C18AE8EEF07F0CEC425
:100F1000E8FF0108D8A48EEF07F0189C18AC96EFF4
:100F200007F0FF0E2152336A346A189C189A06BAE9
:100F3000A6EF07F000EEACF005B201EE90F0CCC4E5
:100F40000AF0D8900A34E926D8B0EA2ACDC4E8FFDE
:100F5000136ECEC40AF00A34146ED9EC0AF01450A1
:100F6000E66E89EC15F0172A06A2BBEF07F0C40E57
:100F7000E926D8B0EA2AEE50E66E89EC15F0172A79
:100F8000142EBBEF07F006A0E2EF07F005A8D4EFA0
:100F900007F03E6A0598C06BC26BC36BC46BC56B30
:100FA000C66BC76BC86BC96B05ACE2EF07F03F6A55
:100FB000059CC16BCA6BCB6BCC6BCD6BCE6BCF6B17
:100FC000D06BD16BB5EF0AF0098804EC0BF0D8B008
:100FD00079EF0EF0CBC4E8FF0108D8A41AEF08F0AF
:100FE000CCC4E8FF0208D8B4FEEF07F0CCC4E8FF99
:100FF0000308D8B40CEF08F01AEF08F0D6C0E8FFE9
:10100000000FD8A479EF0EF0D7C0E8FF000FD8A4E6
:1010100079EF0EF01AEF08F0D8C0E8FF000FD8A45F
:1010200079EF0EF0D9C0E8FF000FD8A479EF0EF0E9
:101030001AEF08F079EC0CF0D8B079EF0EF018B692
:1010400079EF0EF009B076EF08F009BE76EF08F000
:1010500006BA3DEF08F000EEACF005B201EE90F0FC
:10106000CCC40AF00A34E926D8B0EA2A06A23DEF39
:1010700008F0C40EE926D8B0EA2ACDC4E8FFEE6E27
:1010800006BCE66ECEC4E8FFEF6E06BCE66E18AE98
:1010900058EF08F0ACC0E8FF836EADC037F00F0B1F
:1010A000806E37B8808AD89037323738070B846E15
:1010B000189E09A676EF08F0CDEC16F022EC17F09A
:1010C00020C3E8FF0F0BD8A476EF08F021C3E8FF98
:1010D000026476EF08F013EE00F0100E5D6EE69EEF
:1010E000E6505D2E6FEF08F0040E5D6E09BA9CEFBE
:1010F0000EF0D9EC0AF02AC5E8FFE66E89EC15F08F
:10110000172A2BC5E8FFE66E89EC15F0172ACDC427
:10111000E8FFE66E89EC15F0172ACEC4E8FFE66E0C
:1011200089EC15F0172AB5EF0AF00590CCC4E8FF5A
:101130006308D8B079EF0EF0CCC4E8FF7308D8A0EC
:10114000A4EF08F001EF0AF0CBC4E8FF0308D8B41D
:1011500050EF09F0CBC41BF0CCC41CF0020E1D6E86
:10116000AD0E1E6EFCEC0AF0D8A033EF0BF0020EB1
:101170001D6E890E1E6EFCEC0AF0D8B0FDEF08F073
:10118000CCC40AF08A0E0A5E01EEE2F0D8900A346E
:10119000E926D8B0EA2AEACF1BF0E9CF1CF0CDC48B
:1011A000E8FF000FD8A479EF0EF0CEC4E8FFD89086
:1011B0001C26D8B01B2A020E1B64E1EF08F079EF61
:1011C0000EF01B62EAEF08F02A0E1C64EAEF08F04A
:1011D00079EF0EF0CD51136ECEC414F014361350C7
:1011E000000F0008D8A4F7EF09F01450000F000812
:1011F000D8B479EF0EF0F7EF09F0CBC41BF0CCC4F4
:101200001CF0030E1D6E110E1E6EFCEC0AF0D8A031
:1012100033EF0BF0020E1D6EED0E1E6EFCEC0AF0AD
:10122000D8B0A6EF09F0CCC40AF08A0E0A5E04EE2C
:1012300048F0D8900A34E926D8B0EA2AEACF1BF061
:10124000E9CF1CF0CDC4E8FF000FD8A479EF0EF071
:10125000CEC4E8FFD8901C26D8B01B2A040E1B640D
:1012600034EF09F079EF0EF01B623DEF09F0900EBC
:101270001C643DEF09F079EF0EF0CD51136ECEC432
:1012800014F014361350000F0008D8A4F7EF09F03B
:101290001450000F0008D8B479EF0EF0F7EF09F002
:1012A000CCC4E8FFE608D8A4A6EF09F0CDC4E8FF57
:1012B000000FD8A479EF0EF0CEC4E8FF0208D8A43E
:1012C00079EF0EF024EECFF0D7C0E8FFDE5CD8A4B3
:1012D00079EF0EF0D9C0E8FFDE5CD8A479EF0EF00C
:1012E000DE50DE08D8A479EF0EF0DE50AD08D8A4A9
:1012F00079EF0EF0D9EC0AF0CBC4E8FFE66E89EC8A
:1013000015F0172ACCC4E8FFE66E89EC15F0172A11
:10131000CDC4E8FFE66E89EC15F0172ACEC4E8FFCD
:10132000E66E89EC15F0172A1E50E66E172A1D503E
:10133000E66E172A14EEC9F0828AE650B4EC15F076
:10134000172E9DEF09F0829A06EF75F0CBC4E8FFE7
:101350000108D8A479EF0EF0CCC4E8FF7F08D8B01C
:1013600079EF0EF0CCC4E8FF9F08D8A079EF0EF01B
:10137000CCC40AF0800E0A5CE8CFCCF4E8CF0AF0C7
:1013800001EE90F0D8900A34E926D8B0EA2AEACFE4
:101390001BF0E9CF1CF0CDC4E8FF000FD8A479EF13
:1013A0000EF0CEC4E8FFD8901C26D8B01B2A010E40
:1013B0001B64DDEF09F079EF0EF01B62E6EF09F038
:1013C000D00E1C64E6EF09F079EF0EF0CD51136EEC
:1013D000CEC414F014361350000F0008D8A4F8EF50
:1013E00009F01450000F0008D8B479EF0EF0058012
:1013F00024EED0F0DECFEEFF142EFAEF09F04EEF20
:101400000AF0CCC40AF0640E0A5CE8CF0AF003EEDE
:1014100000F013EE24F0D8900A34E926D8B0EA2A76
:10142000D8900A34E126D8B0E22AEACF1BF0E9CFFF
:101430001CF0CDC4E8FF000FD8A479EF0EF0CEC4A5
:10144000E8FFD8901C26D8B01B2A030E1B642BEF94
:101450000AF079EF0EF01B6234EF0AF0200E1C64E4
:1014600034EF0AF079EF0EF0CD51136ECEC414F0C4
:1014700014361350000F0008D8A445EF0AF014509A
:10148000000F0008D8B479EF0EF024EECFF0DFCFD4
:10149000E6FFDECFEEFF142E47EF0AF009BA9CEF0D
:1014A0000EF0D9EC0AF0CBC4E8FFE66E89EC15F03B
:1014B000172ACCC4E8FFE66E89EC15F0172ACDC4D4
:1014C000E8FFE66E89EC15F0172ACEC4E8FFE66E59
:1014D00089EC15F0172AB5EF0AF0189E0988E92A59
:1014E000D7C0E8FFEF5CD8A49CEF0EF0E92AD9C082
:1014F000E8FFEF5CD8A49CEF0EF0188AE92AE92AED
:10150000E92AEE50E8CFDFF0000EE8CFDEF0EE5033
:10151000E8CFE1F0000EE8CFE0F0E3C00AF0EE50D3
:10152000000EE8CFE2F0EF50E8CFE5F009BA9CEF0B
:101530000EF0D9EC0AF00AC0E3F0D7C0E8FFE66E7F
:1015400089EC15F0172AD9C0E8FFE66E89EC15F092
:10155000172AD7C0E8FFE66E89EC15F0172AD9C024
:10156000E8FFE66E89EC15F0172A1E50E66E172A82
:101570001D50E66E172A14EEC9F0828AE650B4ECCC
:1015800015F0172EBEEF0AF0829A05A0CDEF0AF0F3
:10159000F29ED1EC1DF00590F28E18AA9CEF0EF091
:1015A000F29EF29C33EC17F0F28EF28C189A9CEFBC
:1015B0000EF014EEC9F0FF0E1D6E1E6E176AE75096
:1015C00009BAE3C0E8FFE66E89EC15F0172AE65089
:1015D00089EC15F0172A12004C0EB26EE20EB36EB3
:1015E000A192A092310EB16EA1A2F4EF0AF0000E0A
:1015F000B16EA192A09212001B501D5CD8A403EF03
:101600000BF01C501E5C1200CBC41BF0CCC41CF0B1
:10161000000E1D6E120E1E6EFCEC0AF0D8A017EF25
:101620000BF0000E1B6E140E1C6E58EF0CF0CBC4AA
:101630001BF0CCC41CF0000E1D6E730E1E6EFCEC75
:101640000AF0D8A033EF0BF0000E1D6E630E1E6E75
:10165000FCEC0AF0D8B077EF0CF0000E1B6E750EA4
:101660001C6E58EF0CF0CBC41BF0CCC41CF0000E69
:101670001D6E970E1E6EFCEC0AF0D8A04FEF0BF01B
:10168000000E1D6E940E1E6EFCEC0AF0D8B077EFC3
:101690000CF0000E1B6E990E1C6E58EF0CF0CBC4B4
:1016A0001BF0CCC41CF0010E1D6E030E1E6EFCEC74
:1016B0000AF0D8A06BEF0BF0000E1D6EFF0E1E6E31
:1016C000FCEC0AF0D8B077EF0CF0010E1B6E050EA3
:1016D0001C6E58EF0CF0CBC41BF0CCC41CF0010EF8
:1016E0001D6E170E1E6EFCEC0AF0D8A087EF0BF0F3
:1016F000010E1D6E0D0E1E6EFCEC0AF0D8B077EFD9
:101700000CF0010E1B6E190E1C6E58EF0CF0CBC4C2
:101710001BF0CCC41CF0010E1D6E9F0E1E6EFCEC67
:101720000AF0D8A0A3EF0BF0010E1D6E7F0E1E6E07
:10173000FCEC0AF0D8B077EF0CF0010E1B6EA10E96
:101740001C6E58EF0CF0CBC41BF0CCC41CF0010E87
:101750001D6EF30E1E6EFCEC0AF0D8A0BFEF0BF06E
:10176000010E1D6EF10E1E6EFCEC0AF0D8B077EF84
:101770000CF0010E1B6EF50E1C6E58EF0CF0CBC476
:101780001BF0CCC41CF0020E1D6E600E1E6EFCEC35
:101790000AF0D8A0DBEF0BF0020E1D6E570E1E6E86
:1017A000FCEC0AF0D8B077EF0CF0020E1B6E620E64
:1017B0001C6E58EF0CF0CBC41BF0CCC41CF0020E16
:1017C0001D6EAD0E1E6EFCEC0AF0D8A0F7EF0BF00C
:1017D000020E1D6E890E1E6EFCEC0AF0D8B077EF7B
:1017E0000CF0020E1B6EAF0E1C6E58EF0CF0CBC44B
:1017F0001BF0CCC41CF0020E1D6EBB0E1E6EFCEC6A
:101800000AF0D8A012EF0CF0CBC4E8FF0208D8A46D
:1018100077EF0CF0CCC4E8FFBB08D8A477EF0CF04E
:1018200075EF0CF0CBC41BF0CCC41CF0020E1D6E87
:10183000DF0E1E6EFCEC0AF0D8A02EEF0CF0020EAC
:101840001D6EBB0E1E6EFCEC0AF0D8B077EF0CF0EC
:10185000020E1B6EE10E1C6E58EF0CF0CBC41BF099
:10186000CCC41CF0030E1D6E110E1E6EFCEC0AF0B3
:10187000D8A04AEF0CF0020E1D6EED0E1E6EFCECB1
:101880000AF0D8B077EF0CF0030E1B6E130E1C6E2F
:1018900058EF0CF0CBC4E8FF0308D8A477EF0CF0A6
:1018A000CCC4E8FFE708D8A477EF0CF075EF0CF094
:1018B000CAC4E8FF0608D8B475EF0CF0CAC4E8FF44
:1018C0004508D8B475EF0CF0CCC41EF0CBC41DF0A5
:1018D000CEC4E8FF1E26D8B01D2ACDC4E8FF1D26C1
:1018E000FCEC0AF0D8B077EF0CF0D8901200D8805A
:1018F0001200189C189E06900692069A069C09965D
:10190000189605920990099ECCC4E8FFE8CF2BF504
:10191000CBC4E8FFE8CF2AF5000FD8A499EF0CF06C
:10192000CCC4E8FF000FD8A499EF0CF0188E71EF2B
:101930000EF0CCC4E8FFFF08D8B4D4EF0CF0CBC451
:10194000E8FF000FD8A4D4EF0CF0CCC4E8FF2308C4
:10195000D8B054EF0DF0CCC4E8FF9508D8B42DEF03
:101960000EF0CCC4E8FF9608D8B41AEF0EF0CCC441
:10197000E8FF9708D8B424EF0EF0D8A073EF0EF06C
:10198000CCC4E8FF6308D8B073EF0EF0CCC4E8FF16
:101990007308D8A073EF0EF000EF0EF01886000E5B
:1019A000E8CFCBF471EF0EF0CBC4E8FF0208D8B457
:1019B00068EF0DF0CBC4E8FF0308D8B468EF0DF072
:1019C000CBC4E8FF0108D8A4F6EF0CF0CCC40AF0B1
:1019D000F20E0A5CD8A0F6EF0CF05D0EE8CFCCF466
:1019E000000EE8CFCBF40682CEEF0CF0CBC40AF0A9
:1019F000010E0A5CD8A003EF0DF0CCC4E8FF7F080D
:101A0000D8A05CEF0DF00692CCC4E8FF0008D8A483
:101A10000FEF0DF0130EE8CFCCF4CEEF0CF0CCC4EA
:101A2000E8FF0108D8A41AEF0DF0140EE8CFCCF4AB
:101A3000CEEF0CF0CCC4E8FF0208D8A425EF0DF0DF
:101A4000150EE8CFCCF4CFEF0CF0CCC4E8FF0308C0
:101A5000D8A430EF0DF0160EE8CFCCF4CFEF0CF099
:101A6000CCC4E8FF0D08D8B073EF0EF0CCC4E8FF8B
:101A70001708D8A073EF0EF0CAC4E8FF0308D8B463
:101A800049EF0DF0188ACCC4E8FF1108D8A449EF3B
:101A90000DF0CCC4E8FF090FE8CFCCF4000EE8CF7E
:101AA000CBF4189671EF0EF0188CCCC4E8FF0A083E
:101AB000D8B40680CEEF0CF0CCC40AF0800E0A5CDD
:101AC000E8CFCCF4000EE8CFCBF4058251EF0DF057
:101AD000CBC4E8FF0308D8A4BBEF0DF0CCC4E8FFEB
:101AE000E708D8A4BBEF0DF0CAC4E8FF0608D8A4E5
:101AF00089EF0DF0CDC4E8FFDE08D8A489EF0DF022
:101B0000CEC4E8FFAD08D8A489EF0DF0F29EF29C98
:101B1000FF00CAC4E8FF0608D8A4A4EF0DF0CDC4A6
:101B2000E8FFDC08D8A4A4EF0DF0CEC4E8FF1A0843
:101B3000D8A4A4EF0DF0A4C000F0000FD8A473EF58
:101B40000EF0098071EF0EF0CAC4E8FF0608D8A4B1
:101B5000B9EF0DF0CDC4E8FFFE08D8A4B9EF0DF041
:101B6000CEC4E8FFED08D8A4B9EF0DF0098E71EFEF
:101B70000EF073EF0EF0CBC4E8FF0208D8A4D0EF4C
:101B80000DF0CCC4E8FFBB08D8A4D0EF0DF000EEF8
:101B9000A3F0068A069806921896188A71EF0EF03E
:101BA000CBC4E8FF0308D8B436EF0EF0CBC4E8FF8F
:101BB0000208D8A4E2EF0DF0CCC4E8FFBB08D8A01F
:101BC00036EF0EF0CCC4E8FF8908D8A0F4EF0DF092
:101BD000CCC40AF0280E0A5CE8CFCCF4000EE8CFA3
:101BE000CBF40682CEEF0CF0CCC40AF0510E0A5CA6
:101BF000E8CFCCF4000EE8CFCBF4068271EF0EF004
:101C0000CCC40AF0640E0A5CE8CFCCF4CCC40AF071
:101C100003EE00F013EE24F0D8900A34E926D8B091
:101C2000EA2AD8900A34E126D8B0E22A068A068C3D
:101C300071EF0EF0740EE8CFCCF4068A03EE20F0BC
:101C4000188A098671EF0EF0750EE8CFCCF4068A7B
:101C500003EE22F0188671EF0EF0068A098600EE78
:101C6000A7F009B800EEA5F071EF0EF0CBC4E8FFC5
:101C70000308D8B456EF0EF0CCC4E8FFED08D8A0A6
:101C800056EF0EF004EE00F0000EE8CFCBF4CCC41B
:101C90000AF0BC0E0A5CE8CFCCF4D8900A6E0A3683
:101CA000E926D8B0EA2A068ACEEF0CF004EE48F016
:101CB000020EF36ECCC40AF0EE0E0A5E0AC0CCF43B
:101CC000CBC40AF0CBC4E8FFD8A0F33C0A5E0AC03C
:101CD000CBF4CCC40AF0D8900A34E926D8B0EA2A6A
:101CE000068AD8901200D880189C1200010E7AEF54
:101CF0000EF0020EE8CFCBF414EEC9F0FF0E1D6E0D
:101D00001E6E176AE351E66E89EC15F0172ACAC4F5
:101D1000E8FF800FE8CFCAF4E650CAC4E8FF89ECB8
:101D200015F0172AE65089EC15F0172AB5EF0AF0DE
:101D30009CEF0EF052EC07F0176A18941890060EFC
:101D4000196E0F01AB98AB880F01AE500001080E61
:101D5000146E18920696829AA494A3841200060E1A
:101D6000196E1200D890EF50010FEF6ED8A0CEEF91
:101D70000EF0E906D890EF50010FEF6ED8A0CEEF2D
:101D80000EF0E906D890EF50010FEF6ED8A0CEEF1D
:101D90000EF0E906D890EF50010FEF6E12009E9002
:101DA000FF0ECE6EC90ECF6E040005AAE8EF0EF04E
:101DB0003B2EE8EF0EF0030E3B6E0588059A3EC001
:101DC000C0F03E6A05BEE8EF0EF00F019D8A0001EB
:101DD00005AEFBEF0EF03C2EFBEF0EF0030E3C6E5B
:101DE000058C059E3FC0C1F03F6A05BAFBEF0EF0BF
:101DF0000F019D8A0001012E17EF0FF0640E016E96
:101E000037EC1AF002EE2DF0B2EC0EF018A815EF38
:101E10000FF0002E15EF0FF00FEC16F09AEC0EF00D
:101E200018989E9A0F019D8A0001ADEC19F018A038
:101E300025EF0FF019061950000FD8A487EF0FF007
:101E40009CEC0EF09E9A87EF0FF03AA030EF0FF067
:101E5000402E30EF0FF0020E406E3A9001EEB3F0DC
:101E60003AA23BEF0FF0412E3BEF0FF0020E416E16
:101E70003A9201EEB7F03AA446EF0FF0422E46EF49
:101E80000FF0020E426E3A9401EEBBF03AA653EF09
:101E90000FF0432E53EF0FF0020E436E3A9601EE11
:101EA000BFF0B2EC0EF03AA860EF0FF0442E60EFF6
:101EB0000FF0020E446E3A9801EEC3F0B2EC0EF051
:101EC0003AAA6DEF0FF0452E6DEF0FF0020E456E42
:101ED0003A9A01EEC7F0B2EC0EF03AAC7AEF0FF09E
:101EE000462E7AEF0FF0020E466E3A9C01EECBF0D2
:101EF000B2EC0EF03AAE87EF0FF0472E87EF0FF0FF
:101F0000020E476E3A9E01EECFF0B2EC0EF0815019
:101F1000366EDC1D361A36500418396EE1A994EF7E
:101F20000FF033B0C7EF0FF036B0AEEF0FF0E1B700
:101F3000A0EF0FF01FA0C1EF0FF0232EC7EF0FF09F
:101F400021803380049039A0AAEF0FF001EEB3F0A6
:101F5000B2EC0EF0AE811F90C7EF0FF0048021A00D
:101F6000C7EF0FF0E1B7BCEF0FF01FA0C4EF0FF009
:101F7000232EC7EF0FF021903380AE911F90C7EF53
:101F80000FF021B0C7EF0FF0010E236E1F80E1A903
:101F9000CDEF0FF033B200EF10F036B2E7EF0FF0F5
:101FA000E1B7D9EF0FF01FA2FAEF0FF0242E00EFE8
:101FB00010F021823382049239A2E3EF0FF001EE98
:101FC000B7F0B2EC0EF0AE831F9200EF10F0048277
:101FD00021A200EF10F0E1B7F5EF0FF01FA2FDEF27
:101FE0000FF0242E00EF10F021923382AE931F9257
:101FF00000EF10F021B200EF10F0010E246E1F82EE
:10200000E1A906EF10F033B439EF10F036B420EF49
:1020100010F0E1B712EF10F01FA433EF10F0252EEF
:1020200039EF10F021843384049439A41CEF10F0AC
:1020300001EEBBF0B2EC0EF0AE851F9439EF10F05C
:10204000048421A439EF10F0E1B72EEF10F01FA4A3
:1020500036EF10F0252E39EF10F021943384AE9531
:102060001F9439EF10F021B439EF10F0010E256EF6
:102070001F84E1A93FEF10F033B672EF10F036B6CF
:1020800059EF10F0E1B74BEF10F01FA66CEF10F016
:10209000262E72EF10F021863386049639A655EF6E
:1020A00010F001EEBFF0B2EC0EF0AE871F9672EFAB
:1020B00010F0048621A672EF10F0E1B767EF10F080
:1020C0001FA66FEF10F0262E72EF10F021963386C8
:1020D000AE971F9672EF10F021B672EF10F0010E5E
:1020E000266E1F86E1A978EF10F033B8ABEF10F041
:1020F00036B892EF10F0E1B784EF10F01FA8A5EF0B
:1021000010F0272EABEF10F021883388049839A8FF
:102110008EEF10F001EEC3F0B2EC0EF0AE891F9816
:10212000ABEF10F0048821A8ABEF10F0E1B7A0EFFF
:1021300010F01FA8A8EF10F0272EABEF10F0219899
:102140003388AE991F98ABEF10F021B8ABEF10F0C9
:10215000010E276E1F88E1A9B1EF10F033BAE4EF4A
:1021600010F036BACBEF10F0E1B7BDEF10F01FAAB8
:10217000DEEF10F0282EE4EF10F0218A338A049A63
:1021800039AAC7EF10F001EEC7F0B2EC0EF0AE8B3B
:102190001F9AE4EF10F0048A21AAE4EF10F0E1B7EF
:1021A000D9EF10F01FAAE1EF10F0282EE4EF10F0A5
:1021B000219A338AAE9B1F9AE4EF10F021BAE4EF24
:1021C00010F0010E286E1F8AE1A9EAEF10F033BC6F
:1021D0001DEF11F036BC04EF11F0E1B7F6EF10F08F
:1021E0001FAC17EF11F0292E1DEF11F0218C338C4D
:1021F000049C39AC00EF11F001EECBF0B2EC0EF024
:10220000AE8D1F9C1DEF11F0048C21AC1DEF11F061
:10221000E1B712EF11F01FAC1AEF11F0292E1DEFEC
:1022200011F0219C338CAE9D1F9C1DEF11F021BC41
:102230001DEF11F0010E296E1F8CE1A923EF11F0A3
:1022400033BE56EF11F036BE3DEF11F0E1B72FEF80
:1022500011F01FAE50EF11F02A2E56EF11F0218E23
:10226000338E049E39AE39EF11F001EECFF0B2ECAF
:102270000EF0AE8F1F9E56EF11F0048E21AE56EF7A
:1022800011F0E1B74BEF11F01FAE53EF11F02A2E12
:1022900056EF11F0219E338EAE9F1F9E56EF11F028
:1022A00021BE56EF11F0010E2A6E1F8E80500F0BCB
:1022B000366E80BA368884B0368A84B2368C84B45E
:1022C000368EDD1D361A36500318396EE5B19BEF98
:1022D00011F0E4A19BEF11F0E1A972EF11F034B01D
:1022E000A5EF11F036B08CEF11F0E1B77EEF11F0F1
:1022F00020A09FEF11F02B2EA5EF11F0228034804B
:10230000039039A088EF11F001EE93F0B2EC0EF0DB
:10231000AF812090A5EF11F0038022A0A5EF11F06E
:10232000E1B79AEF11F020A0A2EF11F02B2EA5EF4C
:1023300011F022903480AF912090A5EF11F022B0DF
:10234000A5EF11F0010E2B6E2080E5B3DAEF11F04E
:10235000E4A3DAEF11F0E1A9B1EF11F034B2E4EF48
:1023600011F036B2CBEF11F0E1B7BDEF11F020A2C2
:10237000DEEF11F02C2EE4EF11F022823482039272
:1023800039A2C7EF11F001EE97F0B2EC0EF0AF8377
:102390002092E4EF11F0038222A2E4EF11F0E1B702
:1023A000D9EF11F020A2E1EF11F02C2EE4EF11F0A3
:1023B00022923482AF932092E4EF11F022B2E4EF44
:1023C00011F0010E2C6E2082E5B519EF12F0E4A594
:1023D00019EF12F0E1A9F0EF11F034B423EF12F08D
:1023E00036B40AEF12F0E1B7FCEF11F020A41DEFB4
:1023F00012F02D2E23EF12F022843484039439A49A
:1024000006EF12F001EE9BF0B2EC0EF0AF852094D7
:1024100023EF12F0038422A423EF12F0E1B718EFA8
:1024200012F020A420EF12F02D2E23EF12F02294B0
:102430003484AF95209423EF12F022B423EF12F0EE
:10244000010E2D6E2084E5B758EF12F0E4A758EF87
:1024500012F0E1A92FEF12F034B662EF12F036B6A7
:1024600049EF12F0E1B73BEF12F020A65CEF12F05B
:102470002E2E62EF12F022863486039639A645EF9F
:1024800012F001EE9FF0B2EC0EF0AF87209662EFF3
:1024900012F0038622A662EF12F0E1B757EF12F0B6
:1024A00020A65FEF12F02E2E62EF12F022963486F5
:1024B000AF97209662EF12F022B662EF12F0010E93
:1024C0002E6E2086E5B997EF12F0E4A997EF12F08F
:1024D000E1A96EEF12F034B8A1EF12F036B888EF30
:1024E00012F0E1B77AEF12F020A89BEF12F02F2E36
:1024F000A1EF12F022883488039839A884EF12F0F3
:1025000001EEA3F0B2EC0EF0AF892098A1EF12F02B
:10251000038822A8A1EF12F0E1B796EF12F020A8ED
:102520009EEF12F02F2EA1EF12F022983488AF996F
:102530002098A1EF12F022B8A1EF12F0010E2F6E39
:102540002088E5BBD6EF12F0E4ABD6EF12F0E1A99C
:10255000ADEF12F034BAE0EF12F036BAC7EF12F076
:10256000E1B7B9EF12F020AADAEF12F0302EE0EF67
:1025700012F0228A348A039A39AAC3EF12F001EECC
:10258000A7F0B2EC0EF0AF8B209AE0EF12F0038AC6
:1025900022AAE0EF12F0E1B7D5EF12F020AADDEFAA
:1025A00012F0302EE0EF12F0229A348AAF9B209A7C
:1025B000E0EF12F022BAE0EF12F0010E306E208A46
:1025C000E5BD15EF13F0E4AD15EF13F0E1A9ECEF65
:1025D00012F034BC1FEF13F036BC06EF13F0E1B776
:1025E000F8EF12F020AC19EF13F0312E1FEF13F0BB
:1025F000228C348C039C39AC02EF13F001EEABF06B
:10260000B2EC0EF0AF8D209C1FEF13F0038C22ACC8
:102610001FEF13F0E1B714EF13F020AC1CEF13F031
:10262000312E1FEF13F0229C348CAF9D209C1FEFA6
:1026300013F022BC1FEF13F0010E316E208CE5BFAA
:1026400054EF13F0E4AF54EF13F0E1A92BEF13F0C4
:1026500034BE5EEF13F036BE45EF13F0E1B737EF4F
:1026600013F020AE58EF13F0322E5EEF13F0228EEF
:10267000348E039E39AE41EF13F001EEAFF0B2ECB1
:102680000EF0AF8F209E5EEF13F0038E22AE5EEF52
:1026900013F0E1B753EF13F020AE5BEF13F0322EDF
:1026A0005EEF13F0229E348EAF9F209E5EEF13F0FC
:1026B00022BE5EEF13F0010E326E208E1DEF00F091
:1026C00060EC1CF04BEC1CF00F01210E9D6E000124
:1026D0008150F286100E9E6E0F01FF0E5A6F0001A0
:1026E0000400040E0F01506F0F01A3840001040EBB
:1026F000A56E9F6AA26AB86A786AF16AF18ED08E76
:10270000F294F28CF28E9D9C9E9806A6E9EF13F04F
:1027100006A490EF13F048EC1AF00694010E5C6EDC
:102720002AEC07F09CEC0EF0069609B09DEF13F032
:1027300009BED1EF13F0E5EF13F0F29EF29CD09EAC
:10274000099011EED0F0090E4F6E100EE66E000EDD
:10275000E66E4F2EA5EF13F011EEE2F0480E4F6E2D
:10276000000EE66E4F2EB0EF13F014EE00F0240EC4
:102770004F6E100EE66E000EE66E4F2EB9EF13F0A0
:1027800014EE48F0480E4F6E000EE66E4F2EC4EF6A
:1027900013F0F6EC1CF00400D08EF28CF28EE5EF14
:1027A00013F0E8C0E8FF000FD8A4DDEF13F0E9C094
:1027B000E8FF000FD8B4E5EF13F005848296E6C079
:1027C000E8FF0D6EE7C0E8FF0E6E9E9A0F019D8A2E
:1027D00000010F019D8A000100EEB0F0086AE5B12A
:1027E000F5EF13F0E4A1FCEF13F0000EE8CFB0F02A
:1027F000E8CFB1F002EF14F004000F01010EC26E39
:10280000A3EC14F0082A00EEB2F0E5B30BEF14F0DD
:10281000E4A312EF14F0000EE8CFB2F0E8CFB3F06B
:1028200018EF14F004000F01050EC26EA3EC14F0B3
:10283000082A00EEB4F0E5B521EF14F0E4A528EF86
:1028400014F0000EE8CFB4F0E8CFB5F02EEF14F09E
:1028500004000F01090EC26EA3EC14F0082A00EE6A
:10286000B6F0E5B737EF14F0E4A73EEF14F0000E32
:10287000E8CFB6F0E8CFB7F044EF14F004000F0152
:102880000D0EC26EA3EC14F0082A00EEB8F0E5B904
:102890004DEF14F0E4A954EF14F0000EE8CFB8F0B7
:1028A000E8CFB9F05AEF14F004000F01110EC26E18
:1028B000A3EC14F0082A00EEBAF0E5BB63EF14F0C5
:1028C000E4AB6AEF14F0000EE8CFBAF0E8CFBBF04B
:1028D00070EF14F004000F01150EC26EA3EC14F09B
:1028E000082A00EEBCF0E5BD79EF14F0E4AD80EF0E
:1028F00014F0000EE8CFBCF0E8CFBDF086EF14F086
:1029000004000F01190EC26EA3EC14F0082A00EEA9
:10291000BEF0E5BF8FEF14F0E4AF96EF14F0000EB9
:10292000E8CFBEF0E8CFBFF09CEF14F004000F0139
:102930001D0EC26EA3EC14F083EF13F0070EE12618
:10294000D8B0E22A1200000114EE91F00850070DF1
:10295000F350D890E126D8B0E22AE750000FD8B45F
:10296000FEEF14F0FF0E076E072EB4EF14F0FF0E0B
:10297000076E072EB9EF14F0FF0E076E072EBEEF9D
:1029800014F0FF0E076E072EC3EF14F00F01C28282
:10299000C2B2C8EF14F00F010F0EC464D4EF14F0EC
:1029A0000001E650E6501200E6060F01C350000198
:1029B000E626D8B0E72A0F01C4500001E6264DEC08
:1029C00015F009A2EEEF14F0E550E5500F01C450E8
:1029D0000001E66E0F01C3500001E66E41EC15F0F8
:1029E00009A0FDEF14F0E550E5500F01C4500001BF
:1029F000E66E0F01C3500001E66E1200E650E1CF13
:102A0000D9FFE2CFDAFF6CEC15F0D9CFE1FFDACFD6
:102A1000E2FF51C0E6FF50C0E6FFD9CFE1FFDACFB9
:102A2000E2FF76EC15F0D9CFE1FFDACFE2FF50C03C
:102A3000E6FF51C0E6FF030E4D6ED9CFE1FFDACFBE
:102A4000E2FFD890E632E6324D2E1DEF15F0D9CFD9
:102A5000E1FFDACFE2FFE6CFEEFFE6CFEEFFD9CF20
:102A6000E1FFDACFE2FFE5500A0EE66EE66AE66ABB
:102A7000100EE66E000EE66E000EE66E000EE66EBE
:102A8000120000000F01C4500001E65C4D6E0F0102
:102A9000C3500001E65C57EF15F000000F01C45071
:102AA0000001E65C4D6E0F01C3500001E65CD8A04A
:102AB0004D064D10D8B468EF15F04DBE64EF15F01B
:102AC0000982099009941200099209800994120060
:102AD0000992099009841200E6CF51F0E6CF50F038
:102AE000E6CF52F0E6CF53F080EF15F0E6CF51F08D
:102AF000E6CF50F0E650E650E6CF52F0E6CF53F086
:102B000053C0E8FF515E52C0E8FFD8A0523C505E6F
:102B100012001A6E1C6E080E1B6E1C501C321C50CC
:102B200002E399EF15F01EA09BEF15F0D8809BEF04
:102B300015F01EB0D89002E2ACEF15F01DBCA4EF6A
:102B400015F01D8CA5EF15F01D9C1EB2ABEF15F016
:102B50001E82ACEF15F01E921D321E321C501B2E31
:102B60008EEF15F01A501200166E136EE1BFCBEF08
:102B700015F0080E146E156AD8901332D8B0152AC5
:102B8000142EBDEF15F0D89015B0D8800F01AC9081
:102B9000D8B0AC8000019EA8CBEF15F016500F0105
:102BA000AD6E0F01ACA2D2EF15F00001165012006D
:102BB000E1C0E8FF070BE8CFE0F0470E0F01AF6E72
:102BC0000001E0C0E8FF0108D8B41DEF16F0230EA5
:102BD0000F01AF6E0001E0C0E8FF0208D8B41DEF9E
:102BE00016F0110E0F01AF6E0001E0C0E8FF030800
:102BF000D8B41DEF16F00B0E0F01AF6E0001E0C050
:102C0000E8FF0408D8B41DEF16F0050E0F01AF6EF3
:102C10000001E0C0E8FF0508D8B41DEF16F0230E50
:102C20000F01AF6E0001E1C0E8FF780BE8CFE0F0E4
:102C30000A0E070BE025E8CFE1F0000EE8CFE0F048
:102C4000630EE1BF220E0F01AC6E0001D00EE1BF9A
:102C5000900E0F01AB6E00011200000E0F01746E9A
:102C6000756AF7EC17F0E8CFE3F0000EE8CFE2F07A
:102C7000F7EC17F0E8CFD7F0000EE8CFD6F0F7EC7E
:102C800017F0E8CFD9F0000EE8CFD8F0F7EC17F046
:102C9000E8CFDFF0E8CFADF0F7EC17F0E8CFDEF0EB
:102CA000E8CFACF0836EF7EC17F0E8CFE1F0E06B23
:102CB000F7EC17F0E8CFE5F0F7EC17F0E8CFE4F029
:102CC000F7EC17F0E8CFD3F0000EE8CFD2F0F7EC36
:102CD00017F0E8CFD4F0F7EC17F0E8CFD5F0F7EC29
:102CE00017F0E8CFE6F00D6EF7EC17F0E8CFE7F05D
:102CF0000E6EF7EC17F0E8CFE8F00B6EF7EC17F07C
:102D0000E8CFE9F00C6EF7EC17F0E8CFEAF0116EBF
:102D1000F7EC17F0E8CFEBF0126EF7EC17F0E8CF16
:102D2000ECF00F6EF7EC17F0E8CFEDF0106EF7EC6B
:102D300017F0E8CFDCF0F7EC17F0E8CFDDF0F7ECB8
:102D400017F0300BE8CFDBF00F01C16E0001F7EC9C
:102D500017F0E8CFDAF0F28AF7EC17F0E8CF20F3BB
:102D6000F7EC17F0E8CF21F3F7EC17F0E8CF22F3F8
:102D7000F7EC17F0E8CF23F31B0E0F01746E756AA2
:102D8000F7EC17F0E8CFA3F0F7EC17F0E8CFA4F0DA
:102D9000CDEC16F0B6EF17F0120020C3AAF021C355
:102DA000ABF0A96BD890AB37AA37A937AB37AA37A6
:102DB000A937A951000FD8A4EBEF16F0AA51000FC4
:102DC000D8A4EBEF16F0AB51000FD8A4EBEF16F040
:102DD000D58E05EF17F0D58EA9C047F3AAC048F3EA
:102DE000ABC049F3A9C044F3AAC045F3ABC046F356
:102DF00020C34AF321C34BF34AC34CF34BC34DF3F7
:102E0000000EE8CF68F0040E5D6EA76BA86B120091
:102E100003EE00F013EE24F0100EE8CF5DF0EFBEED
:102E200018EF17F0EE50E650EE50E6501CEF17F09A
:102E3000EECFE6FFEECFE6FF5D2E0FEF17F0040EAC
:102E40005D6E1200000EE8CF44F3E8CF45F3E8CF03
:102E500046F3D60ED66E03EE23F0000EEF6EED5065
:102E6000000EEF6E1200000E0F01746E756AE3C063
:102E7000E8FFE7EC17F0742A742ADFC0E8FFE7ECFC
:102E800017F0DEC0E8FFE7EC17F0D8EC15F0E1C072
:102E9000E8FFE7EC17F0E5C0E8FFE7EC17F0E4C067
:102EA000E8FFE7EC17F00B0E0F01746E756AE6C0D1
:102EB000E8FF0D6EE7EC17F0E7C0E8FF0E6EE7ECF9
:102EC00017F0E8C0E8FF0B6EE7EC17F0E9C0E8FF89
:102ED0000C6EE7EC17F00F0E746E756AEAC0E8FF2F
:102EE000116EE7EC17F0EBC0E8FF126EE7EC17F09D
:102EF000ECC0E8FF0F6EE7EC17F0EDC0E8FF106ED6
:102F0000E7EC17F0DCC0E8FFE7EC17F0DDC0E8FF06
:102F1000E7EC17F0DBC0E8FF300BE7EC17F0DBC0A5
:102F2000E8FF300B0F01C16E0001DAC0E8FFE7ECEB
:102F300017F0F28A20C3E8FFE7EC17F021C3E8FF9F
:102F4000E7EC17F022C3E8FFE7EC17F023C3E8FF34
:102F5000E7EC17F01B0E0F01746E756AA3C0E8FF53
:102F6000E7EC17F0A4C0E8FFE7EC17F0E5515D17B8
:102F7000E51D356E358E358C358AE5B9359A35883F
:102F800035500F01926E0001E539356E351C356EF6
:102F90003530070B0F01966E0001E41D376EE51DFD
:102FA00037140F015D6F5C6B0001E4510001AF1736
:102FB0000001ADC0E8FFE415376E0F0B806E37B827
:102FC000808AD89037323738070B846E1200736EC0
:102FD0007F9E7F84550E7E6EAA0E7E6E7F827FB2AC
:102FE000EFEF17F07F94742A73CFE8FF12007F9EF3
:102FF0007F8073CFE8FF742A1200546A556A566ABC
:10300000576A586A596A5A6A5B6A516A526A4F6AC1
:103010004C6A1200536A52A011EF18F0526A79EF0D
:1030200018F07AEC18F004004D6A4D2A506AF00E40
:10303000486E86EC18F0CFEC18F04E6ED8904E36F5
:10304000CFEC18F04E124E50000FD8B434EF18F0F9
:103050004E500108D8B45EEF18F04E500208D8B4B4
:1030600060EF18F076EF18F04D505118D8A43FEFEC
:1030700018F0020E4E6EEBEC18F063EF18F05150A2
:103080004D5CD8A04CEF18F0010E4E6EEBEC18F032
:103090004D50506E63EF18F05CEC19F0496E4950DA
:1030A000000FD8B458EF18F0020E4E6E63EF18F010
:1030B000010E4E6E4D50506E63EF18F060EF18F039
:1030C000EBEC18F004000400D8904E3095EC18F0AA
:1030D0004D2A4D504108D8A41BEF18F05050516EA6
:1030E000D8B4522A010E536E79EF18F0516A79EF75
:1030F00018F0120082923EEC1CF03EEC1CF0828232
:103100003EEC1CF03EEC1CF01200486E080E496EBE
:103110004A6A4A90D8904832D8B04A804A5095ECD2
:1031200018F0492E88EF18F0120009BC9AEF18F039
:10313000F29EF29C4A6E8292B6EC18F04AB0A4EF6E
:1031400018F08292ABEF18F0B6EC18F0B6EC18F06D
:10315000B6EC18F08282280E3FEC1CF08282B6ECAE
:1031600018F009BC1200F28CF28E12000000000070
:10317000000000000000000000000000000000004F
:103180001200080E496ECFEC18F04A6ED8904AB083
:10319000D8804832492EC3EF18F04850120009BCBD
:1031A000D4EF18F0F29EF29C8292B6EC18F0828274
:1031B00094824A6A070E3FEC1CF082B24A801F0ECE
:1031C0003FEC1CF094924A50B6EC18F009BC120087
:1031D000F28CF28E12009BEC19F04E30010BD8B439
:1031E00027EF19F04B500008D8B417EF19F04B50E7
:1031F0000108D8B419EF19F04B500208D8B41BEFEE
:1032000019F04B500308D8B41DEF19F04B500408C7
:10321000D8B41FEF19F04B500508D8B421EF19F0BE
:103220004B500608D8B423EF19F025EF19F0EF8EB4
:103230001200EF8C1200EF8A1200EF881200EF8666
:103240001200EF841200EF821200EF8012004B5048
:103250000008D8B44CEF19F04B500108D8B44EEF29
:1032600019F04B500208D8B450EF19F04B50030836
:10327000D8B452EF19F04B500408D8B454EF19F0F9
:103280004B500508D8B456EF19F04B500608D8B487
:1032900058EF19F05AEF19F0EF9E1200EF9C120050
:1032A000EF9A1200EF981200EF961200EF941200BE
:1032B000EF921200EF9012009BEC19F04B500008B7
:1032C000D8B483EF19F04B500108D8B487EF19F048
:1032D0004B500208D8B489EF19F04B500308D8B40A
:1032E0008CEF19F04B500408D8B48FEF19F04B5005
:1032F0000508D8B492EF19F04B500608D8B495EFF2
:1033000019F098EF19F0EFAE000C010CEFAC000CC7
:10331000010CEFAA000C010CEFA8000C010CEFA6A9
:10332000000C010CEFA4000C010CEFA2000C010C2E
:10333000EFA0000C010C4D043F084A6E070B4B6ECA
:10334000D8904A32D8904A32D8904A3200EE54F09F
:103350004A50E926D8B0EA2A120005B4E0EF19F085
:103360000D50000FD8A4BCEF19F00E50000FD8A4D8
:10337000BCEF19F0D8EF19F00E2EF4EF19F00D5044
:10338000000FD8B4C8EF19F00D060E06F4EF19F0CF
:10339000E8C0E8FF0B6E000FD8A4D6EF19F0E9C023
:1033A000E8FF0C6E000FD8B4D8EF19F005848296B0
:1033B000E6C0E8FF0D6EE7C0E8FF0E6EF4EF19F00F
:1033C0000C2EF4EF19F00B50000FD8B4ECEF19F0FD
:1033D0000B060C06F4EF19F082860594E8C0E8FFAE
:1033E0000B6EE9C0E8FF0C6E05B624EF1AF0115021
:1033F000000FD8A403EF1AF01250000FD8A403EF67
:103400001AF01DEF1AF0122E12001150000FD8B44E
:103410000DEF1AF0110612061200ECC0E8FF0F6E55
:10342000000FD8A41BEF1AF0EDC0E8FF106E000FDC
:10343000D8B41DEF1AF005868298EAC0E8FF116E35
:10344000EBC0E8FF126E1200102E12000F50000F9A
:10345000D8B42EEF1AF00F061006120082880596D7
:10346000ECC0E8FF0F6EEDC0E8FF106E12005C2E9E
:10347000ABEF1AF0010E5C6E4F50000FD8A445EF71
:103480001AF04C50D8B4ABEF1AF00684ABEF1AF038
:103490008280100E4E60D2EF1AF07AEC18F00DEC2C
:1034A0001CF0BE0E85EC18F04E04546E01EED0F008
:1034B000D8905434D890E926D8B0EA2A10EEEEF02D
:1034C0005450E126D8B0E22AC1EC18F05B6EC1EC92
:1034D00018F0546EACEC1AF0D8A082EF1AF0E7B0F6
:1034E00079EF1AF0030EE76E35EC1CF08290ABEF2B
:1034F0001AF0E7B287EF1AF0E76A100EEE6EEE6A86
:1035000096EF1AF0D8A48CEF1AF06FEF1AF0D8A447
:103510008CEF1AF07CEF1AF0E76A54500708D8A035
:1035200096EF1AF05450EE6E5BC0EEFF35EC1CF0D7
:1035300082904E064E50000FD8A4ABEF1AF04C50BC
:10354000D8B4A8EF1AF04C38040F4E6EABEF1AF057
:103550004F500F0B4E6E120054500508D8A4BCEF0C
:103560001AF05B505008D8A4B9EF1AF0D894D8805C
:103570001200D890D89412005450FF08D8A4B9EF84
:103580001AF0D884B7EF1AF05450FF08D8A4D0EF3F
:103590001AF05B50FF08D8A4D0EF1AF0D8841200BC
:1035A000D89412004E500F0BD8B4ECEF1BF001086A
:1035B000D8B4B1EF1BF04E500F0B0208D8B460EF37
:1035C0001BF04E500F0B0308D8B4F5EF1AF07AEC4D
:1035D00018F00DEC1CF0440E85EC18F082904E06AD
:1035E000FF0ECE6EC90ECF6E12007AEC18F00DEC05
:1035F0001CF0B80E85EC18F0000E85EC18F07AEC93
:1036000018F00DEC1CF0BE0E85EC18F0000E85ECE9
:1036100018F04E380F0B546E540604EE00F0D8909C
:10362000543654365434D890E926D8B0EA2A4E504D
:103630000F0B546ED8905434D890E926D8B0EA2AAB
:1036400010EEF7F04E380F0B546E5404E126D8B04C
:10365000E22AC1EC18F0C1EC18F05B6EC1EC18F076
:10366000546EC4EC1AF0D8A444EF1BF0E7B03DEF61
:103670001BF0010EE76E49EF1BF0E76A100EEE6ECD
:10368000000EEE6E49EF1BF0E76A54C0EEFF5BC020
:10369000EEFF7AEC18F00DEC1CF04E0E85EC18F0F5
:1036A000000E85EC18F0090E85EC18F07AEC18F095
:1036B0000DEC1CF0B40E85EC18F082904E06120052
:1036C0007AEC18F00DEC1CF0B80E85EC18F0000E3A
:1036D00085EC18F07AEC18F00DEC1CF0BE0E85ECC1
:1036E00018F0000E85EC18F04E380F0B546E54068F
:1036F00004EE00F0D890543654365434D890E9266D
:10370000D8B0EA2A4E040F0B010F546ED8905434EF
:10371000D890E926D8B0EA2AC1EC18F0C1EC18F02C
:10372000C1EC18F0C1EC18F05B6EC1EC18F0EE6E55
:103730005BC0EEFF7AEC18F00DEC1CF04E0E85EC41
:1037400018F0000E85EC18F0010E85EC18F07AECFC
:1037500018F00DEC1CF0B40E85EC18F082904E06BB
:1037600012007AEC18F00DEC1CF0B80E85EC18F095
:10377000000E85EC18F07AEC18F00DEC1CF0BE0E83
:1037800085EC18F0000E85EC18F04E380F0B546ED7
:10379000540604EE00F0D890543654365434D89081
:1037A000E926D8B0EA2AC1EC18F0C1EC18F0C1EC57
:1037B00018F0C1EC18F05B6EC1EC18F0EE6E5BC057
:1037C000EEFFC1EC18F05B6EC1EC18F0EE6E5BC062
:1037D000EEFF82904E0612004E380F0B546E5404CA
:1037E000000FD8B4FCEF1BF0100E4E5E4E50F00BE5
:1037F000040F4E6E829012004F500F0B000FD8A492
:1038000008EF1CF04C38F00B040F4E6E8290120043
:103810004E6E35EC1CF082901200550E85EC18F0BF
:10382000100E4E641CEF1CF004EE48F04E380F0BE7
:10383000546E540620EF1CF04E04546E01EEE2F07C
:103840005450080DF350D890E926D8B0EA2A070E54
:10385000D890E926D8B0EA2A080E576EED5085ECCC
:1038600018F0572E2EEF1CF012007AEC18F0CC0E48
:1038700085EC18F0440E85EC18F01200FF0ECB6EAC
:10388000020ECA6ECC6A9E92CA849EA245EF1CF0BC
:10389000CA949E92120004EE91F0080E086E0A0E71
:1038A000EE6EEE6AEE6A100EEE6E000EEE6E000E1A
:1038B000EE6E000EEE6E082E4FEF1CF0086A12003E
:1038C000F26AD16A0400F18E450ED56ED60ED66E20
:1038D0000F01000E5F6F5E6FB56A0F01300EC16E93
:1038E0000F01BE0EC06E0F01010EC26E0F01000E61
:1038F0005B6F0F01000E806E0F01FF0E936E0F01C4
:10390000FF0E816E0F01C40E946E0F01CF0E826EFA
:103910000F01000E956E0F01000E836E080E846E6F
:1039200004007BEC1DF00F017F6A00012DEC16F006
:10393000D8EC15F09AEC0EF0FF0ECE6EC90ECF6EDD
:10394000310ECD6E010ECA6EFF0ECB6E9D92CC6A0B
:103950009E920A0E5C6EFF0E016E3EEC1CF0012E74
:10396000ADEF1CF05C2EABEF1CF00F01210E9D6E35
:1039700000018150100E9E6E0F01FF0E5A6F000164
:10398000F29C99828150216E811C8150AE6F000E95
:10399000336E030E3B6E3C6E3E6A3F6A640E016EF0
:1039A000FF0E026E036E046E010E5C6E040E5D6E01
:1039B00011EED0F0090E4F6E100EE66E000EE66EA0
:1039C0004F2EDCEF1CF014EE00F0240E4F6E100EA4
:1039D000E66E000EE66E4F2EE7EF1CF0A4C0E8FF87
:1039E0000108D8A4F6EF1CF086EF1DF00400FDECF2
:1039F00017F0069E06944F6A4C6A4E6A0400098CC2
:103A00000AEC18F0040053A061EF1DF0069210EECE
:103A10005BF0E750000FD8B461EF1DF0E7502808C5
:103A2000D8A4068206B21AEF1DF006B451EF1DF0BD
:103A30001DEF1DF006BE51EF1DF001EEE2F006B2E3
:103A400004EE48F010EE54F0D89006A22BEF1DF0D3
:103A50004C342CEF1DF04F341E6E1E361E34D890A1
:103A6000E926D8B0EA2A10EE54F0080E146EE6CF1C
:103A7000EEFF142E37EF1DF006A248EF1DF04C2A82
:103A8000090E4C5CD8A400EF1DF0068E00EF1DF06F
:103A90004F2A090E4F5CD8A400EF1DF0068400EFFA
:103AA0001DF006A400EF1DF006AE00EF1DF035EC92
:103AB0001CF082904F500F0B4E6E640E016E72EF31
:103AC0001DF04F50000FD8A457EF1DF04C50000FC1
:103AD000D8B472EF1DF082904C38F00B040F4E6E8C
:103AE000640E016E0400D1EC1DF00400096A099C0B
:103AF0009AEC0EF0120000EE00F0EE6AEA500F08A9
:103B0000D8A47DEF1DF0696B6A6B1200098C480E1A
:103B1000146E01EEE2F01D0E0F01746E756AF7EC83
:103B200017F0E8CFEEFF142E8FEF1DF0F7EC17F033
:103B3000E8CF4FF0480E146E04EE48F0660E0F0109
:103B4000746E756AF7EC17F0E8CFEEFF142EA2EF53
:103B50001DF0F7EC17F0E8CF4CF0B9EF1DF035ECA5
:103B60001CF082904F500F0B4E6E640E016ECCEF26
:103B70001DF07AEC18F04F50000FD8A4AFEF1DF0F5
:103B80004C50000FD8B4CCEF1DF082904C38F00BA5
:103B9000040F4E6E640E016E0400069E069476EFCE
:103BA0001DF0480E146E01EEE2F01D0E0F01746E52
:103BB000756AEECFE8FFE7EC17F0142ED9EF1DF091
:103BC0004FC0E8FFE7EC17F0480E146E04EE48F023
:103BD000660E0F01746E756AEECFE8FFE7EC17F022
:103BE000142EECEF1DF04CC0E8FFE7EC17F01200CC
:0EEA000007EF75F00000000000EF78F0FF0057
:10F000005E6ED8385F6EE9CF61F0EACF60F0000144
:10F010009EB017EC78F09EBA2CEC78F061C0E9FF56
:10F0200060C0EAFF5F38D86E5E3A5E3810009E908E
:10F03000FF0ECE6EC90ECF6E0400012E22EF78F0C7
:10F04000640E016E18A02BEF78F0192E2BEF78F0DC
:10F050009CEC78F09E9A120004009E9A0F01AB502F
:10F060000001060BD8A49AEF78F017506208D8A0D8
:10F070009AEF78F018800F01AE500001166E04EE82
:10F08000C9F01750D890E926D8B0EA2A1650EF6E8A
:10F09000172A17500108D8B4F2EF06F017500208EB
:10F0A000D8A465EF78F016504508D8A4E9EF06F02B
:10F0B0000C0E146EACEF78F016501008D8A465EF63
:10F0C00078F0070E146EACEF78F01750145CD8A4EB
:10F0D000ACEF78F0CAC4E8FF1008D8A47AEF78F053
:10F0E00018B27AEF78F0CFC4E8FF020F1426188226
:10F0F000ACEF78F0FF0E1D6E1E6E14061404176E32
:10F1000004EEC9F0EF50AFEC78F0E92A172E82EF49
:10F1100078F01E50EF5CD8A49AEF78F0E92A1D50E1
:10F12000EF5CD8A49AEF78F0068618900F019D9AAC
:10F13000000112009CEF78F0176A18941890060EE0
:10F14000196E0F01AB98AB880F01AE500001080E8D
:10F15000146E189206961200060E196E12001A6EA0
:10F160001C6E080E1B6E1C501C321C5002E3BFEFBD
:10F1700078F01EA0C1EF78F0D880C1EF78F01EB013
:10F18000D89002E2D2EF78F01DBCCAEF78F01D8C67
:10F19000CBEF78F01D9C1EB2D1EF78F01E82D2EF3B
:10F1A00078F01E921D321E321C501B2EB4EF78F0E8
:04F1B0001A501200DF
:020000040030CA
:0100000015EA
:0100010013EB
:0100020006F7
:0100030023D9
:0100050009F1
:010006009069
:0100080000F7
:0200000400F00A
:1000000001000000000200FFF102330000000000C8
:1000100000000000003000000000000000000000B0
:1000200000000000000000000000000000000000D0
:1000300000000000000000000000000000000000C0
:1000400000000000000000000000000000000000B0
:1000500000000000000000000000000000000000A0
:100060000000000000000000000000000000000090
:100070000000000000000000000000000000000080
:100080000000000000000000000000000000000070
:100090000000000000000000000000000000000060
:0F00A00000000000000000000000000000000051
:00000001FF
