:020000040000FA
:02000000F52EDB
:08000800FD00030EFE000408D8
:10001000FF008313831203130B1819200C18B82B3D
:100020008C1AE4207F0884007E0E8300FD0E7D0E76
:1000300009000608DD002206D90059182C28D91815
:10004000362859194028D9194A28591A5428D91A32
:100050006028591B6C2878285D1C302822148328BE
:1000600022105A1C342883285A148328DD1C3A286D
:10007000A2148328A210DA1C3E288328DA148328CD
:100080005D1D44282215832822115A1D48288328E3
:100090005A158328DD1D4E28A2158328A211DA1DCA
:1000A00052288328DA158328D41AAD285D1E5A28D1
:1000B0002216832822125A1E5E2883285A16832865
:1000C000D41AA128DD1E6628A2168328A212DA1EE1
:1000D0006A288328DA168328541B95285D1F722806
:1000E0002217832822135A1F762883285A17832819
:1000F000541B8928DD1F7E28A2178328A213DA1F2C
:1001000082288328DA175D082206031D08000B10D9
:10011000080083168C128312DD1BDC28A213231A1D
:100120008328B920C520DE0A832883168C12831207
:100130005D1BDE282213231A8328B920C820DE0A7B
:10014000832883168C128312DD1AE028A212231B47
:100150008328BF20C520DF0A832883168C128312D0
:100160005D1AE2282212231B8328BF20C820DF0A41
:1001700083280330DB00A3162D30840008000330F1
:10018000DC00A31735308400080083170314CA2845
:1001900083170310800D8403800D8403800D840376
:1001A000800D8403800D8403800D8403800D8403FF
:1001B000800D840383170800A21783282217832841
:1001C000A2168328221683288C1218080639031DCC
:1001D000832B3314831203131A0883120313B10001
:1001E00032084E3C031C832BA03084003208840765
:1001F00031088000B20A3208013C03190A2932088A
:10020000023C031D0A293108453C031D0A290C3014
:10021000AF00942B32082F02031D942B8316210864
:100220008312103C031D1D29B3181D2983162608AF
:100230008312023EAF07B314942BFF30B800B9000D
:10024000AF032F03B200A03084000008AE27840A59
:10025000B20B252939080002031D832B840A3808B4
:100260000002031D832B8323A41583168C12831293
:100270000800A03084000317450803130002031987
:1002800045290008003E031D7E2B840A0008033C1C
:10029000031953290008063C0319AE290008453C00
:1002A0000319F7295F2B79220318612B43230318C5
:1002B000612B331F6029FF30BC08CE01CF013313FF
:1002C000B3128316230D8312103EB0008316240848
:1002D0008312AE008316250D8312AF005F222F0814
:1002E0008000840AAE27B20A3008A418223ED0004B
:1002F0000330D10050088400831700088313D20014
:10030000A03084005108840752088000D10AAE272B
:10031000B20AD00AAF0B7A29241CAC29231E9D29CE
:10032000DE0123120317A401A601A701A801A90158
:10033000AA01AB01AC01AD010313231FAC29DF01FE
:1003400023130317A501AE01AF01B001B101B20142
:10035000B301B401B5010313840A3E2A79220318BC
:10036000612BB319612B8316230D8312103E840079
:10037000831624088312831780008313840A83164C
:1003800025088312831780008313B31FD82903170E
:10039000100803138800031711080313D8000F393E
:1003A0008500581A85160310D80C580E0739890095
:1003B000B3135F2283166E0883128000840AAE276F
:1003C000B20A83166F0883128000840AAE27B20A2D
:1003D0008316240883128000840AAE27B20A83168B
:1003E000250883128000840AAE27B20A3E2AB3137E
:1003F000840A03173B0803130002031D832B840A9E
:1004000003173D0803130002031D832BB316840A50
:10041000840A840A00080317C100C0010313840A78
:1004200000080317C300C2010313840A000803175E
:10043000C500C4010313840A00080317C700C601DE
:1004400003135F2203173B0803138000840AAE27BF
:10045000B20A03173D0803138000840AAE27B20ACC
:1004600003173B0803138000840AAE27B20A031760
:100470003D0803138000840AAE27B20A39088000C1
:10048000840AB20A38088000840AB20A7122A030B5
:10049000840087160008D227840AB20B4A2A8712E2
:1004A000B31E832B8B138A150A12F0208A110A12AD
:1004B0008B178A110A12B3128A110A127E2BA030EE
:1004C0008400FF30B800B900B201031745080313D8
:1004D0008000840AAE27B20A0008840AAE27B20A56
:1004E0000800D53081000B110B1D742A0B118B12E3
:1004F00008003313B3132410A41083162308EF004D
:100500002208EE008312003E031D8F2A8316230863
:100510008312003E031D8F2AB317B3113E2B83169F
:1005200023088312FF3C0319A12A83162208831291
:10053000003E031DA12A0C2BB3158316A2018312C2
:100540003E2B02308316220283120319202B013026
:10055000831622028312031DBA2AF2308316230265
:100560008312031CBA2A83165C30A300A2018312F3
:10057000A4149C2A0130831622028312031CC62A6B
:100580008316230883128F3C031C1A2B8316220820
:100590008312013C031C402B831623088312003C6A
:1005A000031DD72A13308316A30083129C2A8316B7
:1005B00023088312013C031DE22A14308316A30092
:1005C00083129C2A831623088312023C031DED2A02
:1005D00015308316A30083129C2A831623088312E6
:1005E000033C031DF82A16308316A30083129C2AAD
:1005F0008316230883120E3C0318402B831623080E
:100600008312173C031C402BB31683160830A30734
:10061000A2018312B3113E2B831623088312123CCE
:10062000031C402B33178316230883120A3C03193B
:1006300024149C2A83167030A302A20183120A2B71
:10064000831623088312893C031C2D2B8316293023
:10065000A302A2018312A4149C2A831623088312E6
:10066000FF3C03193A2B83165230A302A2018312D6
:10067000A4149C2A8A150A12982C0028031008003A
:10068000031433130800831624088312003E031D4D
:100690005C2B8316250823078312683C031C5C2B04
:1006A0003317B31F5A2B831625088312013C031DF1
:1006B0005A2B3313031008000314331308000130BE
:1006C000622B02308316A2008312A0308400FF3018
:1006D000B800B900B2010317450803138000840A6B
:1006E000AE27B20A8316A11721088312840AAE2707
:1006F000B20A0008840AAE27B20A3E2A8A150A12F4
:10070000AB238A110A12B201331133100630B40040
:100710008312031318121816831203131A080830D1
:10072000AF00B310A41108000630B4008A150A12F5
:10073000AB238A110A120800831703100008013E38
:100740008000031CB62B840303100008013E8000C8
:10075000031CB62B840303100008013E8000031C19
:10076000B62B840303100008013E800083130800A9
:100770000C107F308E00F2308F006400A31ED02B4F
:10078000DB0BD02B0330DB002316A3125E0803170C
:10079000A4000313DE01A31BD02B83168C16831237
:1007A000A31FE22BDC0BE22B0330DC002317A31387
:1007B0005F080317A5000313DF01A31AE22B8316BA
:1007C0008C168312A10BFE2B6430A1008A150A122D
:1007D00022238A110A12ED3084009C23331EF92B48
:1007E000A00BF92B8A150A1241208A110A127E23C6
:1007F00033128A150A12B2228A110A12331C072CEC
:10080000B4033408003E031D072C83238C125A1CAA
:10081000112CE00B112C0230E0005A1053308400F0
:100820009C23DA1C1B2CE10B1B2C0230E100DA109C
:10083000573084009C235A1D252CE20B252C0230B6
:10084000E2005A115B3084009C23DA1D2F2CE30B4D
:100850002F2C0230E300DA115F3084009C235A1EF3
:10086000392CE40B392C0230E4005A126330840036
:100870009C23DA1E432CE50B432C0230E500DA12F0
:10088000673084009C235A1F4D2CE60B4D2C023000
:10089000E6005A136B3084009C23DA1F572CE70BB9
:1008A000572C0230E700DA136F3084009C23541E6B
:1008B0005B2C4E187E2C06186A2CD41D632C3A1C17
:1008C000792CBE0B7E2C3C144E1403171214031308
:1008D0003A107E2C3C1C7E2CD41D732C3A1C7B2C95
:1008E000BE0B7E2C3C104E140317121003133A104B
:1008F0007E2C3C187E2C0130BE003A14541E822CF3
:10090000CE18A52C8618912CD41D8A2CBA1CA02C8C
:10091000BF0BA52CBC14CE14031792140313BA10EA
:10092000A52CBC1CA52CD41D9A2CBA1CA22CBF0B28
:10093000A52CBC10CE14031792100313BA10A52CCB
:10094000BC18A52C0130BF00BA14541EA92C4E1996
:10095000CC2C0619B82CD41DB12C3A1DC72CC00BB9
:10096000CC2C3C154E150317121503133A11CC2C41
:100970003C1DCC2CD41DC12C3A1DC92CC00BCC2C39
:100980003C114E150317121103133A11CC2C3C19CC
:10099000CC2C0130C0003A15541ED02CCE19F32CAB
:1009A0008619DF2CD41DD82CBA1DEE2CC10BF32CCC
:1009B000BC15CE15031792150313BA11F32CBC1DE9
:1009C000F32CD41DE82CBA1DF02CC10BF32CBC1158
:1009D000CE15031792110313BA11F32CBC19F32C83
:1009E0000130C100BA15541EF72C4E1A1A2D061AE2
:1009F000062DD41DFF2C3A1E152DC20B1A2D3C16A8
:100A00004E160317121603133A121A2D3C1E1A2DF6
:100A1000D41D0F2D3A1E172DC20B1A2D3C124E1647
:100A20000317121203133A121A2D3C1A1A2D013011
:100A3000C2003A16541E1E2DCE1A412D861A2D2D97
:100A4000D41D262DBA1E3C2DC30B412DBC16CE162F
:100A5000031792160313BA12412DBC1E412DD41D4B
:100A6000362DBA1E3E2DC30B412DBC12CE160317D8
:100A700092120313BA12412DBC1A412D0130C3004A
:100A8000BA16541E452D4E1B682D061B542DD41D21
:100A90004D2D3A1F632DC40B682D3C174E170317BD
:100AA000121703133A13682D3C1F682DD41D5D2DBA
:100AB0003A1F652DC40B682D3C134E1703171213F4
:100AC00003133A13682D3C1B682D0130C4003A17FC
:100AD000541E6C2DCE1B8F2D861B7B2DD41D742D8B
:100AE000BA1F8A2DC50B8F2DBC17CE17031792176F
:100AF0000313BA138F2DBC1F8F2DD41D842DBA1F45
:100B00008C2DC50B8F2DBC13CE1703179213031317
:100B1000BA138F2DBC1B8F2D0130C500BA170508E5
:100B20000F39D700851A57160918D716891857177D
:100B30000919D7175608D7065518BD2D531CBD2DBA
:100B4000541EA42D4F18C72D5718B32DD41DAC2DEE
:100B50003B1CC22DC60BC72D3D144F140317131495
:100B600003133B10C72D3D1CC72DD41DBC2D3B1CB2
:100B7000C42DC60BC72D3D104F14031713100313BC
:100B80003B10C72D3D18C72D0130C6003B14D518AA
:100B9000E82DD31CE82D541ECF2DCF18F22DD718D9
:100BA000DE2DD41DD72DBB1CED2DC70BF22DBD1492
:100BB000CF14031793140313BB10F22DBD1CF22D99
:100BC000D41DE72DBB1CEF2DC70BF22DBD10CF148C
:100BD000031793100313BB10F22DBD18F22D013033
:100BE000C700BB145519132E531D132E541EFA2D76
:100BF0004F191D2E5719092ED41D022E3B1D182EDC
:100C0000C80B1D2E3D154F150317131503133B116C
:100C10001D2E3D1D1D2ED41D122E3B1D1A2EC80B40
:100C20001D2E3D114F150317131103133B111D2EDC
:100C30003D191D2E0130C8003B15D5193E2ED31D80
:100C40003E2E541E252ECF19482ED719342ED41DD2
:100C50002D2EBB1D432EC90B482EBD15CF150317D6
:100C600093150313BB11482EBD1D482ED41D3D2ED8
:100C7000BB1D452EC90B482EBD11CF15031793116F
:100C80000313BB11482EBD19482E0130C900BB15F6
:100C9000551A692E531E692E541E502E4F1A732E4C
:100CA000571A5F2ED41D582E3B1E6E2ECA0B732E64
:100CB0003D164F160317131603133B12732E3D1EDA
:100CC000732ED41D682E3B1E702ECA0B732E3D1240
:100CD0004F160317131203133B12732E3D1A732E74
:100CE0000130CA003B16D51A942ED31E942E541EE2
:100CF0007B2ECF1A9E2ED71A8A2ED41D832EBB1E72
:100D0000992ECB0B9E2EBD16CF16031793160313E9
:100D1000BB129E2EBD1E9E2ED41D932EBB1E9B2E3F
:100D2000CB0B9E2EBD12CF16031793120313BB12CB
:100D30009E2EBD1A9E2E0130CB00BB16551BBF2E1A
:100D4000531FBF2E541EA62E4F1BC92E571BB52E48
:100D5000D41DAE2E3B1FC42ECC0BC92E3D174F17F2
:100D60000317131703133B13C92E3D1FC92ED41DA0
:100D7000BE2E3B1FC62ECC0BC92E3D134F1703179B
:100D8000131303133B13C92E3D1BC92E0130CC0096
:100D90003B17D51BEA2ED31FEA2E541ED12ECF1B94
:100DA000F42ED71BE02ED41DD92EBB1FEF2ECD0B5A
:100DB000F42EBD17CF17031793170313BB13F42E8D
:100DC000BD1FF42ED41DE92EBB1FF12ECD0BF42E2A
:100DD000BD13CF17031793130313BB13F42EBD1BBF
:100DE000F42E0130CD00BB1710288A150A12C42337
:100DF0000A30FB0064000B178B176400A41D122F30
:100E0000640039216400A4118C1283168C1683129D
:100E1000241D122F64008A150A122C238A110A122B
:100E200064008B1764001430840055181A2F53186F
:100E30001A2F1F2F0317940195010313242F8312D8
:100E4000031381309F008F27D518292FD318292FFE
:100E50002E2F0317960197010313332F83120313C9
:100E600085309F008F275519382F5319382F3D2F64
:100E70000317980199010313422F8312031389303A
:100E80009F008F27D519472FD319472F4C2F0317B2
:100E90009A019B010313512F831203138D309F007E
:100EA0008F27551A562F531A562F5B2F03179C0165
:100EB0009D010313602F8312031391309F008F272E
:100EC000D51A652FD31A652F6A2F03179E019F012C
:100ED00003136F2F8312031395309F008F27551B29
:100EE000742F531B742F792F0317A001A101031333
:100EF0007E2F8312031399309F008F27D51B832FDA
:100F0000D31B832F882F0317A201A30103138D2F57
:100F1000831203139D309F008F276400FD2E000075
:100F200083120313FF30A500A50B942F8312031324
:100F30009F149F18992F831203131E088312031303
:100F4000831780008313840A831603131E088312F9
:100F50000313831780008313840A0800B500B700C9
:100F60000830B6003708B70C3708031CB82FBC2F61
:100F7000391CBE2F0314BE2F391803100318C12FBC
:100F8000CB2F381BC52F3817C62F3813B918CA2FC7
:100F9000B914CB2FB910B80CB90C3708B60BB32F56
:100FA00035080800B100AE000317C31BE82F031378
:100FB0000830AF00B0010310AE0C0318B00AAF0B3D
:100FC000DC2F03103018031483161810031818149C
:100FD000831203130C1EEA2F3108831203139900A6
:100FE00083160313981CF22F831203133108080091
:10100000031743080739C20003134730831603133D
:10101000990083120313031742080313013C0319B9
:1010200054282330831603139900831203130317E4
:1010300042080313023C031954281130831603138A
:10104000990083120313031742080313033C031987
:1010500054280B30831603139900831203130317CC
:1010600042080313043C0319542805308316031364
:10107000990083120313031742080313053C031955
:101080005428233083160313990083120313031784
:101090004308031378390317C20003130A300739D2
:1010A00003174207C30003130317C2016730C31BB2
:1010B0002630031383160313980083120313D030D2
:1010C0000317C31B9030031383120313980083127A
:1010D000031308000030831203178D008F01AE2127
:1010E00083120317C500C401AE2183120317BB008E
:1010F000BA01AE2183120317BD00BC01AE218312D9
:101100000317C100831203179100AE218312031746
:10111000C000831203179000831203138800AE21CE
:1011200083120317C300C20183120313D400AE213C
:1011300083120317C70083120313D500AE21831255
:101140000317BF00BE0183120313D300AE21B70003
:10115000B601AE21B800AE21B90083120313AE214F
:1011600083120317C80083120313A600AE21831253
:101170000317C90083120313A700AE2183120317BC
:10118000CA0083120313A800AE2183120317CB00F9
:1011900083120313A900AE2183120317CC0083121C
:1011A0000313AA00AE2183120317CD008312031389
:1011B000AB00AE2183120317CE0083120313AC00E1
:1011C000AE2183120317CF0083120313AD00AE21AB
:1011D00083120317BE0083120313D600562908009A
:1011E0000030831203178D008F018312031303173E
:1011F000450803139421831203178D0A8D0A831265
:101200000313031741080313942103174008031322
:1012100094210020031743080313D4009421831260
:101220000317470883120313D500942103173F08BF
:101230000313D30094210B30831203178D008F0109
:1012400083120313031748080313A60094210317FE
:1012500049080313A700942103174A080313A800A1
:10126000942103174B080313AD0094210F30831210
:1012700003178D008F018312031303174C08031308
:10128000AA00942103174D080313AB009421031700
:101290004E080313AC00942103174F080313AD004D
:1012A000942103173E080313D60094215309831693
:1012B0000317880083160317890183120313530849
:1012C000831203179305831203135508831603171C
:1012D000880583120313550983120313D200D21712
:1012E0005217D216551AD2125216520883160313E9
:1012F000850083120313550ED2005209D200520CFE
:101300000739831603138900831203130317110887
:101310000313D8000F398500581A85160310D80C0E
:10132000580E073989000800831203178C008316B2
:1013300003178C130C1555308D00AA308D008C14BA
:1013400064008C18A0290C11831203178D0A8312D4
:1013500003170C0864008312031308008316031795
:101360008C130C14831203170C088D0A0800F30168
:10137000F401F501F601F701F801F901FA01F001B4
:10138000F101EE010800F201711CC829F101122AD5
:101390001422EC01EC0AEF01F030E8001C223E229E
:1013A000ED000310ED0D3E22ED0409308A006D08BA
:1013B0008207DD29FE29FF29102A6C087006031D0B
:1013C000E5290230ED005422002A70086C02031C4B
:1013D000EF290130ED0054226C08EF00002A83222F
:1013E000E90009308A0069088207F9290230ED0016
:1013F000002A0130ED006C08EF00002AFF2954227A
:1014000003106D0C2922EC0A64006C08413C031D9A
:10141000CF296F08F0000319F10A0130F200122AF7
:10142000F001122A6400080087106D236D238714D1
:101430006D236D230800E8000830E900EA016A1016
:101440000310E80C03186A146A082922E90B1E2A03
:101450000800EA0087106A1887143A306E23871450
:10146000000008000830E9003E22EA0003106A1874
:101470000314E80CE90B342A680808008710000000
:101480008714831687148312EA010C308A150A1216
:101490006E2387186A142F306E238A150A126A0881
:1014A0008316871083120800A2220A308A006D0C6E
:1014B000013982076E2A03106B0D8207801708001E
:1014C00000170800801608000016080080150800A4
:1014D0000015080080140800001408000A308A0073
:1014E00003106B0D820780130800001308008012A0
:1014F0000800001208008011080000110800801088
:10150000080000100800A2220A308A0003106B0DA8
:101510006B078207801F00340134001F0034013440
:10152000801E00340134001E00340134801D00345C
:101530000134001D00340134801C00340134001CCF
:10154000003401346C033F3CEA000739EB00031020
:10155000EA0C0310EA0C0310EA0C733084006A08EA
:10156000840708002318C62A2608003E031DBC2A4B
:101570002708003E0319C52AA70BE62A2608003EC5
:101580000319C52AA603A703E62A23142319DD2A73
:101590002908003E0319CE2AA90BE62A03174A0898
:1015A0000313A800003E0319D82A23150711871535
:1015B00003174B080313A900E62AA80BE62A071510
:1015C0008711231103174A080313A800A318FA2A46
:1015D0002A08003E031DF02A2B08003E0319F92AB1
:1015E000AB0B08002A08003E0319F92AAA03AB0333
:1015F0000800A314A319102B2D08003E0319022B79
:10160000AD0B080003174E080313AC00003E03198E
:101610000B2BA315071603174F080313AD00080083
:10162000AC0B08000712A31103174E080313AC00FC
:101630008A150A12982C08001422CC301B22443040
:101640001B220800FB0B562B0A30FB006E08003EE5
:101650000319562B2415562B8B13071464001422E0
:1016600064005723BE301B226D03F3000310730D7B
:10167000903E84007C23FA007C23F300073C031C8B
:101680004A2B7308831780008313840A7A08831710
:10169000800083131C230710ED038A150A126D08BE
:1016A000003E031D562B6E08ED0024110800553036
:1016B0001B226D03F3000310730DF400F40D740D81
:1016C000A23E073E84000830F6008317000883130B
:1016D0001B228403F60B652B0800FF308316920053
:1016E00083120130920091018C10121564008C1C41
:1016F000762B12118C1008000830E9008823EA00CC
:1017000003106A180314E80CE90B7E2B6808080024
:10171000871000008714831687148312EA010C30A7
:101720008A150A129E2387186A142F309E238A1561
:101730000A126A0883168710831208008316920023
:1017400083120130920091018C1012158C1CA62B73
:1017500012118C10080033161E30A00003174A081F
:101760000313A80003174B080313A90007158711DB
:10177000231103174E080313AC0003174F0803137C
:10178000AD000712A31108006400792464008316D9
:10179000031387308100831203170030870088000D
:1017A00089008316031397018316031380309F006B
:1017B0008312031381309F008316031300309500BA
:1017C000831203130030850083160313FF30860055
:1017D00083120313FF30860083160313C030870083
:1017E00083120313C7308700831603130030880069
:1017F0008312031300308800083089006A2000201B
:101800008A110A127E237F308E00F2308F00313031
:101810009000013092008316FF3092008C108312EA
:1018200091018C100A30FB00FF30A1008A150A12CA
:101830006D236400A10B182CFB0B142C64008A157B
:101840000A128316031321308C0083120313060837
:1018500048308B0010308C0083160313FF30960045
:10186000831203138B120608BC00060903179200AB
:1018700003130030CE000330DB00DC00DE01DF01AB
:101880006430A100FF30A20064008A150A12B7215B
:1018900064008A150A12C3218A150A12721C752C5B
:1018A00003106E0DB900B90D390DA23ED100733091
:1018B000D0000830AF00500884000008D200510862
:1018C00084005208831780008313D10AD00AAF0B1B
:1018D0005B2CEE0A09306E06031D482C64001C23A5
:1018E00007106E08ED006430A10064008A110A122E
:1018F0000800213084005F30A00091241030840063
:101900006F30A0008924903084005F30A0008924CB
:1019100008000030831780008313840AA00B892CF1
:10192000080000308000840AA00B912CA001080060
:081930008312031705149B2C20
:02400E000A2383
:02401000FF3F70
:10420000010082000100000000001A000000C00050
:10421000F100000005000200580005001E00020029
:08422000580005006400FF00D6
:00000001FF
